{
	"Twitter_dApp/contracts/twitter.sol": {
		"twitter": {
			"abi": [
				{
					"inputs": [],
					"stateMutability": "nonpayable",
					"type": "constructor"
				},
				{
					"anonymous": false,
					"inputs": [
						{
							"indexed": false,
							"internalType": "uint256",
							"name": "_id",
							"type": "uint256"
						},
						{
							"indexed": false,
							"internalType": "address",
							"name": "_author",
							"type": "address"
						},
						{
							"indexed": false,
							"internalType": "uint256",
							"name": "_timestamp",
							"type": "uint256"
						},
						{
							"indexed": false,
							"internalType": "string",
							"name": "_content",
							"type": "string"
						}
					],
					"name": "tweetCreated",
					"type": "event"
				},
				{
					"anonymous": false,
					"inputs": [
						{
							"indexed": false,
							"internalType": "uint256",
							"name": "_id",
							"type": "uint256"
						},
						{
							"indexed": false,
							"internalType": "address",
							"name": "_author",
							"type": "address"
						},
						{
							"indexed": false,
							"internalType": "uint256",
							"name": "_timestamp",
							"type": "uint256"
						},
						{
							"indexed": false,
							"internalType": "uint256",
							"name": "_likes",
							"type": "uint256"
						}
					],
					"name": "tweetLiked",
					"type": "event"
				},
				{
					"anonymous": false,
					"inputs": [
						{
							"indexed": false,
							"internalType": "uint256",
							"name": "_id",
							"type": "uint256"
						},
						{
							"indexed": false,
							"internalType": "address",
							"name": "_author",
							"type": "address"
						},
						{
							"indexed": false,
							"internalType": "uint256",
							"name": "_timestamp",
							"type": "uint256"
						},
						{
							"indexed": false,
							"internalType": "uint256",
							"name": "_likes",
							"type": "uint256"
						}
					],
					"name": "tweetUnliked",
					"type": "event"
				},
				{
					"inputs": [
						{
							"internalType": "uint16",
							"name": "_newLength",
							"type": "uint16"
						}
					],
					"name": "changeTweetLength",
					"outputs": [],
					"stateMutability": "nonpayable",
					"type": "function"
				},
				{
					"inputs": [
						{
							"internalType": "address",
							"name": "",
							"type": "address"
						}
					],
					"name": "counter",
					"outputs": [
						{
							"internalType": "uint256",
							"name": "",
							"type": "uint256"
						}
					],
					"stateMutability": "view",
					"type": "function"
				},
				{
					"inputs": [
						{
							"internalType": "string",
							"name": "_tweet",
							"type": "string"
						}
					],
					"name": "createTweet",
					"outputs": [],
					"stateMutability": "nonpayable",
					"type": "function"
				},
				{
					"inputs": [
						{
							"internalType": "address",
							"name": "_owner",
							"type": "address"
						}
					],
					"name": "getAllTweets",
					"outputs": [
						{
							"internalType": "string[]",
							"name": "",
							"type": "string[]"
						}
					],
					"stateMutability": "view",
					"type": "function"
				},
				{
					"inputs": [
						{
							"internalType": "address",
							"name": "_owner",
							"type": "address"
						},
						{
							"internalType": "uint256",
							"name": "_id",
							"type": "uint256"
						}
					],
					"name": "getTweet",
					"outputs": [
						{
							"internalType": "string",
							"name": "",
							"type": "string"
						}
					],
					"stateMutability": "view",
					"type": "function"
				},
				{
					"inputs": [
						{
							"internalType": "address",
							"name": "",
							"type": "address"
						},
						{
							"internalType": "uint256",
							"name": "",
							"type": "uint256"
						},
						{
							"internalType": "address",
							"name": "",
							"type": "address"
						}
					],
					"name": "hasLiked",
					"outputs": [
						{
							"internalType": "bool",
							"name": "",
							"type": "bool"
						}
					],
					"stateMutability": "view",
					"type": "function"
				},
				{
					"inputs": [
						{
							"internalType": "address",
							"name": "_owner",
							"type": "address"
						},
						{
							"internalType": "uint256",
							"name": "_id",
							"type": "uint256"
						}
					],
					"name": "likeTweet",
					"outputs": [],
					"stateMutability": "nonpayable",
					"type": "function"
				},
				{
					"inputs": [
						{
							"internalType": "address",
							"name": "",
							"type": "address"
						},
						{
							"internalType": "uint256",
							"name": "",
							"type": "uint256"
						}
					],
					"name": "tweets",
					"outputs": [
						{
							"internalType": "uint256",
							"name": "id",
							"type": "uint256"
						},
						{
							"internalType": "address",
							"name": "author",
							"type": "address"
						},
						{
							"internalType": "uint256",
							"name": "timestamp",
							"type": "uint256"
						},
						{
							"internalType": "uint256",
							"name": "likes",
							"type": "uint256"
						},
						{
							"internalType": "string",
							"name": "content",
							"type": "string"
						}
					],
					"stateMutability": "view",
					"type": "function"
				},
				{
					"inputs": [
						{
							"internalType": "address",
							"name": "_owner",
							"type": "address"
						},
						{
							"internalType": "uint256",
							"name": "_id",
							"type": "uint256"
						}
					],
					"name": "unlikeTweet",
					"outputs": [],
					"stateMutability": "nonpayable",
					"type": "function"
				}
			],
			"devdoc": {
				"kind": "dev",
				"methods": {},
				"version": 1
			},
			"evm": {
				"assembly": "    /* \"Twitter_dApp/contracts/twitter.sol\":199:5100  contract twitter{... */\n  mstore(0x40, 0x80)\n    /* \"Twitter_dApp/contracts/twitter.sol\":270:348  constructor(){... */\n  callvalue\n  dup1\n  iszero\n  tag_1\n  jumpi\n  revert(0x00, 0x00)\ntag_1:\n  pop\n    /* \"Twitter_dApp/contracts/twitter.sol\":301:311  msg.sender */\n  caller\n    /* \"Twitter_dApp/contracts/twitter.sol\":293:298  admin */\n  0x00\n  0x02\n    /* \"Twitter_dApp/contracts/twitter.sol\":293:311  admin = msg.sender */\n  0x0100\n  exp\n  dup2\n  sload\n  dup2\n  0xffffffffffffffffffffffffffffffffffffffff\n  mul\n  not\n  and\n  swap1\n  dup4\n  0xffffffffffffffffffffffffffffffffffffffff\n  and\n  mul\n  or\n  swap1\n  sstore\n  pop\n    /* \"Twitter_dApp/contracts/twitter.sol\":338:341  280 */\n  0x0118\n    /* \"Twitter_dApp/contracts/twitter.sol\":321:335  maxTweetLength */\n  0x00\n  0x00\n    /* \"Twitter_dApp/contracts/twitter.sol\":321:341  maxTweetLength = 280 */\n  0x0100\n  exp\n  dup2\n  sload\n  dup2\n  0xffff\n  mul\n  not\n  and\n  swap1\n  dup4\n  0xffff\n  and\n  mul\n  or\n  swap1\n  sstore\n  pop\n    /* \"Twitter_dApp/contracts/twitter.sol\":199:5100  contract twitter{... */\n  dataSize(sub_0)\n  dup1\n  dataOffset(sub_0)\n  0x00\n  codecopy\n  0x00\n  return\nstop\n\nsub_0: assembly {\n        /* \"Twitter_dApp/contracts/twitter.sol\":199:5100  contract twitter{... */\n      mstore(0x40, 0x80)\n      callvalue\n      dup1\n      iszero\n      tag_1\n      jumpi\n      revert(0x00, 0x00)\n    tag_1:\n      pop\n      jumpi(tag_2, lt(calldatasize, 0x04))\n      shr(0xe0, calldataload(0x00))\n      dup1\n      0x4ddf8940\n      gt\n      tag_12\n      jumpi\n      dup1\n      0x4ddf8940\n      eq\n      tag_7\n      jumpi\n      dup1\n      0x58bfa4ab\n      eq\n      tag_8\n      jumpi\n      dup1\n      0x63378216\n      eq\n      tag_9\n      jumpi\n      dup1\n      0x7c9cd2bc\n      eq\n      tag_10\n      jumpi\n      dup1\n      0xc12327b8\n      eq\n      tag_11\n      jumpi\n      jump(tag_2)\n    tag_12:\n      dup1\n      0x05a1b4a9\n      eq\n      tag_3\n      jumpi\n      dup1\n      0x112f54e3\n      eq\n      tag_4\n      jumpi\n      dup1\n      0x12e7ee1c\n      eq\n      tag_5\n      jumpi\n      dup1\n      0x3d9b569f\n      eq\n      tag_6\n      jumpi\n    tag_2:\n      revert(0x00, 0x00)\n        /* \"Twitter_dApp/contracts/twitter.sol\":862:918  mapping(address => mapping(uint => Tweet)) public tweets */\n    tag_3:\n      tag_13\n      0x04\n      dup1\n      calldatasize\n      sub\n      dup2\n      add\n      swap1\n      tag_14\n      swap2\n      swap1\n      tag_15\n      jump\t// in\n    tag_14:\n      tag_16\n      jump\t// in\n    tag_13:\n      mload(0x40)\n      tag_17\n      swap6\n      swap5\n      swap4\n      swap3\n      swap2\n      swap1\n      tag_18\n      jump\t// in\n    tag_17:\n      mload(0x40)\n      dup1\n      swap2\n      sub\n      swap1\n      return\n        /* \"Twitter_dApp/contracts/twitter.sol\":2254:2385  function getTweet(address _owner, uint _id) external view returns(string memory){... */\n    tag_4:\n      tag_19\n      0x04\n      dup1\n      calldatasize\n      sub\n      dup2\n      add\n      swap1\n      tag_20\n      swap2\n      swap1\n      tag_15\n      jump\t// in\n    tag_20:\n      tag_21\n      jump\t// in\n    tag_19:\n      mload(0x40)\n      tag_22\n      swap2\n      swap1\n      tag_23\n      jump\t// in\n    tag_22:\n      mload(0x40)\n      dup1\n      swap2\n      sub\n      swap1\n      return\n        /* \"Twitter_dApp/contracts/twitter.sol\":2391:2845  function getAllTweets(address _owner) external view returns(string[] memory){... */\n    tag_5:\n      tag_24\n      0x04\n      dup1\n      calldatasize\n      sub\n      dup2\n      add\n      swap1\n      tag_25\n      swap2\n      swap1\n      tag_26\n      jump\t// in\n    tag_25:\n      tag_27\n      jump\t// in\n    tag_24:\n      mload(0x40)\n      tag_28\n      swap2\n      swap1\n      tag_29\n      jump\t// in\n    tag_28:\n      mload(0x40)\n      dup1\n      swap2\n      sub\n      swap1\n      return\n        /* \"Twitter_dApp/contracts/twitter.sol\":3284:3709  function unlikeTweet(address _owner, uint _id) external{... */\n    tag_6:\n      tag_30\n      0x04\n      dup1\n      calldatasize\n      sub\n      dup2\n      add\n      swap1\n      tag_31\n      swap2\n      swap1\n      tag_15\n      jump\t// in\n    tag_31:\n      tag_32\n      jump\t// in\n    tag_30:\n      stop\n        /* \"Twitter_dApp/contracts/twitter.sol\":924:1001  mapping(address => mapping(uint => mapping(address => bool))) public hasLiked */\n    tag_7:\n      tag_33\n      0x04\n      dup1\n      calldatasize\n      sub\n      dup2\n      add\n      swap1\n      tag_34\n      swap2\n      swap1\n      tag_35\n      jump\t// in\n    tag_34:\n      tag_36\n      jump\t// in\n    tag_33:\n      mload(0x40)\n      tag_37\n      swap2\n      swap1\n      tag_38\n      jump\t// in\n    tag_37:\n      mload(0x40)\n      dup1\n      swap2\n      sub\n      swap1\n      return\n        /* \"Twitter_dApp/contracts/twitter.sol\":1495:1604  function changeTweetLength(uint16 _newLength) public onlyAdmin() {... */\n    tag_8:\n      tag_39\n      0x04\n      dup1\n      calldatasize\n      sub\n      dup2\n      add\n      swap1\n      tag_40\n      swap2\n      swap1\n      tag_41\n      jump\t// in\n    tag_40:\n      tag_42\n      jump\t// in\n    tag_39:\n      stop\n        /* \"Twitter_dApp/contracts/twitter.sol\":2851:3278  function likeTweet(address _owner, uint _id) external {... */\n    tag_9:\n      tag_43\n      0x04\n      dup1\n      calldatasize\n      sub\n      dup2\n      add\n      swap1\n      tag_44\n      swap2\n      swap1\n      tag_15\n      jump\t// in\n    tag_44:\n      tag_45\n      jump\t// in\n    tag_43:\n      stop\n        /* \"Twitter_dApp/contracts/twitter.sol\":1609:2248  function createTweet(string memory _tweet) external{... */\n    tag_10:\n      tag_46\n      0x04\n      dup1\n      calldatasize\n      sub\n      dup2\n      add\n      swap1\n      tag_47\n      swap2\n      swap1\n      tag_48\n      jump\t// in\n    tag_47:\n      tag_49\n      jump\t// in\n    tag_46:\n      stop\n        /* \"Twitter_dApp/contracts/twitter.sol\":817:856  mapping(address => uint) public counter */\n    tag_11:\n      tag_50\n      0x04\n      dup1\n      calldatasize\n      sub\n      dup2\n      add\n      swap1\n      tag_51\n      swap2\n      swap1\n      tag_26\n      jump\t// in\n    tag_51:\n      tag_52\n      jump\t// in\n    tag_50:\n      mload(0x40)\n      tag_53\n      swap2\n      swap1\n      tag_54\n      jump\t// in\n    tag_53:\n      mload(0x40)\n      dup1\n      swap2\n      sub\n      swap1\n      return\n        /* \"Twitter_dApp/contracts/twitter.sol\":862:918  mapping(address => mapping(uint => Tweet)) public tweets */\n    tag_16:\n      mstore(0x20, 0x02)\n      dup2\n      0x00\n      mstore\n      mstore(0x20, keccak256(0x00, 0x40))\n      dup1\n      0x00\n      mstore\n      keccak256(0x00, 0x40)\n      0x00\n      swap2\n      pop\n      swap2\n      pop\n      pop\n      dup1\n      0x00\n      add\n      sload\n      swap1\n      dup1\n      0x01\n      add\n      0x00\n      swap1\n      sload\n      swap1\n      0x0100\n      exp\n      swap1\n      div\n      0xffffffffffffffffffffffffffffffffffffffff\n      and\n      swap1\n      dup1\n      0x02\n      add\n      sload\n      swap1\n      dup1\n      0x03\n      add\n      sload\n      swap1\n      dup1\n      0x04\n      add\n      dup1\n      sload\n      tag_55\n      swap1\n      tag_56\n      jump\t// in\n    tag_55:\n      dup1\n      0x1f\n      add\n      0x20\n      dup1\n      swap2\n      div\n      mul\n      0x20\n      add\n      mload(0x40)\n      swap1\n      dup2\n      add\n      0x40\n      mstore\n      dup1\n      swap3\n      swap2\n      swap1\n      dup2\n      dup2\n      mstore\n      0x20\n      add\n      dup3\n      dup1\n      sload\n      tag_57\n      swap1\n      tag_56\n      jump\t// in\n    tag_57:\n      dup1\n      iszero\n      tag_58\n      jumpi\n      dup1\n      0x1f\n      lt\n      tag_59\n      jumpi\n      0x0100\n      dup1\n      dup4\n      sload\n      div\n      mul\n      dup4\n      mstore\n      swap2\n      0x20\n      add\n      swap2\n      jump(tag_58)\n    tag_59:\n      dup3\n      add\n      swap2\n      swap1\n      0x00\n      mstore\n      keccak256(0x00, 0x20)\n      swap1\n    tag_60:\n      dup2\n      sload\n      dup2\n      mstore\n      swap1\n      0x01\n      add\n      swap1\n      0x20\n      add\n      dup1\n      dup4\n      gt\n      tag_60\n      jumpi\n      dup3\n      swap1\n      sub\n      0x1f\n      and\n      dup3\n      add\n      swap2\n    tag_58:\n      pop\n      pop\n      pop\n      pop\n      pop\n      swap1\n      pop\n      dup6\n      jump\t// out\n        /* \"Twitter_dApp/contracts/twitter.sol\":2254:2385  function getTweet(address _owner, uint _id) external view returns(string memory){... */\n    tag_21:\n        /* \"Twitter_dApp/contracts/twitter.sol\":2320:2333  string memory */\n      0x60\n        /* \"Twitter_dApp/contracts/twitter.sol\":2351:2357  tweets */\n      0x02\n        /* \"Twitter_dApp/contracts/twitter.sol\":2351:2365  tweets[_owner] */\n      0x00\n        /* \"Twitter_dApp/contracts/twitter.sol\":2358:2364  _owner */\n      dup5\n        /* \"Twitter_dApp/contracts/twitter.sol\":2351:2365  tweets[_owner] */\n      0xffffffffffffffffffffffffffffffffffffffff\n      and\n      0xffffffffffffffffffffffffffffffffffffffff\n      and\n      dup2\n      mstore\n      0x20\n      add\n      swap1\n      dup2\n      mstore\n      0x20\n      add\n      0x00\n      keccak256\n        /* \"Twitter_dApp/contracts/twitter.sol\":2351:2370  tweets[_owner][_id] */\n      0x00\n        /* \"Twitter_dApp/contracts/twitter.sol\":2366:2369  _id */\n      dup4\n        /* \"Twitter_dApp/contracts/twitter.sol\":2351:2370  tweets[_owner][_id] */\n      dup2\n      mstore\n      0x20\n      add\n      swap1\n      dup2\n      mstore\n      0x20\n      add\n      0x00\n      keccak256\n        /* \"Twitter_dApp/contracts/twitter.sol\":2351:2378  tweets[_owner][_id].content */\n      0x04\n      add\n        /* \"Twitter_dApp/contracts/twitter.sol\":2344:2378  return tweets[_owner][_id].content */\n      dup1\n      sload\n      tag_62\n      swap1\n      tag_56\n      jump\t// in\n    tag_62:\n      dup1\n      0x1f\n      add\n      0x20\n      dup1\n      swap2\n      div\n      mul\n      0x20\n      add\n      mload(0x40)\n      swap1\n      dup2\n      add\n      0x40\n      mstore\n      dup1\n      swap3\n      swap2\n      swap1\n      dup2\n      dup2\n      mstore\n      0x20\n      add\n      dup3\n      dup1\n      sload\n      tag_63\n      swap1\n      tag_56\n      jump\t// in\n    tag_63:\n      dup1\n      iszero\n      tag_64\n      jumpi\n      dup1\n      0x1f\n      lt\n      tag_65\n      jumpi\n      0x0100\n      dup1\n      dup4\n      sload\n      div\n      mul\n      dup4\n      mstore\n      swap2\n      0x20\n      add\n      swap2\n      jump(tag_64)\n    tag_65:\n      dup3\n      add\n      swap2\n      swap1\n      0x00\n      mstore\n      keccak256(0x00, 0x20)\n      swap1\n    tag_66:\n      dup2\n      sload\n      dup2\n      mstore\n      swap1\n      0x01\n      add\n      swap1\n      0x20\n      add\n      dup1\n      dup4\n      gt\n      tag_66\n      jumpi\n      dup3\n      swap1\n      sub\n      0x1f\n      and\n      dup3\n      add\n      swap2\n    tag_64:\n      pop\n      pop\n      pop\n      pop\n      pop\n      swap1\n      pop\n        /* \"Twitter_dApp/contracts/twitter.sol\":2254:2385  function getTweet(address _owner, uint _id) external view returns(string memory){... */\n      swap3\n      swap2\n      pop\n      pop\n      jump\t// out\n        /* \"Twitter_dApp/contracts/twitter.sol\":2391:2845  function getAllTweets(address _owner) external view returns(string[] memory){... */\n    tag_27:\n        /* \"Twitter_dApp/contracts/twitter.sol\":2451:2466  string[] memory */\n      0x60\n        /* \"Twitter_dApp/contracts/twitter.sol\":2477:2489  uint _length */\n      0x00\n        /* \"Twitter_dApp/contracts/twitter.sol\":2492:2499  counter */\n      0x01\n        /* \"Twitter_dApp/contracts/twitter.sol\":2492:2507  counter[_owner] */\n      0x00\n        /* \"Twitter_dApp/contracts/twitter.sol\":2500:2506  _owner */\n      dup5\n        /* \"Twitter_dApp/contracts/twitter.sol\":2492:2507  counter[_owner] */\n      0xffffffffffffffffffffffffffffffffffffffff\n      and\n      0xffffffffffffffffffffffffffffffffffffffff\n      and\n      dup2\n      mstore\n      0x20\n      add\n      swap1\n      dup2\n      mstore\n      0x20\n      add\n      0x00\n      keccak256\n      sload\n        /* \"Twitter_dApp/contracts/twitter.sol\":2477:2507  uint _length = counter[_owner] */\n      swap1\n      pop\n        /* \"Twitter_dApp/contracts/twitter.sol\":2656:2681  string[] memory allTweets */\n      0x00\n        /* \"Twitter_dApp/contracts/twitter.sol\":2697:2704  _length */\n      dup2\n        /* \"Twitter_dApp/contracts/twitter.sol\":2684:2705  new string[](_length) */\n      0xffffffffffffffff\n      dup2\n      gt\n      iszero\n      tag_68\n      jumpi\n      tag_69\n      tag_70\n      jump\t// in\n    tag_69:\n    tag_68:\n      mload(0x40)\n      swap1\n      dup1\n      dup3\n      mstore\n      dup1\n      0x20\n      mul\n      0x20\n      add\n      dup3\n      add\n      0x40\n      mstore\n      dup1\n      iszero\n      tag_71\n      jumpi\n      dup2\n      0x20\n      add\n    tag_72:\n      0x60\n      dup2\n      mstore\n      0x20\n      add\n      swap1\n      0x01\n      swap1\n      sub\n      swap1\n      dup2\n      tag_72\n      jumpi\n      swap1\n      pop\n    tag_71:\n      pop\n        /* \"Twitter_dApp/contracts/twitter.sol\":2656:2705  string[] memory allTweets = new string[](_length) */\n      swap1\n      pop\n        /* \"Twitter_dApp/contracts/twitter.sol\":2719:2725  uint i */\n      0x00\n        /* \"Twitter_dApp/contracts/twitter.sol\":2728:2729  0 */\n      0x00\n        /* \"Twitter_dApp/contracts/twitter.sol\":2719:2729  uint i = 0 */\n      swap1\n      pop\n        /* \"Twitter_dApp/contracts/twitter.sol\":2715:2813  for(uint i = 0; i < _length; i++){... */\n    tag_73:\n        /* \"Twitter_dApp/contracts/twitter.sol\":2735:2742  _length */\n      dup3\n        /* \"Twitter_dApp/contracts/twitter.sol\":2731:2732  i */\n      dup2\n        /* \"Twitter_dApp/contracts/twitter.sol\":2731:2742  i < _length */\n      lt\n        /* \"Twitter_dApp/contracts/twitter.sol\":2715:2813  for(uint i = 0; i < _length; i++){... */\n      iszero\n      tag_74\n      jumpi\n        /* \"Twitter_dApp/contracts/twitter.sol\":2777:2783  tweets */\n      0x02\n        /* \"Twitter_dApp/contracts/twitter.sol\":2777:2791  tweets[_owner] */\n      0x00\n        /* \"Twitter_dApp/contracts/twitter.sol\":2784:2790  _owner */\n      dup7\n        /* \"Twitter_dApp/contracts/twitter.sol\":2777:2791  tweets[_owner] */\n      0xffffffffffffffffffffffffffffffffffffffff\n      and\n      0xffffffffffffffffffffffffffffffffffffffff\n      and\n      dup2\n      mstore\n      0x20\n      add\n      swap1\n      dup2\n      mstore\n      0x20\n      add\n      0x00\n      keccak256\n        /* \"Twitter_dApp/contracts/twitter.sol\":2777:2794  tweets[_owner][i] */\n      0x00\n        /* \"Twitter_dApp/contracts/twitter.sol\":2792:2793  i */\n      dup3\n        /* \"Twitter_dApp/contracts/twitter.sol\":2777:2794  tweets[_owner][i] */\n      dup2\n      mstore\n      0x20\n      add\n      swap1\n      dup2\n      mstore\n      0x20\n      add\n      0x00\n      keccak256\n        /* \"Twitter_dApp/contracts/twitter.sol\":2777:2802  tweets[_owner][i].content */\n      0x04\n      add\n        /* \"Twitter_dApp/contracts/twitter.sol\":2762:2802  allTweets[i] = tweets[_owner][i].content */\n      dup1\n      sload\n      tag_76\n      swap1\n      tag_56\n      jump\t// in\n    tag_76:\n      dup1\n      0x1f\n      add\n      0x20\n      dup1\n      swap2\n      div\n      mul\n      0x20\n      add\n      mload(0x40)\n      swap1\n      dup2\n      add\n      0x40\n      mstore\n      dup1\n      swap3\n      swap2\n      swap1\n      dup2\n      dup2\n      mstore\n      0x20\n      add\n      dup3\n      dup1\n      sload\n      tag_77\n      swap1\n      tag_56\n      jump\t// in\n    tag_77:\n      dup1\n      iszero\n      tag_78\n      jumpi\n      dup1\n      0x1f\n      lt\n      tag_79\n      jumpi\n      0x0100\n      dup1\n      dup4\n      sload\n      div\n      mul\n      dup4\n      mstore\n      swap2\n      0x20\n      add\n      swap2\n      jump(tag_78)\n    tag_79:\n      dup3\n      add\n      swap2\n      swap1\n      0x00\n      mstore\n      keccak256(0x00, 0x20)\n      swap1\n    tag_80:\n      dup2\n      sload\n      dup2\n      mstore\n      swap1\n      0x01\n      add\n      swap1\n      0x20\n      add\n      dup1\n      dup4\n      gt\n      tag_80\n      jumpi\n      dup3\n      swap1\n      sub\n      0x1f\n      and\n      dup3\n      add\n      swap2\n    tag_78:\n      pop\n      pop\n      pop\n      pop\n      pop\n        /* \"Twitter_dApp/contracts/twitter.sol\":2762:2771  allTweets */\n      dup3\n        /* \"Twitter_dApp/contracts/twitter.sol\":2772:2773  i */\n      dup3\n        /* \"Twitter_dApp/contracts/twitter.sol\":2762:2774  allTweets[i] */\n      dup2\n      mload\n      dup2\n      lt\n      tag_81\n      jumpi\n      tag_82\n      tag_83\n      jump\t// in\n    tag_82:\n    tag_81:\n      0x20\n      mul\n      0x20\n      add\n      add\n        /* \"Twitter_dApp/contracts/twitter.sol\":2762:2802  allTweets[i] = tweets[_owner][i].content */\n      dup2\n      swap1\n      mstore\n      pop\n        /* \"Twitter_dApp/contracts/twitter.sol\":2744:2747  i++ */\n      dup1\n      dup1\n      0x01\n      add\n      swap2\n      pop\n      pop\n        /* \"Twitter_dApp/contracts/twitter.sol\":2715:2813  for(uint i = 0; i < _length; i++){... */\n      jump(tag_73)\n    tag_74:\n      pop\n        /* \"Twitter_dApp/contracts/twitter.sol\":2829:2838  allTweets */\n      dup1\n        /* \"Twitter_dApp/contracts/twitter.sol\":2822:2838  return allTweets */\n      swap3\n      pop\n      pop\n      pop\n        /* \"Twitter_dApp/contracts/twitter.sol\":2391:2845  function getAllTweets(address _owner) external view returns(string[] memory){... */\n      swap2\n      swap1\n      pop\n      jump\t// out\n        /* \"Twitter_dApp/contracts/twitter.sol\":3284:3709  function unlikeTweet(address _owner, uint _id) external{... */\n    tag_32:\n        /* \"Twitter_dApp/contracts/twitter.sol\":3363:3370  counter */\n      0x01\n        /* \"Twitter_dApp/contracts/twitter.sol\":3363:3378  counter[_owner] */\n      0x00\n        /* \"Twitter_dApp/contracts/twitter.sol\":3371:3377  _owner */\n      dup4\n        /* \"Twitter_dApp/contracts/twitter.sol\":3363:3378  counter[_owner] */\n      0xffffffffffffffffffffffffffffffffffffffff\n      and\n      0xffffffffffffffffffffffffffffffffffffffff\n      and\n      dup2\n      mstore\n      0x20\n      add\n      swap1\n      dup2\n      mstore\n      0x20\n      add\n      0x00\n      keccak256\n      sload\n        /* \"Twitter_dApp/contracts/twitter.sol\":3357:3360  _id */\n      dup2\n        /* \"Twitter_dApp/contracts/twitter.sol\":3357:3378  _id < counter[_owner] */\n      lt\n        /* \"Twitter_dApp/contracts/twitter.sol\":3349:3402  require(_id < counter[_owner], \"Error - no id found\") */\n      tag_85\n      jumpi\n      mload(0x40)\n      0x08c379a000000000000000000000000000000000000000000000000000000000\n      dup2\n      mstore\n      0x04\n      add\n      tag_86\n      swap1\n      tag_87\n      jump\t// in\n    tag_86:\n      mload(0x40)\n      dup1\n      swap2\n      sub\n      swap1\n      revert\n    tag_85:\n        /* \"Twitter_dApp/contracts/twitter.sol\":3420:3428  hasLiked */\n      0x03\n        /* \"Twitter_dApp/contracts/twitter.sol\":3420:3436  hasLiked[_owner] */\n      0x00\n        /* \"Twitter_dApp/contracts/twitter.sol\":3429:3435  _owner */\n      dup4\n        /* \"Twitter_dApp/contracts/twitter.sol\":3420:3436  hasLiked[_owner] */\n      0xffffffffffffffffffffffffffffffffffffffff\n      and\n      0xffffffffffffffffffffffffffffffffffffffff\n      and\n      dup2\n      mstore\n      0x20\n      add\n      swap1\n      dup2\n      mstore\n      0x20\n      add\n      0x00\n      keccak256\n        /* \"Twitter_dApp/contracts/twitter.sol\":3420:3441  hasLiked[_owner][_id] */\n      0x00\n        /* \"Twitter_dApp/contracts/twitter.sol\":3437:3440  _id */\n      dup3\n        /* \"Twitter_dApp/contracts/twitter.sol\":3420:3441  hasLiked[_owner][_id] */\n      dup2\n      mstore\n      0x20\n      add\n      swap1\n      dup2\n      mstore\n      0x20\n      add\n      0x00\n      keccak256\n        /* \"Twitter_dApp/contracts/twitter.sol\":3420:3453  hasLiked[_owner][_id][msg.sender] */\n      0x00\n        /* \"Twitter_dApp/contracts/twitter.sol\":3442:3452  msg.sender */\n      caller\n        /* \"Twitter_dApp/contracts/twitter.sol\":3420:3453  hasLiked[_owner][_id][msg.sender] */\n      0xffffffffffffffffffffffffffffffffffffffff\n      and\n      0xffffffffffffffffffffffffffffffffffffffff\n      and\n      dup2\n      mstore\n      0x20\n      add\n      swap1\n      dup2\n      mstore\n      0x20\n      add\n      0x00\n      keccak256\n      0x00\n      swap1\n      sload\n      swap1\n      0x0100\n      exp\n      swap1\n      div\n      0xff\n      and\n        /* \"Twitter_dApp/contracts/twitter.sol\":3412:3473  require(hasLiked[_owner][_id][msg.sender], \"Already unliked\") */\n      tag_88\n      jumpi\n      mload(0x40)\n      0x08c379a000000000000000000000000000000000000000000000000000000000\n      dup2\n      mstore\n      0x04\n      add\n      tag_89\n      swap1\n      tag_90\n      jump\t// in\n    tag_89:\n      mload(0x40)\n      dup1\n      swap2\n      sub\n      swap1\n      revert\n    tag_88:\n        /* \"Twitter_dApp/contracts/twitter.sol\":3484:3490  tweets */\n      0x02\n        /* \"Twitter_dApp/contracts/twitter.sol\":3484:3498  tweets[_owner] */\n      0x00\n        /* \"Twitter_dApp/contracts/twitter.sol\":3491:3497  _owner */\n      dup4\n        /* \"Twitter_dApp/contracts/twitter.sol\":3484:3498  tweets[_owner] */\n      0xffffffffffffffffffffffffffffffffffffffff\n      and\n      0xffffffffffffffffffffffffffffffffffffffff\n      and\n      dup2\n      mstore\n      0x20\n      add\n      swap1\n      dup2\n      mstore\n      0x20\n      add\n      0x00\n      keccak256\n        /* \"Twitter_dApp/contracts/twitter.sol\":3484:3503  tweets[_owner][_id] */\n      0x00\n        /* \"Twitter_dApp/contracts/twitter.sol\":3499:3502  _id */\n      dup3\n        /* \"Twitter_dApp/contracts/twitter.sol\":3484:3503  tweets[_owner][_id] */\n      dup2\n      mstore\n      0x20\n      add\n      swap1\n      dup2\n      mstore\n      0x20\n      add\n      0x00\n      keccak256\n        /* \"Twitter_dApp/contracts/twitter.sol\":3484:3509  tweets[_owner][_id].likes */\n      0x03\n      add\n      0x00\n        /* \"Twitter_dApp/contracts/twitter.sol\":3484:3512  tweets[_owner][_id].likes -- */\n      dup2\n      sload\n      dup1\n      swap3\n      swap2\n      swap1\n      tag_91\n      swap1\n      tag_92\n      jump\t// in\n    tag_91:\n      swap2\n      swap1\n      pop\n      sstore\n      pop\n        /* \"Twitter_dApp/contracts/twitter.sol\":3558:3563  false */\n      0x00\n        /* \"Twitter_dApp/contracts/twitter.sol\":3522:3530  hasLiked */\n      0x03\n        /* \"Twitter_dApp/contracts/twitter.sol\":3522:3538  hasLiked[_owner] */\n      0x00\n        /* \"Twitter_dApp/contracts/twitter.sol\":3531:3537  _owner */\n      dup5\n        /* \"Twitter_dApp/contracts/twitter.sol\":3522:3538  hasLiked[_owner] */\n      0xffffffffffffffffffffffffffffffffffffffff\n      and\n      0xffffffffffffffffffffffffffffffffffffffff\n      and\n      dup2\n      mstore\n      0x20\n      add\n      swap1\n      dup2\n      mstore\n      0x20\n      add\n      0x00\n      keccak256\n        /* \"Twitter_dApp/contracts/twitter.sol\":3522:3543  hasLiked[_owner][_id] */\n      0x00\n        /* \"Twitter_dApp/contracts/twitter.sol\":3539:3542  _id */\n      dup4\n        /* \"Twitter_dApp/contracts/twitter.sol\":3522:3543  hasLiked[_owner][_id] */\n      dup2\n      mstore\n      0x20\n      add\n      swap1\n      dup2\n      mstore\n      0x20\n      add\n      0x00\n      keccak256\n        /* \"Twitter_dApp/contracts/twitter.sol\":3522:3555  hasLiked[_owner][_id][msg.sender] */\n      0x00\n        /* \"Twitter_dApp/contracts/twitter.sol\":3544:3554  msg.sender */\n      caller\n        /* \"Twitter_dApp/contracts/twitter.sol\":3522:3555  hasLiked[_owner][_id][msg.sender] */\n      0xffffffffffffffffffffffffffffffffffffffff\n      and\n      0xffffffffffffffffffffffffffffffffffffffff\n      and\n      dup2\n      mstore\n      0x20\n      add\n      swap1\n      dup2\n      mstore\n      0x20\n      add\n      0x00\n      keccak256\n      0x00\n        /* \"Twitter_dApp/contracts/twitter.sol\":3522:3563  hasLiked[_owner][_id][msg.sender] = false */\n      0x0100\n      exp\n      dup2\n      sload\n      dup2\n      0xff\n      mul\n      not\n      and\n      swap1\n      dup4\n      iszero\n      iszero\n      mul\n      or\n      swap1\n      sstore\n      pop\n        /* \"Twitter_dApp/contracts/twitter.sol\":3579:3701  tweetUnliked(tweets[_owner][_id].id, tweets[_owner][_id].author, tweets[_owner][_id].timestamp, tweets[_owner][_id].likes) */\n      0x1ed3b0e892fd24a91dc7fd874f3f278041863c45bda1b3e1c6d4502f11176a74\n        /* \"Twitter_dApp/contracts/twitter.sol\":3592:3598  tweets */\n      0x02\n        /* \"Twitter_dApp/contracts/twitter.sol\":3592:3606  tweets[_owner] */\n      0x00\n        /* \"Twitter_dApp/contracts/twitter.sol\":3599:3605  _owner */\n      dup5\n        /* \"Twitter_dApp/contracts/twitter.sol\":3592:3606  tweets[_owner] */\n      0xffffffffffffffffffffffffffffffffffffffff\n      and\n      0xffffffffffffffffffffffffffffffffffffffff\n      and\n      dup2\n      mstore\n      0x20\n      add\n      swap1\n      dup2\n      mstore\n      0x20\n      add\n      0x00\n      keccak256\n        /* \"Twitter_dApp/contracts/twitter.sol\":3592:3611  tweets[_owner][_id] */\n      0x00\n        /* \"Twitter_dApp/contracts/twitter.sol\":3607:3610  _id */\n      dup4\n        /* \"Twitter_dApp/contracts/twitter.sol\":3592:3611  tweets[_owner][_id] */\n      dup2\n      mstore\n      0x20\n      add\n      swap1\n      dup2\n      mstore\n      0x20\n      add\n      0x00\n      keccak256\n        /* \"Twitter_dApp/contracts/twitter.sol\":3592:3614  tweets[_owner][_id].id */\n      0x00\n      add\n      sload\n        /* \"Twitter_dApp/contracts/twitter.sol\":3616:3622  tweets */\n      0x02\n        /* \"Twitter_dApp/contracts/twitter.sol\":3616:3630  tweets[_owner] */\n      0x00\n        /* \"Twitter_dApp/contracts/twitter.sol\":3623:3629  _owner */\n      dup6\n        /* \"Twitter_dApp/contracts/twitter.sol\":3616:3630  tweets[_owner] */\n      0xffffffffffffffffffffffffffffffffffffffff\n      and\n      0xffffffffffffffffffffffffffffffffffffffff\n      and\n      dup2\n      mstore\n      0x20\n      add\n      swap1\n      dup2\n      mstore\n      0x20\n      add\n      0x00\n      keccak256\n        /* \"Twitter_dApp/contracts/twitter.sol\":3616:3635  tweets[_owner][_id] */\n      0x00\n        /* \"Twitter_dApp/contracts/twitter.sol\":3631:3634  _id */\n      dup5\n        /* \"Twitter_dApp/contracts/twitter.sol\":3616:3635  tweets[_owner][_id] */\n      dup2\n      mstore\n      0x20\n      add\n      swap1\n      dup2\n      mstore\n      0x20\n      add\n      0x00\n      keccak256\n        /* \"Twitter_dApp/contracts/twitter.sol\":3616:3642  tweets[_owner][_id].author */\n      0x01\n      add\n      0x00\n      swap1\n      sload\n      swap1\n      0x0100\n      exp\n      swap1\n      div\n      0xffffffffffffffffffffffffffffffffffffffff\n      and\n        /* \"Twitter_dApp/contracts/twitter.sol\":3644:3650  tweets */\n      0x02\n        /* \"Twitter_dApp/contracts/twitter.sol\":3644:3658  tweets[_owner] */\n      0x00\n        /* \"Twitter_dApp/contracts/twitter.sol\":3651:3657  _owner */\n      dup7\n        /* \"Twitter_dApp/contracts/twitter.sol\":3644:3658  tweets[_owner] */\n      0xffffffffffffffffffffffffffffffffffffffff\n      and\n      0xffffffffffffffffffffffffffffffffffffffff\n      and\n      dup2\n      mstore\n      0x20\n      add\n      swap1\n      dup2\n      mstore\n      0x20\n      add\n      0x00\n      keccak256\n        /* \"Twitter_dApp/contracts/twitter.sol\":3644:3663  tweets[_owner][_id] */\n      0x00\n        /* \"Twitter_dApp/contracts/twitter.sol\":3659:3662  _id */\n      dup6\n        /* \"Twitter_dApp/contracts/twitter.sol\":3644:3663  tweets[_owner][_id] */\n      dup2\n      mstore\n      0x20\n      add\n      swap1\n      dup2\n      mstore\n      0x20\n      add\n      0x00\n      keccak256\n        /* \"Twitter_dApp/contracts/twitter.sol\":3644:3673  tweets[_owner][_id].timestamp */\n      0x02\n      add\n      sload\n        /* \"Twitter_dApp/contracts/twitter.sol\":3675:3681  tweets */\n      0x02\n        /* \"Twitter_dApp/contracts/twitter.sol\":3675:3689  tweets[_owner] */\n      0x00\n        /* \"Twitter_dApp/contracts/twitter.sol\":3682:3688  _owner */\n      dup8\n        /* \"Twitter_dApp/contracts/twitter.sol\":3675:3689  tweets[_owner] */\n      0xffffffffffffffffffffffffffffffffffffffff\n      and\n      0xffffffffffffffffffffffffffffffffffffffff\n      and\n      dup2\n      mstore\n      0x20\n      add\n      swap1\n      dup2\n      mstore\n      0x20\n      add\n      0x00\n      keccak256\n        /* \"Twitter_dApp/contracts/twitter.sol\":3675:3694  tweets[_owner][_id] */\n      0x00\n        /* \"Twitter_dApp/contracts/twitter.sol\":3690:3693  _id */\n      dup7\n        /* \"Twitter_dApp/contracts/twitter.sol\":3675:3694  tweets[_owner][_id] */\n      dup2\n      mstore\n      0x20\n      add\n      swap1\n      dup2\n      mstore\n      0x20\n      add\n      0x00\n      keccak256\n        /* \"Twitter_dApp/contracts/twitter.sol\":3675:3700  tweets[_owner][_id].likes */\n      0x03\n      add\n      sload\n        /* \"Twitter_dApp/contracts/twitter.sol\":3579:3701  tweetUnliked(tweets[_owner][_id].id, tweets[_owner][_id].author, tweets[_owner][_id].timestamp, tweets[_owner][_id].likes) */\n      mload(0x40)\n      tag_93\n      swap5\n      swap4\n      swap3\n      swap2\n      swap1\n      tag_94\n      jump\t// in\n    tag_93:\n      mload(0x40)\n      dup1\n      swap2\n      sub\n      swap1\n      log1\n        /* \"Twitter_dApp/contracts/twitter.sol\":3284:3709  function unlikeTweet(address _owner, uint _id) external{... */\n      pop\n      pop\n      jump\t// out\n        /* \"Twitter_dApp/contracts/twitter.sol\":924:1001  mapping(address => mapping(uint => mapping(address => bool))) public hasLiked */\n    tag_36:\n      mstore(0x20, 0x03)\n      dup3\n      0x00\n      mstore\n      mstore(0x20, keccak256(0x00, 0x40))\n      dup2\n      0x00\n      mstore\n      mstore(0x20, keccak256(0x00, 0x40))\n      dup1\n      0x00\n      mstore\n      keccak256(0x00, 0x40)\n      0x00\n      swap3\n      pop\n      swap3\n      pop\n      pop\n      swap1\n      sload\n      swap1\n      0x0100\n      exp\n      swap1\n      div\n      0xff\n      and\n      dup2\n      jump\t// out\n        /* \"Twitter_dApp/contracts/twitter.sol\":1495:1604  function changeTweetLength(uint16 _newLength) public onlyAdmin() {... */\n    tag_42:\n        /* \"Twitter_dApp/contracts/twitter.sol\":1302:1312  msg.sender */\n      caller\n        /* \"Twitter_dApp/contracts/twitter.sol\":1293:1312  admin == msg.sender */\n      0xffffffffffffffffffffffffffffffffffffffff\n      and\n        /* \"Twitter_dApp/contracts/twitter.sol\":1293:1298  admin */\n      0x00\n      0x02\n      swap1\n      sload\n      swap1\n      0x0100\n      exp\n      swap1\n      div\n      0xffffffffffffffffffffffffffffffffffffffff\n      and\n        /* \"Twitter_dApp/contracts/twitter.sol\":1293:1312  admin == msg.sender */\n      0xffffffffffffffffffffffffffffffffffffffff\n      and\n      eq\n        /* \"Twitter_dApp/contracts/twitter.sol\":1285:1338  require(admin == msg.sender, \"You are not the admin\") */\n      tag_96\n      jumpi\n      mload(0x40)\n      0x08c379a000000000000000000000000000000000000000000000000000000000\n      dup2\n      mstore\n      0x04\n      add\n      tag_97\n      swap1\n      tag_98\n      jump\t// in\n    tag_97:\n      mload(0x40)\n      dup1\n      swap2\n      sub\n      swap1\n      revert\n    tag_96:\n        /* \"Twitter_dApp/contracts/twitter.sol\":1587:1597  _newLength */\n      dup1\n        /* \"Twitter_dApp/contracts/twitter.sol\":1570:1584  maxTweetLength */\n      0x00\n      0x00\n        /* \"Twitter_dApp/contracts/twitter.sol\":1570:1597  maxTweetLength = _newLength */\n      0x0100\n      exp\n      dup2\n      sload\n      dup2\n      0xffff\n      mul\n      not\n      and\n      swap1\n      dup4\n      0xffff\n      and\n      mul\n      or\n      swap1\n      sstore\n      pop\n        /* \"Twitter_dApp/contracts/twitter.sol\":1495:1604  function changeTweetLength(uint16 _newLength) public onlyAdmin() {... */\n      pop\n      jump\t// out\n        /* \"Twitter_dApp/contracts/twitter.sol\":2851:3278  function likeTweet(address _owner, uint _id) external {... */\n    tag_45:\n        /* \"Twitter_dApp/contracts/twitter.sol\":2929:2936  counter */\n      0x01\n        /* \"Twitter_dApp/contracts/twitter.sol\":2929:2944  counter[_owner] */\n      0x00\n        /* \"Twitter_dApp/contracts/twitter.sol\":2937:2943  _owner */\n      dup4\n        /* \"Twitter_dApp/contracts/twitter.sol\":2929:2944  counter[_owner] */\n      0xffffffffffffffffffffffffffffffffffffffff\n      and\n      0xffffffffffffffffffffffffffffffffffffffff\n      and\n      dup2\n      mstore\n      0x20\n      add\n      swap1\n      dup2\n      mstore\n      0x20\n      add\n      0x00\n      keccak256\n      sload\n        /* \"Twitter_dApp/contracts/twitter.sol\":2923:2926  _id */\n      dup2\n        /* \"Twitter_dApp/contracts/twitter.sol\":2923:2944  _id < counter[_owner] */\n      lt\n        /* \"Twitter_dApp/contracts/twitter.sol\":2915:2968  require(_id < counter[_owner], \"Error - no id found\") */\n      tag_101\n      jumpi\n      mload(0x40)\n      0x08c379a000000000000000000000000000000000000000000000000000000000\n      dup2\n      mstore\n      0x04\n      add\n      tag_102\n      swap1\n      tag_87\n      jump\t// in\n    tag_102:\n      mload(0x40)\n      dup1\n      swap2\n      sub\n      swap1\n      revert\n    tag_101:\n        /* \"Twitter_dApp/contracts/twitter.sol\":3023:3028  false */\n      0x00\n        /* \"Twitter_dApp/contracts/twitter.sol\":2986:3028  hasLiked[_owner][_id][msg.sender] == false */\n      iszero\n      iszero\n        /* \"Twitter_dApp/contracts/twitter.sol\":2986:2994  hasLiked */\n      0x03\n        /* \"Twitter_dApp/contracts/twitter.sol\":2986:3002  hasLiked[_owner] */\n      0x00\n        /* \"Twitter_dApp/contracts/twitter.sol\":2995:3001  _owner */\n      dup5\n        /* \"Twitter_dApp/contracts/twitter.sol\":2986:3002  hasLiked[_owner] */\n      0xffffffffffffffffffffffffffffffffffffffff\n      and\n      0xffffffffffffffffffffffffffffffffffffffff\n      and\n      dup2\n      mstore\n      0x20\n      add\n      swap1\n      dup2\n      mstore\n      0x20\n      add\n      0x00\n      keccak256\n        /* \"Twitter_dApp/contracts/twitter.sol\":2986:3007  hasLiked[_owner][_id] */\n      0x00\n        /* \"Twitter_dApp/contracts/twitter.sol\":3003:3006  _id */\n      dup4\n        /* \"Twitter_dApp/contracts/twitter.sol\":2986:3007  hasLiked[_owner][_id] */\n      dup2\n      mstore\n      0x20\n      add\n      swap1\n      dup2\n      mstore\n      0x20\n      add\n      0x00\n      keccak256\n        /* \"Twitter_dApp/contracts/twitter.sol\":2986:3019  hasLiked[_owner][_id][msg.sender] */\n      0x00\n        /* \"Twitter_dApp/contracts/twitter.sol\":3008:3018  msg.sender */\n      caller\n        /* \"Twitter_dApp/contracts/twitter.sol\":2986:3019  hasLiked[_owner][_id][msg.sender] */\n      0xffffffffffffffffffffffffffffffffffffffff\n      and\n      0xffffffffffffffffffffffffffffffffffffffff\n      and\n      dup2\n      mstore\n      0x20\n      add\n      swap1\n      dup2\n      mstore\n      0x20\n      add\n      0x00\n      keccak256\n      0x00\n      swap1\n      sload\n      swap1\n      0x0100\n      exp\n      swap1\n      div\n      0xff\n      and\n        /* \"Twitter_dApp/contracts/twitter.sol\":2986:3028  hasLiked[_owner][_id][msg.sender] == false */\n      iszero\n      iszero\n      eq\n        /* \"Twitter_dApp/contracts/twitter.sol\":2978:3046  require(hasLiked[_owner][_id][msg.sender] == false, \"Already Liked\") */\n      tag_103\n      jumpi\n      mload(0x40)\n      0x08c379a000000000000000000000000000000000000000000000000000000000\n      dup2\n      mstore\n      0x04\n      add\n      tag_104\n      swap1\n      tag_105\n      jump\t// in\n    tag_104:\n      mload(0x40)\n      dup1\n      swap2\n      sub\n      swap1\n      revert\n    tag_103:\n        /* \"Twitter_dApp/contracts/twitter.sol\":3056:3062  tweets */\n      0x02\n        /* \"Twitter_dApp/contracts/twitter.sol\":3056:3070  tweets[_owner] */\n      0x00\n        /* \"Twitter_dApp/contracts/twitter.sol\":3063:3069  _owner */\n      dup4\n        /* \"Twitter_dApp/contracts/twitter.sol\":3056:3070  tweets[_owner] */\n      0xffffffffffffffffffffffffffffffffffffffff\n      and\n      0xffffffffffffffffffffffffffffffffffffffff\n      and\n      dup2\n      mstore\n      0x20\n      add\n      swap1\n      dup2\n      mstore\n      0x20\n      add\n      0x00\n      keccak256\n        /* \"Twitter_dApp/contracts/twitter.sol\":3056:3075  tweets[_owner][_id] */\n      0x00\n        /* \"Twitter_dApp/contracts/twitter.sol\":3071:3074  _id */\n      dup3\n        /* \"Twitter_dApp/contracts/twitter.sol\":3056:3075  tweets[_owner][_id] */\n      dup2\n      mstore\n      0x20\n      add\n      swap1\n      dup2\n      mstore\n      0x20\n      add\n      0x00\n      keccak256\n        /* \"Twitter_dApp/contracts/twitter.sol\":3056:3081  tweets[_owner][_id].likes */\n      0x03\n      add\n      0x00\n        /* \"Twitter_dApp/contracts/twitter.sol\":3056:3084  tweets[_owner][_id].likes ++ */\n      dup2\n      sload\n      dup1\n      swap3\n      swap2\n      swap1\n      tag_106\n      swap1\n      tag_107\n      jump\t// in\n    tag_106:\n      swap2\n      swap1\n      pop\n      sstore\n      pop\n        /* \"Twitter_dApp/contracts/twitter.sol\":3130:3134  true */\n      0x01\n        /* \"Twitter_dApp/contracts/twitter.sol\":3094:3102  hasLiked */\n      0x03\n        /* \"Twitter_dApp/contracts/twitter.sol\":3094:3110  hasLiked[_owner] */\n      0x00\n        /* \"Twitter_dApp/contracts/twitter.sol\":3103:3109  _owner */\n      dup5\n        /* \"Twitter_dApp/contracts/twitter.sol\":3094:3110  hasLiked[_owner] */\n      0xffffffffffffffffffffffffffffffffffffffff\n      and\n      0xffffffffffffffffffffffffffffffffffffffff\n      and\n      dup2\n      mstore\n      0x20\n      add\n      swap1\n      dup2\n      mstore\n      0x20\n      add\n      0x00\n      keccak256\n        /* \"Twitter_dApp/contracts/twitter.sol\":3094:3115  hasLiked[_owner][_id] */\n      0x00\n        /* \"Twitter_dApp/contracts/twitter.sol\":3111:3114  _id */\n      dup4\n        /* \"Twitter_dApp/contracts/twitter.sol\":3094:3115  hasLiked[_owner][_id] */\n      dup2\n      mstore\n      0x20\n      add\n      swap1\n      dup2\n      mstore\n      0x20\n      add\n      0x00\n      keccak256\n        /* \"Twitter_dApp/contracts/twitter.sol\":3094:3127  hasLiked[_owner][_id][msg.sender] */\n      0x00\n        /* \"Twitter_dApp/contracts/twitter.sol\":3116:3126  msg.sender */\n      caller\n        /* \"Twitter_dApp/contracts/twitter.sol\":3094:3127  hasLiked[_owner][_id][msg.sender] */\n      0xffffffffffffffffffffffffffffffffffffffff\n      and\n      0xffffffffffffffffffffffffffffffffffffffff\n      and\n      dup2\n      mstore\n      0x20\n      add\n      swap1\n      dup2\n      mstore\n      0x20\n      add\n      0x00\n      keccak256\n      0x00\n        /* \"Twitter_dApp/contracts/twitter.sol\":3094:3134  hasLiked[_owner][_id][msg.sender] = true */\n      0x0100\n      exp\n      dup2\n      sload\n      dup2\n      0xff\n      mul\n      not\n      and\n      swap1\n      dup4\n      iszero\n      iszero\n      mul\n      or\n      swap1\n      sstore\n      pop\n        /* \"Twitter_dApp/contracts/twitter.sol\":3151:3271  tweetLiked(tweets[_owner][_id].id, tweets[_owner][_id].author, tweets[_owner][_id].timestamp, tweets[_owner][_id].likes) */\n      0x10639a45dd565cfa30ae93cb0ea63755ce2bd3df8fa076b4a94845d5f35322ef\n        /* \"Twitter_dApp/contracts/twitter.sol\":3162:3168  tweets */\n      0x02\n        /* \"Twitter_dApp/contracts/twitter.sol\":3162:3176  tweets[_owner] */\n      0x00\n        /* \"Twitter_dApp/contracts/twitter.sol\":3169:3175  _owner */\n      dup5\n        /* \"Twitter_dApp/contracts/twitter.sol\":3162:3176  tweets[_owner] */\n      0xffffffffffffffffffffffffffffffffffffffff\n      and\n      0xffffffffffffffffffffffffffffffffffffffff\n      and\n      dup2\n      mstore\n      0x20\n      add\n      swap1\n      dup2\n      mstore\n      0x20\n      add\n      0x00\n      keccak256\n        /* \"Twitter_dApp/contracts/twitter.sol\":3162:3181  tweets[_owner][_id] */\n      0x00\n        /* \"Twitter_dApp/contracts/twitter.sol\":3177:3180  _id */\n      dup4\n        /* \"Twitter_dApp/contracts/twitter.sol\":3162:3181  tweets[_owner][_id] */\n      dup2\n      mstore\n      0x20\n      add\n      swap1\n      dup2\n      mstore\n      0x20\n      add\n      0x00\n      keccak256\n        /* \"Twitter_dApp/contracts/twitter.sol\":3162:3184  tweets[_owner][_id].id */\n      0x00\n      add\n      sload\n        /* \"Twitter_dApp/contracts/twitter.sol\":3186:3192  tweets */\n      0x02\n        /* \"Twitter_dApp/contracts/twitter.sol\":3186:3200  tweets[_owner] */\n      0x00\n        /* \"Twitter_dApp/contracts/twitter.sol\":3193:3199  _owner */\n      dup6\n        /* \"Twitter_dApp/contracts/twitter.sol\":3186:3200  tweets[_owner] */\n      0xffffffffffffffffffffffffffffffffffffffff\n      and\n      0xffffffffffffffffffffffffffffffffffffffff\n      and\n      dup2\n      mstore\n      0x20\n      add\n      swap1\n      dup2\n      mstore\n      0x20\n      add\n      0x00\n      keccak256\n        /* \"Twitter_dApp/contracts/twitter.sol\":3186:3205  tweets[_owner][_id] */\n      0x00\n        /* \"Twitter_dApp/contracts/twitter.sol\":3201:3204  _id */\n      dup5\n        /* \"Twitter_dApp/contracts/twitter.sol\":3186:3205  tweets[_owner][_id] */\n      dup2\n      mstore\n      0x20\n      add\n      swap1\n      dup2\n      mstore\n      0x20\n      add\n      0x00\n      keccak256\n        /* \"Twitter_dApp/contracts/twitter.sol\":3186:3212  tweets[_owner][_id].author */\n      0x01\n      add\n      0x00\n      swap1\n      sload\n      swap1\n      0x0100\n      exp\n      swap1\n      div\n      0xffffffffffffffffffffffffffffffffffffffff\n      and\n        /* \"Twitter_dApp/contracts/twitter.sol\":3214:3220  tweets */\n      0x02\n        /* \"Twitter_dApp/contracts/twitter.sol\":3214:3228  tweets[_owner] */\n      0x00\n        /* \"Twitter_dApp/contracts/twitter.sol\":3221:3227  _owner */\n      dup7\n        /* \"Twitter_dApp/contracts/twitter.sol\":3214:3228  tweets[_owner] */\n      0xffffffffffffffffffffffffffffffffffffffff\n      and\n      0xffffffffffffffffffffffffffffffffffffffff\n      and\n      dup2\n      mstore\n      0x20\n      add\n      swap1\n      dup2\n      mstore\n      0x20\n      add\n      0x00\n      keccak256\n        /* \"Twitter_dApp/contracts/twitter.sol\":3214:3233  tweets[_owner][_id] */\n      0x00\n        /* \"Twitter_dApp/contracts/twitter.sol\":3229:3232  _id */\n      dup6\n        /* \"Twitter_dApp/contracts/twitter.sol\":3214:3233  tweets[_owner][_id] */\n      dup2\n      mstore\n      0x20\n      add\n      swap1\n      dup2\n      mstore\n      0x20\n      add\n      0x00\n      keccak256\n        /* \"Twitter_dApp/contracts/twitter.sol\":3214:3243  tweets[_owner][_id].timestamp */\n      0x02\n      add\n      sload\n        /* \"Twitter_dApp/contracts/twitter.sol\":3245:3251  tweets */\n      0x02\n        /* \"Twitter_dApp/contracts/twitter.sol\":3245:3259  tweets[_owner] */\n      0x00\n        /* \"Twitter_dApp/contracts/twitter.sol\":3252:3258  _owner */\n      dup8\n        /* \"Twitter_dApp/contracts/twitter.sol\":3245:3259  tweets[_owner] */\n      0xffffffffffffffffffffffffffffffffffffffff\n      and\n      0xffffffffffffffffffffffffffffffffffffffff\n      and\n      dup2\n      mstore\n      0x20\n      add\n      swap1\n      dup2\n      mstore\n      0x20\n      add\n      0x00\n      keccak256\n        /* \"Twitter_dApp/contracts/twitter.sol\":3245:3264  tweets[_owner][_id] */\n      0x00\n        /* \"Twitter_dApp/contracts/twitter.sol\":3260:3263  _id */\n      dup7\n        /* \"Twitter_dApp/contracts/twitter.sol\":3245:3264  tweets[_owner][_id] */\n      dup2\n      mstore\n      0x20\n      add\n      swap1\n      dup2\n      mstore\n      0x20\n      add\n      0x00\n      keccak256\n        /* \"Twitter_dApp/contracts/twitter.sol\":3245:3270  tweets[_owner][_id].likes */\n      0x03\n      add\n      sload\n        /* \"Twitter_dApp/contracts/twitter.sol\":3151:3271  tweetLiked(tweets[_owner][_id].id, tweets[_owner][_id].author, tweets[_owner][_id].timestamp, tweets[_owner][_id].likes) */\n      mload(0x40)\n      tag_108\n      swap5\n      swap4\n      swap3\n      swap2\n      swap1\n      tag_94\n      jump\t// in\n    tag_108:\n      mload(0x40)\n      dup1\n      swap2\n      sub\n      swap1\n      log1\n        /* \"Twitter_dApp/contracts/twitter.sol\":2851:3278  function likeTweet(address _owner, uint _id) external {... */\n      pop\n      pop\n      jump\t// out\n        /* \"Twitter_dApp/contracts/twitter.sol\":1609:2248  function createTweet(string memory _tweet) external{... */\n    tag_49:\n        /* \"Twitter_dApp/contracts/twitter.sol\":1701:1702  0 */\n      0x00\n        /* \"Twitter_dApp/contracts/twitter.sol\":1684:1690  _tweet */\n      dup2\n        /* \"Twitter_dApp/contracts/twitter.sol\":1678:1698  bytes(_tweet).length */\n      mload\n        /* \"Twitter_dApp/contracts/twitter.sol\":1678:1702  bytes(_tweet).length > 0 */\n      gt\n        /* \"Twitter_dApp/contracts/twitter.sol\":1670:1729  require(bytes(_tweet).length > 0, \"Error - Invalid Length\") */\n      tag_110\n      jumpi\n      mload(0x40)\n      0x08c379a000000000000000000000000000000000000000000000000000000000\n      dup2\n      mstore\n      0x04\n      add\n      tag_111\n      swap1\n      tag_112\n      jump\t// in\n    tag_111:\n      mload(0x40)\n      dup1\n      swap2\n      sub\n      swap1\n      revert\n    tag_110:\n        /* \"Twitter_dApp/contracts/twitter.sol\":1771:1785  maxTweetLength */\n      0x00\n      0x00\n      swap1\n      sload\n      swap1\n      0x0100\n      exp\n      swap1\n      div\n      0xffff\n      and\n        /* \"Twitter_dApp/contracts/twitter.sol\":1747:1785  bytes(_tweet).length <= maxTweetLength */\n      0xffff\n      and\n        /* \"Twitter_dApp/contracts/twitter.sol\":1753:1759  _tweet */\n      dup2\n        /* \"Twitter_dApp/contracts/twitter.sol\":1747:1767  bytes(_tweet).length */\n      mload\n        /* \"Twitter_dApp/contracts/twitter.sol\":1747:1785  bytes(_tweet).length <= maxTweetLength */\n      gt\n      iszero\n        /* \"Twitter_dApp/contracts/twitter.sol\":1739:1812  require(bytes(_tweet).length <= maxTweetLength, \"Error - Tweet too Long\") */\n      tag_113\n      jumpi\n      mload(0x40)\n      0x08c379a000000000000000000000000000000000000000000000000000000000\n      dup2\n      mstore\n      0x04\n      add\n      tag_114\n      swap1\n      tag_115\n      jump\t// in\n    tag_114:\n      mload(0x40)\n      dup1\n      swap2\n      sub\n      swap1\n      revert\n    tag_113:\n        /* \"Twitter_dApp/contracts/twitter.sol\":1822:1830  uint _id */\n      0x00\n        /* \"Twitter_dApp/contracts/twitter.sol\":1833:1840  counter */\n      0x01\n        /* \"Twitter_dApp/contracts/twitter.sol\":1833:1852  counter[msg.sender] */\n      0x00\n        /* \"Twitter_dApp/contracts/twitter.sol\":1841:1851  msg.sender */\n      caller\n        /* \"Twitter_dApp/contracts/twitter.sol\":1833:1852  counter[msg.sender] */\n      0xffffffffffffffffffffffffffffffffffffffff\n      and\n      0xffffffffffffffffffffffffffffffffffffffff\n      and\n      dup2\n      mstore\n      0x20\n      add\n      swap1\n      dup2\n      mstore\n      0x20\n      add\n      0x00\n      keccak256\n      sload\n        /* \"Twitter_dApp/contracts/twitter.sol\":1822:1852  uint _id = counter[msg.sender] */\n      swap1\n      pop\n        /* \"Twitter_dApp/contracts/twitter.sol\":1889:2055  Tweet({... */\n      mload(0x40)\n      dup1\n      0xa0\n      add\n      0x40\n      mstore\n      dup1\n        /* \"Twitter_dApp/contracts/twitter.sol\":1914:1917  _id */\n      dup3\n        /* \"Twitter_dApp/contracts/twitter.sol\":1889:2055  Tweet({... */\n      dup2\n      mstore\n      0x20\n      add\n        /* \"Twitter_dApp/contracts/twitter.sol\":1940:1950  msg.sender */\n      caller\n        /* \"Twitter_dApp/contracts/twitter.sol\":1889:2055  Tweet({... */\n      0xffffffffffffffffffffffffffffffffffffffff\n      and\n      dup2\n      mstore\n      0x20\n      add\n        /* \"Twitter_dApp/contracts/twitter.sol\":1976:1991  block.timestamp */\n      timestamp\n        /* \"Twitter_dApp/contracts/twitter.sol\":1889:2055  Tweet({... */\n      dup2\n      mstore\n      0x20\n      add\n        /* \"Twitter_dApp/contracts/twitter.sol\":2013:2014  0 */\n      0x00\n        /* \"Twitter_dApp/contracts/twitter.sol\":1889:2055  Tweet({... */\n      dup2\n      mstore\n      0x20\n      add\n        /* \"Twitter_dApp/contracts/twitter.sol\":2038:2044  _tweet */\n      dup4\n        /* \"Twitter_dApp/contracts/twitter.sol\":1889:2055  Tweet({... */\n      dup2\n      mstore\n      pop\n        /* \"Twitter_dApp/contracts/twitter.sol\":1863:1869  tweets */\n      0x02\n        /* \"Twitter_dApp/contracts/twitter.sol\":1863:1881  tweets[msg.sender] */\n      0x00\n        /* \"Twitter_dApp/contracts/twitter.sol\":1870:1880  msg.sender */\n      caller\n        /* \"Twitter_dApp/contracts/twitter.sol\":1863:1881  tweets[msg.sender] */\n      0xffffffffffffffffffffffffffffffffffffffff\n      and\n      0xffffffffffffffffffffffffffffffffffffffff\n      and\n      dup2\n      mstore\n      0x20\n      add\n      swap1\n      dup2\n      mstore\n      0x20\n      add\n      0x00\n      keccak256\n        /* \"Twitter_dApp/contracts/twitter.sol\":1863:1886  tweets[msg.sender][_id] */\n      0x00\n        /* \"Twitter_dApp/contracts/twitter.sol\":1882:1885  _id */\n      dup4\n        /* \"Twitter_dApp/contracts/twitter.sol\":1863:1886  tweets[msg.sender][_id] */\n      dup2\n      mstore\n      0x20\n      add\n      swap1\n      dup2\n      mstore\n      0x20\n      add\n      0x00\n      keccak256\n        /* \"Twitter_dApp/contracts/twitter.sol\":1863:2055  tweets[msg.sender][_id] = Tweet({... */\n      0x00\n      dup3\n      add\n      mload\n      dup2\n      0x00\n      add\n      sstore\n      0x20\n      dup3\n      add\n      mload\n      dup2\n      0x01\n      add\n      exp(0x0100, 0x00)\n      dup2\n      sload\n      dup2\n      0xffffffffffffffffffffffffffffffffffffffff\n      mul\n      not\n      and\n      swap1\n      dup4\n      0xffffffffffffffffffffffffffffffffffffffff\n      and\n      mul\n      or\n      swap1\n      sstore\n      pop\n      0x40\n      dup3\n      add\n      mload\n      dup2\n      0x02\n      add\n      sstore\n      0x60\n      dup3\n      add\n      mload\n      dup2\n      0x03\n      add\n      sstore\n      0x80\n      dup3\n      add\n      mload\n      dup2\n      0x04\n      add\n      swap1\n      dup2\n      tag_116\n      swap2\n      swap1\n      tag_117\n      jump\t// in\n    tag_116:\n      pop\n      swap1\n      pop\n      pop\n        /* \"Twitter_dApp/contracts/twitter.sol\":2065:2072  counter */\n      0x01\n        /* \"Twitter_dApp/contracts/twitter.sol\":2065:2084  counter[msg.sender] */\n      0x00\n        /* \"Twitter_dApp/contracts/twitter.sol\":2073:2083  msg.sender */\n      caller\n        /* \"Twitter_dApp/contracts/twitter.sol\":2065:2084  counter[msg.sender] */\n      0xffffffffffffffffffffffffffffffffffffffff\n      and\n      0xffffffffffffffffffffffffffffffffffffffff\n      and\n      dup2\n      mstore\n      0x20\n      add\n      swap1\n      dup2\n      mstore\n      0x20\n      add\n      0x00\n      keccak256\n      0x00\n        /* \"Twitter_dApp/contracts/twitter.sol\":2065:2086  counter[msg.sender]++ */\n      dup2\n      sload\n      dup1\n      swap3\n      swap2\n      swap1\n      tag_118\n      swap1\n      tag_107\n      jump\t// in\n    tag_118:\n      swap2\n      swap1\n      pop\n      sstore\n      pop\n        /* \"Twitter_dApp/contracts/twitter.sol\":2101:2241  tweetCreated(tweets[msg.sender][_id].id, tweets[msg.sender][_id].author, tweets[msg.sender][_id].timestamp, tweets[msg.sender][_id].content) */\n      0x9381fc61e9d1cfa4ecb3d1a9722eff279da5249004b2723c7aebffb64d81a2c9\n        /* \"Twitter_dApp/contracts/twitter.sol\":2114:2120  tweets */\n      0x02\n        /* \"Twitter_dApp/contracts/twitter.sol\":2114:2132  tweets[msg.sender] */\n      0x00\n        /* \"Twitter_dApp/contracts/twitter.sol\":2121:2131  msg.sender */\n      caller\n        /* \"Twitter_dApp/contracts/twitter.sol\":2114:2132  tweets[msg.sender] */\n      0xffffffffffffffffffffffffffffffffffffffff\n      and\n      0xffffffffffffffffffffffffffffffffffffffff\n      and\n      dup2\n      mstore\n      0x20\n      add\n      swap1\n      dup2\n      mstore\n      0x20\n      add\n      0x00\n      keccak256\n        /* \"Twitter_dApp/contracts/twitter.sol\":2114:2137  tweets[msg.sender][_id] */\n      0x00\n        /* \"Twitter_dApp/contracts/twitter.sol\":2133:2136  _id */\n      dup4\n        /* \"Twitter_dApp/contracts/twitter.sol\":2114:2137  tweets[msg.sender][_id] */\n      dup2\n      mstore\n      0x20\n      add\n      swap1\n      dup2\n      mstore\n      0x20\n      add\n      0x00\n      keccak256\n        /* \"Twitter_dApp/contracts/twitter.sol\":2114:2140  tweets[msg.sender][_id].id */\n      0x00\n      add\n      sload\n        /* \"Twitter_dApp/contracts/twitter.sol\":2142:2148  tweets */\n      0x02\n        /* \"Twitter_dApp/contracts/twitter.sol\":2142:2160  tweets[msg.sender] */\n      0x00\n        /* \"Twitter_dApp/contracts/twitter.sol\":2149:2159  msg.sender */\n      caller\n        /* \"Twitter_dApp/contracts/twitter.sol\":2142:2160  tweets[msg.sender] */\n      0xffffffffffffffffffffffffffffffffffffffff\n      and\n      0xffffffffffffffffffffffffffffffffffffffff\n      and\n      dup2\n      mstore\n      0x20\n      add\n      swap1\n      dup2\n      mstore\n      0x20\n      add\n      0x00\n      keccak256\n        /* \"Twitter_dApp/contracts/twitter.sol\":2142:2165  tweets[msg.sender][_id] */\n      0x00\n        /* \"Twitter_dApp/contracts/twitter.sol\":2161:2164  _id */\n      dup5\n        /* \"Twitter_dApp/contracts/twitter.sol\":2142:2165  tweets[msg.sender][_id] */\n      dup2\n      mstore\n      0x20\n      add\n      swap1\n      dup2\n      mstore\n      0x20\n      add\n      0x00\n      keccak256\n        /* \"Twitter_dApp/contracts/twitter.sol\":2142:2172  tweets[msg.sender][_id].author */\n      0x01\n      add\n      0x00\n      swap1\n      sload\n      swap1\n      0x0100\n      exp\n      swap1\n      div\n      0xffffffffffffffffffffffffffffffffffffffff\n      and\n        /* \"Twitter_dApp/contracts/twitter.sol\":2174:2180  tweets */\n      0x02\n        /* \"Twitter_dApp/contracts/twitter.sol\":2174:2192  tweets[msg.sender] */\n      0x00\n        /* \"Twitter_dApp/contracts/twitter.sol\":2181:2191  msg.sender */\n      caller\n        /* \"Twitter_dApp/contracts/twitter.sol\":2174:2192  tweets[msg.sender] */\n      0xffffffffffffffffffffffffffffffffffffffff\n      and\n      0xffffffffffffffffffffffffffffffffffffffff\n      and\n      dup2\n      mstore\n      0x20\n      add\n      swap1\n      dup2\n      mstore\n      0x20\n      add\n      0x00\n      keccak256\n        /* \"Twitter_dApp/contracts/twitter.sol\":2174:2197  tweets[msg.sender][_id] */\n      0x00\n        /* \"Twitter_dApp/contracts/twitter.sol\":2193:2196  _id */\n      dup6\n        /* \"Twitter_dApp/contracts/twitter.sol\":2174:2197  tweets[msg.sender][_id] */\n      dup2\n      mstore\n      0x20\n      add\n      swap1\n      dup2\n      mstore\n      0x20\n      add\n      0x00\n      keccak256\n        /* \"Twitter_dApp/contracts/twitter.sol\":2174:2207  tweets[msg.sender][_id].timestamp */\n      0x02\n      add\n      sload\n        /* \"Twitter_dApp/contracts/twitter.sol\":2209:2215  tweets */\n      0x02\n        /* \"Twitter_dApp/contracts/twitter.sol\":2209:2227  tweets[msg.sender] */\n      0x00\n        /* \"Twitter_dApp/contracts/twitter.sol\":2216:2226  msg.sender */\n      caller\n        /* \"Twitter_dApp/contracts/twitter.sol\":2209:2227  tweets[msg.sender] */\n      0xffffffffffffffffffffffffffffffffffffffff\n      and\n      0xffffffffffffffffffffffffffffffffffffffff\n      and\n      dup2\n      mstore\n      0x20\n      add\n      swap1\n      dup2\n      mstore\n      0x20\n      add\n      0x00\n      keccak256\n        /* \"Twitter_dApp/contracts/twitter.sol\":2209:2232  tweets[msg.sender][_id] */\n      0x00\n        /* \"Twitter_dApp/contracts/twitter.sol\":2228:2231  _id */\n      dup7\n        /* \"Twitter_dApp/contracts/twitter.sol\":2209:2232  tweets[msg.sender][_id] */\n      dup2\n      mstore\n      0x20\n      add\n      swap1\n      dup2\n      mstore\n      0x20\n      add\n      0x00\n      keccak256\n        /* \"Twitter_dApp/contracts/twitter.sol\":2209:2240  tweets[msg.sender][_id].content */\n      0x04\n      add\n        /* \"Twitter_dApp/contracts/twitter.sol\":2101:2241  tweetCreated(tweets[msg.sender][_id].id, tweets[msg.sender][_id].author, tweets[msg.sender][_id].timestamp, tweets[msg.sender][_id].content) */\n      mload(0x40)\n      tag_119\n      swap5\n      swap4\n      swap3\n      swap2\n      swap1\n      tag_120\n      jump\t// in\n    tag_119:\n      mload(0x40)\n      dup1\n      swap2\n      sub\n      swap1\n      log1\n        /* \"Twitter_dApp/contracts/twitter.sol\":1660:2248  {... */\n      pop\n        /* \"Twitter_dApp/contracts/twitter.sol\":1609:2248  function createTweet(string memory _tweet) external{... */\n      pop\n      jump\t// out\n        /* \"Twitter_dApp/contracts/twitter.sol\":817:856  mapping(address => uint) public counter */\n    tag_52:\n      mstore(0x20, 0x01)\n      dup1\n      0x00\n      mstore\n      keccak256(0x00, 0x40)\n      0x00\n      swap2\n      pop\n      swap1\n      pop\n      sload\n      dup2\n      jump\t// out\n        /* \"#utility.yul\":7:82   */\n    tag_121:\n        /* \"#utility.yul\":40:46   */\n      0x00\n        /* \"#utility.yul\":73:75   */\n      0x40\n        /* \"#utility.yul\":67:76   */\n      mload\n        /* \"#utility.yul\":57:76   */\n      swap1\n      pop\n        /* \"#utility.yul\":7:82   */\n      swap1\n      jump\t// out\n        /* \"#utility.yul\":88:205   */\n    tag_122:\n        /* \"#utility.yul\":197:198   */\n      0x00\n        /* \"#utility.yul\":194:195   */\n      0x00\n        /* \"#utility.yul\":187:199   */\n      revert\n        /* \"#utility.yul\":211:328   */\n    tag_123:\n        /* \"#utility.yul\":320:321   */\n      0x00\n        /* \"#utility.yul\":317:318   */\n      0x00\n        /* \"#utility.yul\":310:322   */\n      revert\n        /* \"#utility.yul\":334:460   */\n    tag_124:\n        /* \"#utility.yul\":371:378   */\n      0x00\n        /* \"#utility.yul\":411:453   */\n      0xffffffffffffffffffffffffffffffffffffffff\n        /* \"#utility.yul\":404:409   */\n      dup3\n        /* \"#utility.yul\":400:454   */\n      and\n        /* \"#utility.yul\":389:454   */\n      swap1\n      pop\n        /* \"#utility.yul\":334:460   */\n      swap2\n      swap1\n      pop\n      jump\t// out\n        /* \"#utility.yul\":466:562   */\n    tag_125:\n        /* \"#utility.yul\":503:510   */\n      0x00\n        /* \"#utility.yul\":532:556   */\n      tag_195\n        /* \"#utility.yul\":550:555   */\n      dup3\n        /* \"#utility.yul\":532:556   */\n      tag_124\n      jump\t// in\n    tag_195:\n        /* \"#utility.yul\":521:556   */\n      swap1\n      pop\n        /* \"#utility.yul\":466:562   */\n      swap2\n      swap1\n      pop\n      jump\t// out\n        /* \"#utility.yul\":568:690   */\n    tag_126:\n        /* \"#utility.yul\":641:665   */\n      tag_197\n        /* \"#utility.yul\":659:664   */\n      dup2\n        /* \"#utility.yul\":641:665   */\n      tag_125\n      jump\t// in\n    tag_197:\n        /* \"#utility.yul\":634:639   */\n      dup2\n        /* \"#utility.yul\":631:666   */\n      eq\n        /* \"#utility.yul\":621:684   */\n      tag_198\n      jumpi\n        /* \"#utility.yul\":680:681   */\n      0x00\n        /* \"#utility.yul\":677:678   */\n      0x00\n        /* \"#utility.yul\":670:682   */\n      revert\n        /* \"#utility.yul\":621:684   */\n    tag_198:\n        /* \"#utility.yul\":568:690   */\n      pop\n      jump\t// out\n        /* \"#utility.yul\":696:835   */\n    tag_127:\n        /* \"#utility.yul\":742:747   */\n      0x00\n        /* \"#utility.yul\":780:786   */\n      dup2\n        /* \"#utility.yul\":767:787   */\n      calldataload\n        /* \"#utility.yul\":758:787   */\n      swap1\n      pop\n        /* \"#utility.yul\":796:829   */\n      tag_200\n        /* \"#utility.yul\":823:828   */\n      dup2\n        /* \"#utility.yul\":796:829   */\n      tag_126\n      jump\t// in\n    tag_200:\n        /* \"#utility.yul\":696:835   */\n      swap3\n      swap2\n      pop\n      pop\n      jump\t// out\n        /* \"#utility.yul\":841:918   */\n    tag_128:\n        /* \"#utility.yul\":878:885   */\n      0x00\n        /* \"#utility.yul\":907:912   */\n      dup2\n        /* \"#utility.yul\":896:912   */\n      swap1\n      pop\n        /* \"#utility.yul\":841:918   */\n      swap2\n      swap1\n      pop\n      jump\t// out\n        /* \"#utility.yul\":924:1046   */\n    tag_129:\n        /* \"#utility.yul\":997:1021   */\n      tag_203\n        /* \"#utility.yul\":1015:1020   */\n      dup2\n        /* \"#utility.yul\":997:1021   */\n      tag_128\n      jump\t// in\n    tag_203:\n        /* \"#utility.yul\":990:995   */\n      dup2\n        /* \"#utility.yul\":987:1022   */\n      eq\n        /* \"#utility.yul\":977:1040   */\n      tag_204\n      jumpi\n        /* \"#utility.yul\":1036:1037   */\n      0x00\n        /* \"#utility.yul\":1033:1034   */\n      0x00\n        /* \"#utility.yul\":1026:1038   */\n      revert\n        /* \"#utility.yul\":977:1040   */\n    tag_204:\n        /* \"#utility.yul\":924:1046   */\n      pop\n      jump\t// out\n        /* \"#utility.yul\":1052:1191   */\n    tag_130:\n        /* \"#utility.yul\":1098:1103   */\n      0x00\n        /* \"#utility.yul\":1136:1142   */\n      dup2\n        /* \"#utility.yul\":1123:1143   */\n      calldataload\n        /* \"#utility.yul\":1114:1143   */\n      swap1\n      pop\n        /* \"#utility.yul\":1152:1185   */\n      tag_206\n        /* \"#utility.yul\":1179:1184   */\n      dup2\n        /* \"#utility.yul\":1152:1185   */\n      tag_129\n      jump\t// in\n    tag_206:\n        /* \"#utility.yul\":1052:1191   */\n      swap3\n      swap2\n      pop\n      pop\n      jump\t// out\n        /* \"#utility.yul\":1197:1671   */\n    tag_15:\n        /* \"#utility.yul\":1265:1271   */\n      0x00\n        /* \"#utility.yul\":1273:1279   */\n      0x00\n        /* \"#utility.yul\":1322:1324   */\n      0x40\n        /* \"#utility.yul\":1310:1319   */\n      dup4\n        /* \"#utility.yul\":1301:1308   */\n      dup6\n        /* \"#utility.yul\":1297:1320   */\n      sub\n        /* \"#utility.yul\":1293:1325   */\n      slt\n        /* \"#utility.yul\":1290:1409   */\n      iszero\n      tag_208\n      jumpi\n        /* \"#utility.yul\":1328:1407   */\n      tag_209\n      tag_122\n      jump\t// in\n    tag_209:\n        /* \"#utility.yul\":1290:1409   */\n    tag_208:\n        /* \"#utility.yul\":1448:1449   */\n      0x00\n        /* \"#utility.yul\":1473:1526   */\n      tag_210\n        /* \"#utility.yul\":1518:1525   */\n      dup6\n        /* \"#utility.yul\":1509:1515   */\n      dup3\n        /* \"#utility.yul\":1498:1507   */\n      dup7\n        /* \"#utility.yul\":1494:1516   */\n      add\n        /* \"#utility.yul\":1473:1526   */\n      tag_127\n      jump\t// in\n    tag_210:\n        /* \"#utility.yul\":1463:1526   */\n      swap3\n      pop\n        /* \"#utility.yul\":1419:1536   */\n      pop\n        /* \"#utility.yul\":1575:1577   */\n      0x20\n        /* \"#utility.yul\":1601:1654   */\n      tag_211\n        /* \"#utility.yul\":1646:1653   */\n      dup6\n        /* \"#utility.yul\":1637:1643   */\n      dup3\n        /* \"#utility.yul\":1626:1635   */\n      dup7\n        /* \"#utility.yul\":1622:1644   */\n      add\n        /* \"#utility.yul\":1601:1654   */\n      tag_130\n      jump\t// in\n    tag_211:\n        /* \"#utility.yul\":1591:1654   */\n      swap2\n      pop\n        /* \"#utility.yul\":1546:1664   */\n      pop\n        /* \"#utility.yul\":1197:1671   */\n      swap3\n      pop\n      swap3\n      swap1\n      pop\n      jump\t// out\n        /* \"#utility.yul\":1677:1795   */\n    tag_131:\n        /* \"#utility.yul\":1764:1788   */\n      tag_213\n        /* \"#utility.yul\":1782:1787   */\n      dup2\n        /* \"#utility.yul\":1764:1788   */\n      tag_128\n      jump\t// in\n    tag_213:\n        /* \"#utility.yul\":1759:1762   */\n      dup3\n        /* \"#utility.yul\":1752:1789   */\n      mstore\n        /* \"#utility.yul\":1677:1795   */\n      pop\n      pop\n      jump\t// out\n        /* \"#utility.yul\":1801:1919   */\n    tag_132:\n        /* \"#utility.yul\":1888:1912   */\n      tag_215\n        /* \"#utility.yul\":1906:1911   */\n      dup2\n        /* \"#utility.yul\":1888:1912   */\n      tag_125\n      jump\t// in\n    tag_215:\n        /* \"#utility.yul\":1883:1886   */\n      dup3\n        /* \"#utility.yul\":1876:1913   */\n      mstore\n        /* \"#utility.yul\":1801:1919   */\n      pop\n      pop\n      jump\t// out\n        /* \"#utility.yul\":1925:2024   */\n    tag_133:\n        /* \"#utility.yul\":1977:1983   */\n      0x00\n        /* \"#utility.yul\":2011:2016   */\n      dup2\n        /* \"#utility.yul\":2005:2017   */\n      mload\n        /* \"#utility.yul\":1995:2017   */\n      swap1\n      pop\n        /* \"#utility.yul\":1925:2024   */\n      swap2\n      swap1\n      pop\n      jump\t// out\n        /* \"#utility.yul\":2030:2199   */\n    tag_134:\n        /* \"#utility.yul\":2114:2125   */\n      0x00\n        /* \"#utility.yul\":2148:2154   */\n      dup3\n        /* \"#utility.yul\":2143:2146   */\n      dup3\n        /* \"#utility.yul\":2136:2155   */\n      mstore\n        /* \"#utility.yul\":2188:2192   */\n      0x20\n        /* \"#utility.yul\":2183:2186   */\n      dup3\n        /* \"#utility.yul\":2179:2193   */\n      add\n        /* \"#utility.yul\":2164:2193   */\n      swap1\n      pop\n        /* \"#utility.yul\":2030:2199   */\n      swap3\n      swap2\n      pop\n      pop\n      jump\t// out\n        /* \"#utility.yul\":2205:2344   */\n    tag_135:\n        /* \"#utility.yul\":2294:2300   */\n      dup3\n        /* \"#utility.yul\":2289:2292   */\n      dup2\n        /* \"#utility.yul\":2284:2287   */\n      dup4\n        /* \"#utility.yul\":2278:2301   */\n      mcopy\n        /* \"#utility.yul\":2335:2336   */\n      0x00\n        /* \"#utility.yul\":2326:2332   */\n      dup4\n        /* \"#utility.yul\":2321:2324   */\n      dup4\n        /* \"#utility.yul\":2317:2333   */\n      add\n        /* \"#utility.yul\":2310:2337   */\n      mstore\n        /* \"#utility.yul\":2205:2344   */\n      pop\n      pop\n      pop\n      jump\t// out\n        /* \"#utility.yul\":2350:2452   */\n    tag_136:\n        /* \"#utility.yul\":2391:2397   */\n      0x00\n        /* \"#utility.yul\":2442:2444   */\n      0x1f\n        /* \"#utility.yul\":2438:2445   */\n      not\n        /* \"#utility.yul\":2433:2435   */\n      0x1f\n        /* \"#utility.yul\":2426:2431   */\n      dup4\n        /* \"#utility.yul\":2422:2436   */\n      add\n        /* \"#utility.yul\":2418:2446   */\n      and\n        /* \"#utility.yul\":2408:2446   */\n      swap1\n      pop\n        /* \"#utility.yul\":2350:2452   */\n      swap2\n      swap1\n      pop\n      jump\t// out\n        /* \"#utility.yul\":2458:2835   */\n    tag_137:\n        /* \"#utility.yul\":2546:2549   */\n      0x00\n        /* \"#utility.yul\":2574:2613   */\n      tag_221\n        /* \"#utility.yul\":2607:2612   */\n      dup3\n        /* \"#utility.yul\":2574:2613   */\n      tag_133\n      jump\t// in\n    tag_221:\n        /* \"#utility.yul\":2629:2700   */\n      tag_222\n        /* \"#utility.yul\":2693:2699   */\n      dup2\n        /* \"#utility.yul\":2688:2691   */\n      dup6\n        /* \"#utility.yul\":2629:2700   */\n      tag_134\n      jump\t// in\n    tag_222:\n        /* \"#utility.yul\":2622:2700   */\n      swap4\n      pop\n        /* \"#utility.yul\":2709:2774   */\n      tag_223\n        /* \"#utility.yul\":2767:2773   */\n      dup2\n        /* \"#utility.yul\":2762:2765   */\n      dup6\n        /* \"#utility.yul\":2755:2759   */\n      0x20\n        /* \"#utility.yul\":2748:2753   */\n      dup7\n        /* \"#utility.yul\":2744:2760   */\n      add\n        /* \"#utility.yul\":2709:2774   */\n      tag_135\n      jump\t// in\n    tag_223:\n        /* \"#utility.yul\":2799:2828   */\n      tag_224\n        /* \"#utility.yul\":2821:2827   */\n      dup2\n        /* \"#utility.yul\":2799:2828   */\n      tag_136\n      jump\t// in\n    tag_224:\n        /* \"#utility.yul\":2794:2797   */\n      dup5\n        /* \"#utility.yul\":2790:2829   */\n      add\n        /* \"#utility.yul\":2783:2829   */\n      swap2\n      pop\n        /* \"#utility.yul\":2550:2835   */\n      pop\n        /* \"#utility.yul\":2458:2835   */\n      swap3\n      swap2\n      pop\n      pop\n      jump\t// out\n        /* \"#utility.yul\":2841:3596   */\n    tag_18:\n        /* \"#utility.yul\":3066:3070   */\n      0x00\n        /* \"#utility.yul\":3104:3107   */\n      0xa0\n        /* \"#utility.yul\":3093:3102   */\n      dup3\n        /* \"#utility.yul\":3089:3108   */\n      add\n        /* \"#utility.yul\":3081:3108   */\n      swap1\n      pop\n        /* \"#utility.yul\":3118:3189   */\n      tag_226\n        /* \"#utility.yul\":3186:3187   */\n      0x00\n        /* \"#utility.yul\":3175:3184   */\n      dup4\n        /* \"#utility.yul\":3171:3188   */\n      add\n        /* \"#utility.yul\":3162:3168   */\n      dup9\n        /* \"#utility.yul\":3118:3189   */\n      tag_131\n      jump\t// in\n    tag_226:\n        /* \"#utility.yul\":3199:3271   */\n      tag_227\n        /* \"#utility.yul\":3267:3269   */\n      0x20\n        /* \"#utility.yul\":3256:3265   */\n      dup4\n        /* \"#utility.yul\":3252:3270   */\n      add\n        /* \"#utility.yul\":3243:3249   */\n      dup8\n        /* \"#utility.yul\":3199:3271   */\n      tag_132\n      jump\t// in\n    tag_227:\n        /* \"#utility.yul\":3281:3353   */\n      tag_228\n        /* \"#utility.yul\":3349:3351   */\n      0x40\n        /* \"#utility.yul\":3338:3347   */\n      dup4\n        /* \"#utility.yul\":3334:3352   */\n      add\n        /* \"#utility.yul\":3325:3331   */\n      dup7\n        /* \"#utility.yul\":3281:3353   */\n      tag_131\n      jump\t// in\n    tag_228:\n        /* \"#utility.yul\":3363:3435   */\n      tag_229\n        /* \"#utility.yul\":3431:3433   */\n      0x60\n        /* \"#utility.yul\":3420:3429   */\n      dup4\n        /* \"#utility.yul\":3416:3434   */\n      add\n        /* \"#utility.yul\":3407:3413   */\n      dup6\n        /* \"#utility.yul\":3363:3435   */\n      tag_131\n      jump\t// in\n    tag_229:\n        /* \"#utility.yul\":3483:3492   */\n      dup2\n        /* \"#utility.yul\":3477:3481   */\n      dup2\n        /* \"#utility.yul\":3473:3493   */\n      sub\n        /* \"#utility.yul\":3467:3470   */\n      0x80\n        /* \"#utility.yul\":3456:3465   */\n      dup4\n        /* \"#utility.yul\":3452:3471   */\n      add\n        /* \"#utility.yul\":3445:3494   */\n      mstore\n        /* \"#utility.yul\":3511:3589   */\n      tag_230\n        /* \"#utility.yul\":3584:3588   */\n      dup2\n        /* \"#utility.yul\":3575:3581   */\n      dup5\n        /* \"#utility.yul\":3511:3589   */\n      tag_137\n      jump\t// in\n    tag_230:\n        /* \"#utility.yul\":3503:3589   */\n      swap1\n      pop\n        /* \"#utility.yul\":2841:3596   */\n      swap7\n      swap6\n      pop\n      pop\n      pop\n      pop\n      pop\n      pop\n      jump\t// out\n        /* \"#utility.yul\":3602:3915   */\n    tag_23:\n        /* \"#utility.yul\":3715:3719   */\n      0x00\n        /* \"#utility.yul\":3753:3755   */\n      0x20\n        /* \"#utility.yul\":3742:3751   */\n      dup3\n        /* \"#utility.yul\":3738:3756   */\n      add\n        /* \"#utility.yul\":3730:3756   */\n      swap1\n      pop\n        /* \"#utility.yul\":3802:3811   */\n      dup2\n        /* \"#utility.yul\":3796:3800   */\n      dup2\n        /* \"#utility.yul\":3792:3812   */\n      sub\n        /* \"#utility.yul\":3788:3789   */\n      0x00\n        /* \"#utility.yul\":3777:3786   */\n      dup4\n        /* \"#utility.yul\":3773:3790   */\n      add\n        /* \"#utility.yul\":3766:3813   */\n      mstore\n        /* \"#utility.yul\":3830:3908   */\n      tag_232\n        /* \"#utility.yul\":3903:3907   */\n      dup2\n        /* \"#utility.yul\":3894:3900   */\n      dup5\n        /* \"#utility.yul\":3830:3908   */\n      tag_137\n      jump\t// in\n    tag_232:\n        /* \"#utility.yul\":3822:3908   */\n      swap1\n      pop\n        /* \"#utility.yul\":3602:3915   */\n      swap3\n      swap2\n      pop\n      pop\n      jump\t// out\n        /* \"#utility.yul\":3921:4250   */\n    tag_26:\n        /* \"#utility.yul\":3980:3986   */\n      0x00\n        /* \"#utility.yul\":4029:4031   */\n      0x20\n        /* \"#utility.yul\":4017:4026   */\n      dup3\n        /* \"#utility.yul\":4008:4015   */\n      dup5\n        /* \"#utility.yul\":4004:4027   */\n      sub\n        /* \"#utility.yul\":4000:4032   */\n      slt\n        /* \"#utility.yul\":3997:4116   */\n      iszero\n      tag_234\n      jumpi\n        /* \"#utility.yul\":4035:4114   */\n      tag_235\n      tag_122\n      jump\t// in\n    tag_235:\n        /* \"#utility.yul\":3997:4116   */\n    tag_234:\n        /* \"#utility.yul\":4155:4156   */\n      0x00\n        /* \"#utility.yul\":4180:4233   */\n      tag_236\n        /* \"#utility.yul\":4225:4232   */\n      dup5\n        /* \"#utility.yul\":4216:4222   */\n      dup3\n        /* \"#utility.yul\":4205:4214   */\n      dup6\n        /* \"#utility.yul\":4201:4223   */\n      add\n        /* \"#utility.yul\":4180:4233   */\n      tag_127\n      jump\t// in\n    tag_236:\n        /* \"#utility.yul\":4170:4233   */\n      swap2\n      pop\n        /* \"#utility.yul\":4126:4243   */\n      pop\n        /* \"#utility.yul\":3921:4250   */\n      swap3\n      swap2\n      pop\n      pop\n      jump\t// out\n        /* \"#utility.yul\":4256:4380   */\n    tag_138:\n        /* \"#utility.yul\":4333:4339   */\n      0x00\n        /* \"#utility.yul\":4367:4372   */\n      dup2\n        /* \"#utility.yul\":4361:4373   */\n      mload\n        /* \"#utility.yul\":4351:4373   */\n      swap1\n      pop\n        /* \"#utility.yul\":4256:4380   */\n      swap2\n      swap1\n      pop\n      jump\t// out\n        /* \"#utility.yul\":4386:4580   */\n    tag_139:\n        /* \"#utility.yul\":4495:4506   */\n      0x00\n        /* \"#utility.yul\":4529:4535   */\n      dup3\n        /* \"#utility.yul\":4524:4527   */\n      dup3\n        /* \"#utility.yul\":4517:4536   */\n      mstore\n        /* \"#utility.yul\":4569:4573   */\n      0x20\n        /* \"#utility.yul\":4564:4567   */\n      dup3\n        /* \"#utility.yul\":4560:4574   */\n      add\n        /* \"#utility.yul\":4545:4574   */\n      swap1\n      pop\n        /* \"#utility.yul\":4386:4580   */\n      swap3\n      swap2\n      pop\n      pop\n      jump\t// out\n        /* \"#utility.yul\":4586:4728   */\n    tag_140:\n        /* \"#utility.yul\":4663:4667   */\n      0x00\n        /* \"#utility.yul\":4686:4689   */\n      dup2\n        /* \"#utility.yul\":4678:4689   */\n      swap1\n      pop\n        /* \"#utility.yul\":4716:4720   */\n      0x20\n        /* \"#utility.yul\":4711:4714   */\n      dup3\n        /* \"#utility.yul\":4707:4721   */\n      add\n        /* \"#utility.yul\":4699:4721   */\n      swap1\n      pop\n        /* \"#utility.yul\":4586:4728   */\n      swap2\n      swap1\n      pop\n      jump\t// out\n        /* \"#utility.yul\":4734:4893   */\n    tag_141:\n        /* \"#utility.yul\":4808:4819   */\n      0x00\n        /* \"#utility.yul\":4842:4848   */\n      dup3\n        /* \"#utility.yul\":4837:4840   */\n      dup3\n        /* \"#utility.yul\":4830:4849   */\n      mstore\n        /* \"#utility.yul\":4882:4886   */\n      0x20\n        /* \"#utility.yul\":4877:4880   */\n      dup3\n        /* \"#utility.yul\":4873:4887   */\n      add\n        /* \"#utility.yul\":4858:4887   */\n      swap1\n      pop\n        /* \"#utility.yul\":4734:4893   */\n      swap3\n      swap2\n      pop\n      pop\n      jump\t// out\n        /* \"#utility.yul\":4899:5256   */\n    tag_142:\n        /* \"#utility.yul\":4977:4980   */\n      0x00\n        /* \"#utility.yul\":5005:5044   */\n      tag_242\n        /* \"#utility.yul\":5038:5043   */\n      dup3\n        /* \"#utility.yul\":5005:5044   */\n      tag_133\n      jump\t// in\n    tag_242:\n        /* \"#utility.yul\":5060:5121   */\n      tag_243\n        /* \"#utility.yul\":5114:5120   */\n      dup2\n        /* \"#utility.yul\":5109:5112   */\n      dup6\n        /* \"#utility.yul\":5060:5121   */\n      tag_141\n      jump\t// in\n    tag_243:\n        /* \"#utility.yul\":5053:5121   */\n      swap4\n      pop\n        /* \"#utility.yul\":5130:5195   */\n      tag_244\n        /* \"#utility.yul\":5188:5194   */\n      dup2\n        /* \"#utility.yul\":5183:5186   */\n      dup6\n        /* \"#utility.yul\":5176:5180   */\n      0x20\n        /* \"#utility.yul\":5169:5174   */\n      dup7\n        /* \"#utility.yul\":5165:5181   */\n      add\n        /* \"#utility.yul\":5130:5195   */\n      tag_135\n      jump\t// in\n    tag_244:\n        /* \"#utility.yul\":5220:5249   */\n      tag_245\n        /* \"#utility.yul\":5242:5248   */\n      dup2\n        /* \"#utility.yul\":5220:5249   */\n      tag_136\n      jump\t// in\n    tag_245:\n        /* \"#utility.yul\":5215:5218   */\n      dup5\n        /* \"#utility.yul\":5211:5250   */\n      add\n        /* \"#utility.yul\":5204:5250   */\n      swap2\n      pop\n        /* \"#utility.yul\":4981:5256   */\n      pop\n        /* \"#utility.yul\":4899:5256   */\n      swap3\n      swap2\n      pop\n      pop\n      jump\t// out\n        /* \"#utility.yul\":5262:5458   */\n    tag_143:\n        /* \"#utility.yul\":5351:5361   */\n      0x00\n        /* \"#utility.yul\":5386:5452   */\n      tag_247\n        /* \"#utility.yul\":5448:5451   */\n      dup4\n        /* \"#utility.yul\":5440:5446   */\n      dup4\n        /* \"#utility.yul\":5386:5452   */\n      tag_142\n      jump\t// in\n    tag_247:\n        /* \"#utility.yul\":5372:5452   */\n      swap1\n      pop\n        /* \"#utility.yul\":5262:5458   */\n      swap3\n      swap2\n      pop\n      pop\n      jump\t// out\n        /* \"#utility.yul\":5464:5587   */\n    tag_144:\n        /* \"#utility.yul\":5544:5548   */\n      0x00\n        /* \"#utility.yul\":5576:5580   */\n      0x20\n        /* \"#utility.yul\":5571:5574   */\n      dup3\n        /* \"#utility.yul\":5567:5581   */\n      add\n        /* \"#utility.yul\":5559:5581   */\n      swap1\n      pop\n        /* \"#utility.yul\":5464:5587   */\n      swap2\n      swap1\n      pop\n      jump\t// out\n        /* \"#utility.yul\":5621:6612   */\n    tag_145:\n        /* \"#utility.yul\":5760:5763   */\n      0x00\n        /* \"#utility.yul\":5789:5853   */\n      tag_250\n        /* \"#utility.yul\":5847:5852   */\n      dup3\n        /* \"#utility.yul\":5789:5853   */\n      tag_138\n      jump\t// in\n    tag_250:\n        /* \"#utility.yul\":5869:5965   */\n      tag_251\n        /* \"#utility.yul\":5958:5964   */\n      dup2\n        /* \"#utility.yul\":5953:5956   */\n      dup6\n        /* \"#utility.yul\":5869:5965   */\n      tag_139\n      jump\t// in\n    tag_251:\n        /* \"#utility.yul\":5862:5965   */\n      swap4\n      pop\n        /* \"#utility.yul\":5991:5994   */\n      dup4\n        /* \"#utility.yul\":6036:6040   */\n      0x20\n        /* \"#utility.yul\":6028:6034   */\n      dup3\n        /* \"#utility.yul\":6024:6041   */\n      mul\n        /* \"#utility.yul\":6019:6022   */\n      dup6\n        /* \"#utility.yul\":6015:6042   */\n      add\n        /* \"#utility.yul\":6066:6132   */\n      tag_252\n        /* \"#utility.yul\":6126:6131   */\n      dup6\n        /* \"#utility.yul\":6066:6132   */\n      tag_140\n      jump\t// in\n    tag_252:\n        /* \"#utility.yul\":6155:6162   */\n      dup1\n        /* \"#utility.yul\":6186:6187   */\n      0x00\n        /* \"#utility.yul\":6171:6567   */\n    tag_253:\n        /* \"#utility.yul\":6196:6202   */\n      dup6\n        /* \"#utility.yul\":6193:6194   */\n      dup2\n        /* \"#utility.yul\":6190:6203   */\n      lt\n        /* \"#utility.yul\":6171:6567   */\n      iszero\n      tag_255\n      jumpi\n        /* \"#utility.yul\":6267:6276   */\n      dup5\n        /* \"#utility.yul\":6261:6265   */\n      dup5\n        /* \"#utility.yul\":6257:6277   */\n      sub\n        /* \"#utility.yul\":6252:6255   */\n      dup10\n        /* \"#utility.yul\":6245:6278   */\n      mstore\n        /* \"#utility.yul\":6318:6324   */\n      dup2\n        /* \"#utility.yul\":6312:6325   */\n      mload\n        /* \"#utility.yul\":6346:6430   */\n      tag_256\n        /* \"#utility.yul\":6425:6429   */\n      dup6\n        /* \"#utility.yul\":6410:6423   */\n      dup3\n        /* \"#utility.yul\":6346:6430   */\n      tag_143\n      jump\t// in\n    tag_256:\n        /* \"#utility.yul\":6338:6430   */\n      swap5\n      pop\n        /* \"#utility.yul\":6453:6523   */\n      tag_257\n        /* \"#utility.yul\":6516:6522   */\n      dup4\n        /* \"#utility.yul\":6453:6523   */\n      tag_144\n      jump\t// in\n    tag_257:\n        /* \"#utility.yul\":6443:6523   */\n      swap3\n      pop\n        /* \"#utility.yul\":6552:6556   */\n      0x20\n        /* \"#utility.yul\":6547:6550   */\n      dup11\n        /* \"#utility.yul\":6543:6557   */\n      add\n        /* \"#utility.yul\":6536:6557   */\n      swap10\n      pop\n        /* \"#utility.yul\":6231:6567   */\n      pop\n        /* \"#utility.yul\":6218:6219   */\n      0x01\n        /* \"#utility.yul\":6215:6216   */\n      dup2\n        /* \"#utility.yul\":6211:6220   */\n      add\n        /* \"#utility.yul\":6206:6220   */\n      swap1\n      pop\n        /* \"#utility.yul\":6171:6567   */\n      jump(tag_253)\n    tag_255:\n        /* \"#utility.yul\":6175:6189   */\n      pop\n        /* \"#utility.yul\":6583:6587   */\n      dup3\n        /* \"#utility.yul\":6576:6587   */\n      swap8\n      pop\n        /* \"#utility.yul\":6603:6606   */\n      dup8\n        /* \"#utility.yul\":6596:6606   */\n      swap6\n      pop\n        /* \"#utility.yul\":5765:6612   */\n      pop\n      pop\n      pop\n      pop\n      pop\n        /* \"#utility.yul\":5621:6612   */\n      swap3\n      swap2\n      pop\n      pop\n      jump\t// out\n        /* \"#utility.yul\":6618:7031   */\n    tag_29:\n        /* \"#utility.yul\":6781:6785   */\n      0x00\n        /* \"#utility.yul\":6819:6821   */\n      0x20\n        /* \"#utility.yul\":6808:6817   */\n      dup3\n        /* \"#utility.yul\":6804:6822   */\n      add\n        /* \"#utility.yul\":6796:6822   */\n      swap1\n      pop\n        /* \"#utility.yul\":6868:6877   */\n      dup2\n        /* \"#utility.yul\":6862:6866   */\n      dup2\n        /* \"#utility.yul\":6858:6878   */\n      sub\n        /* \"#utility.yul\":6854:6855   */\n      0x00\n        /* \"#utility.yul\":6843:6852   */\n      dup4\n        /* \"#utility.yul\":6839:6856   */\n      add\n        /* \"#utility.yul\":6832:6879   */\n      mstore\n        /* \"#utility.yul\":6896:7024   */\n      tag_259\n        /* \"#utility.yul\":7019:7023   */\n      dup2\n        /* \"#utility.yul\":7010:7016   */\n      dup5\n        /* \"#utility.yul\":6896:7024   */\n      tag_145\n      jump\t// in\n    tag_259:\n        /* \"#utility.yul\":6888:7024   */\n      swap1\n      pop\n        /* \"#utility.yul\":6618:7031   */\n      swap3\n      swap2\n      pop\n      pop\n      jump\t// out\n        /* \"#utility.yul\":7037:7656   */\n    tag_35:\n        /* \"#utility.yul\":7114:7120   */\n      0x00\n        /* \"#utility.yul\":7122:7128   */\n      0x00\n        /* \"#utility.yul\":7130:7136   */\n      0x00\n        /* \"#utility.yul\":7179:7181   */\n      0x60\n        /* \"#utility.yul\":7167:7176   */\n      dup5\n        /* \"#utility.yul\":7158:7165   */\n      dup7\n        /* \"#utility.yul\":7154:7177   */\n      sub\n        /* \"#utility.yul\":7150:7182   */\n      slt\n        /* \"#utility.yul\":7147:7266   */\n      iszero\n      tag_261\n      jumpi\n        /* \"#utility.yul\":7185:7264   */\n      tag_262\n      tag_122\n      jump\t// in\n    tag_262:\n        /* \"#utility.yul\":7147:7266   */\n    tag_261:\n        /* \"#utility.yul\":7305:7306   */\n      0x00\n        /* \"#utility.yul\":7330:7383   */\n      tag_263\n        /* \"#utility.yul\":7375:7382   */\n      dup7\n        /* \"#utility.yul\":7366:7372   */\n      dup3\n        /* \"#utility.yul\":7355:7364   */\n      dup8\n        /* \"#utility.yul\":7351:7373   */\n      add\n        /* \"#utility.yul\":7330:7383   */\n      tag_127\n      jump\t// in\n    tag_263:\n        /* \"#utility.yul\":7320:7383   */\n      swap4\n      pop\n        /* \"#utility.yul\":7276:7393   */\n      pop\n        /* \"#utility.yul\":7432:7434   */\n      0x20\n        /* \"#utility.yul\":7458:7511   */\n      tag_264\n        /* \"#utility.yul\":7503:7510   */\n      dup7\n        /* \"#utility.yul\":7494:7500   */\n      dup3\n        /* \"#utility.yul\":7483:7492   */\n      dup8\n        /* \"#utility.yul\":7479:7501   */\n      add\n        /* \"#utility.yul\":7458:7511   */\n      tag_130\n      jump\t// in\n    tag_264:\n        /* \"#utility.yul\":7448:7511   */\n      swap3\n      pop\n        /* \"#utility.yul\":7403:7521   */\n      pop\n        /* \"#utility.yul\":7560:7562   */\n      0x40\n        /* \"#utility.yul\":7586:7639   */\n      tag_265\n        /* \"#utility.yul\":7631:7638   */\n      dup7\n        /* \"#utility.yul\":7622:7628   */\n      dup3\n        /* \"#utility.yul\":7611:7620   */\n      dup8\n        /* \"#utility.yul\":7607:7629   */\n      add\n        /* \"#utility.yul\":7586:7639   */\n      tag_127\n      jump\t// in\n    tag_265:\n        /* \"#utility.yul\":7576:7639   */\n      swap2\n      pop\n        /* \"#utility.yul\":7531:7649   */\n      pop\n        /* \"#utility.yul\":7037:7656   */\n      swap3\n      pop\n      swap3\n      pop\n      swap3\n      jump\t// out\n        /* \"#utility.yul\":7662:7752   */\n    tag_146:\n        /* \"#utility.yul\":7696:7703   */\n      0x00\n        /* \"#utility.yul\":7739:7744   */\n      dup2\n        /* \"#utility.yul\":7732:7745   */\n      iszero\n        /* \"#utility.yul\":7725:7746   */\n      iszero\n        /* \"#utility.yul\":7714:7746   */\n      swap1\n      pop\n        /* \"#utility.yul\":7662:7752   */\n      swap2\n      swap1\n      pop\n      jump\t// out\n        /* \"#utility.yul\":7758:7867   */\n    tag_147:\n        /* \"#utility.yul\":7839:7860   */\n      tag_268\n        /* \"#utility.yul\":7854:7859   */\n      dup2\n        /* \"#utility.yul\":7839:7860   */\n      tag_146\n      jump\t// in\n    tag_268:\n        /* \"#utility.yul\":7834:7837   */\n      dup3\n        /* \"#utility.yul\":7827:7861   */\n      mstore\n        /* \"#utility.yul\":7758:7867   */\n      pop\n      pop\n      jump\t// out\n        /* \"#utility.yul\":7873:8083   */\n    tag_38:\n        /* \"#utility.yul\":7960:7964   */\n      0x00\n        /* \"#utility.yul\":7998:8000   */\n      0x20\n        /* \"#utility.yul\":7987:7996   */\n      dup3\n        /* \"#utility.yul\":7983:8001   */\n      add\n        /* \"#utility.yul\":7975:8001   */\n      swap1\n      pop\n        /* \"#utility.yul\":8011:8076   */\n      tag_270\n        /* \"#utility.yul\":8073:8074   */\n      0x00\n        /* \"#utility.yul\":8062:8071   */\n      dup4\n        /* \"#utility.yul\":8058:8075   */\n      add\n        /* \"#utility.yul\":8049:8055   */\n      dup5\n        /* \"#utility.yul\":8011:8076   */\n      tag_147\n      jump\t// in\n    tag_270:\n        /* \"#utility.yul\":7873:8083   */\n      swap3\n      swap2\n      pop\n      pop\n      jump\t// out\n        /* \"#utility.yul\":8089:8178   */\n    tag_148:\n        /* \"#utility.yul\":8125:8132   */\n      0x00\n        /* \"#utility.yul\":8165:8171   */\n      0xffff\n        /* \"#utility.yul\":8158:8163   */\n      dup3\n        /* \"#utility.yul\":8154:8172   */\n      and\n        /* \"#utility.yul\":8143:8172   */\n      swap1\n      pop\n        /* \"#utility.yul\":8089:8178   */\n      swap2\n      swap1\n      pop\n      jump\t// out\n        /* \"#utility.yul\":8184:8304   */\n    tag_149:\n        /* \"#utility.yul\":8256:8279   */\n      tag_273\n        /* \"#utility.yul\":8273:8278   */\n      dup2\n        /* \"#utility.yul\":8256:8279   */\n      tag_148\n      jump\t// in\n    tag_273:\n        /* \"#utility.yul\":8249:8254   */\n      dup2\n        /* \"#utility.yul\":8246:8280   */\n      eq\n        /* \"#utility.yul\":8236:8298   */\n      tag_274\n      jumpi\n        /* \"#utility.yul\":8294:8295   */\n      0x00\n        /* \"#utility.yul\":8291:8292   */\n      0x00\n        /* \"#utility.yul\":8284:8296   */\n      revert\n        /* \"#utility.yul\":8236:8298   */\n    tag_274:\n        /* \"#utility.yul\":8184:8304   */\n      pop\n      jump\t// out\n        /* \"#utility.yul\":8310:8447   */\n    tag_150:\n        /* \"#utility.yul\":8355:8360   */\n      0x00\n        /* \"#utility.yul\":8393:8399   */\n      dup2\n        /* \"#utility.yul\":8380:8400   */\n      calldataload\n        /* \"#utility.yul\":8371:8400   */\n      swap1\n      pop\n        /* \"#utility.yul\":8409:8441   */\n      tag_276\n        /* \"#utility.yul\":8435:8440   */\n      dup2\n        /* \"#utility.yul\":8409:8441   */\n      tag_149\n      jump\t// in\n    tag_276:\n        /* \"#utility.yul\":8310:8447   */\n      swap3\n      swap2\n      pop\n      pop\n      jump\t// out\n        /* \"#utility.yul\":8453:8780   */\n    tag_41:\n        /* \"#utility.yul\":8511:8517   */\n      0x00\n        /* \"#utility.yul\":8560:8562   */\n      0x20\n        /* \"#utility.yul\":8548:8557   */\n      dup3\n        /* \"#utility.yul\":8539:8546   */\n      dup5\n        /* \"#utility.yul\":8535:8558   */\n      sub\n        /* \"#utility.yul\":8531:8563   */\n      slt\n        /* \"#utility.yul\":8528:8647   */\n      iszero\n      tag_278\n      jumpi\n        /* \"#utility.yul\":8566:8645   */\n      tag_279\n      tag_122\n      jump\t// in\n    tag_279:\n        /* \"#utility.yul\":8528:8647   */\n    tag_278:\n        /* \"#utility.yul\":8686:8687   */\n      0x00\n        /* \"#utility.yul\":8711:8763   */\n      tag_280\n        /* \"#utility.yul\":8755:8762   */\n      dup5\n        /* \"#utility.yul\":8746:8752   */\n      dup3\n        /* \"#utility.yul\":8735:8744   */\n      dup6\n        /* \"#utility.yul\":8731:8753   */\n      add\n        /* \"#utility.yul\":8711:8763   */\n      tag_150\n      jump\t// in\n    tag_280:\n        /* \"#utility.yul\":8701:8763   */\n      swap2\n      pop\n        /* \"#utility.yul\":8657:8773   */\n      pop\n        /* \"#utility.yul\":8453:8780   */\n      swap3\n      swap2\n      pop\n      pop\n      jump\t// out\n        /* \"#utility.yul\":8786:8903   */\n    tag_151:\n        /* \"#utility.yul\":8895:8896   */\n      0x00\n        /* \"#utility.yul\":8892:8893   */\n      0x00\n        /* \"#utility.yul\":8885:8897   */\n      revert\n        /* \"#utility.yul\":8909:9026   */\n    tag_152:\n        /* \"#utility.yul\":9018:9019   */\n      0x00\n        /* \"#utility.yul\":9015:9016   */\n      0x00\n        /* \"#utility.yul\":9008:9020   */\n      revert\n        /* \"#utility.yul\":9032:9212   */\n    tag_70:\n        /* \"#utility.yul\":9080:9157   */\n      0x4e487b7100000000000000000000000000000000000000000000000000000000\n        /* \"#utility.yul\":9077:9078   */\n      0x00\n        /* \"#utility.yul\":9070:9158   */\n      mstore\n        /* \"#utility.yul\":9177:9181   */\n      0x41\n        /* \"#utility.yul\":9174:9175   */\n      0x04\n        /* \"#utility.yul\":9167:9182   */\n      mstore\n        /* \"#utility.yul\":9201:9205   */\n      0x24\n        /* \"#utility.yul\":9198:9199   */\n      0x00\n        /* \"#utility.yul\":9191:9206   */\n      revert\n        /* \"#utility.yul\":9218:9499   */\n    tag_153:\n        /* \"#utility.yul\":9301:9328   */\n      tag_285\n        /* \"#utility.yul\":9323:9327   */\n      dup3\n        /* \"#utility.yul\":9301:9328   */\n      tag_136\n      jump\t// in\n    tag_285:\n        /* \"#utility.yul\":9293:9299   */\n      dup2\n        /* \"#utility.yul\":9289:9329   */\n      add\n        /* \"#utility.yul\":9431:9437   */\n      dup2\n        /* \"#utility.yul\":9419:9429   */\n      dup2\n        /* \"#utility.yul\":9416:9438   */\n      lt\n        /* \"#utility.yul\":9395:9413   */\n      0xffffffffffffffff\n        /* \"#utility.yul\":9383:9393   */\n      dup3\n        /* \"#utility.yul\":9380:9414   */\n      gt\n        /* \"#utility.yul\":9377:9439   */\n      or\n        /* \"#utility.yul\":9374:9462   */\n      iszero\n      tag_286\n      jumpi\n        /* \"#utility.yul\":9442:9460   */\n      tag_287\n      tag_70\n      jump\t// in\n    tag_287:\n        /* \"#utility.yul\":9374:9462   */\n    tag_286:\n        /* \"#utility.yul\":9482:9492   */\n      dup1\n        /* \"#utility.yul\":9478:9480   */\n      0x40\n        /* \"#utility.yul\":9471:9493   */\n      mstore\n        /* \"#utility.yul\":9261:9499   */\n      pop\n        /* \"#utility.yul\":9218:9499   */\n      pop\n      pop\n      jump\t// out\n        /* \"#utility.yul\":9505:9634   */\n    tag_154:\n        /* \"#utility.yul\":9539:9545   */\n      0x00\n        /* \"#utility.yul\":9566:9586   */\n      tag_289\n      tag_121\n      jump\t// in\n    tag_289:\n        /* \"#utility.yul\":9556:9586   */\n      swap1\n      pop\n        /* \"#utility.yul\":9595:9628   */\n      tag_290\n        /* \"#utility.yul\":9623:9627   */\n      dup3\n        /* \"#utility.yul\":9615:9621   */\n      dup3\n        /* \"#utility.yul\":9595:9628   */\n      tag_153\n      jump\t// in\n    tag_290:\n        /* \"#utility.yul\":9505:9634   */\n      swap2\n      swap1\n      pop\n      jump\t// out\n        /* \"#utility.yul\":9640:9948   */\n    tag_155:\n        /* \"#utility.yul\":9702:9706   */\n      0x00\n        /* \"#utility.yul\":9792:9810   */\n      0xffffffffffffffff\n        /* \"#utility.yul\":9784:9790   */\n      dup3\n        /* \"#utility.yul\":9781:9811   */\n      gt\n        /* \"#utility.yul\":9778:9834   */\n      iszero\n      tag_292\n      jumpi\n        /* \"#utility.yul\":9814:9832   */\n      tag_293\n      tag_70\n      jump\t// in\n    tag_293:\n        /* \"#utility.yul\":9778:9834   */\n    tag_292:\n        /* \"#utility.yul\":9852:9881   */\n      tag_294\n        /* \"#utility.yul\":9874:9880   */\n      dup3\n        /* \"#utility.yul\":9852:9881   */\n      tag_136\n      jump\t// in\n    tag_294:\n        /* \"#utility.yul\":9844:9881   */\n      swap1\n      pop\n        /* \"#utility.yul\":9936:9940   */\n      0x20\n        /* \"#utility.yul\":9930:9934   */\n      dup2\n        /* \"#utility.yul\":9926:9941   */\n      add\n        /* \"#utility.yul\":9918:9941   */\n      swap1\n      pop\n        /* \"#utility.yul\":9640:9948   */\n      swap2\n      swap1\n      pop\n      jump\t// out\n        /* \"#utility.yul\":9954:10102   */\n    tag_156:\n        /* \"#utility.yul\":10052:10058   */\n      dup3\n        /* \"#utility.yul\":10047:10050   */\n      dup2\n        /* \"#utility.yul\":10042:10045   */\n      dup4\n        /* \"#utility.yul\":10029:10059   */\n      calldatacopy\n        /* \"#utility.yul\":10093:10094   */\n      0x00\n        /* \"#utility.yul\":10084:10090   */\n      dup4\n        /* \"#utility.yul\":10079:10082   */\n      dup4\n        /* \"#utility.yul\":10075:10091   */\n      add\n        /* \"#utility.yul\":10068:10095   */\n      mstore\n        /* \"#utility.yul\":9954:10102   */\n      pop\n      pop\n      pop\n      jump\t// out\n        /* \"#utility.yul\":10108:10533   */\n    tag_157:\n        /* \"#utility.yul\":10186:10191   */\n      0x00\n        /* \"#utility.yul\":10211:10277   */\n      tag_297\n        /* \"#utility.yul\":10227:10276   */\n      tag_298\n        /* \"#utility.yul\":10269:10275   */\n      dup5\n        /* \"#utility.yul\":10227:10276   */\n      tag_155\n      jump\t// in\n    tag_298:\n        /* \"#utility.yul\":10211:10277   */\n      tag_154\n      jump\t// in\n    tag_297:\n        /* \"#utility.yul\":10202:10277   */\n      swap1\n      pop\n        /* \"#utility.yul\":10300:10306   */\n      dup3\n        /* \"#utility.yul\":10293:10298   */\n      dup2\n        /* \"#utility.yul\":10286:10307   */\n      mstore\n        /* \"#utility.yul\":10338:10342   */\n      0x20\n        /* \"#utility.yul\":10331:10336   */\n      dup2\n        /* \"#utility.yul\":10327:10343   */\n      add\n        /* \"#utility.yul\":10376:10379   */\n      dup5\n        /* \"#utility.yul\":10367:10373   */\n      dup5\n        /* \"#utility.yul\":10362:10365   */\n      dup5\n        /* \"#utility.yul\":10358:10374   */\n      add\n        /* \"#utility.yul\":10355:10380   */\n      gt\n        /* \"#utility.yul\":10352:10464   */\n      iszero\n      tag_299\n      jumpi\n        /* \"#utility.yul\":10383:10462   */\n      tag_300\n      tag_152\n      jump\t// in\n    tag_300:\n        /* \"#utility.yul\":10352:10464   */\n    tag_299:\n        /* \"#utility.yul\":10473:10527   */\n      tag_301\n        /* \"#utility.yul\":10520:10526   */\n      dup5\n        /* \"#utility.yul\":10515:10518   */\n      dup3\n        /* \"#utility.yul\":10510:10513   */\n      dup6\n        /* \"#utility.yul\":10473:10527   */\n      tag_156\n      jump\t// in\n    tag_301:\n        /* \"#utility.yul\":10192:10533   */\n      pop\n        /* \"#utility.yul\":10108:10533   */\n      swap4\n      swap3\n      pop\n      pop\n      pop\n      jump\t// out\n        /* \"#utility.yul\":10553:10893   */\n    tag_158:\n        /* \"#utility.yul\":10609:10614   */\n      0x00\n        /* \"#utility.yul\":10658:10661   */\n      dup3\n        /* \"#utility.yul\":10651:10655   */\n      0x1f\n        /* \"#utility.yul\":10643:10649   */\n      dup4\n        /* \"#utility.yul\":10639:10656   */\n      add\n        /* \"#utility.yul\":10635:10662   */\n      slt\n        /* \"#utility.yul\":10625:10747   */\n      tag_303\n      jumpi\n        /* \"#utility.yul\":10666:10745   */\n      tag_304\n      tag_151\n      jump\t// in\n    tag_304:\n        /* \"#utility.yul\":10625:10747   */\n    tag_303:\n        /* \"#utility.yul\":10783:10789   */\n      dup2\n        /* \"#utility.yul\":10770:10790   */\n      calldataload\n        /* \"#utility.yul\":10808:10887   */\n      tag_305\n        /* \"#utility.yul\":10883:10886   */\n      dup5\n        /* \"#utility.yul\":10875:10881   */\n      dup3\n        /* \"#utility.yul\":10868:10872   */\n      0x20\n        /* \"#utility.yul\":10860:10866   */\n      dup7\n        /* \"#utility.yul\":10856:10873   */\n      add\n        /* \"#utility.yul\":10808:10887   */\n      tag_157\n      jump\t// in\n    tag_305:\n        /* \"#utility.yul\":10799:10887   */\n      swap2\n      pop\n        /* \"#utility.yul\":10615:10893   */\n      pop\n        /* \"#utility.yul\":10553:10893   */\n      swap3\n      swap2\n      pop\n      pop\n      jump\t// out\n        /* \"#utility.yul\":10899:11408   */\n    tag_48:\n        /* \"#utility.yul\":10968:10974   */\n      0x00\n        /* \"#utility.yul\":11017:11019   */\n      0x20\n        /* \"#utility.yul\":11005:11014   */\n      dup3\n        /* \"#utility.yul\":10996:11003   */\n      dup5\n        /* \"#utility.yul\":10992:11015   */\n      sub\n        /* \"#utility.yul\":10988:11020   */\n      slt\n        /* \"#utility.yul\":10985:11104   */\n      iszero\n      tag_307\n      jumpi\n        /* \"#utility.yul\":11023:11102   */\n      tag_308\n      tag_122\n      jump\t// in\n    tag_308:\n        /* \"#utility.yul\":10985:11104   */\n    tag_307:\n        /* \"#utility.yul\":11171:11172   */\n      0x00\n        /* \"#utility.yul\":11160:11169   */\n      dup3\n        /* \"#utility.yul\":11156:11173   */\n      add\n        /* \"#utility.yul\":11143:11174   */\n      calldataload\n        /* \"#utility.yul\":11201:11219   */\n      0xffffffffffffffff\n        /* \"#utility.yul\":11193:11199   */\n      dup2\n        /* \"#utility.yul\":11190:11220   */\n      gt\n        /* \"#utility.yul\":11187:11304   */\n      iszero\n      tag_309\n      jumpi\n        /* \"#utility.yul\":11223:11302   */\n      tag_310\n      tag_123\n      jump\t// in\n    tag_310:\n        /* \"#utility.yul\":11187:11304   */\n    tag_309:\n        /* \"#utility.yul\":11328:11391   */\n      tag_311\n        /* \"#utility.yul\":11383:11390   */\n      dup5\n        /* \"#utility.yul\":11374:11380   */\n      dup3\n        /* \"#utility.yul\":11363:11372   */\n      dup6\n        /* \"#utility.yul\":11359:11381   */\n      add\n        /* \"#utility.yul\":11328:11391   */\n      tag_158\n      jump\t// in\n    tag_311:\n        /* \"#utility.yul\":11318:11391   */\n      swap2\n      pop\n        /* \"#utility.yul\":11114:11401   */\n      pop\n        /* \"#utility.yul\":10899:11408   */\n      swap3\n      swap2\n      pop\n      pop\n      jump\t// out\n        /* \"#utility.yul\":11414:11636   */\n    tag_54:\n        /* \"#utility.yul\":11507:11511   */\n      0x00\n        /* \"#utility.yul\":11545:11547   */\n      0x20\n        /* \"#utility.yul\":11534:11543   */\n      dup3\n        /* \"#utility.yul\":11530:11548   */\n      add\n        /* \"#utility.yul\":11522:11548   */\n      swap1\n      pop\n        /* \"#utility.yul\":11558:11629   */\n      tag_313\n        /* \"#utility.yul\":11626:11627   */\n      0x00\n        /* \"#utility.yul\":11615:11624   */\n      dup4\n        /* \"#utility.yul\":11611:11628   */\n      add\n        /* \"#utility.yul\":11602:11608   */\n      dup5\n        /* \"#utility.yul\":11558:11629   */\n      tag_131\n      jump\t// in\n    tag_313:\n        /* \"#utility.yul\":11414:11636   */\n      swap3\n      swap2\n      pop\n      pop\n      jump\t// out\n        /* \"#utility.yul\":11642:11822   */\n    tag_159:\n        /* \"#utility.yul\":11690:11767   */\n      0x4e487b7100000000000000000000000000000000000000000000000000000000\n        /* \"#utility.yul\":11687:11688   */\n      0x00\n        /* \"#utility.yul\":11680:11768   */\n      mstore\n        /* \"#utility.yul\":11787:11791   */\n      0x22\n        /* \"#utility.yul\":11784:11785   */\n      0x04\n        /* \"#utility.yul\":11777:11792   */\n      mstore\n        /* \"#utility.yul\":11811:11815   */\n      0x24\n        /* \"#utility.yul\":11808:11809   */\n      0x00\n        /* \"#utility.yul\":11801:11816   */\n      revert\n        /* \"#utility.yul\":11828:12148   */\n    tag_56:\n        /* \"#utility.yul\":11872:11878   */\n      0x00\n        /* \"#utility.yul\":11909:11910   */\n      0x02\n        /* \"#utility.yul\":11903:11907   */\n      dup3\n        /* \"#utility.yul\":11899:11911   */\n      div\n        /* \"#utility.yul\":11889:11911   */\n      swap1\n      pop\n        /* \"#utility.yul\":11956:11957   */\n      0x01\n        /* \"#utility.yul\":11950:11954   */\n      dup3\n        /* \"#utility.yul\":11946:11958   */\n      and\n        /* \"#utility.yul\":11977:11995   */\n      dup1\n        /* \"#utility.yul\":11967:12048   */\n      tag_316\n      jumpi\n        /* \"#utility.yul\":12033:12037   */\n      0x7f\n        /* \"#utility.yul\":12025:12031   */\n      dup3\n        /* \"#utility.yul\":12021:12038   */\n      and\n        /* \"#utility.yul\":12011:12038   */\n      swap2\n      pop\n        /* \"#utility.yul\":11967:12048   */\n    tag_316:\n        /* \"#utility.yul\":12095:12097   */\n      0x20\n        /* \"#utility.yul\":12087:12093   */\n      dup3\n        /* \"#utility.yul\":12084:12098   */\n      lt\n        /* \"#utility.yul\":12064:12082   */\n      dup2\n        /* \"#utility.yul\":12061:12099   */\n      sub\n        /* \"#utility.yul\":12058:12142   */\n      tag_317\n      jumpi\n        /* \"#utility.yul\":12114:12132   */\n      tag_318\n      tag_159\n      jump\t// in\n    tag_318:\n        /* \"#utility.yul\":12058:12142   */\n    tag_317:\n        /* \"#utility.yul\":11879:12148   */\n      pop\n        /* \"#utility.yul\":11828:12148   */\n      swap2\n      swap1\n      pop\n      jump\t// out\n        /* \"#utility.yul\":12154:12334   */\n    tag_83:\n        /* \"#utility.yul\":12202:12279   */\n      0x4e487b7100000000000000000000000000000000000000000000000000000000\n        /* \"#utility.yul\":12199:12200   */\n      0x00\n        /* \"#utility.yul\":12192:12280   */\n      mstore\n        /* \"#utility.yul\":12299:12303   */\n      0x32\n        /* \"#utility.yul\":12296:12297   */\n      0x04\n        /* \"#utility.yul\":12289:12304   */\n      mstore\n        /* \"#utility.yul\":12323:12327   */\n      0x24\n        /* \"#utility.yul\":12320:12321   */\n      0x00\n        /* \"#utility.yul\":12313:12328   */\n      revert\n        /* \"#utility.yul\":12340:12509   */\n    tag_160:\n        /* \"#utility.yul\":12480:12501   */\n      0x4572726f72202d206e6f20696420666f756e6400000000000000000000000000\n        /* \"#utility.yul\":12476:12477   */\n      0x00\n        /* \"#utility.yul\":12468:12474   */\n      dup3\n        /* \"#utility.yul\":12464:12478   */\n      add\n        /* \"#utility.yul\":12457:12502   */\n      mstore\n        /* \"#utility.yul\":12340:12509   */\n      pop\n      jump\t// out\n        /* \"#utility.yul\":12515:12881   */\n    tag_161:\n        /* \"#utility.yul\":12657:12660   */\n      0x00\n        /* \"#utility.yul\":12678:12745   */\n      tag_322\n        /* \"#utility.yul\":12742:12744   */\n      0x13\n        /* \"#utility.yul\":12737:12740   */\n      dup4\n        /* \"#utility.yul\":12678:12745   */\n      tag_134\n      jump\t// in\n    tag_322:\n        /* \"#utility.yul\":12671:12745   */\n      swap2\n      pop\n        /* \"#utility.yul\":12754:12847   */\n      tag_323\n        /* \"#utility.yul\":12843:12846   */\n      dup3\n        /* \"#utility.yul\":12754:12847   */\n      tag_160\n      jump\t// in\n    tag_323:\n        /* \"#utility.yul\":12872:12874   */\n      0x20\n        /* \"#utility.yul\":12867:12870   */\n      dup3\n        /* \"#utility.yul\":12863:12875   */\n      add\n        /* \"#utility.yul\":12856:12875   */\n      swap1\n      pop\n        /* \"#utility.yul\":12515:12881   */\n      swap2\n      swap1\n      pop\n      jump\t// out\n        /* \"#utility.yul\":12887:13306   */\n    tag_87:\n        /* \"#utility.yul\":13053:13057   */\n      0x00\n        /* \"#utility.yul\":13091:13093   */\n      0x20\n        /* \"#utility.yul\":13080:13089   */\n      dup3\n        /* \"#utility.yul\":13076:13094   */\n      add\n        /* \"#utility.yul\":13068:13094   */\n      swap1\n      pop\n        /* \"#utility.yul\":13140:13149   */\n      dup2\n        /* \"#utility.yul\":13134:13138   */\n      dup2\n        /* \"#utility.yul\":13130:13150   */\n      sub\n        /* \"#utility.yul\":13126:13127   */\n      0x00\n        /* \"#utility.yul\":13115:13124   */\n      dup4\n        /* \"#utility.yul\":13111:13128   */\n      add\n        /* \"#utility.yul\":13104:13151   */\n      mstore\n        /* \"#utility.yul\":13168:13299   */\n      tag_325\n        /* \"#utility.yul\":13294:13298   */\n      dup2\n        /* \"#utility.yul\":13168:13299   */\n      tag_161\n      jump\t// in\n    tag_325:\n        /* \"#utility.yul\":13160:13299   */\n      swap1\n      pop\n        /* \"#utility.yul\":12887:13306   */\n      swap2\n      swap1\n      pop\n      jump\t// out\n        /* \"#utility.yul\":13312:13477   */\n    tag_162:\n        /* \"#utility.yul\":13452:13469   */\n      0x416c726561647920756e6c696b65640000000000000000000000000000000000\n        /* \"#utility.yul\":13448:13449   */\n      0x00\n        /* \"#utility.yul\":13440:13446   */\n      dup3\n        /* \"#utility.yul\":13436:13450   */\n      add\n        /* \"#utility.yul\":13429:13470   */\n      mstore\n        /* \"#utility.yul\":13312:13477   */\n      pop\n      jump\t// out\n        /* \"#utility.yul\":13483:13849   */\n    tag_163:\n        /* \"#utility.yul\":13625:13628   */\n      0x00\n        /* \"#utility.yul\":13646:13713   */\n      tag_328\n        /* \"#utility.yul\":13710:13712   */\n      0x0f\n        /* \"#utility.yul\":13705:13708   */\n      dup4\n        /* \"#utility.yul\":13646:13713   */\n      tag_134\n      jump\t// in\n    tag_328:\n        /* \"#utility.yul\":13639:13713   */\n      swap2\n      pop\n        /* \"#utility.yul\":13722:13815   */\n      tag_329\n        /* \"#utility.yul\":13811:13814   */\n      dup3\n        /* \"#utility.yul\":13722:13815   */\n      tag_162\n      jump\t// in\n    tag_329:\n        /* \"#utility.yul\":13840:13842   */\n      0x20\n        /* \"#utility.yul\":13835:13838   */\n      dup3\n        /* \"#utility.yul\":13831:13843   */\n      add\n        /* \"#utility.yul\":13824:13843   */\n      swap1\n      pop\n        /* \"#utility.yul\":13483:13849   */\n      swap2\n      swap1\n      pop\n      jump\t// out\n        /* \"#utility.yul\":13855:14274   */\n    tag_90:\n        /* \"#utility.yul\":14021:14025   */\n      0x00\n        /* \"#utility.yul\":14059:14061   */\n      0x20\n        /* \"#utility.yul\":14048:14057   */\n      dup3\n        /* \"#utility.yul\":14044:14062   */\n      add\n        /* \"#utility.yul\":14036:14062   */\n      swap1\n      pop\n        /* \"#utility.yul\":14108:14117   */\n      dup2\n        /* \"#utility.yul\":14102:14106   */\n      dup2\n        /* \"#utility.yul\":14098:14118   */\n      sub\n        /* \"#utility.yul\":14094:14095   */\n      0x00\n        /* \"#utility.yul\":14083:14092   */\n      dup4\n        /* \"#utility.yul\":14079:14096   */\n      add\n        /* \"#utility.yul\":14072:14119   */\n      mstore\n        /* \"#utility.yul\":14136:14267   */\n      tag_331\n        /* \"#utility.yul\":14262:14266   */\n      dup2\n        /* \"#utility.yul\":14136:14267   */\n      tag_163\n      jump\t// in\n    tag_331:\n        /* \"#utility.yul\":14128:14267   */\n      swap1\n      pop\n        /* \"#utility.yul\":13855:14274   */\n      swap2\n      swap1\n      pop\n      jump\t// out\n        /* \"#utility.yul\":14280:14460   */\n    tag_164:\n        /* \"#utility.yul\":14328:14405   */\n      0x4e487b7100000000000000000000000000000000000000000000000000000000\n        /* \"#utility.yul\":14325:14326   */\n      0x00\n        /* \"#utility.yul\":14318:14406   */\n      mstore\n        /* \"#utility.yul\":14425:14429   */\n      0x11\n        /* \"#utility.yul\":14422:14423   */\n      0x04\n        /* \"#utility.yul\":14415:14430   */\n      mstore\n        /* \"#utility.yul\":14449:14453   */\n      0x24\n        /* \"#utility.yul\":14446:14447   */\n      0x00\n        /* \"#utility.yul\":14439:14454   */\n      revert\n        /* \"#utility.yul\":14466:14637   */\n    tag_92:\n        /* \"#utility.yul\":14505:14508   */\n      0x00\n        /* \"#utility.yul\":14528:14552   */\n      tag_334\n        /* \"#utility.yul\":14546:14551   */\n      dup3\n        /* \"#utility.yul\":14528:14552   */\n      tag_128\n      jump\t// in\n    tag_334:\n        /* \"#utility.yul\":14519:14552   */\n      swap2\n      pop\n        /* \"#utility.yul\":14574:14578   */\n      0x00\n        /* \"#utility.yul\":14567:14572   */\n      dup3\n        /* \"#utility.yul\":14564:14579   */\n      sub\n        /* \"#utility.yul\":14561:14602   */\n      tag_335\n      jumpi\n        /* \"#utility.yul\":14582:14600   */\n      tag_336\n      tag_164\n      jump\t// in\n    tag_336:\n        /* \"#utility.yul\":14561:14602   */\n    tag_335:\n        /* \"#utility.yul\":14629:14630   */\n      0x01\n        /* \"#utility.yul\":14622:14627   */\n      dup3\n        /* \"#utility.yul\":14618:14631   */\n      sub\n        /* \"#utility.yul\":14611:14631   */\n      swap1\n      pop\n        /* \"#utility.yul\":14466:14637   */\n      swap2\n      swap1\n      pop\n      jump\t// out\n        /* \"#utility.yul\":14643:15196   */\n    tag_94:\n        /* \"#utility.yul\":14820:14824   */\n      0x00\n        /* \"#utility.yul\":14858:14861   */\n      0x80\n        /* \"#utility.yul\":14847:14856   */\n      dup3\n        /* \"#utility.yul\":14843:14862   */\n      add\n        /* \"#utility.yul\":14835:14862   */\n      swap1\n      pop\n        /* \"#utility.yul\":14872:14943   */\n      tag_338\n        /* \"#utility.yul\":14940:14941   */\n      0x00\n        /* \"#utility.yul\":14929:14938   */\n      dup4\n        /* \"#utility.yul\":14925:14942   */\n      add\n        /* \"#utility.yul\":14916:14922   */\n      dup8\n        /* \"#utility.yul\":14872:14943   */\n      tag_131\n      jump\t// in\n    tag_338:\n        /* \"#utility.yul\":14953:15025   */\n      tag_339\n        /* \"#utility.yul\":15021:15023   */\n      0x20\n        /* \"#utility.yul\":15010:15019   */\n      dup4\n        /* \"#utility.yul\":15006:15024   */\n      add\n        /* \"#utility.yul\":14997:15003   */\n      dup7\n        /* \"#utility.yul\":14953:15025   */\n      tag_132\n      jump\t// in\n    tag_339:\n        /* \"#utility.yul\":15035:15107   */\n      tag_340\n        /* \"#utility.yul\":15103:15105   */\n      0x40\n        /* \"#utility.yul\":15092:15101   */\n      dup4\n        /* \"#utility.yul\":15088:15106   */\n      add\n        /* \"#utility.yul\":15079:15085   */\n      dup6\n        /* \"#utility.yul\":15035:15107   */\n      tag_131\n      jump\t// in\n    tag_340:\n        /* \"#utility.yul\":15117:15189   */\n      tag_341\n        /* \"#utility.yul\":15185:15187   */\n      0x60\n        /* \"#utility.yul\":15174:15183   */\n      dup4\n        /* \"#utility.yul\":15170:15188   */\n      add\n        /* \"#utility.yul\":15161:15167   */\n      dup5\n        /* \"#utility.yul\":15117:15189   */\n      tag_131\n      jump\t// in\n    tag_341:\n        /* \"#utility.yul\":14643:15196   */\n      swap6\n      swap5\n      pop\n      pop\n      pop\n      pop\n      pop\n      jump\t// out\n        /* \"#utility.yul\":15202:15373   */\n    tag_165:\n        /* \"#utility.yul\":15342:15365   */\n      0x596f7520617265206e6f74207468652061646d696e0000000000000000000000\n        /* \"#utility.yul\":15338:15339   */\n      0x00\n        /* \"#utility.yul\":15330:15336   */\n      dup3\n        /* \"#utility.yul\":15326:15340   */\n      add\n        /* \"#utility.yul\":15319:15366   */\n      mstore\n        /* \"#utility.yul\":15202:15373   */\n      pop\n      jump\t// out\n        /* \"#utility.yul\":15379:15745   */\n    tag_166:\n        /* \"#utility.yul\":15521:15524   */\n      0x00\n        /* \"#utility.yul\":15542:15609   */\n      tag_344\n        /* \"#utility.yul\":15606:15608   */\n      0x15\n        /* \"#utility.yul\":15601:15604   */\n      dup4\n        /* \"#utility.yul\":15542:15609   */\n      tag_134\n      jump\t// in\n    tag_344:\n        /* \"#utility.yul\":15535:15609   */\n      swap2\n      pop\n        /* \"#utility.yul\":15618:15711   */\n      tag_345\n        /* \"#utility.yul\":15707:15710   */\n      dup3\n        /* \"#utility.yul\":15618:15711   */\n      tag_165\n      jump\t// in\n    tag_345:\n        /* \"#utility.yul\":15736:15738   */\n      0x20\n        /* \"#utility.yul\":15731:15734   */\n      dup3\n        /* \"#utility.yul\":15727:15739   */\n      add\n        /* \"#utility.yul\":15720:15739   */\n      swap1\n      pop\n        /* \"#utility.yul\":15379:15745   */\n      swap2\n      swap1\n      pop\n      jump\t// out\n        /* \"#utility.yul\":15751:16170   */\n    tag_98:\n        /* \"#utility.yul\":15917:15921   */\n      0x00\n        /* \"#utility.yul\":15955:15957   */\n      0x20\n        /* \"#utility.yul\":15944:15953   */\n      dup3\n        /* \"#utility.yul\":15940:15958   */\n      add\n        /* \"#utility.yul\":15932:15958   */\n      swap1\n      pop\n        /* \"#utility.yul\":16004:16013   */\n      dup2\n        /* \"#utility.yul\":15998:16002   */\n      dup2\n        /* \"#utility.yul\":15994:16014   */\n      sub\n        /* \"#utility.yul\":15990:15991   */\n      0x00\n        /* \"#utility.yul\":15979:15988   */\n      dup4\n        /* \"#utility.yul\":15975:15992   */\n      add\n        /* \"#utility.yul\":15968:16015   */\n      mstore\n        /* \"#utility.yul\":16032:16163   */\n      tag_347\n        /* \"#utility.yul\":16158:16162   */\n      dup2\n        /* \"#utility.yul\":16032:16163   */\n      tag_166\n      jump\t// in\n    tag_347:\n        /* \"#utility.yul\":16024:16163   */\n      swap1\n      pop\n        /* \"#utility.yul\":15751:16170   */\n      swap2\n      swap1\n      pop\n      jump\t// out\n        /* \"#utility.yul\":16176:16339   */\n    tag_167:\n        /* \"#utility.yul\":16316:16331   */\n      0x416c7265616479204c696b656400000000000000000000000000000000000000\n        /* \"#utility.yul\":16312:16313   */\n      0x00\n        /* \"#utility.yul\":16304:16310   */\n      dup3\n        /* \"#utility.yul\":16300:16314   */\n      add\n        /* \"#utility.yul\":16293:16332   */\n      mstore\n        /* \"#utility.yul\":16176:16339   */\n      pop\n      jump\t// out\n        /* \"#utility.yul\":16345:16711   */\n    tag_168:\n        /* \"#utility.yul\":16487:16490   */\n      0x00\n        /* \"#utility.yul\":16508:16575   */\n      tag_350\n        /* \"#utility.yul\":16572:16574   */\n      0x0d\n        /* \"#utility.yul\":16567:16570   */\n      dup4\n        /* \"#utility.yul\":16508:16575   */\n      tag_134\n      jump\t// in\n    tag_350:\n        /* \"#utility.yul\":16501:16575   */\n      swap2\n      pop\n        /* \"#utility.yul\":16584:16677   */\n      tag_351\n        /* \"#utility.yul\":16673:16676   */\n      dup3\n        /* \"#utility.yul\":16584:16677   */\n      tag_167\n      jump\t// in\n    tag_351:\n        /* \"#utility.yul\":16702:16704   */\n      0x20\n        /* \"#utility.yul\":16697:16700   */\n      dup3\n        /* \"#utility.yul\":16693:16705   */\n      add\n        /* \"#utility.yul\":16686:16705   */\n      swap1\n      pop\n        /* \"#utility.yul\":16345:16711   */\n      swap2\n      swap1\n      pop\n      jump\t// out\n        /* \"#utility.yul\":16717:17136   */\n    tag_105:\n        /* \"#utility.yul\":16883:16887   */\n      0x00\n        /* \"#utility.yul\":16921:16923   */\n      0x20\n        /* \"#utility.yul\":16910:16919   */\n      dup3\n        /* \"#utility.yul\":16906:16924   */\n      add\n        /* \"#utility.yul\":16898:16924   */\n      swap1\n      pop\n        /* \"#utility.yul\":16970:16979   */\n      dup2\n        /* \"#utility.yul\":16964:16968   */\n      dup2\n        /* \"#utility.yul\":16960:16980   */\n      sub\n        /* \"#utility.yul\":16956:16957   */\n      0x00\n        /* \"#utility.yul\":16945:16954   */\n      dup4\n        /* \"#utility.yul\":16941:16958   */\n      add\n        /* \"#utility.yul\":16934:16981   */\n      mstore\n        /* \"#utility.yul\":16998:17129   */\n      tag_353\n        /* \"#utility.yul\":17124:17128   */\n      dup2\n        /* \"#utility.yul\":16998:17129   */\n      tag_168\n      jump\t// in\n    tag_353:\n        /* \"#utility.yul\":16990:17129   */\n      swap1\n      pop\n        /* \"#utility.yul\":16717:17136   */\n      swap2\n      swap1\n      pop\n      jump\t// out\n        /* \"#utility.yul\":17142:17375   */\n    tag_107:\n        /* \"#utility.yul\":17181:17184   */\n      0x00\n        /* \"#utility.yul\":17204:17228   */\n      tag_355\n        /* \"#utility.yul\":17222:17227   */\n      dup3\n        /* \"#utility.yul\":17204:17228   */\n      tag_128\n      jump\t// in\n    tag_355:\n        /* \"#utility.yul\":17195:17228   */\n      swap2\n      pop\n        /* \"#utility.yul\":17250:17316   */\n      0xffffffffffffffffffffffffffffffffffffffffffffffffffffffffffffffff\n        /* \"#utility.yul\":17243:17248   */\n      dup3\n        /* \"#utility.yul\":17240:17317   */\n      sub\n        /* \"#utility.yul\":17237:17340   */\n      tag_356\n      jumpi\n        /* \"#utility.yul\":17320:17338   */\n      tag_357\n      tag_164\n      jump\t// in\n    tag_357:\n        /* \"#utility.yul\":17237:17340   */\n    tag_356:\n        /* \"#utility.yul\":17367:17368   */\n      0x01\n        /* \"#utility.yul\":17360:17365   */\n      dup3\n        /* \"#utility.yul\":17356:17369   */\n      add\n        /* \"#utility.yul\":17349:17369   */\n      swap1\n      pop\n        /* \"#utility.yul\":17142:17375   */\n      swap2\n      swap1\n      pop\n      jump\t// out\n        /* \"#utility.yul\":17381:17553   */\n    tag_169:\n        /* \"#utility.yul\":17521:17545   */\n      0x4572726f72202d20496e76616c6964204c656e67746800000000000000000000\n        /* \"#utility.yul\":17517:17518   */\n      0x00\n        /* \"#utility.yul\":17509:17515   */\n      dup3\n        /* \"#utility.yul\":17505:17519   */\n      add\n        /* \"#utility.yul\":17498:17546   */\n      mstore\n        /* \"#utility.yul\":17381:17553   */\n      pop\n      jump\t// out\n        /* \"#utility.yul\":17559:17925   */\n    tag_170:\n        /* \"#utility.yul\":17701:17704   */\n      0x00\n        /* \"#utility.yul\":17722:17789   */\n      tag_360\n        /* \"#utility.yul\":17786:17788   */\n      0x16\n        /* \"#utility.yul\":17781:17784   */\n      dup4\n        /* \"#utility.yul\":17722:17789   */\n      tag_134\n      jump\t// in\n    tag_360:\n        /* \"#utility.yul\":17715:17789   */\n      swap2\n      pop\n        /* \"#utility.yul\":17798:17891   */\n      tag_361\n        /* \"#utility.yul\":17887:17890   */\n      dup3\n        /* \"#utility.yul\":17798:17891   */\n      tag_169\n      jump\t// in\n    tag_361:\n        /* \"#utility.yul\":17916:17918   */\n      0x20\n        /* \"#utility.yul\":17911:17914   */\n      dup3\n        /* \"#utility.yul\":17907:17919   */\n      add\n        /* \"#utility.yul\":17900:17919   */\n      swap1\n      pop\n        /* \"#utility.yul\":17559:17925   */\n      swap2\n      swap1\n      pop\n      jump\t// out\n        /* \"#utility.yul\":17931:18350   */\n    tag_112:\n        /* \"#utility.yul\":18097:18101   */\n      0x00\n        /* \"#utility.yul\":18135:18137   */\n      0x20\n        /* \"#utility.yul\":18124:18133   */\n      dup3\n        /* \"#utility.yul\":18120:18138   */\n      add\n        /* \"#utility.yul\":18112:18138   */\n      swap1\n      pop\n        /* \"#utility.yul\":18184:18193   */\n      dup2\n        /* \"#utility.yul\":18178:18182   */\n      dup2\n        /* \"#utility.yul\":18174:18194   */\n      sub\n        /* \"#utility.yul\":18170:18171   */\n      0x00\n        /* \"#utility.yul\":18159:18168   */\n      dup4\n        /* \"#utility.yul\":18155:18172   */\n      add\n        /* \"#utility.yul\":18148:18195   */\n      mstore\n        /* \"#utility.yul\":18212:18343   */\n      tag_363\n        /* \"#utility.yul\":18338:18342   */\n      dup2\n        /* \"#utility.yul\":18212:18343   */\n      tag_170\n      jump\t// in\n    tag_363:\n        /* \"#utility.yul\":18204:18343   */\n      swap1\n      pop\n        /* \"#utility.yul\":17931:18350   */\n      swap2\n      swap1\n      pop\n      jump\t// out\n        /* \"#utility.yul\":18356:18528   */\n    tag_171:\n        /* \"#utility.yul\":18496:18520   */\n      0x4572726f72202d20547765657420746f6f204c6f6e6700000000000000000000\n        /* \"#utility.yul\":18492:18493   */\n      0x00\n        /* \"#utility.yul\":18484:18490   */\n      dup3\n        /* \"#utility.yul\":18480:18494   */\n      add\n        /* \"#utility.yul\":18473:18521   */\n      mstore\n        /* \"#utility.yul\":18356:18528   */\n      pop\n      jump\t// out\n        /* \"#utility.yul\":18534:18900   */\n    tag_172:\n        /* \"#utility.yul\":18676:18679   */\n      0x00\n        /* \"#utility.yul\":18697:18764   */\n      tag_366\n        /* \"#utility.yul\":18761:18763   */\n      0x16\n        /* \"#utility.yul\":18756:18759   */\n      dup4\n        /* \"#utility.yul\":18697:18764   */\n      tag_134\n      jump\t// in\n    tag_366:\n        /* \"#utility.yul\":18690:18764   */\n      swap2\n      pop\n        /* \"#utility.yul\":18773:18866   */\n      tag_367\n        /* \"#utility.yul\":18862:18865   */\n      dup3\n        /* \"#utility.yul\":18773:18866   */\n      tag_171\n      jump\t// in\n    tag_367:\n        /* \"#utility.yul\":18891:18893   */\n      0x20\n        /* \"#utility.yul\":18886:18889   */\n      dup3\n        /* \"#utility.yul\":18882:18894   */\n      add\n        /* \"#utility.yul\":18875:18894   */\n      swap1\n      pop\n        /* \"#utility.yul\":18534:18900   */\n      swap2\n      swap1\n      pop\n      jump\t// out\n        /* \"#utility.yul\":18906:19325   */\n    tag_115:\n        /* \"#utility.yul\":19072:19076   */\n      0x00\n        /* \"#utility.yul\":19110:19112   */\n      0x20\n        /* \"#utility.yul\":19099:19108   */\n      dup3\n        /* \"#utility.yul\":19095:19113   */\n      add\n        /* \"#utility.yul\":19087:19113   */\n      swap1\n      pop\n        /* \"#utility.yul\":19159:19168   */\n      dup2\n        /* \"#utility.yul\":19153:19157   */\n      dup2\n        /* \"#utility.yul\":19149:19169   */\n      sub\n        /* \"#utility.yul\":19145:19146   */\n      0x00\n        /* \"#utility.yul\":19134:19143   */\n      dup4\n        /* \"#utility.yul\":19130:19147   */\n      add\n        /* \"#utility.yul\":19123:19170   */\n      mstore\n        /* \"#utility.yul\":19187:19318   */\n      tag_369\n        /* \"#utility.yul\":19313:19317   */\n      dup2\n        /* \"#utility.yul\":19187:19318   */\n      tag_172\n      jump\t// in\n    tag_369:\n        /* \"#utility.yul\":19179:19318   */\n      swap1\n      pop\n        /* \"#utility.yul\":18906:19325   */\n      swap2\n      swap1\n      pop\n      jump\t// out\n        /* \"#utility.yul\":19331:19472   */\n    tag_173:\n        /* \"#utility.yul\":19380:19384   */\n      0x00\n        /* \"#utility.yul\":19403:19406   */\n      dup2\n        /* \"#utility.yul\":19395:19406   */\n      swap1\n      pop\n        /* \"#utility.yul\":19426:19429   */\n      dup2\n        /* \"#utility.yul\":19423:19424   */\n      0x00\n        /* \"#utility.yul\":19416:19430   */\n      mstore\n        /* \"#utility.yul\":19460:19464   */\n      0x20\n        /* \"#utility.yul\":19457:19458   */\n      0x00\n        /* \"#utility.yul\":19447:19465   */\n      keccak256\n        /* \"#utility.yul\":19439:19465   */\n      swap1\n      pop\n        /* \"#utility.yul\":19331:19472   */\n      swap2\n      swap1\n      pop\n      jump\t// out\n        /* \"#utility.yul\":19478:19571   */\n    tag_174:\n        /* \"#utility.yul\":19515:19521   */\n      0x00\n        /* \"#utility.yul\":19562:19564   */\n      0x20\n        /* \"#utility.yul\":19557:19559   */\n      0x1f\n        /* \"#utility.yul\":19550:19555   */\n      dup4\n        /* \"#utility.yul\":19546:19560   */\n      add\n        /* \"#utility.yul\":19542:19565   */\n      div\n        /* \"#utility.yul\":19532:19565   */\n      swap1\n      pop\n        /* \"#utility.yul\":19478:19571   */\n      swap2\n      swap1\n      pop\n      jump\t// out\n        /* \"#utility.yul\":19577:19684   */\n    tag_175:\n        /* \"#utility.yul\":19621:19629   */\n      0x00\n        /* \"#utility.yul\":19671:19676   */\n      dup3\n        /* \"#utility.yul\":19665:19669   */\n      dup3\n        /* \"#utility.yul\":19661:19677   */\n      shl\n        /* \"#utility.yul\":19640:19677   */\n      swap1\n      pop\n        /* \"#utility.yul\":19577:19684   */\n      swap3\n      swap2\n      pop\n      pop\n      jump\t// out\n        /* \"#utility.yul\":19690:20083   */\n    tag_176:\n        /* \"#utility.yul\":19759:19765   */\n      0x00\n        /* \"#utility.yul\":19809:19810   */\n      0x08\n        /* \"#utility.yul\":19797:19807   */\n      dup4\n        /* \"#utility.yul\":19793:19811   */\n      mul\n        /* \"#utility.yul\":19832:19929   */\n      tag_374\n        /* \"#utility.yul\":19862:19928   */\n      0xffffffffffffffffffffffffffffffffffffffffffffffffffffffffffffffff\n        /* \"#utility.yul\":19851:19860   */\n      dup3\n        /* \"#utility.yul\":19832:19929   */\n      tag_175\n      jump\t// in\n    tag_374:\n        /* \"#utility.yul\":19950:19989   */\n      tag_375\n        /* \"#utility.yul\":19980:19988   */\n      dup7\n        /* \"#utility.yul\":19969:19978   */\n      dup4\n        /* \"#utility.yul\":19950:19989   */\n      tag_175\n      jump\t// in\n    tag_375:\n        /* \"#utility.yul\":19938:19989   */\n      swap6\n      pop\n        /* \"#utility.yul\":20022:20026   */\n      dup1\n        /* \"#utility.yul\":20018:20027   */\n      not\n        /* \"#utility.yul\":20011:20016   */\n      dup5\n        /* \"#utility.yul\":20007:20028   */\n      and\n        /* \"#utility.yul\":19998:20028   */\n      swap4\n      pop\n        /* \"#utility.yul\":20071:20075   */\n      dup1\n        /* \"#utility.yul\":20061:20069   */\n      dup7\n        /* \"#utility.yul\":20057:20076   */\n      and\n        /* \"#utility.yul\":20050:20055   */\n      dup5\n        /* \"#utility.yul\":20047:20077   */\n      or\n        /* \"#utility.yul\":20037:20077   */\n      swap3\n      pop\n        /* \"#utility.yul\":19766:20083   */\n      pop\n      pop\n        /* \"#utility.yul\":19690:20083   */\n      swap4\n      swap3\n      pop\n      pop\n      pop\n      jump\t// out\n        /* \"#utility.yul\":20089:20149   */\n    tag_177:\n        /* \"#utility.yul\":20117:20120   */\n      0x00\n        /* \"#utility.yul\":20138:20143   */\n      dup2\n        /* \"#utility.yul\":20131:20143   */\n      swap1\n      pop\n        /* \"#utility.yul\":20089:20149   */\n      swap2\n      swap1\n      pop\n      jump\t// out\n        /* \"#utility.yul\":20155:20297   */\n    tag_178:\n        /* \"#utility.yul\":20205:20214   */\n      0x00\n        /* \"#utility.yul\":20238:20291   */\n      tag_378\n        /* \"#utility.yul\":20256:20290   */\n      tag_379\n        /* \"#utility.yul\":20265:20289   */\n      tag_380\n        /* \"#utility.yul\":20283:20288   */\n      dup5\n        /* \"#utility.yul\":20265:20289   */\n      tag_128\n      jump\t// in\n    tag_380:\n        /* \"#utility.yul\":20256:20290   */\n      tag_177\n      jump\t// in\n    tag_379:\n        /* \"#utility.yul\":20238:20291   */\n      tag_128\n      jump\t// in\n    tag_378:\n        /* \"#utility.yul\":20225:20291   */\n      swap1\n      pop\n        /* \"#utility.yul\":20155:20297   */\n      swap2\n      swap1\n      pop\n      jump\t// out\n        /* \"#utility.yul\":20303:20378   */\n    tag_179:\n        /* \"#utility.yul\":20346:20349   */\n      0x00\n        /* \"#utility.yul\":20367:20372   */\n      dup2\n        /* \"#utility.yul\":20360:20372   */\n      swap1\n      pop\n        /* \"#utility.yul\":20303:20378   */\n      swap2\n      swap1\n      pop\n      jump\t// out\n        /* \"#utility.yul\":20384:20653   */\n    tag_180:\n        /* \"#utility.yul\":20494:20533   */\n      tag_383\n        /* \"#utility.yul\":20525:20532   */\n      dup4\n        /* \"#utility.yul\":20494:20533   */\n      tag_178\n      jump\t// in\n    tag_383:\n        /* \"#utility.yul\":20555:20646   */\n      tag_384\n        /* \"#utility.yul\":20604:20645   */\n      tag_385\n        /* \"#utility.yul\":20628:20644   */\n      dup3\n        /* \"#utility.yul\":20604:20645   */\n      tag_179\n      jump\t// in\n    tag_385:\n        /* \"#utility.yul\":20596:20602   */\n      dup5\n        /* \"#utility.yul\":20589:20593   */\n      dup5\n        /* \"#utility.yul\":20583:20594   */\n      sload\n        /* \"#utility.yul\":20555:20646   */\n      tag_176\n      jump\t// in\n    tag_384:\n        /* \"#utility.yul\":20549:20553   */\n      dup3\n        /* \"#utility.yul\":20542:20647   */\n      sstore\n        /* \"#utility.yul\":20460:20653   */\n      pop\n        /* \"#utility.yul\":20384:20653   */\n      pop\n      pop\n      pop\n      jump\t// out\n        /* \"#utility.yul\":20659:20732   */\n    tag_181:\n        /* \"#utility.yul\":20704:20707   */\n      0x00\n        /* \"#utility.yul\":20725:20726   */\n      0x00\n        /* \"#utility.yul\":20718:20726   */\n      swap1\n      pop\n        /* \"#utility.yul\":20659:20732   */\n      swap1\n      jump\t// out\n        /* \"#utility.yul\":20738:20927   */\n    tag_182:\n        /* \"#utility.yul\":20815:20847   */\n      tag_388\n      tag_181\n      jump\t// in\n    tag_388:\n        /* \"#utility.yul\":20856:20921   */\n      tag_389\n        /* \"#utility.yul\":20914:20920   */\n      dup2\n        /* \"#utility.yul\":20906:20912   */\n      dup5\n        /* \"#utility.yul\":20900:20904   */\n      dup5\n        /* \"#utility.yul\":20856:20921   */\n      tag_180\n      jump\t// in\n    tag_389:\n        /* \"#utility.yul\":20791:20927   */\n      pop\n        /* \"#utility.yul\":20738:20927   */\n      pop\n      pop\n      jump\t// out\n        /* \"#utility.yul\":20933:21119   */\n    tag_183:\n        /* \"#utility.yul\":20993:21113   */\n    tag_391:\n        /* \"#utility.yul\":21010:21013   */\n      dup2\n        /* \"#utility.yul\":21003:21008   */\n      dup2\n        /* \"#utility.yul\":21000:21014   */\n      lt\n        /* \"#utility.yul\":20993:21113   */\n      iszero\n      tag_393\n      jumpi\n        /* \"#utility.yul\":21064:21103   */\n      tag_394\n        /* \"#utility.yul\":21101:21102   */\n      0x00\n        /* \"#utility.yul\":21094:21099   */\n      dup3\n        /* \"#utility.yul\":21064:21103   */\n      tag_182\n      jump\t// in\n    tag_394:\n        /* \"#utility.yul\":21037:21038   */\n      0x01\n        /* \"#utility.yul\":21030:21035   */\n      dup2\n        /* \"#utility.yul\":21026:21039   */\n      add\n        /* \"#utility.yul\":21017:21039   */\n      swap1\n      pop\n        /* \"#utility.yul\":20993:21113   */\n      jump(tag_391)\n    tag_393:\n        /* \"#utility.yul\":20933:21119   */\n      pop\n      pop\n      jump\t// out\n        /* \"#utility.yul\":21125:21668   */\n    tag_184:\n        /* \"#utility.yul\":21226:21228   */\n      0x1f\n        /* \"#utility.yul\":21221:21224   */\n      dup3\n        /* \"#utility.yul\":21218:21229   */\n      gt\n        /* \"#utility.yul\":21215:21661   */\n      iszero\n      tag_396\n      jumpi\n        /* \"#utility.yul\":21260:21298   */\n      tag_397\n        /* \"#utility.yul\":21292:21297   */\n      dup2\n        /* \"#utility.yul\":21260:21298   */\n      tag_173\n      jump\t// in\n    tag_397:\n        /* \"#utility.yul\":21344:21373   */\n      tag_398\n        /* \"#utility.yul\":21362:21372   */\n      dup5\n        /* \"#utility.yul\":21344:21373   */\n      tag_174\n      jump\t// in\n    tag_398:\n        /* \"#utility.yul\":21334:21342   */\n      dup2\n        /* \"#utility.yul\":21330:21374   */\n      add\n        /* \"#utility.yul\":21527:21529   */\n      0x20\n        /* \"#utility.yul\":21515:21525   */\n      dup6\n        /* \"#utility.yul\":21512:21530   */\n      lt\n        /* \"#utility.yul\":21509:21558   */\n      iszero\n      tag_399\n      jumpi\n        /* \"#utility.yul\":21548:21556   */\n      dup2\n        /* \"#utility.yul\":21533:21556   */\n      swap1\n      pop\n        /* \"#utility.yul\":21509:21558   */\n    tag_399:\n        /* \"#utility.yul\":21571:21651   */\n      tag_400\n        /* \"#utility.yul\":21627:21649   */\n      tag_401\n        /* \"#utility.yul\":21645:21648   */\n      dup6\n        /* \"#utility.yul\":21627:21649   */\n      tag_174\n      jump\t// in\n    tag_401:\n        /* \"#utility.yul\":21617:21625   */\n      dup4\n        /* \"#utility.yul\":21613:21650   */\n      add\n        /* \"#utility.yul\":21600:21611   */\n      dup3\n        /* \"#utility.yul\":21571:21651   */\n      tag_183\n      jump\t// in\n    tag_400:\n        /* \"#utility.yul\":21230:21661   */\n      pop\n      pop\n        /* \"#utility.yul\":21215:21661   */\n    tag_396:\n        /* \"#utility.yul\":21125:21668   */\n      pop\n      pop\n      pop\n      jump\t// out\n        /* \"#utility.yul\":21674:21791   */\n    tag_185:\n        /* \"#utility.yul\":21728:21736   */\n      0x00\n        /* \"#utility.yul\":21778:21783   */\n      dup3\n        /* \"#utility.yul\":21772:21776   */\n      dup3\n        /* \"#utility.yul\":21768:21784   */\n      shr\n        /* \"#utility.yul\":21747:21784   */\n      swap1\n      pop\n        /* \"#utility.yul\":21674:21791   */\n      swap3\n      swap2\n      pop\n      pop\n      jump\t// out\n        /* \"#utility.yul\":21797:21966   */\n    tag_186:\n        /* \"#utility.yul\":21841:21847   */\n      0x00\n        /* \"#utility.yul\":21874:21925   */\n      tag_404\n        /* \"#utility.yul\":21922:21923   */\n      0x00\n        /* \"#utility.yul\":21918:21924   */\n      not\n        /* \"#utility.yul\":21910:21915   */\n      dup5\n        /* \"#utility.yul\":21907:21908   */\n      0x08\n        /* \"#utility.yul\":21903:21916   */\n      mul\n        /* \"#utility.yul\":21874:21925   */\n      tag_185\n      jump\t// in\n    tag_404:\n        /* \"#utility.yul\":21870:21926   */\n      not\n        /* \"#utility.yul\":21955:21959   */\n      dup1\n        /* \"#utility.yul\":21949:21953   */\n      dup4\n        /* \"#utility.yul\":21945:21960   */\n      and\n        /* \"#utility.yul\":21935:21960   */\n      swap2\n      pop\n        /* \"#utility.yul\":21848:21966   */\n      pop\n        /* \"#utility.yul\":21797:21966   */\n      swap3\n      swap2\n      pop\n      pop\n      jump\t// out\n        /* \"#utility.yul\":21971:22266   */\n    tag_187:\n        /* \"#utility.yul\":22047:22051   */\n      0x00\n        /* \"#utility.yul\":22193:22222   */\n      tag_406\n        /* \"#utility.yul\":22218:22221   */\n      dup4\n        /* \"#utility.yul\":22212:22216   */\n      dup4\n        /* \"#utility.yul\":22193:22222   */\n      tag_186\n      jump\t// in\n    tag_406:\n        /* \"#utility.yul\":22185:22222   */\n      swap2\n      pop\n        /* \"#utility.yul\":22255:22258   */\n      dup3\n        /* \"#utility.yul\":22252:22253   */\n      0x02\n        /* \"#utility.yul\":22248:22259   */\n      mul\n        /* \"#utility.yul\":22242:22246   */\n      dup3\n        /* \"#utility.yul\":22239:22260   */\n      or\n        /* \"#utility.yul\":22231:22260   */\n      swap1\n      pop\n        /* \"#utility.yul\":21971:22266   */\n      swap3\n      swap2\n      pop\n      pop\n      jump\t// out\n        /* \"#utility.yul\":22271:23666   */\n    tag_117:\n        /* \"#utility.yul\":22388:22425   */\n      tag_408\n        /* \"#utility.yul\":22421:22424   */\n      dup3\n        /* \"#utility.yul\":22388:22425   */\n      tag_133\n      jump\t// in\n    tag_408:\n        /* \"#utility.yul\":22490:22508   */\n      0xffffffffffffffff\n        /* \"#utility.yul\":22482:22488   */\n      dup2\n        /* \"#utility.yul\":22479:22509   */\n      gt\n        /* \"#utility.yul\":22476:22532   */\n      iszero\n      tag_409\n      jumpi\n        /* \"#utility.yul\":22512:22530   */\n      tag_410\n      tag_70\n      jump\t// in\n    tag_410:\n        /* \"#utility.yul\":22476:22532   */\n    tag_409:\n        /* \"#utility.yul\":22556:22594   */\n      tag_411\n        /* \"#utility.yul\":22588:22592   */\n      dup3\n        /* \"#utility.yul\":22582:22593   */\n      sload\n        /* \"#utility.yul\":22556:22594   */\n      tag_56\n      jump\t// in\n    tag_411:\n        /* \"#utility.yul\":22641:22708   */\n      tag_412\n        /* \"#utility.yul\":22701:22707   */\n      dup3\n        /* \"#utility.yul\":22693:22699   */\n      dup3\n        /* \"#utility.yul\":22687:22691   */\n      dup6\n        /* \"#utility.yul\":22641:22708   */\n      tag_184\n      jump\t// in\n    tag_412:\n        /* \"#utility.yul\":22735:22736   */\n      0x00\n        /* \"#utility.yul\":22759:22763   */\n      0x20\n        /* \"#utility.yul\":22746:22763   */\n      swap1\n      pop\n        /* \"#utility.yul\":22791:22793   */\n      0x1f\n        /* \"#utility.yul\":22783:22789   */\n      dup4\n        /* \"#utility.yul\":22780:22794   */\n      gt\n        /* \"#utility.yul\":22808:22809   */\n      0x01\n        /* \"#utility.yul\":22803:23421   */\n      dup2\n      eq\n      tag_414\n      jumpi\n        /* \"#utility.yul\":23465:23466   */\n      0x00\n        /* \"#utility.yul\":23482:23488   */\n      dup5\n        /* \"#utility.yul\":23479:23556   */\n      iszero\n      tag_415\n      jumpi\n        /* \"#utility.yul\":23531:23540   */\n      dup3\n        /* \"#utility.yul\":23526:23529   */\n      dup8\n        /* \"#utility.yul\":23522:23541   */\n      add\n        /* \"#utility.yul\":23516:23542   */\n      mload\n        /* \"#utility.yul\":23507:23542   */\n      swap1\n      pop\n        /* \"#utility.yul\":23479:23556   */\n    tag_415:\n        /* \"#utility.yul\":23582:23649   */\n      tag_416\n        /* \"#utility.yul\":23642:23648   */\n      dup6\n        /* \"#utility.yul\":23635:23640   */\n      dup3\n        /* \"#utility.yul\":23582:23649   */\n      tag_187\n      jump\t// in\n    tag_416:\n        /* \"#utility.yul\":23576:23580   */\n      dup7\n        /* \"#utility.yul\":23569:23650   */\n      sstore\n        /* \"#utility.yul\":23438:23660   */\n      pop\n        /* \"#utility.yul\":22773:23660   */\n      jump(tag_413)\n        /* \"#utility.yul\":22803:23421   */\n    tag_414:\n        /* \"#utility.yul\":22855:22859   */\n      0x1f\n        /* \"#utility.yul\":22851:22860   */\n      not\n        /* \"#utility.yul\":22843:22849   */\n      dup5\n        /* \"#utility.yul\":22839:22861   */\n      and\n        /* \"#utility.yul\":22889:22926   */\n      tag_417\n        /* \"#utility.yul\":22921:22925   */\n      dup7\n        /* \"#utility.yul\":22889:22926   */\n      tag_173\n      jump\t// in\n    tag_417:\n        /* \"#utility.yul\":22948:22949   */\n      0x00\n        /* \"#utility.yul\":22962:23170   */\n    tag_418:\n        /* \"#utility.yul\":22976:22983   */\n      dup3\n        /* \"#utility.yul\":22973:22974   */\n      dup2\n        /* \"#utility.yul\":22970:22984   */\n      lt\n        /* \"#utility.yul\":22962:23170   */\n      iszero\n      tag_420\n      jumpi\n        /* \"#utility.yul\":23055:23064   */\n      dup5\n        /* \"#utility.yul\":23050:23053   */\n      dup10\n        /* \"#utility.yul\":23046:23065   */\n      add\n        /* \"#utility.yul\":23040:23066   */\n      mload\n        /* \"#utility.yul\":23032:23038   */\n      dup3\n        /* \"#utility.yul\":23025:23067   */\n      sstore\n        /* \"#utility.yul\":23106:23107   */\n      0x01\n        /* \"#utility.yul\":23098:23104   */\n      dup3\n        /* \"#utility.yul\":23094:23108   */\n      add\n        /* \"#utility.yul\":23084:23108   */\n      swap2\n      pop\n        /* \"#utility.yul\":23153:23155   */\n      0x20\n        /* \"#utility.yul\":23142:23151   */\n      dup6\n        /* \"#utility.yul\":23138:23156   */\n      add\n        /* \"#utility.yul\":23125:23156   */\n      swap5\n      pop\n        /* \"#utility.yul\":22999:23003   */\n      0x20\n        /* \"#utility.yul\":22996:22997   */\n      dup2\n        /* \"#utility.yul\":22992:23004   */\n      add\n        /* \"#utility.yul\":22987:23004   */\n      swap1\n      pop\n        /* \"#utility.yul\":22962:23170   */\n      jump(tag_418)\n    tag_420:\n        /* \"#utility.yul\":23198:23204   */\n      dup7\n        /* \"#utility.yul\":23189:23196   */\n      dup4\n        /* \"#utility.yul\":23186:23205   */\n      lt\n        /* \"#utility.yul\":23183:23362   */\n      iszero\n      tag_421\n      jumpi\n        /* \"#utility.yul\":23256:23265   */\n      dup5\n        /* \"#utility.yul\":23251:23254   */\n      dup10\n        /* \"#utility.yul\":23247:23266   */\n      add\n        /* \"#utility.yul\":23241:23267   */\n      mload\n        /* \"#utility.yul\":23299:23347   */\n      tag_422\n        /* \"#utility.yul\":23341:23345   */\n      0x1f\n        /* \"#utility.yul\":23333:23339   */\n      dup10\n        /* \"#utility.yul\":23329:23346   */\n      and\n        /* \"#utility.yul\":23318:23327   */\n      dup3\n        /* \"#utility.yul\":23299:23347   */\n      tag_186\n      jump\t// in\n    tag_422:\n        /* \"#utility.yul\":23291:23297   */\n      dup4\n        /* \"#utility.yul\":23284:23348   */\n      sstore\n        /* \"#utility.yul\":23206:23362   */\n      pop\n        /* \"#utility.yul\":23183:23362   */\n    tag_421:\n        /* \"#utility.yul\":23408:23409   */\n      0x01\n        /* \"#utility.yul\":23404:23405   */\n      0x02\n        /* \"#utility.yul\":23396:23402   */\n      dup9\n        /* \"#utility.yul\":23392:23406   */\n      mul\n        /* \"#utility.yul\":23388:23410   */\n      add\n        /* \"#utility.yul\":23382:23386   */\n      dup9\n        /* \"#utility.yul\":23375:23411   */\n      sstore\n        /* \"#utility.yul\":22810:23421   */\n      pop\n      pop\n      pop\n        /* \"#utility.yul\":22773:23660   */\n    tag_413:\n      pop\n        /* \"#utility.yul\":22363:23666   */\n      pop\n      pop\n      pop\n        /* \"#utility.yul\":22271:23666   */\n      pop\n      pop\n      jump\t// out\n        /* \"#utility.yul\":23696:24527   */\n    tag_188:\n        /* \"#utility.yul\":23781:23784   */\n      0x00\n        /* \"#utility.yul\":23818:23823   */\n      dup2\n        /* \"#utility.yul\":23812:23824   */\n      sload\n        /* \"#utility.yul\":23847:23883   */\n      tag_424\n        /* \"#utility.yul\":23873:23882   */\n      dup2\n        /* \"#utility.yul\":23847:23883   */\n      tag_56\n      jump\t// in\n    tag_424:\n        /* \"#utility.yul\":23899:23970   */\n      tag_425\n        /* \"#utility.yul\":23963:23969   */\n      dup2\n        /* \"#utility.yul\":23958:23961   */\n      dup7\n        /* \"#utility.yul\":23899:23970   */\n      tag_134\n      jump\t// in\n    tag_425:\n        /* \"#utility.yul\":23892:23970   */\n      swap5\n      pop\n        /* \"#utility.yul\":24001:24002   */\n      0x01\n        /* \"#utility.yul\":23990:23999   */\n      dup3\n        /* \"#utility.yul\":23986:24003   */\n      and\n        /* \"#utility.yul\":24017:24018   */\n      0x00\n        /* \"#utility.yul\":24012:24176   */\n      dup2\n      eq\n      tag_427\n      jumpi\n        /* \"#utility.yul\":24190:24191   */\n      0x01\n        /* \"#utility.yul\":24185:24521   */\n      dup2\n      eq\n      tag_428\n      jumpi\n        /* \"#utility.yul\":23979:24521   */\n      jump(tag_426)\n        /* \"#utility.yul\":24012:24176   */\n    tag_427:\n        /* \"#utility.yul\":24096:24100   */\n      0xff\n        /* \"#utility.yul\":24092:24101   */\n      not\n        /* \"#utility.yul\":24081:24090   */\n      dup4\n        /* \"#utility.yul\":24077:24102   */\n      and\n        /* \"#utility.yul\":24072:24075   */\n      dup7\n        /* \"#utility.yul\":24065:24103   */\n      mstore\n        /* \"#utility.yul\":24156:24162   */\n      dup2\n        /* \"#utility.yul\":24149:24163   */\n      iszero\n        /* \"#utility.yul\":24142:24164   */\n      iszero\n        /* \"#utility.yul\":24136:24140   */\n      0x20\n        /* \"#utility.yul\":24132:24165   */\n      mul\n        /* \"#utility.yul\":24127:24130   */\n      dup7\n        /* \"#utility.yul\":24123:24166   */\n      add\n        /* \"#utility.yul\":24116:24166   */\n      swap4\n      pop\n        /* \"#utility.yul\":24012:24176   */\n      jump(tag_426)\n        /* \"#utility.yul\":24185:24521   */\n    tag_428:\n        /* \"#utility.yul\":24252:24290   */\n      tag_429\n        /* \"#utility.yul\":24284:24289   */\n      dup6\n        /* \"#utility.yul\":24252:24290   */\n      tag_173\n      jump\t// in\n    tag_429:\n        /* \"#utility.yul\":24312:24313   */\n      0x00\n        /* \"#utility.yul\":24326:24480   */\n    tag_430:\n        /* \"#utility.yul\":24340:24346   */\n      dup4\n        /* \"#utility.yul\":24337:24338   */\n      dup2\n        /* \"#utility.yul\":24334:24347   */\n      lt\n        /* \"#utility.yul\":24326:24480   */\n      iszero\n      tag_432\n      jumpi\n        /* \"#utility.yul\":24414:24421   */\n      dup2\n        /* \"#utility.yul\":24408:24422   */\n      sload\n        /* \"#utility.yul\":24404:24405   */\n      dup2\n        /* \"#utility.yul\":24399:24402   */\n      dup10\n        /* \"#utility.yul\":24395:24406   */\n      add\n        /* \"#utility.yul\":24388:24423   */\n      mstore\n        /* \"#utility.yul\":24464:24465   */\n      0x01\n        /* \"#utility.yul\":24455:24462   */\n      dup3\n        /* \"#utility.yul\":24451:24466   */\n      add\n        /* \"#utility.yul\":24440:24466   */\n      swap2\n      pop\n        /* \"#utility.yul\":24362:24366   */\n      0x20\n        /* \"#utility.yul\":24359:24360   */\n      dup2\n        /* \"#utility.yul\":24355:24367   */\n      add\n        /* \"#utility.yul\":24350:24367   */\n      swap1\n      pop\n        /* \"#utility.yul\":24326:24480   */\n      jump(tag_430)\n    tag_432:\n        /* \"#utility.yul\":24509:24510   */\n      dup1\n        /* \"#utility.yul\":24504:24507   */\n      dup9\n        /* \"#utility.yul\":24500:24511   */\n      add\n        /* \"#utility.yul\":24493:24511   */\n      swap6\n      pop\n        /* \"#utility.yul\":24192:24521   */\n      pop\n      pop\n        /* \"#utility.yul\":23979:24521   */\n    tag_426:\n      pop\n        /* \"#utility.yul\":23785:24527   */\n      pop\n      pop\n        /* \"#utility.yul\":23696:24527   */\n      swap3\n      swap2\n      pop\n      pop\n      jump\t// out\n        /* \"#utility.yul\":24533:25171   */\n    tag_120:\n        /* \"#utility.yul\":24727:24731   */\n      0x00\n        /* \"#utility.yul\":24765:24768   */\n      0x80\n        /* \"#utility.yul\":24754:24763   */\n      dup3\n        /* \"#utility.yul\":24750:24769   */\n      add\n        /* \"#utility.yul\":24742:24769   */\n      swap1\n      pop\n        /* \"#utility.yul\":24779:24850   */\n      tag_434\n        /* \"#utility.yul\":24847:24848   */\n      0x00\n        /* \"#utility.yul\":24836:24845   */\n      dup4\n        /* \"#utility.yul\":24832:24849   */\n      add\n        /* \"#utility.yul\":24823:24829   */\n      dup8\n        /* \"#utility.yul\":24779:24850   */\n      tag_131\n      jump\t// in\n    tag_434:\n        /* \"#utility.yul\":24860:24932   */\n      tag_435\n        /* \"#utility.yul\":24928:24930   */\n      0x20\n        /* \"#utility.yul\":24917:24926   */\n      dup4\n        /* \"#utility.yul\":24913:24931   */\n      add\n        /* \"#utility.yul\":24904:24910   */\n      dup7\n        /* \"#utility.yul\":24860:24932   */\n      tag_132\n      jump\t// in\n    tag_435:\n        /* \"#utility.yul\":24942:25014   */\n      tag_436\n        /* \"#utility.yul\":25010:25012   */\n      0x40\n        /* \"#utility.yul\":24999:25008   */\n      dup4\n        /* \"#utility.yul\":24995:25013   */\n      add\n        /* \"#utility.yul\":24986:24992   */\n      dup6\n        /* \"#utility.yul\":24942:25014   */\n      tag_131\n      jump\t// in\n    tag_436:\n        /* \"#utility.yul\":25061:25070   */\n      dup2\n        /* \"#utility.yul\":25055:25059   */\n      dup2\n        /* \"#utility.yul\":25051:25071   */\n      sub\n        /* \"#utility.yul\":25046:25048   */\n      0x60\n        /* \"#utility.yul\":25035:25044   */\n      dup4\n        /* \"#utility.yul\":25031:25049   */\n      add\n        /* \"#utility.yul\":25024:25072   */\n      mstore\n        /* \"#utility.yul\":25089:25164   */\n      tag_437\n        /* \"#utility.yul\":25159:25163   */\n      dup2\n        /* \"#utility.yul\":25150:25156   */\n      dup5\n        /* \"#utility.yul\":25089:25164   */\n      tag_188\n      jump\t// in\n    tag_437:\n        /* \"#utility.yul\":25081:25164   */\n      swap1\n      pop\n        /* \"#utility.yul\":24533:25171   */\n      swap6\n      swap5\n      pop\n      pop\n      pop\n      pop\n      pop\n      jump\t// out\n\n    auxdata: 0xa264697066735822122098c56e1336ea1ca437cf35045bf009c384fae77f11337c2f2c2f9aac5f440dc864736f6c634300081f0033\n}\n",
				"bytecode": {
					"linkReferences": {},
					"object": "6080604052348015600e575f5ffd5b50335f60026101000a81548173ffffffffffffffffffffffffffffffffffffffff021916908373ffffffffffffffffffffffffffffffffffffffff1602179055506101185f5f6101000a81548161ffff021916908361ffff160217905550611ef7806100795f395ff3fe608060405234801561000f575f5ffd5b5060043610610091575f3560e01c80634ddf8940116100645780634ddf89401461014557806358bfa4ab1461017557806363378216146101915780637c9cd2bc146101ad578063c12327b8146101c957610091565b806305a1b4a914610095578063112f54e3146100c957806312e7ee1c146100f95780633d9b569f14610129575b5f5ffd5b6100af60048036038101906100aa91906112ac565b6101f9565b6040516100c0959493929190611378565b60405180910390f35b6100e360048036038101906100de91906112ac565b6102db565b6040516100f091906113d0565b60405180910390f35b610113600480360381019061010e91906113f0565b6103bb565b604051610120919061151e565b60405180910390f35b610143600480360381019061013e91906112ac565b610568565b005b61015f600480360381019061015a919061153e565b610957565b60405161016c91906115a8565b60405180910390f35b61018f600480360381019061018a91906115f8565b61098c565b005b6101ab60048036038101906101a691906112ac565b610a39565b005b6101c760048036038101906101c2919061174f565b610e2f565b005b6101e360048036038101906101de91906113f0565b6111f9565b6040516101f09190611796565b60405180910390f35b6002602052815f5260405f20602052805f5260405f205f9150915050805f015490806001015f9054906101000a900473ffffffffffffffffffffffffffffffffffffffff169080600201549080600301549080600401805461025a906117dc565b80601f0160208091040260200160405190810160405280929190818152602001828054610286906117dc565b80156102d15780601f106102a8576101008083540402835291602001916102d1565b820191905f5260205f20905b8154815290600101906020018083116102b457829003601f168201915b5050505050905085565b606060025f8473ffffffffffffffffffffffffffffffffffffffff1673ffffffffffffffffffffffffffffffffffffffff1681526020019081526020015f205f8381526020019081526020015f206004018054610337906117dc565b80601f0160208091040260200160405190810160405280929190818152602001828054610363906117dc565b80156103ae5780601f10610385576101008083540402835291602001916103ae565b820191905f5260205f20905b81548152906001019060200180831161039157829003601f168201915b5050505050905092915050565b60605f60015f8473ffffffffffffffffffffffffffffffffffffffff1673ffffffffffffffffffffffffffffffffffffffff1681526020019081526020015f205490505f8167ffffffffffffffff8111156104195761041861162b565b5b60405190808252806020026020018201604052801561044c57816020015b60608152602001906001900390816104375790505b5090505f5f90505b8281101561055d5760025f8673ffffffffffffffffffffffffffffffffffffffff1673ffffffffffffffffffffffffffffffffffffffff1681526020019081526020015f205f8281526020019081526020015f2060040180546104b6906117dc565b80601f01602080910402602001604051908101604052809291908181526020018280546104e2906117dc565b801561052d5780601f106105045761010080835404028352916020019161052d565b820191905f5260205f20905b81548152906001019060200180831161051057829003601f168201915b50505050508282815181106105455761054461180c565b5b60200260200101819052508080600101915050610454565b508092505050919050565b60015f8373ffffffffffffffffffffffffffffffffffffffff1673ffffffffffffffffffffffffffffffffffffffff1681526020019081526020015f205481106105e7576040517f08c379a00000000000000000000000000000000000000000000000000000000081526004016105de90611883565b60405180910390fd5b60035f8373ffffffffffffffffffffffffffffffffffffffff1673ffffffffffffffffffffffffffffffffffffffff1681526020019081526020015f205f8281526020019081526020015f205f3373ffffffffffffffffffffffffffffffffffffffff1673ffffffffffffffffffffffffffffffffffffffff1681526020019081526020015f205f9054906101000a900460ff166106ba576040517f08c379a00000000000000000000000000000000000000000000000000000000081526004016106b1906118eb565b60405180910390fd5b60025f8373ffffffffffffffffffffffffffffffffffffffff1673ffffffffffffffffffffffffffffffffffffffff1681526020019081526020015f205f8281526020019081526020015f206003015f81548092919061071990611936565b91905055505f60035f8473ffffffffffffffffffffffffffffffffffffffff1673ffffffffffffffffffffffffffffffffffffffff1681526020019081526020015f205f8381526020019081526020015f205f3373ffffffffffffffffffffffffffffffffffffffff1673ffffffffffffffffffffffffffffffffffffffff1681526020019081526020015f205f6101000a81548160ff0219169083151502179055507f1ed3b0e892fd24a91dc7fd874f3f278041863c45bda1b3e1c6d4502f11176a7460025f8473ffffffffffffffffffffffffffffffffffffffff1673ffffffffffffffffffffffffffffffffffffffff1681526020019081526020015f205f8381526020019081526020015f205f015460025f8573ffffffffffffffffffffffffffffffffffffffff1673ffffffffffffffffffffffffffffffffffffffff1681526020019081526020015f205f8481526020019081526020015f206001015f9054906101000a900473ffffffffffffffffffffffffffffffffffffffff1660025f8673ffffffffffffffffffffffffffffffffffffffff1673ffffffffffffffffffffffffffffffffffffffff1681526020019081526020015f205f8581526020019081526020015f206002015460025f8773ffffffffffffffffffffffffffffffffffffffff1673ffffffffffffffffffffffffffffffffffffffff1681526020019081526020015f205f8681526020019081526020015f206003015460405161094b949392919061195d565b60405180910390a15050565b6003602052825f5260405f20602052815f5260405f20602052805f5260405f205f92509250509054906101000a900460ff1681565b3373ffffffffffffffffffffffffffffffffffffffff165f60029054906101000a900473ffffffffffffffffffffffffffffffffffffffff1673ffffffffffffffffffffffffffffffffffffffff1614610a1b576040517f08c379a0000000000000000000000000000000000000000000000000000000008152600401610a12906119ea565b60405180910390fd5b805f5f6101000a81548161ffff021916908361ffff16021790555050565b60015f8373ffffffffffffffffffffffffffffffffffffffff1673ffffffffffffffffffffffffffffffffffffffff1681526020019081526020015f20548110610ab8576040517f08c379a0000000000000000000000000000000000000000000000000000000008152600401610aaf90611883565b60405180910390fd5b5f151560035f8473ffffffffffffffffffffffffffffffffffffffff1673ffffffffffffffffffffffffffffffffffffffff1681526020019081526020015f205f8381526020019081526020015f205f3373ffffffffffffffffffffffffffffffffffffffff1673ffffffffffffffffffffffffffffffffffffffff1681526020019081526020015f205f9054906101000a900460ff16151514610b91576040517f08c379a0000000000000000000000000000000000000000000000000000000008152600401610b8890611a52565b60405180910390fd5b60025f8373ffffffffffffffffffffffffffffffffffffffff1673ffffffffffffffffffffffffffffffffffffffff1681526020019081526020015f205f8281526020019081526020015f206003015f815480929190610bf090611a70565b9190505550600160035f8473ffffffffffffffffffffffffffffffffffffffff1673ffffffffffffffffffffffffffffffffffffffff1681526020019081526020015f205f8381526020019081526020015f205f3373ffffffffffffffffffffffffffffffffffffffff1673ffffffffffffffffffffffffffffffffffffffff1681526020019081526020015f205f6101000a81548160ff0219169083151502179055507f10639a45dd565cfa30ae93cb0ea63755ce2bd3df8fa076b4a94845d5f35322ef60025f8473ffffffffffffffffffffffffffffffffffffffff1673ffffffffffffffffffffffffffffffffffffffff1681526020019081526020015f205f8381526020019081526020015f205f015460025f8573ffffffffffffffffffffffffffffffffffffffff1673ffffffffffffffffffffffffffffffffffffffff1681526020019081526020015f205f8481526020019081526020015f206001015f9054906101000a900473ffffffffffffffffffffffffffffffffffffffff1660025f8673ffffffffffffffffffffffffffffffffffffffff1673ffffffffffffffffffffffffffffffffffffffff1681526020019081526020015f205f8581526020019081526020015f206002015460025f8773ffffffffffffffffffffffffffffffffffffffff1673ffffffffffffffffffffffffffffffffffffffff1681526020019081526020015f205f8681526020019081526020015f2060030154604051610e23949392919061195d565b60405180910390a15050565b5f815111610e72576040517f08c379a0000000000000000000000000000000000000000000000000000000008152600401610e6990611b01565b60405180910390fd5b5f5f9054906101000a900461ffff1661ffff1681511115610ec8576040517f08c379a0000000000000000000000000000000000000000000000000000000008152600401610ebf90611b69565b60405180910390fd5b5f60015f3373ffffffffffffffffffffffffffffffffffffffff1673ffffffffffffffffffffffffffffffffffffffff1681526020019081526020015f205490506040518060a001604052808281526020013373ffffffffffffffffffffffffffffffffffffffff1681526020014281526020015f81526020018381525060025f3373ffffffffffffffffffffffffffffffffffffffff1673ffffffffffffffffffffffffffffffffffffffff1681526020019081526020015f205f8381526020019081526020015f205f820151815f01556020820151816001015f6101000a81548173ffffffffffffffffffffffffffffffffffffffff021916908373ffffffffffffffffffffffffffffffffffffffff160217905550604082015181600201556060820151816003015560808201518160040190816110099190611d27565b5090505060015f3373ffffffffffffffffffffffffffffffffffffffff1673ffffffffffffffffffffffffffffffffffffffff1681526020019081526020015f205f81548092919061105a90611a70565b91905055507f9381fc61e9d1cfa4ecb3d1a9722eff279da5249004b2723c7aebffb64d81a2c960025f3373ffffffffffffffffffffffffffffffffffffffff1673ffffffffffffffffffffffffffffffffffffffff1681526020019081526020015f205f8381526020019081526020015f205f015460025f3373ffffffffffffffffffffffffffffffffffffffff1673ffffffffffffffffffffffffffffffffffffffff1681526020019081526020015f205f8481526020019081526020015f206001015f9054906101000a900473ffffffffffffffffffffffffffffffffffffffff1660025f3373ffffffffffffffffffffffffffffffffffffffff1673ffffffffffffffffffffffffffffffffffffffff1681526020019081526020015f205f8581526020019081526020015f206002015460025f3373ffffffffffffffffffffffffffffffffffffffff1673ffffffffffffffffffffffffffffffffffffffff1681526020019081526020015f205f8681526020019081526020015f206004016040516111ed9493929190611e77565b60405180910390a15050565b6001602052805f5260405f205f915090505481565b5f604051905090565b5f5ffd5b5f5ffd5b5f73ffffffffffffffffffffffffffffffffffffffff82169050919050565b5f6112488261121f565b9050919050565b6112588161123e565b8114611262575f5ffd5b50565b5f813590506112738161124f565b92915050565b5f819050919050565b61128b81611279565b8114611295575f5ffd5b50565b5f813590506112a681611282565b92915050565b5f5f604083850312156112c2576112c1611217565b5b5f6112cf85828601611265565b92505060206112e085828601611298565b9150509250929050565b6112f381611279565b82525050565b6113028161123e565b82525050565b5f81519050919050565b5f82825260208201905092915050565b8281835e5f83830152505050565b5f601f19601f8301169050919050565b5f61134a82611308565b6113548185611312565b9350611364818560208601611322565b61136d81611330565b840191505092915050565b5f60a08201905061138b5f8301886112ea565b61139860208301876112f9565b6113a560408301866112ea565b6113b260608301856112ea565b81810360808301526113c48184611340565b90509695505050505050565b5f6020820190508181035f8301526113e88184611340565b905092915050565b5f6020828403121561140557611404611217565b5b5f61141284828501611265565b91505092915050565b5f81519050919050565b5f82825260208201905092915050565b5f819050602082019050919050565b5f82825260208201905092915050565b5f61145e82611308565b6114688185611444565b9350611478818560208601611322565b61148181611330565b840191505092915050565b5f6114978383611454565b905092915050565b5f602082019050919050565b5f6114b58261141b565b6114bf8185611425565b9350836020820285016114d185611435565b805f5b8581101561150c57848403895281516114ed858261148c565b94506114f88361149f565b925060208a019950506001810190506114d4565b50829750879550505050505092915050565b5f6020820190508181035f83015261153681846114ab565b905092915050565b5f5f5f6060848603121561155557611554611217565b5b5f61156286828701611265565b935050602061157386828701611298565b925050604061158486828701611265565b9150509250925092565b5f8115159050919050565b6115a28161158e565b82525050565b5f6020820190506115bb5f830184611599565b92915050565b5f61ffff82169050919050565b6115d7816115c1565b81146115e1575f5ffd5b50565b5f813590506115f2816115ce565b92915050565b5f6020828403121561160d5761160c611217565b5b5f61161a848285016115e4565b91505092915050565b5f5ffd5b5f5ffd5b7f4e487b71000000000000000000000000000000000000000000000000000000005f52604160045260245ffd5b61166182611330565b810181811067ffffffffffffffff821117156116805761167f61162b565b5b80604052505050565b5f61169261120e565b905061169e8282611658565b919050565b5f67ffffffffffffffff8211156116bd576116bc61162b565b5b6116c682611330565b9050602081019050919050565b828183375f83830152505050565b5f6116f36116ee846116a3565b611689565b90508281526020810184848401111561170f5761170e611627565b5b61171a8482856116d3565b509392505050565b5f82601f83011261173657611735611623565b5b81356117468482602086016116e1565b91505092915050565b5f6020828403121561176457611763611217565b5b5f82013567ffffffffffffffff8111156117815761178061121b565b5b61178d84828501611722565b91505092915050565b5f6020820190506117a95f8301846112ea565b92915050565b7f4e487b71000000000000000000000000000000000000000000000000000000005f52602260045260245ffd5b5f60028204905060018216806117f357607f821691505b602082108103611806576118056117af565b5b50919050565b7f4e487b71000000000000000000000000000000000000000000000000000000005f52603260045260245ffd5b7f4572726f72202d206e6f20696420666f756e64000000000000000000000000005f82015250565b5f61186d601383611312565b915061187882611839565b602082019050919050565b5f6020820190508181035f83015261189a81611861565b9050919050565b7f416c726561647920756e6c696b656400000000000000000000000000000000005f82015250565b5f6118d5600f83611312565b91506118e0826118a1565b602082019050919050565b5f6020820190508181035f830152611902816118c9565b9050919050565b7f4e487b71000000000000000000000000000000000000000000000000000000005f52601160045260245ffd5b5f61194082611279565b91505f820361195257611951611909565b5b600182039050919050565b5f6080820190506119705f8301876112ea565b61197d60208301866112f9565b61198a60408301856112ea565b61199760608301846112ea565b95945050505050565b7f596f7520617265206e6f74207468652061646d696e00000000000000000000005f82015250565b5f6119d4601583611312565b91506119df826119a0565b602082019050919050565b5f6020820190508181035f830152611a01816119c8565b9050919050565b7f416c7265616479204c696b6564000000000000000000000000000000000000005f82015250565b5f611a3c600d83611312565b9150611a4782611a08565b602082019050919050565b5f6020820190508181035f830152611a6981611a30565b9050919050565b5f611a7a82611279565b91507fffffffffffffffffffffffffffffffffffffffffffffffffffffffffffffffff8203611aac57611aab611909565b5b600182019050919050565b7f4572726f72202d20496e76616c6964204c656e677468000000000000000000005f82015250565b5f611aeb601683611312565b9150611af682611ab7565b602082019050919050565b5f6020820190508181035f830152611b1881611adf565b9050919050565b7f4572726f72202d20547765657420746f6f204c6f6e67000000000000000000005f82015250565b5f611b53601683611312565b9150611b5e82611b1f565b602082019050919050565b5f6020820190508181035f830152611b8081611b47565b9050919050565b5f819050815f5260205f209050919050565b5f6020601f8301049050919050565b5f82821b905092915050565b5f60088302611be37fffffffffffffffffffffffffffffffffffffffffffffffffffffffffffffffff82611ba8565b611bed8683611ba8565b95508019841693508086168417925050509392505050565b5f819050919050565b5f611c28611c23611c1e84611279565b611c05565b611279565b9050919050565b5f819050919050565b611c4183611c0e565b611c55611c4d82611c2f565b848454611bb4565b825550505050565b5f5f905090565b611c6c611c5d565b611c77818484611c38565b505050565b5b81811015611c9a57611c8f5f82611c64565b600181019050611c7d565b5050565b601f821115611cdf57611cb081611b87565b611cb984611b99565b81016020851015611cc8578190505b611cdc611cd485611b99565b830182611c7c565b50505b505050565b5f82821c905092915050565b5f611cff5f1984600802611ce4565b1980831691505092915050565b5f611d178383611cf0565b9150826002028217905092915050565b611d3082611308565b67ffffffffffffffff811115611d4957611d4861162b565b5b611d5382546117dc565b611d5e828285611c9e565b5f60209050601f831160018114611d8f575f8415611d7d578287015190505b611d878582611d0c565b865550611dee565b601f198416611d9d86611b87565b5f5b82811015611dc457848901518255600182019150602085019450602081019050611d9f565b86831015611de15784890151611ddd601f891682611cf0565b8355505b6001600288020188555050505b505050505050565b5f8154611e02816117dc565b611e0c8186611312565b9450600182165f8114611e265760018114611e3c57611e6e565b60ff198316865281151560200286019350611e6e565b611e4585611b87565b5f5b83811015611e6657815481890152600182019150602081019050611e47565b808801955050505b50505092915050565b5f608082019050611e8a5f8301876112ea565b611e9760208301866112f9565b611ea460408301856112ea565b8181036060830152611eb68184611df6565b90509594505050505056fea264697066735822122098c56e1336ea1ca437cf35045bf009c384fae77f11337c2f2c2f9aac5f440dc864736f6c634300081f0033",
					"opcodes": "PUSH1 0x80 PUSH1 0x40 MSTORE CALLVALUE DUP1 ISZERO PUSH1 0xE JUMPI PUSH0 PUSH0 REVERT JUMPDEST POP CALLER PUSH0 PUSH1 0x2 PUSH2 0x100 EXP DUP2 SLOAD DUP2 PUSH20 0xFFFFFFFFFFFFFFFFFFFFFFFFFFFFFFFFFFFFFFFF MUL NOT AND SWAP1 DUP4 PUSH20 0xFFFFFFFFFFFFFFFFFFFFFFFFFFFFFFFFFFFFFFFF AND MUL OR SWAP1 SSTORE POP PUSH2 0x118 PUSH0 PUSH0 PUSH2 0x100 EXP DUP2 SLOAD DUP2 PUSH2 0xFFFF MUL NOT AND SWAP1 DUP4 PUSH2 0xFFFF AND MUL OR SWAP1 SSTORE POP PUSH2 0x1EF7 DUP1 PUSH2 0x79 PUSH0 CODECOPY PUSH0 RETURN INVALID PUSH1 0x80 PUSH1 0x40 MSTORE CALLVALUE DUP1 ISZERO PUSH2 0xF JUMPI PUSH0 PUSH0 REVERT JUMPDEST POP PUSH1 0x4 CALLDATASIZE LT PUSH2 0x91 JUMPI PUSH0 CALLDATALOAD PUSH1 0xE0 SHR DUP1 PUSH4 0x4DDF8940 GT PUSH2 0x64 JUMPI DUP1 PUSH4 0x4DDF8940 EQ PUSH2 0x145 JUMPI DUP1 PUSH4 0x58BFA4AB EQ PUSH2 0x175 JUMPI DUP1 PUSH4 0x63378216 EQ PUSH2 0x191 JUMPI DUP1 PUSH4 0x7C9CD2BC EQ PUSH2 0x1AD JUMPI DUP1 PUSH4 0xC12327B8 EQ PUSH2 0x1C9 JUMPI PUSH2 0x91 JUMP JUMPDEST DUP1 PUSH4 0x5A1B4A9 EQ PUSH2 0x95 JUMPI DUP1 PUSH4 0x112F54E3 EQ PUSH2 0xC9 JUMPI DUP1 PUSH4 0x12E7EE1C EQ PUSH2 0xF9 JUMPI DUP1 PUSH4 0x3D9B569F EQ PUSH2 0x129 JUMPI JUMPDEST PUSH0 PUSH0 REVERT JUMPDEST PUSH2 0xAF PUSH1 0x4 DUP1 CALLDATASIZE SUB DUP2 ADD SWAP1 PUSH2 0xAA SWAP2 SWAP1 PUSH2 0x12AC JUMP JUMPDEST PUSH2 0x1F9 JUMP JUMPDEST PUSH1 0x40 MLOAD PUSH2 0xC0 SWAP6 SWAP5 SWAP4 SWAP3 SWAP2 SWAP1 PUSH2 0x1378 JUMP JUMPDEST PUSH1 0x40 MLOAD DUP1 SWAP2 SUB SWAP1 RETURN JUMPDEST PUSH2 0xE3 PUSH1 0x4 DUP1 CALLDATASIZE SUB DUP2 ADD SWAP1 PUSH2 0xDE SWAP2 SWAP1 PUSH2 0x12AC JUMP JUMPDEST PUSH2 0x2DB JUMP JUMPDEST PUSH1 0x40 MLOAD PUSH2 0xF0 SWAP2 SWAP1 PUSH2 0x13D0 JUMP JUMPDEST PUSH1 0x40 MLOAD DUP1 SWAP2 SUB SWAP1 RETURN JUMPDEST PUSH2 0x113 PUSH1 0x4 DUP1 CALLDATASIZE SUB DUP2 ADD SWAP1 PUSH2 0x10E SWAP2 SWAP1 PUSH2 0x13F0 JUMP JUMPDEST PUSH2 0x3BB JUMP JUMPDEST PUSH1 0x40 MLOAD PUSH2 0x120 SWAP2 SWAP1 PUSH2 0x151E JUMP JUMPDEST PUSH1 0x40 MLOAD DUP1 SWAP2 SUB SWAP1 RETURN JUMPDEST PUSH2 0x143 PUSH1 0x4 DUP1 CALLDATASIZE SUB DUP2 ADD SWAP1 PUSH2 0x13E SWAP2 SWAP1 PUSH2 0x12AC JUMP JUMPDEST PUSH2 0x568 JUMP JUMPDEST STOP JUMPDEST PUSH2 0x15F PUSH1 0x4 DUP1 CALLDATASIZE SUB DUP2 ADD SWAP1 PUSH2 0x15A SWAP2 SWAP1 PUSH2 0x153E JUMP JUMPDEST PUSH2 0x957 JUMP JUMPDEST PUSH1 0x40 MLOAD PUSH2 0x16C SWAP2 SWAP1 PUSH2 0x15A8 JUMP JUMPDEST PUSH1 0x40 MLOAD DUP1 SWAP2 SUB SWAP1 RETURN JUMPDEST PUSH2 0x18F PUSH1 0x4 DUP1 CALLDATASIZE SUB DUP2 ADD SWAP1 PUSH2 0x18A SWAP2 SWAP1 PUSH2 0x15F8 JUMP JUMPDEST PUSH2 0x98C JUMP JUMPDEST STOP JUMPDEST PUSH2 0x1AB PUSH1 0x4 DUP1 CALLDATASIZE SUB DUP2 ADD SWAP1 PUSH2 0x1A6 SWAP2 SWAP1 PUSH2 0x12AC JUMP JUMPDEST PUSH2 0xA39 JUMP JUMPDEST STOP JUMPDEST PUSH2 0x1C7 PUSH1 0x4 DUP1 CALLDATASIZE SUB DUP2 ADD SWAP1 PUSH2 0x1C2 SWAP2 SWAP1 PUSH2 0x174F JUMP JUMPDEST PUSH2 0xE2F JUMP JUMPDEST STOP JUMPDEST PUSH2 0x1E3 PUSH1 0x4 DUP1 CALLDATASIZE SUB DUP2 ADD SWAP1 PUSH2 0x1DE SWAP2 SWAP1 PUSH2 0x13F0 JUMP JUMPDEST PUSH2 0x11F9 JUMP JUMPDEST PUSH1 0x40 MLOAD PUSH2 0x1F0 SWAP2 SWAP1 PUSH2 0x1796 JUMP JUMPDEST PUSH1 0x40 MLOAD DUP1 SWAP2 SUB SWAP1 RETURN JUMPDEST PUSH1 0x2 PUSH1 0x20 MSTORE DUP2 PUSH0 MSTORE PUSH1 0x40 PUSH0 KECCAK256 PUSH1 0x20 MSTORE DUP1 PUSH0 MSTORE PUSH1 0x40 PUSH0 KECCAK256 PUSH0 SWAP2 POP SWAP2 POP POP DUP1 PUSH0 ADD SLOAD SWAP1 DUP1 PUSH1 0x1 ADD PUSH0 SWAP1 SLOAD SWAP1 PUSH2 0x100 EXP SWAP1 DIV PUSH20 0xFFFFFFFFFFFFFFFFFFFFFFFFFFFFFFFFFFFFFFFF AND SWAP1 DUP1 PUSH1 0x2 ADD SLOAD SWAP1 DUP1 PUSH1 0x3 ADD SLOAD SWAP1 DUP1 PUSH1 0x4 ADD DUP1 SLOAD PUSH2 0x25A SWAP1 PUSH2 0x17DC JUMP JUMPDEST DUP1 PUSH1 0x1F ADD PUSH1 0x20 DUP1 SWAP2 DIV MUL PUSH1 0x20 ADD PUSH1 0x40 MLOAD SWAP1 DUP2 ADD PUSH1 0x40 MSTORE DUP1 SWAP3 SWAP2 SWAP1 DUP2 DUP2 MSTORE PUSH1 0x20 ADD DUP3 DUP1 SLOAD PUSH2 0x286 SWAP1 PUSH2 0x17DC JUMP JUMPDEST DUP1 ISZERO PUSH2 0x2D1 JUMPI DUP1 PUSH1 0x1F LT PUSH2 0x2A8 JUMPI PUSH2 0x100 DUP1 DUP4 SLOAD DIV MUL DUP4 MSTORE SWAP2 PUSH1 0x20 ADD SWAP2 PUSH2 0x2D1 JUMP JUMPDEST DUP3 ADD SWAP2 SWAP1 PUSH0 MSTORE PUSH1 0x20 PUSH0 KECCAK256 SWAP1 JUMPDEST DUP2 SLOAD DUP2 MSTORE SWAP1 PUSH1 0x1 ADD SWAP1 PUSH1 0x20 ADD DUP1 DUP4 GT PUSH2 0x2B4 JUMPI DUP3 SWAP1 SUB PUSH1 0x1F AND DUP3 ADD SWAP2 JUMPDEST POP POP POP POP POP SWAP1 POP DUP6 JUMP JUMPDEST PUSH1 0x60 PUSH1 0x2 PUSH0 DUP5 PUSH20 0xFFFFFFFFFFFFFFFFFFFFFFFFFFFFFFFFFFFFFFFF AND PUSH20 0xFFFFFFFFFFFFFFFFFFFFFFFFFFFFFFFFFFFFFFFF AND DUP2 MSTORE PUSH1 0x20 ADD SWAP1 DUP2 MSTORE PUSH1 0x20 ADD PUSH0 KECCAK256 PUSH0 DUP4 DUP2 MSTORE PUSH1 0x20 ADD SWAP1 DUP2 MSTORE PUSH1 0x20 ADD PUSH0 KECCAK256 PUSH1 0x4 ADD DUP1 SLOAD PUSH2 0x337 SWAP1 PUSH2 0x17DC JUMP JUMPDEST DUP1 PUSH1 0x1F ADD PUSH1 0x20 DUP1 SWAP2 DIV MUL PUSH1 0x20 ADD PUSH1 0x40 MLOAD SWAP1 DUP2 ADD PUSH1 0x40 MSTORE DUP1 SWAP3 SWAP2 SWAP1 DUP2 DUP2 MSTORE PUSH1 0x20 ADD DUP3 DUP1 SLOAD PUSH2 0x363 SWAP1 PUSH2 0x17DC JUMP JUMPDEST DUP1 ISZERO PUSH2 0x3AE JUMPI DUP1 PUSH1 0x1F LT PUSH2 0x385 JUMPI PUSH2 0x100 DUP1 DUP4 SLOAD DIV MUL DUP4 MSTORE SWAP2 PUSH1 0x20 ADD SWAP2 PUSH2 0x3AE JUMP JUMPDEST DUP3 ADD SWAP2 SWAP1 PUSH0 MSTORE PUSH1 0x20 PUSH0 KECCAK256 SWAP1 JUMPDEST DUP2 SLOAD DUP2 MSTORE SWAP1 PUSH1 0x1 ADD SWAP1 PUSH1 0x20 ADD DUP1 DUP4 GT PUSH2 0x391 JUMPI DUP3 SWAP1 SUB PUSH1 0x1F AND DUP3 ADD SWAP2 JUMPDEST POP POP POP POP POP SWAP1 POP SWAP3 SWAP2 POP POP JUMP JUMPDEST PUSH1 0x60 PUSH0 PUSH1 0x1 PUSH0 DUP5 PUSH20 0xFFFFFFFFFFFFFFFFFFFFFFFFFFFFFFFFFFFFFFFF AND PUSH20 0xFFFFFFFFFFFFFFFFFFFFFFFFFFFFFFFFFFFFFFFF AND DUP2 MSTORE PUSH1 0x20 ADD SWAP1 DUP2 MSTORE PUSH1 0x20 ADD PUSH0 KECCAK256 SLOAD SWAP1 POP PUSH0 DUP2 PUSH8 0xFFFFFFFFFFFFFFFF DUP2 GT ISZERO PUSH2 0x419 JUMPI PUSH2 0x418 PUSH2 0x162B JUMP JUMPDEST JUMPDEST PUSH1 0x40 MLOAD SWAP1 DUP1 DUP3 MSTORE DUP1 PUSH1 0x20 MUL PUSH1 0x20 ADD DUP3 ADD PUSH1 0x40 MSTORE DUP1 ISZERO PUSH2 0x44C JUMPI DUP2 PUSH1 0x20 ADD JUMPDEST PUSH1 0x60 DUP2 MSTORE PUSH1 0x20 ADD SWAP1 PUSH1 0x1 SWAP1 SUB SWAP1 DUP2 PUSH2 0x437 JUMPI SWAP1 POP JUMPDEST POP SWAP1 POP PUSH0 PUSH0 SWAP1 POP JUMPDEST DUP3 DUP2 LT ISZERO PUSH2 0x55D JUMPI PUSH1 0x2 PUSH0 DUP7 PUSH20 0xFFFFFFFFFFFFFFFFFFFFFFFFFFFFFFFFFFFFFFFF AND PUSH20 0xFFFFFFFFFFFFFFFFFFFFFFFFFFFFFFFFFFFFFFFF AND DUP2 MSTORE PUSH1 0x20 ADD SWAP1 DUP2 MSTORE PUSH1 0x20 ADD PUSH0 KECCAK256 PUSH0 DUP3 DUP2 MSTORE PUSH1 0x20 ADD SWAP1 DUP2 MSTORE PUSH1 0x20 ADD PUSH0 KECCAK256 PUSH1 0x4 ADD DUP1 SLOAD PUSH2 0x4B6 SWAP1 PUSH2 0x17DC JUMP JUMPDEST DUP1 PUSH1 0x1F ADD PUSH1 0x20 DUP1 SWAP2 DIV MUL PUSH1 0x20 ADD PUSH1 0x40 MLOAD SWAP1 DUP2 ADD PUSH1 0x40 MSTORE DUP1 SWAP3 SWAP2 SWAP1 DUP2 DUP2 MSTORE PUSH1 0x20 ADD DUP3 DUP1 SLOAD PUSH2 0x4E2 SWAP1 PUSH2 0x17DC JUMP JUMPDEST DUP1 ISZERO PUSH2 0x52D JUMPI DUP1 PUSH1 0x1F LT PUSH2 0x504 JUMPI PUSH2 0x100 DUP1 DUP4 SLOAD DIV MUL DUP4 MSTORE SWAP2 PUSH1 0x20 ADD SWAP2 PUSH2 0x52D JUMP JUMPDEST DUP3 ADD SWAP2 SWAP1 PUSH0 MSTORE PUSH1 0x20 PUSH0 KECCAK256 SWAP1 JUMPDEST DUP2 SLOAD DUP2 MSTORE SWAP1 PUSH1 0x1 ADD SWAP1 PUSH1 0x20 ADD DUP1 DUP4 GT PUSH2 0x510 JUMPI DUP3 SWAP1 SUB PUSH1 0x1F AND DUP3 ADD SWAP2 JUMPDEST POP POP POP POP POP DUP3 DUP3 DUP2 MLOAD DUP2 LT PUSH2 0x545 JUMPI PUSH2 0x544 PUSH2 0x180C JUMP JUMPDEST JUMPDEST PUSH1 0x20 MUL PUSH1 0x20 ADD ADD DUP2 SWAP1 MSTORE POP DUP1 DUP1 PUSH1 0x1 ADD SWAP2 POP POP PUSH2 0x454 JUMP JUMPDEST POP DUP1 SWAP3 POP POP POP SWAP2 SWAP1 POP JUMP JUMPDEST PUSH1 0x1 PUSH0 DUP4 PUSH20 0xFFFFFFFFFFFFFFFFFFFFFFFFFFFFFFFFFFFFFFFF AND PUSH20 0xFFFFFFFFFFFFFFFFFFFFFFFFFFFFFFFFFFFFFFFF AND DUP2 MSTORE PUSH1 0x20 ADD SWAP1 DUP2 MSTORE PUSH1 0x20 ADD PUSH0 KECCAK256 SLOAD DUP2 LT PUSH2 0x5E7 JUMPI PUSH1 0x40 MLOAD PUSH32 0x8C379A000000000000000000000000000000000000000000000000000000000 DUP2 MSTORE PUSH1 0x4 ADD PUSH2 0x5DE SWAP1 PUSH2 0x1883 JUMP JUMPDEST PUSH1 0x40 MLOAD DUP1 SWAP2 SUB SWAP1 REVERT JUMPDEST PUSH1 0x3 PUSH0 DUP4 PUSH20 0xFFFFFFFFFFFFFFFFFFFFFFFFFFFFFFFFFFFFFFFF AND PUSH20 0xFFFFFFFFFFFFFFFFFFFFFFFFFFFFFFFFFFFFFFFF AND DUP2 MSTORE PUSH1 0x20 ADD SWAP1 DUP2 MSTORE PUSH1 0x20 ADD PUSH0 KECCAK256 PUSH0 DUP3 DUP2 MSTORE PUSH1 0x20 ADD SWAP1 DUP2 MSTORE PUSH1 0x20 ADD PUSH0 KECCAK256 PUSH0 CALLER PUSH20 0xFFFFFFFFFFFFFFFFFFFFFFFFFFFFFFFFFFFFFFFF AND PUSH20 0xFFFFFFFFFFFFFFFFFFFFFFFFFFFFFFFFFFFFFFFF AND DUP2 MSTORE PUSH1 0x20 ADD SWAP1 DUP2 MSTORE PUSH1 0x20 ADD PUSH0 KECCAK256 PUSH0 SWAP1 SLOAD SWAP1 PUSH2 0x100 EXP SWAP1 DIV PUSH1 0xFF AND PUSH2 0x6BA JUMPI PUSH1 0x40 MLOAD PUSH32 0x8C379A000000000000000000000000000000000000000000000000000000000 DUP2 MSTORE PUSH1 0x4 ADD PUSH2 0x6B1 SWAP1 PUSH2 0x18EB JUMP JUMPDEST PUSH1 0x40 MLOAD DUP1 SWAP2 SUB SWAP1 REVERT JUMPDEST PUSH1 0x2 PUSH0 DUP4 PUSH20 0xFFFFFFFFFFFFFFFFFFFFFFFFFFFFFFFFFFFFFFFF AND PUSH20 0xFFFFFFFFFFFFFFFFFFFFFFFFFFFFFFFFFFFFFFFF AND DUP2 MSTORE PUSH1 0x20 ADD SWAP1 DUP2 MSTORE PUSH1 0x20 ADD PUSH0 KECCAK256 PUSH0 DUP3 DUP2 MSTORE PUSH1 0x20 ADD SWAP1 DUP2 MSTORE PUSH1 0x20 ADD PUSH0 KECCAK256 PUSH1 0x3 ADD PUSH0 DUP2 SLOAD DUP1 SWAP3 SWAP2 SWAP1 PUSH2 0x719 SWAP1 PUSH2 0x1936 JUMP JUMPDEST SWAP2 SWAP1 POP SSTORE POP PUSH0 PUSH1 0x3 PUSH0 DUP5 PUSH20 0xFFFFFFFFFFFFFFFFFFFFFFFFFFFFFFFFFFFFFFFF AND PUSH20 0xFFFFFFFFFFFFFFFFFFFFFFFFFFFFFFFFFFFFFFFF AND DUP2 MSTORE PUSH1 0x20 ADD SWAP1 DUP2 MSTORE PUSH1 0x20 ADD PUSH0 KECCAK256 PUSH0 DUP4 DUP2 MSTORE PUSH1 0x20 ADD SWAP1 DUP2 MSTORE PUSH1 0x20 ADD PUSH0 KECCAK256 PUSH0 CALLER PUSH20 0xFFFFFFFFFFFFFFFFFFFFFFFFFFFFFFFFFFFFFFFF AND PUSH20 0xFFFFFFFFFFFFFFFFFFFFFFFFFFFFFFFFFFFFFFFF AND DUP2 MSTORE PUSH1 0x20 ADD SWAP1 DUP2 MSTORE PUSH1 0x20 ADD PUSH0 KECCAK256 PUSH0 PUSH2 0x100 EXP DUP2 SLOAD DUP2 PUSH1 0xFF MUL NOT AND SWAP1 DUP4 ISZERO ISZERO MUL OR SWAP1 SSTORE POP PUSH32 0x1ED3B0E892FD24A91DC7FD874F3F278041863C45BDA1B3E1C6D4502F11176A74 PUSH1 0x2 PUSH0 DUP5 PUSH20 0xFFFFFFFFFFFFFFFFFFFFFFFFFFFFFFFFFFFFFFFF AND PUSH20 0xFFFFFFFFFFFFFFFFFFFFFFFFFFFFFFFFFFFFFFFF AND DUP2 MSTORE PUSH1 0x20 ADD SWAP1 DUP2 MSTORE PUSH1 0x20 ADD PUSH0 KECCAK256 PUSH0 DUP4 DUP2 MSTORE PUSH1 0x20 ADD SWAP1 DUP2 MSTORE PUSH1 0x20 ADD PUSH0 KECCAK256 PUSH0 ADD SLOAD PUSH1 0x2 PUSH0 DUP6 PUSH20 0xFFFFFFFFFFFFFFFFFFFFFFFFFFFFFFFFFFFFFFFF AND PUSH20 0xFFFFFFFFFFFFFFFFFFFFFFFFFFFFFFFFFFFFFFFF AND DUP2 MSTORE PUSH1 0x20 ADD SWAP1 DUP2 MSTORE PUSH1 0x20 ADD PUSH0 KECCAK256 PUSH0 DUP5 DUP2 MSTORE PUSH1 0x20 ADD SWAP1 DUP2 MSTORE PUSH1 0x20 ADD PUSH0 KECCAK256 PUSH1 0x1 ADD PUSH0 SWAP1 SLOAD SWAP1 PUSH2 0x100 EXP SWAP1 DIV PUSH20 0xFFFFFFFFFFFFFFFFFFFFFFFFFFFFFFFFFFFFFFFF AND PUSH1 0x2 PUSH0 DUP7 PUSH20 0xFFFFFFFFFFFFFFFFFFFFFFFFFFFFFFFFFFFFFFFF AND PUSH20 0xFFFFFFFFFFFFFFFFFFFFFFFFFFFFFFFFFFFFFFFF AND DUP2 MSTORE PUSH1 0x20 ADD SWAP1 DUP2 MSTORE PUSH1 0x20 ADD PUSH0 KECCAK256 PUSH0 DUP6 DUP2 MSTORE PUSH1 0x20 ADD SWAP1 DUP2 MSTORE PUSH1 0x20 ADD PUSH0 KECCAK256 PUSH1 0x2 ADD SLOAD PUSH1 0x2 PUSH0 DUP8 PUSH20 0xFFFFFFFFFFFFFFFFFFFFFFFFFFFFFFFFFFFFFFFF AND PUSH20 0xFFFFFFFFFFFFFFFFFFFFFFFFFFFFFFFFFFFFFFFF AND DUP2 MSTORE PUSH1 0x20 ADD SWAP1 DUP2 MSTORE PUSH1 0x20 ADD PUSH0 KECCAK256 PUSH0 DUP7 DUP2 MSTORE PUSH1 0x20 ADD SWAP1 DUP2 MSTORE PUSH1 0x20 ADD PUSH0 KECCAK256 PUSH1 0x3 ADD SLOAD PUSH1 0x40 MLOAD PUSH2 0x94B SWAP5 SWAP4 SWAP3 SWAP2 SWAP1 PUSH2 0x195D JUMP JUMPDEST PUSH1 0x40 MLOAD DUP1 SWAP2 SUB SWAP1 LOG1 POP POP JUMP JUMPDEST PUSH1 0x3 PUSH1 0x20 MSTORE DUP3 PUSH0 MSTORE PUSH1 0x40 PUSH0 KECCAK256 PUSH1 0x20 MSTORE DUP2 PUSH0 MSTORE PUSH1 0x40 PUSH0 KECCAK256 PUSH1 0x20 MSTORE DUP1 PUSH0 MSTORE PUSH1 0x40 PUSH0 KECCAK256 PUSH0 SWAP3 POP SWAP3 POP POP SWAP1 SLOAD SWAP1 PUSH2 0x100 EXP SWAP1 DIV PUSH1 0xFF AND DUP2 JUMP JUMPDEST CALLER PUSH20 0xFFFFFFFFFFFFFFFFFFFFFFFFFFFFFFFFFFFFFFFF AND PUSH0 PUSH1 0x2 SWAP1 SLOAD SWAP1 PUSH2 0x100 EXP SWAP1 DIV PUSH20 0xFFFFFFFFFFFFFFFFFFFFFFFFFFFFFFFFFFFFFFFF AND PUSH20 0xFFFFFFFFFFFFFFFFFFFFFFFFFFFFFFFFFFFFFFFF AND EQ PUSH2 0xA1B JUMPI PUSH1 0x40 MLOAD PUSH32 0x8C379A000000000000000000000000000000000000000000000000000000000 DUP2 MSTORE PUSH1 0x4 ADD PUSH2 0xA12 SWAP1 PUSH2 0x19EA JUMP JUMPDEST PUSH1 0x40 MLOAD DUP1 SWAP2 SUB SWAP1 REVERT JUMPDEST DUP1 PUSH0 PUSH0 PUSH2 0x100 EXP DUP2 SLOAD DUP2 PUSH2 0xFFFF MUL NOT AND SWAP1 DUP4 PUSH2 0xFFFF AND MUL OR SWAP1 SSTORE POP POP JUMP JUMPDEST PUSH1 0x1 PUSH0 DUP4 PUSH20 0xFFFFFFFFFFFFFFFFFFFFFFFFFFFFFFFFFFFFFFFF AND PUSH20 0xFFFFFFFFFFFFFFFFFFFFFFFFFFFFFFFFFFFFFFFF AND DUP2 MSTORE PUSH1 0x20 ADD SWAP1 DUP2 MSTORE PUSH1 0x20 ADD PUSH0 KECCAK256 SLOAD DUP2 LT PUSH2 0xAB8 JUMPI PUSH1 0x40 MLOAD PUSH32 0x8C379A000000000000000000000000000000000000000000000000000000000 DUP2 MSTORE PUSH1 0x4 ADD PUSH2 0xAAF SWAP1 PUSH2 0x1883 JUMP JUMPDEST PUSH1 0x40 MLOAD DUP1 SWAP2 SUB SWAP1 REVERT JUMPDEST PUSH0 ISZERO ISZERO PUSH1 0x3 PUSH0 DUP5 PUSH20 0xFFFFFFFFFFFFFFFFFFFFFFFFFFFFFFFFFFFFFFFF AND PUSH20 0xFFFFFFFFFFFFFFFFFFFFFFFFFFFFFFFFFFFFFFFF AND DUP2 MSTORE PUSH1 0x20 ADD SWAP1 DUP2 MSTORE PUSH1 0x20 ADD PUSH0 KECCAK256 PUSH0 DUP4 DUP2 MSTORE PUSH1 0x20 ADD SWAP1 DUP2 MSTORE PUSH1 0x20 ADD PUSH0 KECCAK256 PUSH0 CALLER PUSH20 0xFFFFFFFFFFFFFFFFFFFFFFFFFFFFFFFFFFFFFFFF AND PUSH20 0xFFFFFFFFFFFFFFFFFFFFFFFFFFFFFFFFFFFFFFFF AND DUP2 MSTORE PUSH1 0x20 ADD SWAP1 DUP2 MSTORE PUSH1 0x20 ADD PUSH0 KECCAK256 PUSH0 SWAP1 SLOAD SWAP1 PUSH2 0x100 EXP SWAP1 DIV PUSH1 0xFF AND ISZERO ISZERO EQ PUSH2 0xB91 JUMPI PUSH1 0x40 MLOAD PUSH32 0x8C379A000000000000000000000000000000000000000000000000000000000 DUP2 MSTORE PUSH1 0x4 ADD PUSH2 0xB88 SWAP1 PUSH2 0x1A52 JUMP JUMPDEST PUSH1 0x40 MLOAD DUP1 SWAP2 SUB SWAP1 REVERT JUMPDEST PUSH1 0x2 PUSH0 DUP4 PUSH20 0xFFFFFFFFFFFFFFFFFFFFFFFFFFFFFFFFFFFFFFFF AND PUSH20 0xFFFFFFFFFFFFFFFFFFFFFFFFFFFFFFFFFFFFFFFF AND DUP2 MSTORE PUSH1 0x20 ADD SWAP1 DUP2 MSTORE PUSH1 0x20 ADD PUSH0 KECCAK256 PUSH0 DUP3 DUP2 MSTORE PUSH1 0x20 ADD SWAP1 DUP2 MSTORE PUSH1 0x20 ADD PUSH0 KECCAK256 PUSH1 0x3 ADD PUSH0 DUP2 SLOAD DUP1 SWAP3 SWAP2 SWAP1 PUSH2 0xBF0 SWAP1 PUSH2 0x1A70 JUMP JUMPDEST SWAP2 SWAP1 POP SSTORE POP PUSH1 0x1 PUSH1 0x3 PUSH0 DUP5 PUSH20 0xFFFFFFFFFFFFFFFFFFFFFFFFFFFFFFFFFFFFFFFF AND PUSH20 0xFFFFFFFFFFFFFFFFFFFFFFFFFFFFFFFFFFFFFFFF AND DUP2 MSTORE PUSH1 0x20 ADD SWAP1 DUP2 MSTORE PUSH1 0x20 ADD PUSH0 KECCAK256 PUSH0 DUP4 DUP2 MSTORE PUSH1 0x20 ADD SWAP1 DUP2 MSTORE PUSH1 0x20 ADD PUSH0 KECCAK256 PUSH0 CALLER PUSH20 0xFFFFFFFFFFFFFFFFFFFFFFFFFFFFFFFFFFFFFFFF AND PUSH20 0xFFFFFFFFFFFFFFFFFFFFFFFFFFFFFFFFFFFFFFFF AND DUP2 MSTORE PUSH1 0x20 ADD SWAP1 DUP2 MSTORE PUSH1 0x20 ADD PUSH0 KECCAK256 PUSH0 PUSH2 0x100 EXP DUP2 SLOAD DUP2 PUSH1 0xFF MUL NOT AND SWAP1 DUP4 ISZERO ISZERO MUL OR SWAP1 SSTORE POP PUSH32 0x10639A45DD565CFA30AE93CB0EA63755CE2BD3DF8FA076B4A94845D5F35322EF PUSH1 0x2 PUSH0 DUP5 PUSH20 0xFFFFFFFFFFFFFFFFFFFFFFFFFFFFFFFFFFFFFFFF AND PUSH20 0xFFFFFFFFFFFFFFFFFFFFFFFFFFFFFFFFFFFFFFFF AND DUP2 MSTORE PUSH1 0x20 ADD SWAP1 DUP2 MSTORE PUSH1 0x20 ADD PUSH0 KECCAK256 PUSH0 DUP4 DUP2 MSTORE PUSH1 0x20 ADD SWAP1 DUP2 MSTORE PUSH1 0x20 ADD PUSH0 KECCAK256 PUSH0 ADD SLOAD PUSH1 0x2 PUSH0 DUP6 PUSH20 0xFFFFFFFFFFFFFFFFFFFFFFFFFFFFFFFFFFFFFFFF AND PUSH20 0xFFFFFFFFFFFFFFFFFFFFFFFFFFFFFFFFFFFFFFFF AND DUP2 MSTORE PUSH1 0x20 ADD SWAP1 DUP2 MSTORE PUSH1 0x20 ADD PUSH0 KECCAK256 PUSH0 DUP5 DUP2 MSTORE PUSH1 0x20 ADD SWAP1 DUP2 MSTORE PUSH1 0x20 ADD PUSH0 KECCAK256 PUSH1 0x1 ADD PUSH0 SWAP1 SLOAD SWAP1 PUSH2 0x100 EXP SWAP1 DIV PUSH20 0xFFFFFFFFFFFFFFFFFFFFFFFFFFFFFFFFFFFFFFFF AND PUSH1 0x2 PUSH0 DUP7 PUSH20 0xFFFFFFFFFFFFFFFFFFFFFFFFFFFFFFFFFFFFFFFF AND PUSH20 0xFFFFFFFFFFFFFFFFFFFFFFFFFFFFFFFFFFFFFFFF AND DUP2 MSTORE PUSH1 0x20 ADD SWAP1 DUP2 MSTORE PUSH1 0x20 ADD PUSH0 KECCAK256 PUSH0 DUP6 DUP2 MSTORE PUSH1 0x20 ADD SWAP1 DUP2 MSTORE PUSH1 0x20 ADD PUSH0 KECCAK256 PUSH1 0x2 ADD SLOAD PUSH1 0x2 PUSH0 DUP8 PUSH20 0xFFFFFFFFFFFFFFFFFFFFFFFFFFFFFFFFFFFFFFFF AND PUSH20 0xFFFFFFFFFFFFFFFFFFFFFFFFFFFFFFFFFFFFFFFF AND DUP2 MSTORE PUSH1 0x20 ADD SWAP1 DUP2 MSTORE PUSH1 0x20 ADD PUSH0 KECCAK256 PUSH0 DUP7 DUP2 MSTORE PUSH1 0x20 ADD SWAP1 DUP2 MSTORE PUSH1 0x20 ADD PUSH0 KECCAK256 PUSH1 0x3 ADD SLOAD PUSH1 0x40 MLOAD PUSH2 0xE23 SWAP5 SWAP4 SWAP3 SWAP2 SWAP1 PUSH2 0x195D JUMP JUMPDEST PUSH1 0x40 MLOAD DUP1 SWAP2 SUB SWAP1 LOG1 POP POP JUMP JUMPDEST PUSH0 DUP2 MLOAD GT PUSH2 0xE72 JUMPI PUSH1 0x40 MLOAD PUSH32 0x8C379A000000000000000000000000000000000000000000000000000000000 DUP2 MSTORE PUSH1 0x4 ADD PUSH2 0xE69 SWAP1 PUSH2 0x1B01 JUMP JUMPDEST PUSH1 0x40 MLOAD DUP1 SWAP2 SUB SWAP1 REVERT JUMPDEST PUSH0 PUSH0 SWAP1 SLOAD SWAP1 PUSH2 0x100 EXP SWAP1 DIV PUSH2 0xFFFF AND PUSH2 0xFFFF AND DUP2 MLOAD GT ISZERO PUSH2 0xEC8 JUMPI PUSH1 0x40 MLOAD PUSH32 0x8C379A000000000000000000000000000000000000000000000000000000000 DUP2 MSTORE PUSH1 0x4 ADD PUSH2 0xEBF SWAP1 PUSH2 0x1B69 JUMP JUMPDEST PUSH1 0x40 MLOAD DUP1 SWAP2 SUB SWAP1 REVERT JUMPDEST PUSH0 PUSH1 0x1 PUSH0 CALLER PUSH20 0xFFFFFFFFFFFFFFFFFFFFFFFFFFFFFFFFFFFFFFFF AND PUSH20 0xFFFFFFFFFFFFFFFFFFFFFFFFFFFFFFFFFFFFFFFF AND DUP2 MSTORE PUSH1 0x20 ADD SWAP1 DUP2 MSTORE PUSH1 0x20 ADD PUSH0 KECCAK256 SLOAD SWAP1 POP PUSH1 0x40 MLOAD DUP1 PUSH1 0xA0 ADD PUSH1 0x40 MSTORE DUP1 DUP3 DUP2 MSTORE PUSH1 0x20 ADD CALLER PUSH20 0xFFFFFFFFFFFFFFFFFFFFFFFFFFFFFFFFFFFFFFFF AND DUP2 MSTORE PUSH1 0x20 ADD TIMESTAMP DUP2 MSTORE PUSH1 0x20 ADD PUSH0 DUP2 MSTORE PUSH1 0x20 ADD DUP4 DUP2 MSTORE POP PUSH1 0x2 PUSH0 CALLER PUSH20 0xFFFFFFFFFFFFFFFFFFFFFFFFFFFFFFFFFFFFFFFF AND PUSH20 0xFFFFFFFFFFFFFFFFFFFFFFFFFFFFFFFFFFFFFFFF AND DUP2 MSTORE PUSH1 0x20 ADD SWAP1 DUP2 MSTORE PUSH1 0x20 ADD PUSH0 KECCAK256 PUSH0 DUP4 DUP2 MSTORE PUSH1 0x20 ADD SWAP1 DUP2 MSTORE PUSH1 0x20 ADD PUSH0 KECCAK256 PUSH0 DUP3 ADD MLOAD DUP2 PUSH0 ADD SSTORE PUSH1 0x20 DUP3 ADD MLOAD DUP2 PUSH1 0x1 ADD PUSH0 PUSH2 0x100 EXP DUP2 SLOAD DUP2 PUSH20 0xFFFFFFFFFFFFFFFFFFFFFFFFFFFFFFFFFFFFFFFF MUL NOT AND SWAP1 DUP4 PUSH20 0xFFFFFFFFFFFFFFFFFFFFFFFFFFFFFFFFFFFFFFFF AND MUL OR SWAP1 SSTORE POP PUSH1 0x40 DUP3 ADD MLOAD DUP2 PUSH1 0x2 ADD SSTORE PUSH1 0x60 DUP3 ADD MLOAD DUP2 PUSH1 0x3 ADD SSTORE PUSH1 0x80 DUP3 ADD MLOAD DUP2 PUSH1 0x4 ADD SWAP1 DUP2 PUSH2 0x1009 SWAP2 SWAP1 PUSH2 0x1D27 JUMP JUMPDEST POP SWAP1 POP POP PUSH1 0x1 PUSH0 CALLER PUSH20 0xFFFFFFFFFFFFFFFFFFFFFFFFFFFFFFFFFFFFFFFF AND PUSH20 0xFFFFFFFFFFFFFFFFFFFFFFFFFFFFFFFFFFFFFFFF AND DUP2 MSTORE PUSH1 0x20 ADD SWAP1 DUP2 MSTORE PUSH1 0x20 ADD PUSH0 KECCAK256 PUSH0 DUP2 SLOAD DUP1 SWAP3 SWAP2 SWAP1 PUSH2 0x105A SWAP1 PUSH2 0x1A70 JUMP JUMPDEST SWAP2 SWAP1 POP SSTORE POP PUSH32 0x9381FC61E9D1CFA4ECB3D1A9722EFF279DA5249004B2723C7AEBFFB64D81A2C9 PUSH1 0x2 PUSH0 CALLER PUSH20 0xFFFFFFFFFFFFFFFFFFFFFFFFFFFFFFFFFFFFFFFF AND PUSH20 0xFFFFFFFFFFFFFFFFFFFFFFFFFFFFFFFFFFFFFFFF AND DUP2 MSTORE PUSH1 0x20 ADD SWAP1 DUP2 MSTORE PUSH1 0x20 ADD PUSH0 KECCAK256 PUSH0 DUP4 DUP2 MSTORE PUSH1 0x20 ADD SWAP1 DUP2 MSTORE PUSH1 0x20 ADD PUSH0 KECCAK256 PUSH0 ADD SLOAD PUSH1 0x2 PUSH0 CALLER PUSH20 0xFFFFFFFFFFFFFFFFFFFFFFFFFFFFFFFFFFFFFFFF AND PUSH20 0xFFFFFFFFFFFFFFFFFFFFFFFFFFFFFFFFFFFFFFFF AND DUP2 MSTORE PUSH1 0x20 ADD SWAP1 DUP2 MSTORE PUSH1 0x20 ADD PUSH0 KECCAK256 PUSH0 DUP5 DUP2 MSTORE PUSH1 0x20 ADD SWAP1 DUP2 MSTORE PUSH1 0x20 ADD PUSH0 KECCAK256 PUSH1 0x1 ADD PUSH0 SWAP1 SLOAD SWAP1 PUSH2 0x100 EXP SWAP1 DIV PUSH20 0xFFFFFFFFFFFFFFFFFFFFFFFFFFFFFFFFFFFFFFFF AND PUSH1 0x2 PUSH0 CALLER PUSH20 0xFFFFFFFFFFFFFFFFFFFFFFFFFFFFFFFFFFFFFFFF AND PUSH20 0xFFFFFFFFFFFFFFFFFFFFFFFFFFFFFFFFFFFFFFFF AND DUP2 MSTORE PUSH1 0x20 ADD SWAP1 DUP2 MSTORE PUSH1 0x20 ADD PUSH0 KECCAK256 PUSH0 DUP6 DUP2 MSTORE PUSH1 0x20 ADD SWAP1 DUP2 MSTORE PUSH1 0x20 ADD PUSH0 KECCAK256 PUSH1 0x2 ADD SLOAD PUSH1 0x2 PUSH0 CALLER PUSH20 0xFFFFFFFFFFFFFFFFFFFFFFFFFFFFFFFFFFFFFFFF AND PUSH20 0xFFFFFFFFFFFFFFFFFFFFFFFFFFFFFFFFFFFFFFFF AND DUP2 MSTORE PUSH1 0x20 ADD SWAP1 DUP2 MSTORE PUSH1 0x20 ADD PUSH0 KECCAK256 PUSH0 DUP7 DUP2 MSTORE PUSH1 0x20 ADD SWAP1 DUP2 MSTORE PUSH1 0x20 ADD PUSH0 KECCAK256 PUSH1 0x4 ADD PUSH1 0x40 MLOAD PUSH2 0x11ED SWAP5 SWAP4 SWAP3 SWAP2 SWAP1 PUSH2 0x1E77 JUMP JUMPDEST PUSH1 0x40 MLOAD DUP1 SWAP2 SUB SWAP1 LOG1 POP POP JUMP JUMPDEST PUSH1 0x1 PUSH1 0x20 MSTORE DUP1 PUSH0 MSTORE PUSH1 0x40 PUSH0 KECCAK256 PUSH0 SWAP2 POP SWAP1 POP SLOAD DUP2 JUMP JUMPDEST PUSH0 PUSH1 0x40 MLOAD SWAP1 POP SWAP1 JUMP JUMPDEST PUSH0 PUSH0 REVERT JUMPDEST PUSH0 PUSH0 REVERT JUMPDEST PUSH0 PUSH20 0xFFFFFFFFFFFFFFFFFFFFFFFFFFFFFFFFFFFFFFFF DUP3 AND SWAP1 POP SWAP2 SWAP1 POP JUMP JUMPDEST PUSH0 PUSH2 0x1248 DUP3 PUSH2 0x121F JUMP JUMPDEST SWAP1 POP SWAP2 SWAP1 POP JUMP JUMPDEST PUSH2 0x1258 DUP2 PUSH2 0x123E JUMP JUMPDEST DUP2 EQ PUSH2 0x1262 JUMPI PUSH0 PUSH0 REVERT JUMPDEST POP JUMP JUMPDEST PUSH0 DUP2 CALLDATALOAD SWAP1 POP PUSH2 0x1273 DUP2 PUSH2 0x124F JUMP JUMPDEST SWAP3 SWAP2 POP POP JUMP JUMPDEST PUSH0 DUP2 SWAP1 POP SWAP2 SWAP1 POP JUMP JUMPDEST PUSH2 0x128B DUP2 PUSH2 0x1279 JUMP JUMPDEST DUP2 EQ PUSH2 0x1295 JUMPI PUSH0 PUSH0 REVERT JUMPDEST POP JUMP JUMPDEST PUSH0 DUP2 CALLDATALOAD SWAP1 POP PUSH2 0x12A6 DUP2 PUSH2 0x1282 JUMP JUMPDEST SWAP3 SWAP2 POP POP JUMP JUMPDEST PUSH0 PUSH0 PUSH1 0x40 DUP4 DUP6 SUB SLT ISZERO PUSH2 0x12C2 JUMPI PUSH2 0x12C1 PUSH2 0x1217 JUMP JUMPDEST JUMPDEST PUSH0 PUSH2 0x12CF DUP6 DUP3 DUP7 ADD PUSH2 0x1265 JUMP JUMPDEST SWAP3 POP POP PUSH1 0x20 PUSH2 0x12E0 DUP6 DUP3 DUP7 ADD PUSH2 0x1298 JUMP JUMPDEST SWAP2 POP POP SWAP3 POP SWAP3 SWAP1 POP JUMP JUMPDEST PUSH2 0x12F3 DUP2 PUSH2 0x1279 JUMP JUMPDEST DUP3 MSTORE POP POP JUMP JUMPDEST PUSH2 0x1302 DUP2 PUSH2 0x123E JUMP JUMPDEST DUP3 MSTORE POP POP JUMP JUMPDEST PUSH0 DUP2 MLOAD SWAP1 POP SWAP2 SWAP1 POP JUMP JUMPDEST PUSH0 DUP3 DUP3 MSTORE PUSH1 0x20 DUP3 ADD SWAP1 POP SWAP3 SWAP2 POP POP JUMP JUMPDEST DUP3 DUP2 DUP4 MCOPY PUSH0 DUP4 DUP4 ADD MSTORE POP POP POP JUMP JUMPDEST PUSH0 PUSH1 0x1F NOT PUSH1 0x1F DUP4 ADD AND SWAP1 POP SWAP2 SWAP1 POP JUMP JUMPDEST PUSH0 PUSH2 0x134A DUP3 PUSH2 0x1308 JUMP JUMPDEST PUSH2 0x1354 DUP2 DUP6 PUSH2 0x1312 JUMP JUMPDEST SWAP4 POP PUSH2 0x1364 DUP2 DUP6 PUSH1 0x20 DUP7 ADD PUSH2 0x1322 JUMP JUMPDEST PUSH2 0x136D DUP2 PUSH2 0x1330 JUMP JUMPDEST DUP5 ADD SWAP2 POP POP SWAP3 SWAP2 POP POP JUMP JUMPDEST PUSH0 PUSH1 0xA0 DUP3 ADD SWAP1 POP PUSH2 0x138B PUSH0 DUP4 ADD DUP9 PUSH2 0x12EA JUMP JUMPDEST PUSH2 0x1398 PUSH1 0x20 DUP4 ADD DUP8 PUSH2 0x12F9 JUMP JUMPDEST PUSH2 0x13A5 PUSH1 0x40 DUP4 ADD DUP7 PUSH2 0x12EA JUMP JUMPDEST PUSH2 0x13B2 PUSH1 0x60 DUP4 ADD DUP6 PUSH2 0x12EA JUMP JUMPDEST DUP2 DUP2 SUB PUSH1 0x80 DUP4 ADD MSTORE PUSH2 0x13C4 DUP2 DUP5 PUSH2 0x1340 JUMP JUMPDEST SWAP1 POP SWAP7 SWAP6 POP POP POP POP POP POP JUMP JUMPDEST PUSH0 PUSH1 0x20 DUP3 ADD SWAP1 POP DUP2 DUP2 SUB PUSH0 DUP4 ADD MSTORE PUSH2 0x13E8 DUP2 DUP5 PUSH2 0x1340 JUMP JUMPDEST SWAP1 POP SWAP3 SWAP2 POP POP JUMP JUMPDEST PUSH0 PUSH1 0x20 DUP3 DUP5 SUB SLT ISZERO PUSH2 0x1405 JUMPI PUSH2 0x1404 PUSH2 0x1217 JUMP JUMPDEST JUMPDEST PUSH0 PUSH2 0x1412 DUP5 DUP3 DUP6 ADD PUSH2 0x1265 JUMP JUMPDEST SWAP2 POP POP SWAP3 SWAP2 POP POP JUMP JUMPDEST PUSH0 DUP2 MLOAD SWAP1 POP SWAP2 SWAP1 POP JUMP JUMPDEST PUSH0 DUP3 DUP3 MSTORE PUSH1 0x20 DUP3 ADD SWAP1 POP SWAP3 SWAP2 POP POP JUMP JUMPDEST PUSH0 DUP2 SWAP1 POP PUSH1 0x20 DUP3 ADD SWAP1 POP SWAP2 SWAP1 POP JUMP JUMPDEST PUSH0 DUP3 DUP3 MSTORE PUSH1 0x20 DUP3 ADD SWAP1 POP SWAP3 SWAP2 POP POP JUMP JUMPDEST PUSH0 PUSH2 0x145E DUP3 PUSH2 0x1308 JUMP JUMPDEST PUSH2 0x1468 DUP2 DUP6 PUSH2 0x1444 JUMP JUMPDEST SWAP4 POP PUSH2 0x1478 DUP2 DUP6 PUSH1 0x20 DUP7 ADD PUSH2 0x1322 JUMP JUMPDEST PUSH2 0x1481 DUP2 PUSH2 0x1330 JUMP JUMPDEST DUP5 ADD SWAP2 POP POP SWAP3 SWAP2 POP POP JUMP JUMPDEST PUSH0 PUSH2 0x1497 DUP4 DUP4 PUSH2 0x1454 JUMP JUMPDEST SWAP1 POP SWAP3 SWAP2 POP POP JUMP JUMPDEST PUSH0 PUSH1 0x20 DUP3 ADD SWAP1 POP SWAP2 SWAP1 POP JUMP JUMPDEST PUSH0 PUSH2 0x14B5 DUP3 PUSH2 0x141B JUMP JUMPDEST PUSH2 0x14BF DUP2 DUP6 PUSH2 0x1425 JUMP JUMPDEST SWAP4 POP DUP4 PUSH1 0x20 DUP3 MUL DUP6 ADD PUSH2 0x14D1 DUP6 PUSH2 0x1435 JUMP JUMPDEST DUP1 PUSH0 JUMPDEST DUP6 DUP2 LT ISZERO PUSH2 0x150C JUMPI DUP5 DUP5 SUB DUP10 MSTORE DUP2 MLOAD PUSH2 0x14ED DUP6 DUP3 PUSH2 0x148C JUMP JUMPDEST SWAP5 POP PUSH2 0x14F8 DUP4 PUSH2 0x149F JUMP JUMPDEST SWAP3 POP PUSH1 0x20 DUP11 ADD SWAP10 POP POP PUSH1 0x1 DUP2 ADD SWAP1 POP PUSH2 0x14D4 JUMP JUMPDEST POP DUP3 SWAP8 POP DUP8 SWAP6 POP POP POP POP POP POP SWAP3 SWAP2 POP POP JUMP JUMPDEST PUSH0 PUSH1 0x20 DUP3 ADD SWAP1 POP DUP2 DUP2 SUB PUSH0 DUP4 ADD MSTORE PUSH2 0x1536 DUP2 DUP5 PUSH2 0x14AB JUMP JUMPDEST SWAP1 POP SWAP3 SWAP2 POP POP JUMP JUMPDEST PUSH0 PUSH0 PUSH0 PUSH1 0x60 DUP5 DUP7 SUB SLT ISZERO PUSH2 0x1555 JUMPI PUSH2 0x1554 PUSH2 0x1217 JUMP JUMPDEST JUMPDEST PUSH0 PUSH2 0x1562 DUP7 DUP3 DUP8 ADD PUSH2 0x1265 JUMP JUMPDEST SWAP4 POP POP PUSH1 0x20 PUSH2 0x1573 DUP7 DUP3 DUP8 ADD PUSH2 0x1298 JUMP JUMPDEST SWAP3 POP POP PUSH1 0x40 PUSH2 0x1584 DUP7 DUP3 DUP8 ADD PUSH2 0x1265 JUMP JUMPDEST SWAP2 POP POP SWAP3 POP SWAP3 POP SWAP3 JUMP JUMPDEST PUSH0 DUP2 ISZERO ISZERO SWAP1 POP SWAP2 SWAP1 POP JUMP JUMPDEST PUSH2 0x15A2 DUP2 PUSH2 0x158E JUMP JUMPDEST DUP3 MSTORE POP POP JUMP JUMPDEST PUSH0 PUSH1 0x20 DUP3 ADD SWAP1 POP PUSH2 0x15BB PUSH0 DUP4 ADD DUP5 PUSH2 0x1599 JUMP JUMPDEST SWAP3 SWAP2 POP POP JUMP JUMPDEST PUSH0 PUSH2 0xFFFF DUP3 AND SWAP1 POP SWAP2 SWAP1 POP JUMP JUMPDEST PUSH2 0x15D7 DUP2 PUSH2 0x15C1 JUMP JUMPDEST DUP2 EQ PUSH2 0x15E1 JUMPI PUSH0 PUSH0 REVERT JUMPDEST POP JUMP JUMPDEST PUSH0 DUP2 CALLDATALOAD SWAP1 POP PUSH2 0x15F2 DUP2 PUSH2 0x15CE JUMP JUMPDEST SWAP3 SWAP2 POP POP JUMP JUMPDEST PUSH0 PUSH1 0x20 DUP3 DUP5 SUB SLT ISZERO PUSH2 0x160D JUMPI PUSH2 0x160C PUSH2 0x1217 JUMP JUMPDEST JUMPDEST PUSH0 PUSH2 0x161A DUP5 DUP3 DUP6 ADD PUSH2 0x15E4 JUMP JUMPDEST SWAP2 POP POP SWAP3 SWAP2 POP POP JUMP JUMPDEST PUSH0 PUSH0 REVERT JUMPDEST PUSH0 PUSH0 REVERT JUMPDEST PUSH32 0x4E487B7100000000000000000000000000000000000000000000000000000000 PUSH0 MSTORE PUSH1 0x41 PUSH1 0x4 MSTORE PUSH1 0x24 PUSH0 REVERT JUMPDEST PUSH2 0x1661 DUP3 PUSH2 0x1330 JUMP JUMPDEST DUP2 ADD DUP2 DUP2 LT PUSH8 0xFFFFFFFFFFFFFFFF DUP3 GT OR ISZERO PUSH2 0x1680 JUMPI PUSH2 0x167F PUSH2 0x162B JUMP JUMPDEST JUMPDEST DUP1 PUSH1 0x40 MSTORE POP POP POP JUMP JUMPDEST PUSH0 PUSH2 0x1692 PUSH2 0x120E JUMP JUMPDEST SWAP1 POP PUSH2 0x169E DUP3 DUP3 PUSH2 0x1658 JUMP JUMPDEST SWAP2 SWAP1 POP JUMP JUMPDEST PUSH0 PUSH8 0xFFFFFFFFFFFFFFFF DUP3 GT ISZERO PUSH2 0x16BD JUMPI PUSH2 0x16BC PUSH2 0x162B JUMP JUMPDEST JUMPDEST PUSH2 0x16C6 DUP3 PUSH2 0x1330 JUMP JUMPDEST SWAP1 POP PUSH1 0x20 DUP2 ADD SWAP1 POP SWAP2 SWAP1 POP JUMP JUMPDEST DUP3 DUP2 DUP4 CALLDATACOPY PUSH0 DUP4 DUP4 ADD MSTORE POP POP POP JUMP JUMPDEST PUSH0 PUSH2 0x16F3 PUSH2 0x16EE DUP5 PUSH2 0x16A3 JUMP JUMPDEST PUSH2 0x1689 JUMP JUMPDEST SWAP1 POP DUP3 DUP2 MSTORE PUSH1 0x20 DUP2 ADD DUP5 DUP5 DUP5 ADD GT ISZERO PUSH2 0x170F JUMPI PUSH2 0x170E PUSH2 0x1627 JUMP JUMPDEST JUMPDEST PUSH2 0x171A DUP5 DUP3 DUP6 PUSH2 0x16D3 JUMP JUMPDEST POP SWAP4 SWAP3 POP POP POP JUMP JUMPDEST PUSH0 DUP3 PUSH1 0x1F DUP4 ADD SLT PUSH2 0x1736 JUMPI PUSH2 0x1735 PUSH2 0x1623 JUMP JUMPDEST JUMPDEST DUP2 CALLDATALOAD PUSH2 0x1746 DUP5 DUP3 PUSH1 0x20 DUP7 ADD PUSH2 0x16E1 JUMP JUMPDEST SWAP2 POP POP SWAP3 SWAP2 POP POP JUMP JUMPDEST PUSH0 PUSH1 0x20 DUP3 DUP5 SUB SLT ISZERO PUSH2 0x1764 JUMPI PUSH2 0x1763 PUSH2 0x1217 JUMP JUMPDEST JUMPDEST PUSH0 DUP3 ADD CALLDATALOAD PUSH8 0xFFFFFFFFFFFFFFFF DUP2 GT ISZERO PUSH2 0x1781 JUMPI PUSH2 0x1780 PUSH2 0x121B JUMP JUMPDEST JUMPDEST PUSH2 0x178D DUP5 DUP3 DUP6 ADD PUSH2 0x1722 JUMP JUMPDEST SWAP2 POP POP SWAP3 SWAP2 POP POP JUMP JUMPDEST PUSH0 PUSH1 0x20 DUP3 ADD SWAP1 POP PUSH2 0x17A9 PUSH0 DUP4 ADD DUP5 PUSH2 0x12EA JUMP JUMPDEST SWAP3 SWAP2 POP POP JUMP JUMPDEST PUSH32 0x4E487B7100000000000000000000000000000000000000000000000000000000 PUSH0 MSTORE PUSH1 0x22 PUSH1 0x4 MSTORE PUSH1 0x24 PUSH0 REVERT JUMPDEST PUSH0 PUSH1 0x2 DUP3 DIV SWAP1 POP PUSH1 0x1 DUP3 AND DUP1 PUSH2 0x17F3 JUMPI PUSH1 0x7F DUP3 AND SWAP2 POP JUMPDEST PUSH1 0x20 DUP3 LT DUP2 SUB PUSH2 0x1806 JUMPI PUSH2 0x1805 PUSH2 0x17AF JUMP JUMPDEST JUMPDEST POP SWAP2 SWAP1 POP JUMP JUMPDEST PUSH32 0x4E487B7100000000000000000000000000000000000000000000000000000000 PUSH0 MSTORE PUSH1 0x32 PUSH1 0x4 MSTORE PUSH1 0x24 PUSH0 REVERT JUMPDEST PUSH32 0x4572726F72202D206E6F20696420666F756E6400000000000000000000000000 PUSH0 DUP3 ADD MSTORE POP JUMP JUMPDEST PUSH0 PUSH2 0x186D PUSH1 0x13 DUP4 PUSH2 0x1312 JUMP JUMPDEST SWAP2 POP PUSH2 0x1878 DUP3 PUSH2 0x1839 JUMP JUMPDEST PUSH1 0x20 DUP3 ADD SWAP1 POP SWAP2 SWAP1 POP JUMP JUMPDEST PUSH0 PUSH1 0x20 DUP3 ADD SWAP1 POP DUP2 DUP2 SUB PUSH0 DUP4 ADD MSTORE PUSH2 0x189A DUP2 PUSH2 0x1861 JUMP JUMPDEST SWAP1 POP SWAP2 SWAP1 POP JUMP JUMPDEST PUSH32 0x416C726561647920756E6C696B65640000000000000000000000000000000000 PUSH0 DUP3 ADD MSTORE POP JUMP JUMPDEST PUSH0 PUSH2 0x18D5 PUSH1 0xF DUP4 PUSH2 0x1312 JUMP JUMPDEST SWAP2 POP PUSH2 0x18E0 DUP3 PUSH2 0x18A1 JUMP JUMPDEST PUSH1 0x20 DUP3 ADD SWAP1 POP SWAP2 SWAP1 POP JUMP JUMPDEST PUSH0 PUSH1 0x20 DUP3 ADD SWAP1 POP DUP2 DUP2 SUB PUSH0 DUP4 ADD MSTORE PUSH2 0x1902 DUP2 PUSH2 0x18C9 JUMP JUMPDEST SWAP1 POP SWAP2 SWAP1 POP JUMP JUMPDEST PUSH32 0x4E487B7100000000000000000000000000000000000000000000000000000000 PUSH0 MSTORE PUSH1 0x11 PUSH1 0x4 MSTORE PUSH1 0x24 PUSH0 REVERT JUMPDEST PUSH0 PUSH2 0x1940 DUP3 PUSH2 0x1279 JUMP JUMPDEST SWAP2 POP PUSH0 DUP3 SUB PUSH2 0x1952 JUMPI PUSH2 0x1951 PUSH2 0x1909 JUMP JUMPDEST JUMPDEST PUSH1 0x1 DUP3 SUB SWAP1 POP SWAP2 SWAP1 POP JUMP JUMPDEST PUSH0 PUSH1 0x80 DUP3 ADD SWAP1 POP PUSH2 0x1970 PUSH0 DUP4 ADD DUP8 PUSH2 0x12EA JUMP JUMPDEST PUSH2 0x197D PUSH1 0x20 DUP4 ADD DUP7 PUSH2 0x12F9 JUMP JUMPDEST PUSH2 0x198A PUSH1 0x40 DUP4 ADD DUP6 PUSH2 0x12EA JUMP JUMPDEST PUSH2 0x1997 PUSH1 0x60 DUP4 ADD DUP5 PUSH2 0x12EA JUMP JUMPDEST SWAP6 SWAP5 POP POP POP POP POP JUMP JUMPDEST PUSH32 0x596F7520617265206E6F74207468652061646D696E0000000000000000000000 PUSH0 DUP3 ADD MSTORE POP JUMP JUMPDEST PUSH0 PUSH2 0x19D4 PUSH1 0x15 DUP4 PUSH2 0x1312 JUMP JUMPDEST SWAP2 POP PUSH2 0x19DF DUP3 PUSH2 0x19A0 JUMP JUMPDEST PUSH1 0x20 DUP3 ADD SWAP1 POP SWAP2 SWAP1 POP JUMP JUMPDEST PUSH0 PUSH1 0x20 DUP3 ADD SWAP1 POP DUP2 DUP2 SUB PUSH0 DUP4 ADD MSTORE PUSH2 0x1A01 DUP2 PUSH2 0x19C8 JUMP JUMPDEST SWAP1 POP SWAP2 SWAP1 POP JUMP JUMPDEST PUSH32 0x416C7265616479204C696B656400000000000000000000000000000000000000 PUSH0 DUP3 ADD MSTORE POP JUMP JUMPDEST PUSH0 PUSH2 0x1A3C PUSH1 0xD DUP4 PUSH2 0x1312 JUMP JUMPDEST SWAP2 POP PUSH2 0x1A47 DUP3 PUSH2 0x1A08 JUMP JUMPDEST PUSH1 0x20 DUP3 ADD SWAP1 POP SWAP2 SWAP1 POP JUMP JUMPDEST PUSH0 PUSH1 0x20 DUP3 ADD SWAP1 POP DUP2 DUP2 SUB PUSH0 DUP4 ADD MSTORE PUSH2 0x1A69 DUP2 PUSH2 0x1A30 JUMP JUMPDEST SWAP1 POP SWAP2 SWAP1 POP JUMP JUMPDEST PUSH0 PUSH2 0x1A7A DUP3 PUSH2 0x1279 JUMP JUMPDEST SWAP2 POP PUSH32 0xFFFFFFFFFFFFFFFFFFFFFFFFFFFFFFFFFFFFFFFFFFFFFFFFFFFFFFFFFFFFFFFF DUP3 SUB PUSH2 0x1AAC JUMPI PUSH2 0x1AAB PUSH2 0x1909 JUMP JUMPDEST JUMPDEST PUSH1 0x1 DUP3 ADD SWAP1 POP SWAP2 SWAP1 POP JUMP JUMPDEST PUSH32 0x4572726F72202D20496E76616C6964204C656E67746800000000000000000000 PUSH0 DUP3 ADD MSTORE POP JUMP JUMPDEST PUSH0 PUSH2 0x1AEB PUSH1 0x16 DUP4 PUSH2 0x1312 JUMP JUMPDEST SWAP2 POP PUSH2 0x1AF6 DUP3 PUSH2 0x1AB7 JUMP JUMPDEST PUSH1 0x20 DUP3 ADD SWAP1 POP SWAP2 SWAP1 POP JUMP JUMPDEST PUSH0 PUSH1 0x20 DUP3 ADD SWAP1 POP DUP2 DUP2 SUB PUSH0 DUP4 ADD MSTORE PUSH2 0x1B18 DUP2 PUSH2 0x1ADF JUMP JUMPDEST SWAP1 POP SWAP2 SWAP1 POP JUMP JUMPDEST PUSH32 0x4572726F72202D20547765657420746F6F204C6F6E6700000000000000000000 PUSH0 DUP3 ADD MSTORE POP JUMP JUMPDEST PUSH0 PUSH2 0x1B53 PUSH1 0x16 DUP4 PUSH2 0x1312 JUMP JUMPDEST SWAP2 POP PUSH2 0x1B5E DUP3 PUSH2 0x1B1F JUMP JUMPDEST PUSH1 0x20 DUP3 ADD SWAP1 POP SWAP2 SWAP1 POP JUMP JUMPDEST PUSH0 PUSH1 0x20 DUP3 ADD SWAP1 POP DUP2 DUP2 SUB PUSH0 DUP4 ADD MSTORE PUSH2 0x1B80 DUP2 PUSH2 0x1B47 JUMP JUMPDEST SWAP1 POP SWAP2 SWAP1 POP JUMP JUMPDEST PUSH0 DUP2 SWAP1 POP DUP2 PUSH0 MSTORE PUSH1 0x20 PUSH0 KECCAK256 SWAP1 POP SWAP2 SWAP1 POP JUMP JUMPDEST PUSH0 PUSH1 0x20 PUSH1 0x1F DUP4 ADD DIV SWAP1 POP SWAP2 SWAP1 POP JUMP JUMPDEST PUSH0 DUP3 DUP3 SHL SWAP1 POP SWAP3 SWAP2 POP POP JUMP JUMPDEST PUSH0 PUSH1 0x8 DUP4 MUL PUSH2 0x1BE3 PUSH32 0xFFFFFFFFFFFFFFFFFFFFFFFFFFFFFFFFFFFFFFFFFFFFFFFFFFFFFFFFFFFFFFFF DUP3 PUSH2 0x1BA8 JUMP JUMPDEST PUSH2 0x1BED DUP7 DUP4 PUSH2 0x1BA8 JUMP JUMPDEST SWAP6 POP DUP1 NOT DUP5 AND SWAP4 POP DUP1 DUP7 AND DUP5 OR SWAP3 POP POP POP SWAP4 SWAP3 POP POP POP JUMP JUMPDEST PUSH0 DUP2 SWAP1 POP SWAP2 SWAP1 POP JUMP JUMPDEST PUSH0 PUSH2 0x1C28 PUSH2 0x1C23 PUSH2 0x1C1E DUP5 PUSH2 0x1279 JUMP JUMPDEST PUSH2 0x1C05 JUMP JUMPDEST PUSH2 0x1279 JUMP JUMPDEST SWAP1 POP SWAP2 SWAP1 POP JUMP JUMPDEST PUSH0 DUP2 SWAP1 POP SWAP2 SWAP1 POP JUMP JUMPDEST PUSH2 0x1C41 DUP4 PUSH2 0x1C0E JUMP JUMPDEST PUSH2 0x1C55 PUSH2 0x1C4D DUP3 PUSH2 0x1C2F JUMP JUMPDEST DUP5 DUP5 SLOAD PUSH2 0x1BB4 JUMP JUMPDEST DUP3 SSTORE POP POP POP POP JUMP JUMPDEST PUSH0 PUSH0 SWAP1 POP SWAP1 JUMP JUMPDEST PUSH2 0x1C6C PUSH2 0x1C5D JUMP JUMPDEST PUSH2 0x1C77 DUP2 DUP5 DUP5 PUSH2 0x1C38 JUMP JUMPDEST POP POP POP JUMP JUMPDEST JUMPDEST DUP2 DUP2 LT ISZERO PUSH2 0x1C9A JUMPI PUSH2 0x1C8F PUSH0 DUP3 PUSH2 0x1C64 JUMP JUMPDEST PUSH1 0x1 DUP2 ADD SWAP1 POP PUSH2 0x1C7D JUMP JUMPDEST POP POP JUMP JUMPDEST PUSH1 0x1F DUP3 GT ISZERO PUSH2 0x1CDF JUMPI PUSH2 0x1CB0 DUP2 PUSH2 0x1B87 JUMP JUMPDEST PUSH2 0x1CB9 DUP5 PUSH2 0x1B99 JUMP JUMPDEST DUP2 ADD PUSH1 0x20 DUP6 LT ISZERO PUSH2 0x1CC8 JUMPI DUP2 SWAP1 POP JUMPDEST PUSH2 0x1CDC PUSH2 0x1CD4 DUP6 PUSH2 0x1B99 JUMP JUMPDEST DUP4 ADD DUP3 PUSH2 0x1C7C JUMP JUMPDEST POP POP JUMPDEST POP POP POP JUMP JUMPDEST PUSH0 DUP3 DUP3 SHR SWAP1 POP SWAP3 SWAP2 POP POP JUMP JUMPDEST PUSH0 PUSH2 0x1CFF PUSH0 NOT DUP5 PUSH1 0x8 MUL PUSH2 0x1CE4 JUMP JUMPDEST NOT DUP1 DUP4 AND SWAP2 POP POP SWAP3 SWAP2 POP POP JUMP JUMPDEST PUSH0 PUSH2 0x1D17 DUP4 DUP4 PUSH2 0x1CF0 JUMP JUMPDEST SWAP2 POP DUP3 PUSH1 0x2 MUL DUP3 OR SWAP1 POP SWAP3 SWAP2 POP POP JUMP JUMPDEST PUSH2 0x1D30 DUP3 PUSH2 0x1308 JUMP JUMPDEST PUSH8 0xFFFFFFFFFFFFFFFF DUP2 GT ISZERO PUSH2 0x1D49 JUMPI PUSH2 0x1D48 PUSH2 0x162B JUMP JUMPDEST JUMPDEST PUSH2 0x1D53 DUP3 SLOAD PUSH2 0x17DC JUMP JUMPDEST PUSH2 0x1D5E DUP3 DUP3 DUP6 PUSH2 0x1C9E JUMP JUMPDEST PUSH0 PUSH1 0x20 SWAP1 POP PUSH1 0x1F DUP4 GT PUSH1 0x1 DUP2 EQ PUSH2 0x1D8F JUMPI PUSH0 DUP5 ISZERO PUSH2 0x1D7D JUMPI DUP3 DUP8 ADD MLOAD SWAP1 POP JUMPDEST PUSH2 0x1D87 DUP6 DUP3 PUSH2 0x1D0C JUMP JUMPDEST DUP7 SSTORE POP PUSH2 0x1DEE JUMP JUMPDEST PUSH1 0x1F NOT DUP5 AND PUSH2 0x1D9D DUP7 PUSH2 0x1B87 JUMP JUMPDEST PUSH0 JUMPDEST DUP3 DUP2 LT ISZERO PUSH2 0x1DC4 JUMPI DUP5 DUP10 ADD MLOAD DUP3 SSTORE PUSH1 0x1 DUP3 ADD SWAP2 POP PUSH1 0x20 DUP6 ADD SWAP5 POP PUSH1 0x20 DUP2 ADD SWAP1 POP PUSH2 0x1D9F JUMP JUMPDEST DUP7 DUP4 LT ISZERO PUSH2 0x1DE1 JUMPI DUP5 DUP10 ADD MLOAD PUSH2 0x1DDD PUSH1 0x1F DUP10 AND DUP3 PUSH2 0x1CF0 JUMP JUMPDEST DUP4 SSTORE POP JUMPDEST PUSH1 0x1 PUSH1 0x2 DUP9 MUL ADD DUP9 SSTORE POP POP POP JUMPDEST POP POP POP POP POP POP JUMP JUMPDEST PUSH0 DUP2 SLOAD PUSH2 0x1E02 DUP2 PUSH2 0x17DC JUMP JUMPDEST PUSH2 0x1E0C DUP2 DUP7 PUSH2 0x1312 JUMP JUMPDEST SWAP5 POP PUSH1 0x1 DUP3 AND PUSH0 DUP2 EQ PUSH2 0x1E26 JUMPI PUSH1 0x1 DUP2 EQ PUSH2 0x1E3C JUMPI PUSH2 0x1E6E JUMP JUMPDEST PUSH1 0xFF NOT DUP4 AND DUP7 MSTORE DUP2 ISZERO ISZERO PUSH1 0x20 MUL DUP7 ADD SWAP4 POP PUSH2 0x1E6E JUMP JUMPDEST PUSH2 0x1E45 DUP6 PUSH2 0x1B87 JUMP JUMPDEST PUSH0 JUMPDEST DUP4 DUP2 LT ISZERO PUSH2 0x1E66 JUMPI DUP2 SLOAD DUP2 DUP10 ADD MSTORE PUSH1 0x1 DUP3 ADD SWAP2 POP PUSH1 0x20 DUP2 ADD SWAP1 POP PUSH2 0x1E47 JUMP JUMPDEST DUP1 DUP9 ADD SWAP6 POP POP POP JUMPDEST POP POP POP SWAP3 SWAP2 POP POP JUMP JUMPDEST PUSH0 PUSH1 0x80 DUP3 ADD SWAP1 POP PUSH2 0x1E8A PUSH0 DUP4 ADD DUP8 PUSH2 0x12EA JUMP JUMPDEST PUSH2 0x1E97 PUSH1 0x20 DUP4 ADD DUP7 PUSH2 0x12F9 JUMP JUMPDEST PUSH2 0x1EA4 PUSH1 0x40 DUP4 ADD DUP6 PUSH2 0x12EA JUMP JUMPDEST DUP2 DUP2 SUB PUSH1 0x60 DUP4 ADD MSTORE PUSH2 0x1EB6 DUP2 DUP5 PUSH2 0x1DF6 JUMP JUMPDEST SWAP1 POP SWAP6 SWAP5 POP POP POP POP POP JUMP INVALID LOG2 PUSH5 0x6970667358 0x22 SLT KECCAK256 SWAP9 0xC5 PUSH15 0x1336EA1CA437CF35045BF009C384FA SWAPN 0x7F GT CALLER PUSH29 0x2F2C2F9AAC5F440DC864736F6C634300081F0033000000000000000000 "
				},
				"gasEstimates": {
					"creation": {
						"codeDepositCost": "1585400",
						"executionCost": "50237",
						"totalCost": "1635637"
					},
					"external": {
						"changeTweetLength(uint16)": "26913",
						"counter(address)": "2890",
						"createTweet(string)": "infinite",
						"getAllTweets(address)": "infinite",
						"getTweet(address,uint256)": "infinite",
						"hasLiked(address,uint256,address)": "infinite",
						"likeTweet(address,uint256)": "infinite",
						"tweets(address,uint256)": "infinite",
						"unlikeTweet(address,uint256)": "infinite"
					}
				},
				"methodIdentifiers": {
					"changeTweetLength(uint16)": "58bfa4ab",
					"counter(address)": "c12327b8",
					"createTweet(string)": "7c9cd2bc",
					"getAllTweets(address)": "12e7ee1c",
					"getTweet(address,uint256)": "112f54e3",
					"hasLiked(address,uint256,address)": "4ddf8940",
					"likeTweet(address,uint256)": "63378216",
					"tweets(address,uint256)": "05a1b4a9",
					"unlikeTweet(address,uint256)": "3d9b569f"
				}
			},
			"storageLayout": {
				"storage": [
					{
						"astId": 3,
						"contract": "Twitter_dApp/contracts/twitter.sol:twitter",
						"label": "maxTweetLength",
						"offset": 0,
						"slot": "0",
						"type": "t_uint16"
					},
					{
						"astId": 5,
						"contract": "Twitter_dApp/contracts/twitter.sol:twitter",
						"label": "admin",
						"offset": 2,
						"slot": "0",
						"type": "t_address"
					},
					{
						"astId": 33,
						"contract": "Twitter_dApp/contracts/twitter.sol:twitter",
						"label": "counter",
						"offset": 0,
						"slot": "1",
						"type": "t_mapping(t_address,t_uint256)"
					},
					{
						"astId": 40,
						"contract": "Twitter_dApp/contracts/twitter.sol:twitter",
						"label": "tweets",
						"offset": 0,
						"slot": "2",
						"type": "t_mapping(t_address,t_mapping(t_uint256,t_struct(Tweet)29_storage))"
					},
					{
						"astId": 48,
						"contract": "Twitter_dApp/contracts/twitter.sol:twitter",
						"label": "hasLiked",
						"offset": 0,
						"slot": "3",
						"type": "t_mapping(t_address,t_mapping(t_uint256,t_mapping(t_address,t_bool)))"
					}
				],
				"types": {
					"t_address": {
						"encoding": "inplace",
						"label": "address",
						"numberOfBytes": "20"
					},
					"t_bool": {
						"encoding": "inplace",
						"label": "bool",
						"numberOfBytes": "1"
					},
					"t_mapping(t_address,t_bool)": {
						"encoding": "mapping",
						"key": "t_address",
						"label": "mapping(address => bool)",
						"numberOfBytes": "32",
						"value": "t_bool"
					},
					"t_mapping(t_address,t_mapping(t_uint256,t_mapping(t_address,t_bool)))": {
						"encoding": "mapping",
						"key": "t_address",
						"label": "mapping(address => mapping(uint256 => mapping(address => bool)))",
						"numberOfBytes": "32",
						"value": "t_mapping(t_uint256,t_mapping(t_address,t_bool))"
					},
					"t_mapping(t_address,t_mapping(t_uint256,t_struct(Tweet)29_storage))": {
						"encoding": "mapping",
						"key": "t_address",
						"label": "mapping(address => mapping(uint256 => struct twitter.Tweet))",
						"numberOfBytes": "32",
						"value": "t_mapping(t_uint256,t_struct(Tweet)29_storage)"
					},
					"t_mapping(t_address,t_uint256)": {
						"encoding": "mapping",
						"key": "t_address",
						"label": "mapping(address => uint256)",
						"numberOfBytes": "32",
						"value": "t_uint256"
					},
					"t_mapping(t_uint256,t_mapping(t_address,t_bool))": {
						"encoding": "mapping",
						"key": "t_uint256",
						"label": "mapping(uint256 => mapping(address => bool))",
						"numberOfBytes": "32",
						"value": "t_mapping(t_address,t_bool)"
					},
					"t_mapping(t_uint256,t_struct(Tweet)29_storage)": {
						"encoding": "mapping",
						"key": "t_uint256",
						"label": "mapping(uint256 => struct twitter.Tweet)",
						"numberOfBytes": "32",
						"value": "t_struct(Tweet)29_storage"
					},
					"t_string_storage": {
						"encoding": "bytes",
						"label": "string",
						"numberOfBytes": "32"
					},
					"t_struct(Tweet)29_storage": {
						"encoding": "inplace",
						"label": "struct twitter.Tweet",
						"members": [
							{
								"astId": 20,
								"contract": "Twitter_dApp/contracts/twitter.sol:twitter",
								"label": "id",
								"offset": 0,
								"slot": "0",
								"type": "t_uint256"
							},
							{
								"astId": 22,
								"contract": "Twitter_dApp/contracts/twitter.sol:twitter",
								"label": "author",
								"offset": 0,
								"slot": "1",
								"type": "t_address"
							},
							{
								"astId": 24,
								"contract": "Twitter_dApp/contracts/twitter.sol:twitter",
								"label": "timestamp",
								"offset": 0,
								"slot": "2",
								"type": "t_uint256"
							},
							{
								"astId": 26,
								"contract": "Twitter_dApp/contracts/twitter.sol:twitter",
								"label": "likes",
								"offset": 0,
								"slot": "3",
								"type": "t_uint256"
							},
							{
								"astId": 28,
								"contract": "Twitter_dApp/contracts/twitter.sol:twitter",
								"label": "content",
								"offset": 0,
								"slot": "4",
								"type": "t_string_storage"
							}
						],
						"numberOfBytes": "160"
					},
					"t_uint16": {
						"encoding": "inplace",
						"label": "uint16",
						"numberOfBytes": "2"
					},
					"t_uint256": {
						"encoding": "inplace",
						"label": "uint256",
						"numberOfBytes": "32"
					}
				}
			},
			"userdoc": {
				"kind": "user",
				"methods": {},
				"version": 1
			}
		}
	}
}