{
	"Twitter_dApp/contracts/twitter.sol": {
		"twitter": {
			"abi": [
				{
					"inputs": [
						{
							"internalType": "string",
							"name": "_tweet",
							"type": "string"
						}
					],
					"name": "createTweet",
					"outputs": [],
					"stateMutability": "nonpayable",
					"type": "function"
				},
				{
					"inputs": [],
					"name": "getAllTweets",
					"outputs": [
						{
							"internalType": "string[]",
							"name": "",
							"type": "string[]"
						}
					],
					"stateMutability": "view",
					"type": "function"
				},
				{
					"inputs": [
						{
							"internalType": "address",
							"name": "",
							"type": "address"
						},
						{
							"internalType": "uint256",
							"name": "",
							"type": "uint256"
						}
					],
					"name": "ids",
					"outputs": [
						{
							"internalType": "uint256",
							"name": "",
							"type": "uint256"
						}
					],
					"stateMutability": "view",
					"type": "function"
				},
				{
					"inputs": [],
					"name": "tweetId",
					"outputs": [
						{
							"internalType": "uint256",
							"name": "",
							"type": "uint256"
						}
					],
					"stateMutability": "view",
					"type": "function"
				},
				{
					"inputs": [
						{
							"internalType": "address",
							"name": "",
							"type": "address"
						},
						{
							"internalType": "uint256",
							"name": "",
							"type": "uint256"
						}
					],
					"name": "tweets",
					"outputs": [
						{
							"internalType": "string",
							"name": "",
							"type": "string"
						}
					],
					"stateMutability": "view",
					"type": "function"
				}
			],
			"devdoc": {
				"kind": "dev",
				"methods": {},
				"version": 1
			},
			"evm": {
				"assembly": "    /* \"Twitter_dApp/contracts/twitter.sol\":199:1444  contract twitter{... */\n  mstore(0x40, 0x80)\n    /* \"Twitter_dApp/contracts/twitter.sol\":244:245  0 */\n  0x00\n    /* \"Twitter_dApp/contracts/twitter.sol\":222:245  uint public tweetId = 0 */\n  0x00\n  sstore\n    /* \"Twitter_dApp/contracts/twitter.sol\":199:1444  contract twitter{... */\n  callvalue\n  dup1\n  iszero\n  tag_1\n  jumpi\n  revert(0x00, 0x00)\ntag_1:\n  pop\n  dataSize(sub_0)\n  dup1\n  dataOffset(sub_0)\n  0x00\n  codecopy\n  0x00\n  return\nstop\n\nsub_0: assembly {\n        /* \"Twitter_dApp/contracts/twitter.sol\":199:1444  contract twitter{... */\n      mstore(0x40, 0x80)\n      callvalue\n      dup1\n      iszero\n      tag_1\n      jumpi\n      revert(0x00, 0x00)\n    tag_1:\n      pop\n      jumpi(tag_2, lt(calldatasize, 0x04))\n      shr(0xe0, calldataload(0x00))\n      dup1\n      0x05a1b4a9\n      eq\n      tag_3\n      jumpi\n      dup1\n      0x53256135\n      eq\n      tag_4\n      jumpi\n      dup1\n      0x7c9cd2bc\n      eq\n      tag_5\n      jumpi\n      dup1\n      0x7ff5eed1\n      eq\n      tag_6\n      jumpi\n      dup1\n      0x9f20bc92\n      eq\n      tag_7\n      jumpi\n    tag_2:\n      revert(0x00, 0x00)\n        /* \"Twitter_dApp/contracts/twitter.sol\":253:310  mapping(address => mapping(uint => string)) public tweets */\n    tag_3:\n      tag_8\n      0x04\n      dup1\n      calldatasize\n      sub\n      dup2\n      add\n      swap1\n      tag_9\n      swap2\n      swap1\n      tag_10\n      jump\t// in\n    tag_9:\n      tag_11\n      jump\t// in\n    tag_8:\n      mload(0x40)\n      tag_12\n      swap2\n      swap1\n      tag_13\n      jump\t// in\n    tag_12:\n      mload(0x40)\n      dup1\n      swap2\n      sub\n      swap1\n      return\n        /* \"Twitter_dApp/contracts/twitter.sol\":739:1441  function getAllTweets() public view returns(string[] memory){... */\n    tag_4:\n      tag_14\n      tag_15\n      jump\t// in\n    tag_14:\n      mload(0x40)\n      tag_16\n      swap2\n      swap1\n      tag_17\n      jump\t// in\n    tag_16:\n      mload(0x40)\n      dup1\n      swap2\n      sub\n      swap1\n      return\n        /* \"Twitter_dApp/contracts/twitter.sol\":573:734  function createTweet(string memory _tweet) public {... */\n    tag_5:\n      tag_18\n      0x04\n      dup1\n      calldatasize\n      sub\n      dup2\n      add\n      swap1\n      tag_19\n      swap2\n      swap1\n      tag_20\n      jump\t// in\n    tag_19:\n      tag_21\n      jump\t// in\n    tag_18:\n      stop\n        /* \"Twitter_dApp/contracts/twitter.sol\":222:245  uint public tweetId = 0 */\n    tag_6:\n      tag_22\n      tag_23\n      jump\t// in\n    tag_22:\n      mload(0x40)\n      tag_24\n      swap2\n      swap1\n      tag_25\n      jump\t// in\n    tag_24:\n      mload(0x40)\n      dup1\n      swap2\n      sub\n      swap1\n      return\n        /* \"Twitter_dApp/contracts/twitter.sol\":316:353  mapping(address => uint[]) public ids */\n    tag_7:\n      tag_26\n      0x04\n      dup1\n      calldatasize\n      sub\n      dup2\n      add\n      swap1\n      tag_27\n      swap2\n      swap1\n      tag_10\n      jump\t// in\n    tag_27:\n      tag_28\n      jump\t// in\n    tag_26:\n      mload(0x40)\n      tag_29\n      swap2\n      swap1\n      tag_25\n      jump\t// in\n    tag_29:\n      mload(0x40)\n      dup1\n      swap2\n      sub\n      swap1\n      return\n        /* \"Twitter_dApp/contracts/twitter.sol\":253:310  mapping(address => mapping(uint => string)) public tweets */\n    tag_11:\n      mstore(0x20, 0x01)\n      dup2\n      0x00\n      mstore\n      mstore(0x20, keccak256(0x00, 0x40))\n      dup1\n      0x00\n      mstore\n      keccak256(0x00, 0x40)\n      0x00\n      swap2\n      pop\n      swap2\n      pop\n      pop\n      dup1\n      sload\n      tag_30\n      swap1\n      tag_31\n      jump\t// in\n    tag_30:\n      dup1\n      0x1f\n      add\n      0x20\n      dup1\n      swap2\n      div\n      mul\n      0x20\n      add\n      mload(0x40)\n      swap1\n      dup2\n      add\n      0x40\n      mstore\n      dup1\n      swap3\n      swap2\n      swap1\n      dup2\n      dup2\n      mstore\n      0x20\n      add\n      dup3\n      dup1\n      sload\n      tag_32\n      swap1\n      tag_31\n      jump\t// in\n    tag_32:\n      dup1\n      iszero\n      tag_33\n      jumpi\n      dup1\n      0x1f\n      lt\n      tag_34\n      jumpi\n      0x0100\n      dup1\n      dup4\n      sload\n      div\n      mul\n      dup4\n      mstore\n      swap2\n      0x20\n      add\n      swap2\n      jump(tag_33)\n    tag_34:\n      dup3\n      add\n      swap2\n      swap1\n      0x00\n      mstore\n      keccak256(0x00, 0x20)\n      swap1\n    tag_35:\n      dup2\n      sload\n      dup2\n      mstore\n      swap1\n      0x01\n      add\n      swap1\n      0x20\n      add\n      dup1\n      dup4\n      gt\n      tag_35\n      jumpi\n      dup3\n      swap1\n      sub\n      0x1f\n      and\n      dup3\n      add\n      swap2\n    tag_33:\n      pop\n      pop\n      pop\n      pop\n      pop\n      dup2\n      jump\t// out\n        /* \"Twitter_dApp/contracts/twitter.sol\":739:1441  function getAllTweets() public view returns(string[] memory){... */\n    tag_15:\n        /* \"Twitter_dApp/contracts/twitter.sol\":783:798  string[] memory */\n      0x60\n        /* \"Twitter_dApp/contracts/twitter.sol\":867:885  uint historyLength */\n      0x00\n        /* \"Twitter_dApp/contracts/twitter.sol\":888:891  ids */\n      0x02\n        /* \"Twitter_dApp/contracts/twitter.sol\":888:903  ids[msg.sender] */\n      0x00\n        /* \"Twitter_dApp/contracts/twitter.sol\":892:902  msg.sender */\n      caller\n        /* \"Twitter_dApp/contracts/twitter.sol\":888:903  ids[msg.sender] */\n      0xffffffffffffffffffffffffffffffffffffffff\n      and\n      0xffffffffffffffffffffffffffffffffffffffff\n      and\n      dup2\n      mstore\n      0x20\n      add\n      swap1\n      dup2\n      mstore\n      0x20\n      add\n      0x00\n      keccak256\n        /* \"Twitter_dApp/contracts/twitter.sol\":888:910  ids[msg.sender].length */\n      dup1\n      sload\n      swap1\n      pop\n        /* \"Twitter_dApp/contracts/twitter.sol\":867:910  uint historyLength = ids[msg.sender].length */\n      swap1\n      pop\n        /* \"Twitter_dApp/contracts/twitter.sol\":985:1009  string[] memory tweetArr */\n      0x00\n        /* \"Twitter_dApp/contracts/twitter.sol\":1025:1038  historyLength */\n      dup2\n        /* \"Twitter_dApp/contracts/twitter.sol\":1012:1039  new string[](historyLength) */\n      0xffffffffffffffff\n      dup2\n      gt\n      iszero\n      tag_37\n      jumpi\n      tag_38\n      tag_39\n      jump\t// in\n    tag_38:\n    tag_37:\n      mload(0x40)\n      swap1\n      dup1\n      dup3\n      mstore\n      dup1\n      0x20\n      mul\n      0x20\n      add\n      dup3\n      add\n      0x40\n      mstore\n      dup1\n      iszero\n      tag_40\n      jumpi\n      dup2\n      0x20\n      add\n    tag_41:\n      0x60\n      dup2\n      mstore\n      0x20\n      add\n      swap1\n      0x01\n      swap1\n      sub\n      swap1\n      dup2\n      tag_41\n      jumpi\n      swap1\n      pop\n    tag_40:\n      pop\n        /* \"Twitter_dApp/contracts/twitter.sol\":985:1039  string[] memory tweetArr = new string[](historyLength) */\n      swap1\n      pop\n        /* \"Twitter_dApp/contracts/twitter.sol\":1099:1105  uint i */\n      0x00\n        /* \"Twitter_dApp/contracts/twitter.sol\":1108:1109  0 */\n      0x00\n        /* \"Twitter_dApp/contracts/twitter.sol\":1099:1109  uint i = 0 */\n      swap1\n      pop\n        /* \"Twitter_dApp/contracts/twitter.sol\":1095:1409  for(uint i = 0; i < historyLength; i++){... */\n    tag_42:\n        /* \"Twitter_dApp/contracts/twitter.sol\":1115:1128  historyLength */\n      dup3\n        /* \"Twitter_dApp/contracts/twitter.sol\":1111:1112  i */\n      dup2\n        /* \"Twitter_dApp/contracts/twitter.sol\":1111:1128  i < historyLength */\n      lt\n        /* \"Twitter_dApp/contracts/twitter.sol\":1095:1409  for(uint i = 0; i < historyLength; i++){... */\n      iszero\n      tag_43\n      jumpi\n        /* \"Twitter_dApp/contracts/twitter.sol\":1214:1228  uint currentId */\n      0x00\n        /* \"Twitter_dApp/contracts/twitter.sol\":1231:1234  ids */\n      0x02\n        /* \"Twitter_dApp/contracts/twitter.sol\":1231:1246  ids[msg.sender] */\n      0x00\n        /* \"Twitter_dApp/contracts/twitter.sol\":1235:1245  msg.sender */\n      caller\n        /* \"Twitter_dApp/contracts/twitter.sol\":1231:1246  ids[msg.sender] */\n      0xffffffffffffffffffffffffffffffffffffffff\n      and\n      0xffffffffffffffffffffffffffffffffffffffff\n      and\n      dup2\n      mstore\n      0x20\n      add\n      swap1\n      dup2\n      mstore\n      0x20\n      add\n      0x00\n      keccak256\n        /* \"Twitter_dApp/contracts/twitter.sol\":1247:1248  i */\n      dup3\n        /* \"Twitter_dApp/contracts/twitter.sol\":1231:1249  ids[msg.sender][i] */\n      dup2\n      sload\n      dup2\n      lt\n      tag_45\n      jumpi\n      tag_46\n      tag_47\n      jump\t// in\n    tag_46:\n    tag_45:\n      swap1\n      0x00\n      mstore\n      keccak256(0x00, 0x20)\n      add\n      sload\n        /* \"Twitter_dApp/contracts/twitter.sol\":1214:1249  uint currentId = ids[msg.sender][i] */\n      swap1\n      pop\n        /* \"Twitter_dApp/contracts/twitter.sol\":1369:1375  tweets */\n      0x01\n        /* \"Twitter_dApp/contracts/twitter.sol\":1369:1387  tweets[msg.sender] */\n      0x00\n        /* \"Twitter_dApp/contracts/twitter.sol\":1376:1386  msg.sender */\n      caller\n        /* \"Twitter_dApp/contracts/twitter.sol\":1369:1387  tweets[msg.sender] */\n      0xffffffffffffffffffffffffffffffffffffffff\n      and\n      0xffffffffffffffffffffffffffffffffffffffff\n      and\n      dup2\n      mstore\n      0x20\n      add\n      swap1\n      dup2\n      mstore\n      0x20\n      add\n      0x00\n      keccak256\n        /* \"Twitter_dApp/contracts/twitter.sol\":1369:1398  tweets[msg.sender][currentId] */\n      0x00\n        /* \"Twitter_dApp/contracts/twitter.sol\":1388:1397  currentId */\n      dup3\n        /* \"Twitter_dApp/contracts/twitter.sol\":1369:1398  tweets[msg.sender][currentId] */\n      dup2\n      mstore\n      0x20\n      add\n      swap1\n      dup2\n      mstore\n      0x20\n      add\n      0x00\n      keccak256\n        /* \"Twitter_dApp/contracts/twitter.sol\":1355:1398  tweetArr[i] = tweets[msg.sender][currentId] */\n      dup1\n      sload\n      tag_49\n      swap1\n      tag_31\n      jump\t// in\n    tag_49:\n      dup1\n      0x1f\n      add\n      0x20\n      dup1\n      swap2\n      div\n      mul\n      0x20\n      add\n      mload(0x40)\n      swap1\n      dup2\n      add\n      0x40\n      mstore\n      dup1\n      swap3\n      swap2\n      swap1\n      dup2\n      dup2\n      mstore\n      0x20\n      add\n      dup3\n      dup1\n      sload\n      tag_50\n      swap1\n      tag_31\n      jump\t// in\n    tag_50:\n      dup1\n      iszero\n      tag_51\n      jumpi\n      dup1\n      0x1f\n      lt\n      tag_52\n      jumpi\n      0x0100\n      dup1\n      dup4\n      sload\n      div\n      mul\n      dup4\n      mstore\n      swap2\n      0x20\n      add\n      swap2\n      jump(tag_51)\n    tag_52:\n      dup3\n      add\n      swap2\n      swap1\n      0x00\n      mstore\n      keccak256(0x00, 0x20)\n      swap1\n    tag_53:\n      dup2\n      sload\n      dup2\n      mstore\n      swap1\n      0x01\n      add\n      swap1\n      0x20\n      add\n      dup1\n      dup4\n      gt\n      tag_53\n      jumpi\n      dup3\n      swap1\n      sub\n      0x1f\n      and\n      dup3\n      add\n      swap2\n    tag_51:\n      pop\n      pop\n      pop\n      pop\n      pop\n        /* \"Twitter_dApp/contracts/twitter.sol\":1355:1363  tweetArr */\n      dup4\n        /* \"Twitter_dApp/contracts/twitter.sol\":1364:1365  i */\n      dup4\n        /* \"Twitter_dApp/contracts/twitter.sol\":1355:1366  tweetArr[i] */\n      dup2\n      mload\n      dup2\n      lt\n      tag_54\n      jumpi\n      tag_55\n      tag_47\n      jump\t// in\n    tag_55:\n    tag_54:\n      0x20\n      mul\n      0x20\n      add\n      add\n        /* \"Twitter_dApp/contracts/twitter.sol\":1355:1398  tweetArr[i] = tweets[msg.sender][currentId] */\n      dup2\n      swap1\n      mstore\n      pop\n        /* \"Twitter_dApp/contracts/twitter.sol\":1134:1409  {... */\n      pop\n        /* \"Twitter_dApp/contracts/twitter.sol\":1130:1133  i++ */\n      dup1\n      dup1\n      0x01\n      add\n      swap2\n      pop\n      pop\n        /* \"Twitter_dApp/contracts/twitter.sol\":1095:1409  for(uint i = 0; i < historyLength; i++){... */\n      jump(tag_42)\n    tag_43:\n      pop\n        /* \"Twitter_dApp/contracts/twitter.sol\":1426:1434  tweetArr */\n      dup1\n        /* \"Twitter_dApp/contracts/twitter.sol\":1419:1434  return tweetArr */\n      swap3\n      pop\n      pop\n      pop\n        /* \"Twitter_dApp/contracts/twitter.sol\":739:1441  function getAllTweets() public view returns(string[] memory){... */\n      swap1\n      jump\t// out\n        /* \"Twitter_dApp/contracts/twitter.sol\":573:734  function createTweet(string memory _tweet) public {... */\n    tag_21:\n        /* \"Twitter_dApp/contracts/twitter.sol\":663:669  _tweet */\n      dup1\n        /* \"Twitter_dApp/contracts/twitter.sol\":633:639  tweets */\n      0x01\n        /* \"Twitter_dApp/contracts/twitter.sol\":633:651  tweets[msg.sender] */\n      0x00\n        /* \"Twitter_dApp/contracts/twitter.sol\":640:650  msg.sender */\n      caller\n        /* \"Twitter_dApp/contracts/twitter.sol\":633:651  tweets[msg.sender] */\n      0xffffffffffffffffffffffffffffffffffffffff\n      and\n      0xffffffffffffffffffffffffffffffffffffffff\n      and\n      dup2\n      mstore\n      0x20\n      add\n      swap1\n      dup2\n      mstore\n      0x20\n      add\n      0x00\n      keccak256\n        /* \"Twitter_dApp/contracts/twitter.sol\":633:660  tweets[msg.sender][tweetId] */\n      0x00\n        /* \"Twitter_dApp/contracts/twitter.sol\":652:659  tweetId */\n      sload(0x00)\n        /* \"Twitter_dApp/contracts/twitter.sol\":633:660  tweets[msg.sender][tweetId] */\n      dup2\n      mstore\n      0x20\n      add\n      swap1\n      dup2\n      mstore\n      0x20\n      add\n      0x00\n      keccak256\n        /* \"Twitter_dApp/contracts/twitter.sol\":633:669  tweets[msg.sender][tweetId] = _tweet */\n      swap1\n      dup2\n      tag_57\n      swap2\n      swap1\n      tag_58\n      jump\t// in\n    tag_57:\n      pop\n        /* \"Twitter_dApp/contracts/twitter.sol\":679:682  ids */\n      0x02\n        /* \"Twitter_dApp/contracts/twitter.sol\":679:694  ids[msg.sender] */\n      0x00\n        /* \"Twitter_dApp/contracts/twitter.sol\":683:693  msg.sender */\n      caller\n        /* \"Twitter_dApp/contracts/twitter.sol\":679:694  ids[msg.sender] */\n      0xffffffffffffffffffffffffffffffffffffffff\n      and\n      0xffffffffffffffffffffffffffffffffffffffff\n      and\n      dup2\n      mstore\n      0x20\n      add\n      swap1\n      dup2\n      mstore\n      0x20\n      add\n      0x00\n      keccak256\n        /* \"Twitter_dApp/contracts/twitter.sol\":700:707  tweetId */\n      sload(0x00)\n        /* \"Twitter_dApp/contracts/twitter.sol\":679:708  ids[msg.sender].push(tweetId) */\n      swap1\n      dup1\n      0x01\n      dup2\n      sload\n      add\n      dup1\n      dup3\n      sstore\n      dup1\n      swap2\n      pop\n      pop\n      0x01\n      swap1\n      sub\n      swap1\n      0x00\n      mstore\n      keccak256(0x00, 0x20)\n      add\n      0x00\n      swap1\n      swap2\n      swap1\n      swap2\n      swap1\n      swap2\n      pop\n      sstore\n        /* \"Twitter_dApp/contracts/twitter.sol\":718:725  tweetId */\n      0x00\n      0x00\n        /* \"Twitter_dApp/contracts/twitter.sol\":718:727  tweetId++ */\n      dup2\n      sload\n      dup1\n      swap3\n      swap2\n      swap1\n      tag_60\n      swap1\n      tag_61\n      jump\t// in\n    tag_60:\n      swap2\n      swap1\n      pop\n      sstore\n      pop\n        /* \"Twitter_dApp/contracts/twitter.sol\":573:734  function createTweet(string memory _tweet) public {... */\n      pop\n      jump\t// out\n        /* \"Twitter_dApp/contracts/twitter.sol\":222:245  uint public tweetId = 0 */\n    tag_23:\n      sload(0x00)\n      dup2\n      jump\t// out\n        /* \"Twitter_dApp/contracts/twitter.sol\":316:353  mapping(address => uint[]) public ids */\n    tag_28:\n      mstore(0x20, 0x02)\n      dup2\n      0x00\n      mstore\n      keccak256(0x00, 0x40)\n      dup2\n      dup2\n      sload\n      dup2\n      lt\n      tag_62\n      jumpi\n      0x00\n      dup1\n      revert\n    tag_62:\n      swap1\n      0x00\n      mstore\n      keccak256(0x00, 0x20)\n      add\n      0x00\n      swap2\n      pop\n      swap2\n      pop\n      pop\n      sload\n      dup2\n      jump\t// out\n        /* \"#utility.yul\":7:82   */\n    tag_64:\n        /* \"#utility.yul\":40:46   */\n      0x00\n        /* \"#utility.yul\":73:75   */\n      0x40\n        /* \"#utility.yul\":67:76   */\n      mload\n        /* \"#utility.yul\":57:76   */\n      swap1\n      pop\n        /* \"#utility.yul\":7:82   */\n      swap1\n      jump\t// out\n        /* \"#utility.yul\":88:205   */\n    tag_65:\n        /* \"#utility.yul\":197:198   */\n      0x00\n        /* \"#utility.yul\":194:195   */\n      0x00\n        /* \"#utility.yul\":187:199   */\n      revert\n        /* \"#utility.yul\":211:328   */\n    tag_66:\n        /* \"#utility.yul\":320:321   */\n      0x00\n        /* \"#utility.yul\":317:318   */\n      0x00\n        /* \"#utility.yul\":310:322   */\n      revert\n        /* \"#utility.yul\":334:460   */\n    tag_67:\n        /* \"#utility.yul\":371:378   */\n      0x00\n        /* \"#utility.yul\":411:453   */\n      0xffffffffffffffffffffffffffffffffffffffff\n        /* \"#utility.yul\":404:409   */\n      dup3\n        /* \"#utility.yul\":400:454   */\n      and\n        /* \"#utility.yul\":389:454   */\n      swap1\n      pop\n        /* \"#utility.yul\":334:460   */\n      swap2\n      swap1\n      pop\n      jump\t// out\n        /* \"#utility.yul\":466:562   */\n    tag_68:\n        /* \"#utility.yul\":503:510   */\n      0x00\n        /* \"#utility.yul\":532:556   */\n      tag_119\n        /* \"#utility.yul\":550:555   */\n      dup3\n        /* \"#utility.yul\":532:556   */\n      tag_67\n      jump\t// in\n    tag_119:\n        /* \"#utility.yul\":521:556   */\n      swap1\n      pop\n        /* \"#utility.yul\":466:562   */\n      swap2\n      swap1\n      pop\n      jump\t// out\n        /* \"#utility.yul\":568:690   */\n    tag_69:\n        /* \"#utility.yul\":641:665   */\n      tag_121\n        /* \"#utility.yul\":659:664   */\n      dup2\n        /* \"#utility.yul\":641:665   */\n      tag_68\n      jump\t// in\n    tag_121:\n        /* \"#utility.yul\":634:639   */\n      dup2\n        /* \"#utility.yul\":631:666   */\n      eq\n        /* \"#utility.yul\":621:684   */\n      tag_122\n      jumpi\n        /* \"#utility.yul\":680:681   */\n      0x00\n        /* \"#utility.yul\":677:678   */\n      0x00\n        /* \"#utility.yul\":670:682   */\n      revert\n        /* \"#utility.yul\":621:684   */\n    tag_122:\n        /* \"#utility.yul\":568:690   */\n      pop\n      jump\t// out\n        /* \"#utility.yul\":696:835   */\n    tag_70:\n        /* \"#utility.yul\":742:747   */\n      0x00\n        /* \"#utility.yul\":780:786   */\n      dup2\n        /* \"#utility.yul\":767:787   */\n      calldataload\n        /* \"#utility.yul\":758:787   */\n      swap1\n      pop\n        /* \"#utility.yul\":796:829   */\n      tag_124\n        /* \"#utility.yul\":823:828   */\n      dup2\n        /* \"#utility.yul\":796:829   */\n      tag_69\n      jump\t// in\n    tag_124:\n        /* \"#utility.yul\":696:835   */\n      swap3\n      swap2\n      pop\n      pop\n      jump\t// out\n        /* \"#utility.yul\":841:918   */\n    tag_71:\n        /* \"#utility.yul\":878:885   */\n      0x00\n        /* \"#utility.yul\":907:912   */\n      dup2\n        /* \"#utility.yul\":896:912   */\n      swap1\n      pop\n        /* \"#utility.yul\":841:918   */\n      swap2\n      swap1\n      pop\n      jump\t// out\n        /* \"#utility.yul\":924:1046   */\n    tag_72:\n        /* \"#utility.yul\":997:1021   */\n      tag_127\n        /* \"#utility.yul\":1015:1020   */\n      dup2\n        /* \"#utility.yul\":997:1021   */\n      tag_71\n      jump\t// in\n    tag_127:\n        /* \"#utility.yul\":990:995   */\n      dup2\n        /* \"#utility.yul\":987:1022   */\n      eq\n        /* \"#utility.yul\":977:1040   */\n      tag_128\n      jumpi\n        /* \"#utility.yul\":1036:1037   */\n      0x00\n        /* \"#utility.yul\":1033:1034   */\n      0x00\n        /* \"#utility.yul\":1026:1038   */\n      revert\n        /* \"#utility.yul\":977:1040   */\n    tag_128:\n        /* \"#utility.yul\":924:1046   */\n      pop\n      jump\t// out\n        /* \"#utility.yul\":1052:1191   */\n    tag_73:\n        /* \"#utility.yul\":1098:1103   */\n      0x00\n        /* \"#utility.yul\":1136:1142   */\n      dup2\n        /* \"#utility.yul\":1123:1143   */\n      calldataload\n        /* \"#utility.yul\":1114:1143   */\n      swap1\n      pop\n        /* \"#utility.yul\":1152:1185   */\n      tag_130\n        /* \"#utility.yul\":1179:1184   */\n      dup2\n        /* \"#utility.yul\":1152:1185   */\n      tag_72\n      jump\t// in\n    tag_130:\n        /* \"#utility.yul\":1052:1191   */\n      swap3\n      swap2\n      pop\n      pop\n      jump\t// out\n        /* \"#utility.yul\":1197:1671   */\n    tag_10:\n        /* \"#utility.yul\":1265:1271   */\n      0x00\n        /* \"#utility.yul\":1273:1279   */\n      0x00\n        /* \"#utility.yul\":1322:1324   */\n      0x40\n        /* \"#utility.yul\":1310:1319   */\n      dup4\n        /* \"#utility.yul\":1301:1308   */\n      dup6\n        /* \"#utility.yul\":1297:1320   */\n      sub\n        /* \"#utility.yul\":1293:1325   */\n      slt\n        /* \"#utility.yul\":1290:1409   */\n      iszero\n      tag_132\n      jumpi\n        /* \"#utility.yul\":1328:1407   */\n      tag_133\n      tag_65\n      jump\t// in\n    tag_133:\n        /* \"#utility.yul\":1290:1409   */\n    tag_132:\n        /* \"#utility.yul\":1448:1449   */\n      0x00\n        /* \"#utility.yul\":1473:1526   */\n      tag_134\n        /* \"#utility.yul\":1518:1525   */\n      dup6\n        /* \"#utility.yul\":1509:1515   */\n      dup3\n        /* \"#utility.yul\":1498:1507   */\n      dup7\n        /* \"#utility.yul\":1494:1516   */\n      add\n        /* \"#utility.yul\":1473:1526   */\n      tag_70\n      jump\t// in\n    tag_134:\n        /* \"#utility.yul\":1463:1526   */\n      swap3\n      pop\n        /* \"#utility.yul\":1419:1536   */\n      pop\n        /* \"#utility.yul\":1575:1577   */\n      0x20\n        /* \"#utility.yul\":1601:1654   */\n      tag_135\n        /* \"#utility.yul\":1646:1653   */\n      dup6\n        /* \"#utility.yul\":1637:1643   */\n      dup3\n        /* \"#utility.yul\":1626:1635   */\n      dup7\n        /* \"#utility.yul\":1622:1644   */\n      add\n        /* \"#utility.yul\":1601:1654   */\n      tag_73\n      jump\t// in\n    tag_135:\n        /* \"#utility.yul\":1591:1654   */\n      swap2\n      pop\n        /* \"#utility.yul\":1546:1664   */\n      pop\n        /* \"#utility.yul\":1197:1671   */\n      swap3\n      pop\n      swap3\n      swap1\n      pop\n      jump\t// out\n        /* \"#utility.yul\":1677:1776   */\n    tag_74:\n        /* \"#utility.yul\":1729:1735   */\n      0x00\n        /* \"#utility.yul\":1763:1768   */\n      dup2\n        /* \"#utility.yul\":1757:1769   */\n      mload\n        /* \"#utility.yul\":1747:1769   */\n      swap1\n      pop\n        /* \"#utility.yul\":1677:1776   */\n      swap2\n      swap1\n      pop\n      jump\t// out\n        /* \"#utility.yul\":1782:1951   */\n    tag_75:\n        /* \"#utility.yul\":1866:1877   */\n      0x00\n        /* \"#utility.yul\":1900:1906   */\n      dup3\n        /* \"#utility.yul\":1895:1898   */\n      dup3\n        /* \"#utility.yul\":1888:1907   */\n      mstore\n        /* \"#utility.yul\":1940:1944   */\n      0x20\n        /* \"#utility.yul\":1935:1938   */\n      dup3\n        /* \"#utility.yul\":1931:1945   */\n      add\n        /* \"#utility.yul\":1916:1945   */\n      swap1\n      pop\n        /* \"#utility.yul\":1782:1951   */\n      swap3\n      swap2\n      pop\n      pop\n      jump\t// out\n        /* \"#utility.yul\":1957:2096   */\n    tag_76:\n        /* \"#utility.yul\":2046:2052   */\n      dup3\n        /* \"#utility.yul\":2041:2044   */\n      dup2\n        /* \"#utility.yul\":2036:2039   */\n      dup4\n        /* \"#utility.yul\":2030:2053   */\n      mcopy\n        /* \"#utility.yul\":2087:2088   */\n      0x00\n        /* \"#utility.yul\":2078:2084   */\n      dup4\n        /* \"#utility.yul\":2073:2076   */\n      dup4\n        /* \"#utility.yul\":2069:2085   */\n      add\n        /* \"#utility.yul\":2062:2089   */\n      mstore\n        /* \"#utility.yul\":1957:2096   */\n      pop\n      pop\n      pop\n      jump\t// out\n        /* \"#utility.yul\":2102:2204   */\n    tag_77:\n        /* \"#utility.yul\":2143:2149   */\n      0x00\n        /* \"#utility.yul\":2194:2196   */\n      0x1f\n        /* \"#utility.yul\":2190:2197   */\n      not\n        /* \"#utility.yul\":2185:2187   */\n      0x1f\n        /* \"#utility.yul\":2178:2183   */\n      dup4\n        /* \"#utility.yul\":2174:2188   */\n      add\n        /* \"#utility.yul\":2170:2198   */\n      and\n        /* \"#utility.yul\":2160:2198   */\n      swap1\n      pop\n        /* \"#utility.yul\":2102:2204   */\n      swap2\n      swap1\n      pop\n      jump\t// out\n        /* \"#utility.yul\":2210:2587   */\n    tag_78:\n        /* \"#utility.yul\":2298:2301   */\n      0x00\n        /* \"#utility.yul\":2326:2365   */\n      tag_141\n        /* \"#utility.yul\":2359:2364   */\n      dup3\n        /* \"#utility.yul\":2326:2365   */\n      tag_74\n      jump\t// in\n    tag_141:\n        /* \"#utility.yul\":2381:2452   */\n      tag_142\n        /* \"#utility.yul\":2445:2451   */\n      dup2\n        /* \"#utility.yul\":2440:2443   */\n      dup6\n        /* \"#utility.yul\":2381:2452   */\n      tag_75\n      jump\t// in\n    tag_142:\n        /* \"#utility.yul\":2374:2452   */\n      swap4\n      pop\n        /* \"#utility.yul\":2461:2526   */\n      tag_143\n        /* \"#utility.yul\":2519:2525   */\n      dup2\n        /* \"#utility.yul\":2514:2517   */\n      dup6\n        /* \"#utility.yul\":2507:2511   */\n      0x20\n        /* \"#utility.yul\":2500:2505   */\n      dup7\n        /* \"#utility.yul\":2496:2512   */\n      add\n        /* \"#utility.yul\":2461:2526   */\n      tag_76\n      jump\t// in\n    tag_143:\n        /* \"#utility.yul\":2551:2580   */\n      tag_144\n        /* \"#utility.yul\":2573:2579   */\n      dup2\n        /* \"#utility.yul\":2551:2580   */\n      tag_77\n      jump\t// in\n    tag_144:\n        /* \"#utility.yul\":2546:2549   */\n      dup5\n        /* \"#utility.yul\":2542:2581   */\n      add\n        /* \"#utility.yul\":2535:2581   */\n      swap2\n      pop\n        /* \"#utility.yul\":2302:2587   */\n      pop\n        /* \"#utility.yul\":2210:2587   */\n      swap3\n      swap2\n      pop\n      pop\n      jump\t// out\n        /* \"#utility.yul\":2593:2906   */\n    tag_13:\n        /* \"#utility.yul\":2706:2710   */\n      0x00\n        /* \"#utility.yul\":2744:2746   */\n      0x20\n        /* \"#utility.yul\":2733:2742   */\n      dup3\n        /* \"#utility.yul\":2729:2747   */\n      add\n        /* \"#utility.yul\":2721:2747   */\n      swap1\n      pop\n        /* \"#utility.yul\":2793:2802   */\n      dup2\n        /* \"#utility.yul\":2787:2791   */\n      dup2\n        /* \"#utility.yul\":2783:2803   */\n      sub\n        /* \"#utility.yul\":2779:2780   */\n      0x00\n        /* \"#utility.yul\":2768:2777   */\n      dup4\n        /* \"#utility.yul\":2764:2781   */\n      add\n        /* \"#utility.yul\":2757:2804   */\n      mstore\n        /* \"#utility.yul\":2821:2899   */\n      tag_146\n        /* \"#utility.yul\":2894:2898   */\n      dup2\n        /* \"#utility.yul\":2885:2891   */\n      dup5\n        /* \"#utility.yul\":2821:2899   */\n      tag_78\n      jump\t// in\n    tag_146:\n        /* \"#utility.yul\":2813:2899   */\n      swap1\n      pop\n        /* \"#utility.yul\":2593:2906   */\n      swap3\n      swap2\n      pop\n      pop\n      jump\t// out\n        /* \"#utility.yul\":2912:3036   */\n    tag_79:\n        /* \"#utility.yul\":2989:2995   */\n      0x00\n        /* \"#utility.yul\":3023:3028   */\n      dup2\n        /* \"#utility.yul\":3017:3029   */\n      mload\n        /* \"#utility.yul\":3007:3029   */\n      swap1\n      pop\n        /* \"#utility.yul\":2912:3036   */\n      swap2\n      swap1\n      pop\n      jump\t// out\n        /* \"#utility.yul\":3042:3236   */\n    tag_80:\n        /* \"#utility.yul\":3151:3162   */\n      0x00\n        /* \"#utility.yul\":3185:3191   */\n      dup3\n        /* \"#utility.yul\":3180:3183   */\n      dup3\n        /* \"#utility.yul\":3173:3192   */\n      mstore\n        /* \"#utility.yul\":3225:3229   */\n      0x20\n        /* \"#utility.yul\":3220:3223   */\n      dup3\n        /* \"#utility.yul\":3216:3230   */\n      add\n        /* \"#utility.yul\":3201:3230   */\n      swap1\n      pop\n        /* \"#utility.yul\":3042:3236   */\n      swap3\n      swap2\n      pop\n      pop\n      jump\t// out\n        /* \"#utility.yul\":3242:3384   */\n    tag_81:\n        /* \"#utility.yul\":3319:3323   */\n      0x00\n        /* \"#utility.yul\":3342:3345   */\n      dup2\n        /* \"#utility.yul\":3334:3345   */\n      swap1\n      pop\n        /* \"#utility.yul\":3372:3376   */\n      0x20\n        /* \"#utility.yul\":3367:3370   */\n      dup3\n        /* \"#utility.yul\":3363:3377   */\n      add\n        /* \"#utility.yul\":3355:3377   */\n      swap1\n      pop\n        /* \"#utility.yul\":3242:3384   */\n      swap2\n      swap1\n      pop\n      jump\t// out\n        /* \"#utility.yul\":3390:3549   */\n    tag_82:\n        /* \"#utility.yul\":3464:3475   */\n      0x00\n        /* \"#utility.yul\":3498:3504   */\n      dup3\n        /* \"#utility.yul\":3493:3496   */\n      dup3\n        /* \"#utility.yul\":3486:3505   */\n      mstore\n        /* \"#utility.yul\":3538:3542   */\n      0x20\n        /* \"#utility.yul\":3533:3536   */\n      dup3\n        /* \"#utility.yul\":3529:3543   */\n      add\n        /* \"#utility.yul\":3514:3543   */\n      swap1\n      pop\n        /* \"#utility.yul\":3390:3549   */\n      swap3\n      swap2\n      pop\n      pop\n      jump\t// out\n        /* \"#utility.yul\":3555:3912   */\n    tag_83:\n        /* \"#utility.yul\":3633:3636   */\n      0x00\n        /* \"#utility.yul\":3661:3700   */\n      tag_152\n        /* \"#utility.yul\":3694:3699   */\n      dup3\n        /* \"#utility.yul\":3661:3700   */\n      tag_74\n      jump\t// in\n    tag_152:\n        /* \"#utility.yul\":3716:3777   */\n      tag_153\n        /* \"#utility.yul\":3770:3776   */\n      dup2\n        /* \"#utility.yul\":3765:3768   */\n      dup6\n        /* \"#utility.yul\":3716:3777   */\n      tag_82\n      jump\t// in\n    tag_153:\n        /* \"#utility.yul\":3709:3777   */\n      swap4\n      pop\n        /* \"#utility.yul\":3786:3851   */\n      tag_154\n        /* \"#utility.yul\":3844:3850   */\n      dup2\n        /* \"#utility.yul\":3839:3842   */\n      dup6\n        /* \"#utility.yul\":3832:3836   */\n      0x20\n        /* \"#utility.yul\":3825:3830   */\n      dup7\n        /* \"#utility.yul\":3821:3837   */\n      add\n        /* \"#utility.yul\":3786:3851   */\n      tag_76\n      jump\t// in\n    tag_154:\n        /* \"#utility.yul\":3876:3905   */\n      tag_155\n        /* \"#utility.yul\":3898:3904   */\n      dup2\n        /* \"#utility.yul\":3876:3905   */\n      tag_77\n      jump\t// in\n    tag_155:\n        /* \"#utility.yul\":3871:3874   */\n      dup5\n        /* \"#utility.yul\":3867:3906   */\n      add\n        /* \"#utility.yul\":3860:3906   */\n      swap2\n      pop\n        /* \"#utility.yul\":3637:3912   */\n      pop\n        /* \"#utility.yul\":3555:3912   */\n      swap3\n      swap2\n      pop\n      pop\n      jump\t// out\n        /* \"#utility.yul\":3918:4114   */\n    tag_84:\n        /* \"#utility.yul\":4007:4017   */\n      0x00\n        /* \"#utility.yul\":4042:4108   */\n      tag_157\n        /* \"#utility.yul\":4104:4107   */\n      dup4\n        /* \"#utility.yul\":4096:4102   */\n      dup4\n        /* \"#utility.yul\":4042:4108   */\n      tag_83\n      jump\t// in\n    tag_157:\n        /* \"#utility.yul\":4028:4108   */\n      swap1\n      pop\n        /* \"#utility.yul\":3918:4114   */\n      swap3\n      swap2\n      pop\n      pop\n      jump\t// out\n        /* \"#utility.yul\":4120:4243   */\n    tag_85:\n        /* \"#utility.yul\":4200:4204   */\n      0x00\n        /* \"#utility.yul\":4232:4236   */\n      0x20\n        /* \"#utility.yul\":4227:4230   */\n      dup3\n        /* \"#utility.yul\":4223:4237   */\n      add\n        /* \"#utility.yul\":4215:4237   */\n      swap1\n      pop\n        /* \"#utility.yul\":4120:4243   */\n      swap2\n      swap1\n      pop\n      jump\t// out\n        /* \"#utility.yul\":4277:5268   */\n    tag_86:\n        /* \"#utility.yul\":4416:4419   */\n      0x00\n        /* \"#utility.yul\":4445:4509   */\n      tag_160\n        /* \"#utility.yul\":4503:4508   */\n      dup3\n        /* \"#utility.yul\":4445:4509   */\n      tag_79\n      jump\t// in\n    tag_160:\n        /* \"#utility.yul\":4525:4621   */\n      tag_161\n        /* \"#utility.yul\":4614:4620   */\n      dup2\n        /* \"#utility.yul\":4609:4612   */\n      dup6\n        /* \"#utility.yul\":4525:4621   */\n      tag_80\n      jump\t// in\n    tag_161:\n        /* \"#utility.yul\":4518:4621   */\n      swap4\n      pop\n        /* \"#utility.yul\":4647:4650   */\n      dup4\n        /* \"#utility.yul\":4692:4696   */\n      0x20\n        /* \"#utility.yul\":4684:4690   */\n      dup3\n        /* \"#utility.yul\":4680:4697   */\n      mul\n        /* \"#utility.yul\":4675:4678   */\n      dup6\n        /* \"#utility.yul\":4671:4698   */\n      add\n        /* \"#utility.yul\":4722:4788   */\n      tag_162\n        /* \"#utility.yul\":4782:4787   */\n      dup6\n        /* \"#utility.yul\":4722:4788   */\n      tag_81\n      jump\t// in\n    tag_162:\n        /* \"#utility.yul\":4811:4818   */\n      dup1\n        /* \"#utility.yul\":4842:4843   */\n      0x00\n        /* \"#utility.yul\":4827:5223   */\n    tag_163:\n        /* \"#utility.yul\":4852:4858   */\n      dup6\n        /* \"#utility.yul\":4849:4850   */\n      dup2\n        /* \"#utility.yul\":4846:4859   */\n      lt\n        /* \"#utility.yul\":4827:5223   */\n      iszero\n      tag_165\n      jumpi\n        /* \"#utility.yul\":4923:4932   */\n      dup5\n        /* \"#utility.yul\":4917:4921   */\n      dup5\n        /* \"#utility.yul\":4913:4933   */\n      sub\n        /* \"#utility.yul\":4908:4911   */\n      dup10\n        /* \"#utility.yul\":4901:4934   */\n      mstore\n        /* \"#utility.yul\":4974:4980   */\n      dup2\n        /* \"#utility.yul\":4968:4981   */\n      mload\n        /* \"#utility.yul\":5002:5086   */\n      tag_166\n        /* \"#utility.yul\":5081:5085   */\n      dup6\n        /* \"#utility.yul\":5066:5079   */\n      dup3\n        /* \"#utility.yul\":5002:5086   */\n      tag_84\n      jump\t// in\n    tag_166:\n        /* \"#utility.yul\":4994:5086   */\n      swap5\n      pop\n        /* \"#utility.yul\":5109:5179   */\n      tag_167\n        /* \"#utility.yul\":5172:5178   */\n      dup4\n        /* \"#utility.yul\":5109:5179   */\n      tag_85\n      jump\t// in\n    tag_167:\n        /* \"#utility.yul\":5099:5179   */\n      swap3\n      pop\n        /* \"#utility.yul\":5208:5212   */\n      0x20\n        /* \"#utility.yul\":5203:5206   */\n      dup11\n        /* \"#utility.yul\":5199:5213   */\n      add\n        /* \"#utility.yul\":5192:5213   */\n      swap10\n      pop\n        /* \"#utility.yul\":4887:5223   */\n      pop\n        /* \"#utility.yul\":4874:4875   */\n      0x01\n        /* \"#utility.yul\":4871:4872   */\n      dup2\n        /* \"#utility.yul\":4867:4876   */\n      add\n        /* \"#utility.yul\":4862:4876   */\n      swap1\n      pop\n        /* \"#utility.yul\":4827:5223   */\n      jump(tag_163)\n    tag_165:\n        /* \"#utility.yul\":4831:4845   */\n      pop\n        /* \"#utility.yul\":5239:5243   */\n      dup3\n        /* \"#utility.yul\":5232:5243   */\n      swap8\n      pop\n        /* \"#utility.yul\":5259:5262   */\n      dup8\n        /* \"#utility.yul\":5252:5262   */\n      swap6\n      pop\n        /* \"#utility.yul\":4421:5268   */\n      pop\n      pop\n      pop\n      pop\n      pop\n        /* \"#utility.yul\":4277:5268   */\n      swap3\n      swap2\n      pop\n      pop\n      jump\t// out\n        /* \"#utility.yul\":5274:5687   */\n    tag_17:\n        /* \"#utility.yul\":5437:5441   */\n      0x00\n        /* \"#utility.yul\":5475:5477   */\n      0x20\n        /* \"#utility.yul\":5464:5473   */\n      dup3\n        /* \"#utility.yul\":5460:5478   */\n      add\n        /* \"#utility.yul\":5452:5478   */\n      swap1\n      pop\n        /* \"#utility.yul\":5524:5533   */\n      dup2\n        /* \"#utility.yul\":5518:5522   */\n      dup2\n        /* \"#utility.yul\":5514:5534   */\n      sub\n        /* \"#utility.yul\":5510:5511   */\n      0x00\n        /* \"#utility.yul\":5499:5508   */\n      dup4\n        /* \"#utility.yul\":5495:5512   */\n      add\n        /* \"#utility.yul\":5488:5535   */\n      mstore\n        /* \"#utility.yul\":5552:5680   */\n      tag_169\n        /* \"#utility.yul\":5675:5679   */\n      dup2\n        /* \"#utility.yul\":5666:5672   */\n      dup5\n        /* \"#utility.yul\":5552:5680   */\n      tag_86\n      jump\t// in\n    tag_169:\n        /* \"#utility.yul\":5544:5680   */\n      swap1\n      pop\n        /* \"#utility.yul\":5274:5687   */\n      swap3\n      swap2\n      pop\n      pop\n      jump\t// out\n        /* \"#utility.yul\":5693:5810   */\n    tag_87:\n        /* \"#utility.yul\":5802:5803   */\n      0x00\n        /* \"#utility.yul\":5799:5800   */\n      0x00\n        /* \"#utility.yul\":5792:5804   */\n      revert\n        /* \"#utility.yul\":5816:5933   */\n    tag_88:\n        /* \"#utility.yul\":5925:5926   */\n      0x00\n        /* \"#utility.yul\":5922:5923   */\n      0x00\n        /* \"#utility.yul\":5915:5927   */\n      revert\n        /* \"#utility.yul\":5939:6119   */\n    tag_39:\n        /* \"#utility.yul\":5987:6064   */\n      0x4e487b7100000000000000000000000000000000000000000000000000000000\n        /* \"#utility.yul\":5984:5985   */\n      0x00\n        /* \"#utility.yul\":5977:6065   */\n      mstore\n        /* \"#utility.yul\":6084:6088   */\n      0x41\n        /* \"#utility.yul\":6081:6082   */\n      0x04\n        /* \"#utility.yul\":6074:6089   */\n      mstore\n        /* \"#utility.yul\":6108:6112   */\n      0x24\n        /* \"#utility.yul\":6105:6106   */\n      0x00\n        /* \"#utility.yul\":6098:6113   */\n      revert\n        /* \"#utility.yul\":6125:6406   */\n    tag_89:\n        /* \"#utility.yul\":6208:6235   */\n      tag_174\n        /* \"#utility.yul\":6230:6234   */\n      dup3\n        /* \"#utility.yul\":6208:6235   */\n      tag_77\n      jump\t// in\n    tag_174:\n        /* \"#utility.yul\":6200:6206   */\n      dup2\n        /* \"#utility.yul\":6196:6236   */\n      add\n        /* \"#utility.yul\":6338:6344   */\n      dup2\n        /* \"#utility.yul\":6326:6336   */\n      dup2\n        /* \"#utility.yul\":6323:6345   */\n      lt\n        /* \"#utility.yul\":6302:6320   */\n      0xffffffffffffffff\n        /* \"#utility.yul\":6290:6300   */\n      dup3\n        /* \"#utility.yul\":6287:6321   */\n      gt\n        /* \"#utility.yul\":6284:6346   */\n      or\n        /* \"#utility.yul\":6281:6369   */\n      iszero\n      tag_175\n      jumpi\n        /* \"#utility.yul\":6349:6367   */\n      tag_176\n      tag_39\n      jump\t// in\n    tag_176:\n        /* \"#utility.yul\":6281:6369   */\n    tag_175:\n        /* \"#utility.yul\":6389:6399   */\n      dup1\n        /* \"#utility.yul\":6385:6387   */\n      0x40\n        /* \"#utility.yul\":6378:6400   */\n      mstore\n        /* \"#utility.yul\":6168:6406   */\n      pop\n        /* \"#utility.yul\":6125:6406   */\n      pop\n      pop\n      jump\t// out\n        /* \"#utility.yul\":6412:6541   */\n    tag_90:\n        /* \"#utility.yul\":6446:6452   */\n      0x00\n        /* \"#utility.yul\":6473:6493   */\n      tag_178\n      tag_64\n      jump\t// in\n    tag_178:\n        /* \"#utility.yul\":6463:6493   */\n      swap1\n      pop\n        /* \"#utility.yul\":6502:6535   */\n      tag_179\n        /* \"#utility.yul\":6530:6534   */\n      dup3\n        /* \"#utility.yul\":6522:6528   */\n      dup3\n        /* \"#utility.yul\":6502:6535   */\n      tag_89\n      jump\t// in\n    tag_179:\n        /* \"#utility.yul\":6412:6541   */\n      swap2\n      swap1\n      pop\n      jump\t// out\n        /* \"#utility.yul\":6547:6855   */\n    tag_91:\n        /* \"#utility.yul\":6609:6613   */\n      0x00\n        /* \"#utility.yul\":6699:6717   */\n      0xffffffffffffffff\n        /* \"#utility.yul\":6691:6697   */\n      dup3\n        /* \"#utility.yul\":6688:6718   */\n      gt\n        /* \"#utility.yul\":6685:6741   */\n      iszero\n      tag_181\n      jumpi\n        /* \"#utility.yul\":6721:6739   */\n      tag_182\n      tag_39\n      jump\t// in\n    tag_182:\n        /* \"#utility.yul\":6685:6741   */\n    tag_181:\n        /* \"#utility.yul\":6759:6788   */\n      tag_183\n        /* \"#utility.yul\":6781:6787   */\n      dup3\n        /* \"#utility.yul\":6759:6788   */\n      tag_77\n      jump\t// in\n    tag_183:\n        /* \"#utility.yul\":6751:6788   */\n      swap1\n      pop\n        /* \"#utility.yul\":6843:6847   */\n      0x20\n        /* \"#utility.yul\":6837:6841   */\n      dup2\n        /* \"#utility.yul\":6833:6848   */\n      add\n        /* \"#utility.yul\":6825:6848   */\n      swap1\n      pop\n        /* \"#utility.yul\":6547:6855   */\n      swap2\n      swap1\n      pop\n      jump\t// out\n        /* \"#utility.yul\":6861:7009   */\n    tag_92:\n        /* \"#utility.yul\":6959:6965   */\n      dup3\n        /* \"#utility.yul\":6954:6957   */\n      dup2\n        /* \"#utility.yul\":6949:6952   */\n      dup4\n        /* \"#utility.yul\":6936:6966   */\n      calldatacopy\n        /* \"#utility.yul\":7000:7001   */\n      0x00\n        /* \"#utility.yul\":6991:6997   */\n      dup4\n        /* \"#utility.yul\":6986:6989   */\n      dup4\n        /* \"#utility.yul\":6982:6998   */\n      add\n        /* \"#utility.yul\":6975:7002   */\n      mstore\n        /* \"#utility.yul\":6861:7009   */\n      pop\n      pop\n      pop\n      jump\t// out\n        /* \"#utility.yul\":7015:7440   */\n    tag_93:\n        /* \"#utility.yul\":7093:7098   */\n      0x00\n        /* \"#utility.yul\":7118:7184   */\n      tag_186\n        /* \"#utility.yul\":7134:7183   */\n      tag_187\n        /* \"#utility.yul\":7176:7182   */\n      dup5\n        /* \"#utility.yul\":7134:7183   */\n      tag_91\n      jump\t// in\n    tag_187:\n        /* \"#utility.yul\":7118:7184   */\n      tag_90\n      jump\t// in\n    tag_186:\n        /* \"#utility.yul\":7109:7184   */\n      swap1\n      pop\n        /* \"#utility.yul\":7207:7213   */\n      dup3\n        /* \"#utility.yul\":7200:7205   */\n      dup2\n        /* \"#utility.yul\":7193:7214   */\n      mstore\n        /* \"#utility.yul\":7245:7249   */\n      0x20\n        /* \"#utility.yul\":7238:7243   */\n      dup2\n        /* \"#utility.yul\":7234:7250   */\n      add\n        /* \"#utility.yul\":7283:7286   */\n      dup5\n        /* \"#utility.yul\":7274:7280   */\n      dup5\n        /* \"#utility.yul\":7269:7272   */\n      dup5\n        /* \"#utility.yul\":7265:7281   */\n      add\n        /* \"#utility.yul\":7262:7287   */\n      gt\n        /* \"#utility.yul\":7259:7371   */\n      iszero\n      tag_188\n      jumpi\n        /* \"#utility.yul\":7290:7369   */\n      tag_189\n      tag_88\n      jump\t// in\n    tag_189:\n        /* \"#utility.yul\":7259:7371   */\n    tag_188:\n        /* \"#utility.yul\":7380:7434   */\n      tag_190\n        /* \"#utility.yul\":7427:7433   */\n      dup5\n        /* \"#utility.yul\":7422:7425   */\n      dup3\n        /* \"#utility.yul\":7417:7420   */\n      dup6\n        /* \"#utility.yul\":7380:7434   */\n      tag_92\n      jump\t// in\n    tag_190:\n        /* \"#utility.yul\":7099:7440   */\n      pop\n        /* \"#utility.yul\":7015:7440   */\n      swap4\n      swap3\n      pop\n      pop\n      pop\n      jump\t// out\n        /* \"#utility.yul\":7460:7800   */\n    tag_94:\n        /* \"#utility.yul\":7516:7521   */\n      0x00\n        /* \"#utility.yul\":7565:7568   */\n      dup3\n        /* \"#utility.yul\":7558:7562   */\n      0x1f\n        /* \"#utility.yul\":7550:7556   */\n      dup4\n        /* \"#utility.yul\":7546:7563   */\n      add\n        /* \"#utility.yul\":7542:7569   */\n      slt\n        /* \"#utility.yul\":7532:7654   */\n      tag_192\n      jumpi\n        /* \"#utility.yul\":7573:7652   */\n      tag_193\n      tag_87\n      jump\t// in\n    tag_193:\n        /* \"#utility.yul\":7532:7654   */\n    tag_192:\n        /* \"#utility.yul\":7690:7696   */\n      dup2\n        /* \"#utility.yul\":7677:7697   */\n      calldataload\n        /* \"#utility.yul\":7715:7794   */\n      tag_194\n        /* \"#utility.yul\":7790:7793   */\n      dup5\n        /* \"#utility.yul\":7782:7788   */\n      dup3\n        /* \"#utility.yul\":7775:7779   */\n      0x20\n        /* \"#utility.yul\":7767:7773   */\n      dup7\n        /* \"#utility.yul\":7763:7780   */\n      add\n        /* \"#utility.yul\":7715:7794   */\n      tag_93\n      jump\t// in\n    tag_194:\n        /* \"#utility.yul\":7706:7794   */\n      swap2\n      pop\n        /* \"#utility.yul\":7522:7800   */\n      pop\n        /* \"#utility.yul\":7460:7800   */\n      swap3\n      swap2\n      pop\n      pop\n      jump\t// out\n        /* \"#utility.yul\":7806:8315   */\n    tag_20:\n        /* \"#utility.yul\":7875:7881   */\n      0x00\n        /* \"#utility.yul\":7924:7926   */\n      0x20\n        /* \"#utility.yul\":7912:7921   */\n      dup3\n        /* \"#utility.yul\":7903:7910   */\n      dup5\n        /* \"#utility.yul\":7899:7922   */\n      sub\n        /* \"#utility.yul\":7895:7927   */\n      slt\n        /* \"#utility.yul\":7892:8011   */\n      iszero\n      tag_196\n      jumpi\n        /* \"#utility.yul\":7930:8009   */\n      tag_197\n      tag_65\n      jump\t// in\n    tag_197:\n        /* \"#utility.yul\":7892:8011   */\n    tag_196:\n        /* \"#utility.yul\":8078:8079   */\n      0x00\n        /* \"#utility.yul\":8067:8076   */\n      dup3\n        /* \"#utility.yul\":8063:8080   */\n      add\n        /* \"#utility.yul\":8050:8081   */\n      calldataload\n        /* \"#utility.yul\":8108:8126   */\n      0xffffffffffffffff\n        /* \"#utility.yul\":8100:8106   */\n      dup2\n        /* \"#utility.yul\":8097:8127   */\n      gt\n        /* \"#utility.yul\":8094:8211   */\n      iszero\n      tag_198\n      jumpi\n        /* \"#utility.yul\":8130:8209   */\n      tag_199\n      tag_66\n      jump\t// in\n    tag_199:\n        /* \"#utility.yul\":8094:8211   */\n    tag_198:\n        /* \"#utility.yul\":8235:8298   */\n      tag_200\n        /* \"#utility.yul\":8290:8297   */\n      dup5\n        /* \"#utility.yul\":8281:8287   */\n      dup3\n        /* \"#utility.yul\":8270:8279   */\n      dup6\n        /* \"#utility.yul\":8266:8288   */\n      add\n        /* \"#utility.yul\":8235:8298   */\n      tag_94\n      jump\t// in\n    tag_200:\n        /* \"#utility.yul\":8225:8298   */\n      swap2\n      pop\n        /* \"#utility.yul\":8021:8308   */\n      pop\n        /* \"#utility.yul\":7806:8315   */\n      swap3\n      swap2\n      pop\n      pop\n      jump\t// out\n        /* \"#utility.yul\":8321:8439   */\n    tag_95:\n        /* \"#utility.yul\":8408:8432   */\n      tag_202\n        /* \"#utility.yul\":8426:8431   */\n      dup2\n        /* \"#utility.yul\":8408:8432   */\n      tag_71\n      jump\t// in\n    tag_202:\n        /* \"#utility.yul\":8403:8406   */\n      dup3\n        /* \"#utility.yul\":8396:8433   */\n      mstore\n        /* \"#utility.yul\":8321:8439   */\n      pop\n      pop\n      jump\t// out\n        /* \"#utility.yul\":8445:8667   */\n    tag_25:\n        /* \"#utility.yul\":8538:8542   */\n      0x00\n        /* \"#utility.yul\":8576:8578   */\n      0x20\n        /* \"#utility.yul\":8565:8574   */\n      dup3\n        /* \"#utility.yul\":8561:8579   */\n      add\n        /* \"#utility.yul\":8553:8579   */\n      swap1\n      pop\n        /* \"#utility.yul\":8589:8660   */\n      tag_204\n        /* \"#utility.yul\":8657:8658   */\n      0x00\n        /* \"#utility.yul\":8646:8655   */\n      dup4\n        /* \"#utility.yul\":8642:8659   */\n      add\n        /* \"#utility.yul\":8633:8639   */\n      dup5\n        /* \"#utility.yul\":8589:8660   */\n      tag_95\n      jump\t// in\n    tag_204:\n        /* \"#utility.yul\":8445:8667   */\n      swap3\n      swap2\n      pop\n      pop\n      jump\t// out\n        /* \"#utility.yul\":8673:8853   */\n    tag_96:\n        /* \"#utility.yul\":8721:8798   */\n      0x4e487b7100000000000000000000000000000000000000000000000000000000\n        /* \"#utility.yul\":8718:8719   */\n      0x00\n        /* \"#utility.yul\":8711:8799   */\n      mstore\n        /* \"#utility.yul\":8818:8822   */\n      0x22\n        /* \"#utility.yul\":8815:8816   */\n      0x04\n        /* \"#utility.yul\":8808:8823   */\n      mstore\n        /* \"#utility.yul\":8842:8846   */\n      0x24\n        /* \"#utility.yul\":8839:8840   */\n      0x00\n        /* \"#utility.yul\":8832:8847   */\n      revert\n        /* \"#utility.yul\":8859:9179   */\n    tag_31:\n        /* \"#utility.yul\":8903:8909   */\n      0x00\n        /* \"#utility.yul\":8940:8941   */\n      0x02\n        /* \"#utility.yul\":8934:8938   */\n      dup3\n        /* \"#utility.yul\":8930:8942   */\n      div\n        /* \"#utility.yul\":8920:8942   */\n      swap1\n      pop\n        /* \"#utility.yul\":8987:8988   */\n      0x01\n        /* \"#utility.yul\":8981:8985   */\n      dup3\n        /* \"#utility.yul\":8977:8989   */\n      and\n        /* \"#utility.yul\":9008:9026   */\n      dup1\n        /* \"#utility.yul\":8998:9079   */\n      tag_207\n      jumpi\n        /* \"#utility.yul\":9064:9068   */\n      0x7f\n        /* \"#utility.yul\":9056:9062   */\n      dup3\n        /* \"#utility.yul\":9052:9069   */\n      and\n        /* \"#utility.yul\":9042:9069   */\n      swap2\n      pop\n        /* \"#utility.yul\":8998:9079   */\n    tag_207:\n        /* \"#utility.yul\":9126:9128   */\n      0x20\n        /* \"#utility.yul\":9118:9124   */\n      dup3\n        /* \"#utility.yul\":9115:9129   */\n      lt\n        /* \"#utility.yul\":9095:9113   */\n      dup2\n        /* \"#utility.yul\":9092:9130   */\n      sub\n        /* \"#utility.yul\":9089:9173   */\n      tag_208\n      jumpi\n        /* \"#utility.yul\":9145:9163   */\n      tag_209\n      tag_96\n      jump\t// in\n    tag_209:\n        /* \"#utility.yul\":9089:9173   */\n    tag_208:\n        /* \"#utility.yul\":8910:9179   */\n      pop\n        /* \"#utility.yul\":8859:9179   */\n      swap2\n      swap1\n      pop\n      jump\t// out\n        /* \"#utility.yul\":9185:9365   */\n    tag_47:\n        /* \"#utility.yul\":9233:9310   */\n      0x4e487b7100000000000000000000000000000000000000000000000000000000\n        /* \"#utility.yul\":9230:9231   */\n      0x00\n        /* \"#utility.yul\":9223:9311   */\n      mstore\n        /* \"#utility.yul\":9330:9334   */\n      0x32\n        /* \"#utility.yul\":9327:9328   */\n      0x04\n        /* \"#utility.yul\":9320:9335   */\n      mstore\n        /* \"#utility.yul\":9354:9358   */\n      0x24\n        /* \"#utility.yul\":9351:9352   */\n      0x00\n        /* \"#utility.yul\":9344:9359   */\n      revert\n        /* \"#utility.yul\":9371:9512   */\n    tag_97:\n        /* \"#utility.yul\":9420:9424   */\n      0x00\n        /* \"#utility.yul\":9443:9446   */\n      dup2\n        /* \"#utility.yul\":9435:9446   */\n      swap1\n      pop\n        /* \"#utility.yul\":9466:9469   */\n      dup2\n        /* \"#utility.yul\":9463:9464   */\n      0x00\n        /* \"#utility.yul\":9456:9470   */\n      mstore\n        /* \"#utility.yul\":9500:9504   */\n      0x20\n        /* \"#utility.yul\":9497:9498   */\n      0x00\n        /* \"#utility.yul\":9487:9505   */\n      keccak256\n        /* \"#utility.yul\":9479:9505   */\n      swap1\n      pop\n        /* \"#utility.yul\":9371:9512   */\n      swap2\n      swap1\n      pop\n      jump\t// out\n        /* \"#utility.yul\":9518:9611   */\n    tag_98:\n        /* \"#utility.yul\":9555:9561   */\n      0x00\n        /* \"#utility.yul\":9602:9604   */\n      0x20\n        /* \"#utility.yul\":9597:9599   */\n      0x1f\n        /* \"#utility.yul\":9590:9595   */\n      dup4\n        /* \"#utility.yul\":9586:9600   */\n      add\n        /* \"#utility.yul\":9582:9605   */\n      div\n        /* \"#utility.yul\":9572:9605   */\n      swap1\n      pop\n        /* \"#utility.yul\":9518:9611   */\n      swap2\n      swap1\n      pop\n      jump\t// out\n        /* \"#utility.yul\":9617:9724   */\n    tag_99:\n        /* \"#utility.yul\":9661:9669   */\n      0x00\n        /* \"#utility.yul\":9711:9716   */\n      dup3\n        /* \"#utility.yul\":9705:9709   */\n      dup3\n        /* \"#utility.yul\":9701:9717   */\n      shl\n        /* \"#utility.yul\":9680:9717   */\n      swap1\n      pop\n        /* \"#utility.yul\":9617:9724   */\n      swap3\n      swap2\n      pop\n      pop\n      jump\t// out\n        /* \"#utility.yul\":9730:10123   */\n    tag_100:\n        /* \"#utility.yul\":9799:9805   */\n      0x00\n        /* \"#utility.yul\":9849:9850   */\n      0x08\n        /* \"#utility.yul\":9837:9847   */\n      dup4\n        /* \"#utility.yul\":9833:9851   */\n      mul\n        /* \"#utility.yul\":9872:9969   */\n      tag_215\n        /* \"#utility.yul\":9902:9968   */\n      0xffffffffffffffffffffffffffffffffffffffffffffffffffffffffffffffff\n        /* \"#utility.yul\":9891:9900   */\n      dup3\n        /* \"#utility.yul\":9872:9969   */\n      tag_99\n      jump\t// in\n    tag_215:\n        /* \"#utility.yul\":9990:10029   */\n      tag_216\n        /* \"#utility.yul\":10020:10028   */\n      dup7\n        /* \"#utility.yul\":10009:10018   */\n      dup4\n        /* \"#utility.yul\":9990:10029   */\n      tag_99\n      jump\t// in\n    tag_216:\n        /* \"#utility.yul\":9978:10029   */\n      swap6\n      pop\n        /* \"#utility.yul\":10062:10066   */\n      dup1\n        /* \"#utility.yul\":10058:10067   */\n      not\n        /* \"#utility.yul\":10051:10056   */\n      dup5\n        /* \"#utility.yul\":10047:10068   */\n      and\n        /* \"#utility.yul\":10038:10068   */\n      swap4\n      pop\n        /* \"#utility.yul\":10111:10115   */\n      dup1\n        /* \"#utility.yul\":10101:10109   */\n      dup7\n        /* \"#utility.yul\":10097:10116   */\n      and\n        /* \"#utility.yul\":10090:10095   */\n      dup5\n        /* \"#utility.yul\":10087:10117   */\n      or\n        /* \"#utility.yul\":10077:10117   */\n      swap3\n      pop\n        /* \"#utility.yul\":9806:10123   */\n      pop\n      pop\n        /* \"#utility.yul\":9730:10123   */\n      swap4\n      swap3\n      pop\n      pop\n      pop\n      jump\t// out\n        /* \"#utility.yul\":10129:10189   */\n    tag_101:\n        /* \"#utility.yul\":10157:10160   */\n      0x00\n        /* \"#utility.yul\":10178:10183   */\n      dup2\n        /* \"#utility.yul\":10171:10183   */\n      swap1\n      pop\n        /* \"#utility.yul\":10129:10189   */\n      swap2\n      swap1\n      pop\n      jump\t// out\n        /* \"#utility.yul\":10195:10337   */\n    tag_102:\n        /* \"#utility.yul\":10245:10254   */\n      0x00\n        /* \"#utility.yul\":10278:10331   */\n      tag_219\n        /* \"#utility.yul\":10296:10330   */\n      tag_220\n        /* \"#utility.yul\":10305:10329   */\n      tag_221\n        /* \"#utility.yul\":10323:10328   */\n      dup5\n        /* \"#utility.yul\":10305:10329   */\n      tag_71\n      jump\t// in\n    tag_221:\n        /* \"#utility.yul\":10296:10330   */\n      tag_101\n      jump\t// in\n    tag_220:\n        /* \"#utility.yul\":10278:10331   */\n      tag_71\n      jump\t// in\n    tag_219:\n        /* \"#utility.yul\":10265:10331   */\n      swap1\n      pop\n        /* \"#utility.yul\":10195:10337   */\n      swap2\n      swap1\n      pop\n      jump\t// out\n        /* \"#utility.yul\":10343:10418   */\n    tag_103:\n        /* \"#utility.yul\":10386:10389   */\n      0x00\n        /* \"#utility.yul\":10407:10412   */\n      dup2\n        /* \"#utility.yul\":10400:10412   */\n      swap1\n      pop\n        /* \"#utility.yul\":10343:10418   */\n      swap2\n      swap1\n      pop\n      jump\t// out\n        /* \"#utility.yul\":10424:10693   */\n    tag_104:\n        /* \"#utility.yul\":10534:10573   */\n      tag_224\n        /* \"#utility.yul\":10565:10572   */\n      dup4\n        /* \"#utility.yul\":10534:10573   */\n      tag_102\n      jump\t// in\n    tag_224:\n        /* \"#utility.yul\":10595:10686   */\n      tag_225\n        /* \"#utility.yul\":10644:10685   */\n      tag_226\n        /* \"#utility.yul\":10668:10684   */\n      dup3\n        /* \"#utility.yul\":10644:10685   */\n      tag_103\n      jump\t// in\n    tag_226:\n        /* \"#utility.yul\":10636:10642   */\n      dup5\n        /* \"#utility.yul\":10629:10633   */\n      dup5\n        /* \"#utility.yul\":10623:10634   */\n      sload\n        /* \"#utility.yul\":10595:10686   */\n      tag_100\n      jump\t// in\n    tag_225:\n        /* \"#utility.yul\":10589:10593   */\n      dup3\n        /* \"#utility.yul\":10582:10687   */\n      sstore\n        /* \"#utility.yul\":10500:10693   */\n      pop\n        /* \"#utility.yul\":10424:10693   */\n      pop\n      pop\n      pop\n      jump\t// out\n        /* \"#utility.yul\":10699:10772   */\n    tag_105:\n        /* \"#utility.yul\":10744:10747   */\n      0x00\n        /* \"#utility.yul\":10765:10766   */\n      0x00\n        /* \"#utility.yul\":10758:10766   */\n      swap1\n      pop\n        /* \"#utility.yul\":10699:10772   */\n      swap1\n      jump\t// out\n        /* \"#utility.yul\":10778:10967   */\n    tag_106:\n        /* \"#utility.yul\":10855:10887   */\n      tag_229\n      tag_105\n      jump\t// in\n    tag_229:\n        /* \"#utility.yul\":10896:10961   */\n      tag_230\n        /* \"#utility.yul\":10954:10960   */\n      dup2\n        /* \"#utility.yul\":10946:10952   */\n      dup5\n        /* \"#utility.yul\":10940:10944   */\n      dup5\n        /* \"#utility.yul\":10896:10961   */\n      tag_104\n      jump\t// in\n    tag_230:\n        /* \"#utility.yul\":10831:10967   */\n      pop\n        /* \"#utility.yul\":10778:10967   */\n      pop\n      pop\n      jump\t// out\n        /* \"#utility.yul\":10973:11159   */\n    tag_107:\n        /* \"#utility.yul\":11033:11153   */\n    tag_232:\n        /* \"#utility.yul\":11050:11053   */\n      dup2\n        /* \"#utility.yul\":11043:11048   */\n      dup2\n        /* \"#utility.yul\":11040:11054   */\n      lt\n        /* \"#utility.yul\":11033:11153   */\n      iszero\n      tag_234\n      jumpi\n        /* \"#utility.yul\":11104:11143   */\n      tag_235\n        /* \"#utility.yul\":11141:11142   */\n      0x00\n        /* \"#utility.yul\":11134:11139   */\n      dup3\n        /* \"#utility.yul\":11104:11143   */\n      tag_106\n      jump\t// in\n    tag_235:\n        /* \"#utility.yul\":11077:11078   */\n      0x01\n        /* \"#utility.yul\":11070:11075   */\n      dup2\n        /* \"#utility.yul\":11066:11079   */\n      add\n        /* \"#utility.yul\":11057:11079   */\n      swap1\n      pop\n        /* \"#utility.yul\":11033:11153   */\n      jump(tag_232)\n    tag_234:\n        /* \"#utility.yul\":10973:11159   */\n      pop\n      pop\n      jump\t// out\n        /* \"#utility.yul\":11165:11708   */\n    tag_108:\n        /* \"#utility.yul\":11266:11268   */\n      0x1f\n        /* \"#utility.yul\":11261:11264   */\n      dup3\n        /* \"#utility.yul\":11258:11269   */\n      gt\n        /* \"#utility.yul\":11255:11701   */\n      iszero\n      tag_237\n      jumpi\n        /* \"#utility.yul\":11300:11338   */\n      tag_238\n        /* \"#utility.yul\":11332:11337   */\n      dup2\n        /* \"#utility.yul\":11300:11338   */\n      tag_97\n      jump\t// in\n    tag_238:\n        /* \"#utility.yul\":11384:11413   */\n      tag_239\n        /* \"#utility.yul\":11402:11412   */\n      dup5\n        /* \"#utility.yul\":11384:11413   */\n      tag_98\n      jump\t// in\n    tag_239:\n        /* \"#utility.yul\":11374:11382   */\n      dup2\n        /* \"#utility.yul\":11370:11414   */\n      add\n        /* \"#utility.yul\":11567:11569   */\n      0x20\n        /* \"#utility.yul\":11555:11565   */\n      dup6\n        /* \"#utility.yul\":11552:11570   */\n      lt\n        /* \"#utility.yul\":11549:11598   */\n      iszero\n      tag_240\n      jumpi\n        /* \"#utility.yul\":11588:11596   */\n      dup2\n        /* \"#utility.yul\":11573:11596   */\n      swap1\n      pop\n        /* \"#utility.yul\":11549:11598   */\n    tag_240:\n        /* \"#utility.yul\":11611:11691   */\n      tag_241\n        /* \"#utility.yul\":11667:11689   */\n      tag_242\n        /* \"#utility.yul\":11685:11688   */\n      dup6\n        /* \"#utility.yul\":11667:11689   */\n      tag_98\n      jump\t// in\n    tag_242:\n        /* \"#utility.yul\":11657:11665   */\n      dup4\n        /* \"#utility.yul\":11653:11690   */\n      add\n        /* \"#utility.yul\":11640:11651   */\n      dup3\n        /* \"#utility.yul\":11611:11691   */\n      tag_107\n      jump\t// in\n    tag_241:\n        /* \"#utility.yul\":11270:11701   */\n      pop\n      pop\n        /* \"#utility.yul\":11255:11701   */\n    tag_237:\n        /* \"#utility.yul\":11165:11708   */\n      pop\n      pop\n      pop\n      jump\t// out\n        /* \"#utility.yul\":11714:11831   */\n    tag_109:\n        /* \"#utility.yul\":11768:11776   */\n      0x00\n        /* \"#utility.yul\":11818:11823   */\n      dup3\n        /* \"#utility.yul\":11812:11816   */\n      dup3\n        /* \"#utility.yul\":11808:11824   */\n      shr\n        /* \"#utility.yul\":11787:11824   */\n      swap1\n      pop\n        /* \"#utility.yul\":11714:11831   */\n      swap3\n      swap2\n      pop\n      pop\n      jump\t// out\n        /* \"#utility.yul\":11837:12006   */\n    tag_110:\n        /* \"#utility.yul\":11881:11887   */\n      0x00\n        /* \"#utility.yul\":11914:11965   */\n      tag_245\n        /* \"#utility.yul\":11962:11963   */\n      0x00\n        /* \"#utility.yul\":11958:11964   */\n      not\n        /* \"#utility.yul\":11950:11955   */\n      dup5\n        /* \"#utility.yul\":11947:11948   */\n      0x08\n        /* \"#utility.yul\":11943:11956   */\n      mul\n        /* \"#utility.yul\":11914:11965   */\n      tag_109\n      jump\t// in\n    tag_245:\n        /* \"#utility.yul\":11910:11966   */\n      not\n        /* \"#utility.yul\":11995:11999   */\n      dup1\n        /* \"#utility.yul\":11989:11993   */\n      dup4\n        /* \"#utility.yul\":11985:12000   */\n      and\n        /* \"#utility.yul\":11975:12000   */\n      swap2\n      pop\n        /* \"#utility.yul\":11888:12006   */\n      pop\n        /* \"#utility.yul\":11837:12006   */\n      swap3\n      swap2\n      pop\n      pop\n      jump\t// out\n        /* \"#utility.yul\":12011:12306   */\n    tag_111:\n        /* \"#utility.yul\":12087:12091   */\n      0x00\n        /* \"#utility.yul\":12233:12262   */\n      tag_247\n        /* \"#utility.yul\":12258:12261   */\n      dup4\n        /* \"#utility.yul\":12252:12256   */\n      dup4\n        /* \"#utility.yul\":12233:12262   */\n      tag_110\n      jump\t// in\n    tag_247:\n        /* \"#utility.yul\":12225:12262   */\n      swap2\n      pop\n        /* \"#utility.yul\":12295:12298   */\n      dup3\n        /* \"#utility.yul\":12292:12293   */\n      0x02\n        /* \"#utility.yul\":12288:12299   */\n      mul\n        /* \"#utility.yul\":12282:12286   */\n      dup3\n        /* \"#utility.yul\":12279:12300   */\n      or\n        /* \"#utility.yul\":12271:12300   */\n      swap1\n      pop\n        /* \"#utility.yul\":12011:12306   */\n      swap3\n      swap2\n      pop\n      pop\n      jump\t// out\n        /* \"#utility.yul\":12311:13706   */\n    tag_58:\n        /* \"#utility.yul\":12428:12465   */\n      tag_249\n        /* \"#utility.yul\":12461:12464   */\n      dup3\n        /* \"#utility.yul\":12428:12465   */\n      tag_74\n      jump\t// in\n    tag_249:\n        /* \"#utility.yul\":12530:12548   */\n      0xffffffffffffffff\n        /* \"#utility.yul\":12522:12528   */\n      dup2\n        /* \"#utility.yul\":12519:12549   */\n      gt\n        /* \"#utility.yul\":12516:12572   */\n      iszero\n      tag_250\n      jumpi\n        /* \"#utility.yul\":12552:12570   */\n      tag_251\n      tag_39\n      jump\t// in\n    tag_251:\n        /* \"#utility.yul\":12516:12572   */\n    tag_250:\n        /* \"#utility.yul\":12596:12634   */\n      tag_252\n        /* \"#utility.yul\":12628:12632   */\n      dup3\n        /* \"#utility.yul\":12622:12633   */\n      sload\n        /* \"#utility.yul\":12596:12634   */\n      tag_31\n      jump\t// in\n    tag_252:\n        /* \"#utility.yul\":12681:12748   */\n      tag_253\n        /* \"#utility.yul\":12741:12747   */\n      dup3\n        /* \"#utility.yul\":12733:12739   */\n      dup3\n        /* \"#utility.yul\":12727:12731   */\n      dup6\n        /* \"#utility.yul\":12681:12748   */\n      tag_108\n      jump\t// in\n    tag_253:\n        /* \"#utility.yul\":12775:12776   */\n      0x00\n        /* \"#utility.yul\":12799:12803   */\n      0x20\n        /* \"#utility.yul\":12786:12803   */\n      swap1\n      pop\n        /* \"#utility.yul\":12831:12833   */\n      0x1f\n        /* \"#utility.yul\":12823:12829   */\n      dup4\n        /* \"#utility.yul\":12820:12834   */\n      gt\n        /* \"#utility.yul\":12848:12849   */\n      0x01\n        /* \"#utility.yul\":12843:13461   */\n      dup2\n      eq\n      tag_255\n      jumpi\n        /* \"#utility.yul\":13505:13506   */\n      0x00\n        /* \"#utility.yul\":13522:13528   */\n      dup5\n        /* \"#utility.yul\":13519:13596   */\n      iszero\n      tag_256\n      jumpi\n        /* \"#utility.yul\":13571:13580   */\n      dup3\n        /* \"#utility.yul\":13566:13569   */\n      dup8\n        /* \"#utility.yul\":13562:13581   */\n      add\n        /* \"#utility.yul\":13556:13582   */\n      mload\n        /* \"#utility.yul\":13547:13582   */\n      swap1\n      pop\n        /* \"#utility.yul\":13519:13596   */\n    tag_256:\n        /* \"#utility.yul\":13622:13689   */\n      tag_257\n        /* \"#utility.yul\":13682:13688   */\n      dup6\n        /* \"#utility.yul\":13675:13680   */\n      dup3\n        /* \"#utility.yul\":13622:13689   */\n      tag_111\n      jump\t// in\n    tag_257:\n        /* \"#utility.yul\":13616:13620   */\n      dup7\n        /* \"#utility.yul\":13609:13690   */\n      sstore\n        /* \"#utility.yul\":13478:13700   */\n      pop\n        /* \"#utility.yul\":12813:13700   */\n      jump(tag_254)\n        /* \"#utility.yul\":12843:13461   */\n    tag_255:\n        /* \"#utility.yul\":12895:12899   */\n      0x1f\n        /* \"#utility.yul\":12891:12900   */\n      not\n        /* \"#utility.yul\":12883:12889   */\n      dup5\n        /* \"#utility.yul\":12879:12901   */\n      and\n        /* \"#utility.yul\":12929:12966   */\n      tag_258\n        /* \"#utility.yul\":12961:12965   */\n      dup7\n        /* \"#utility.yul\":12929:12966   */\n      tag_97\n      jump\t// in\n    tag_258:\n        /* \"#utility.yul\":12988:12989   */\n      0x00\n        /* \"#utility.yul\":13002:13210   */\n    tag_259:\n        /* \"#utility.yul\":13016:13023   */\n      dup3\n        /* \"#utility.yul\":13013:13014   */\n      dup2\n        /* \"#utility.yul\":13010:13024   */\n      lt\n        /* \"#utility.yul\":13002:13210   */\n      iszero\n      tag_261\n      jumpi\n        /* \"#utility.yul\":13095:13104   */\n      dup5\n        /* \"#utility.yul\":13090:13093   */\n      dup10\n        /* \"#utility.yul\":13086:13105   */\n      add\n        /* \"#utility.yul\":13080:13106   */\n      mload\n        /* \"#utility.yul\":13072:13078   */\n      dup3\n        /* \"#utility.yul\":13065:13107   */\n      sstore\n        /* \"#utility.yul\":13146:13147   */\n      0x01\n        /* \"#utility.yul\":13138:13144   */\n      dup3\n        /* \"#utility.yul\":13134:13148   */\n      add\n        /* \"#utility.yul\":13124:13148   */\n      swap2\n      pop\n        /* \"#utility.yul\":13193:13195   */\n      0x20\n        /* \"#utility.yul\":13182:13191   */\n      dup6\n        /* \"#utility.yul\":13178:13196   */\n      add\n        /* \"#utility.yul\":13165:13196   */\n      swap5\n      pop\n        /* \"#utility.yul\":13039:13043   */\n      0x20\n        /* \"#utility.yul\":13036:13037   */\n      dup2\n        /* \"#utility.yul\":13032:13044   */\n      add\n        /* \"#utility.yul\":13027:13044   */\n      swap1\n      pop\n        /* \"#utility.yul\":13002:13210   */\n      jump(tag_259)\n    tag_261:\n        /* \"#utility.yul\":13238:13244   */\n      dup7\n        /* \"#utility.yul\":13229:13236   */\n      dup4\n        /* \"#utility.yul\":13226:13245   */\n      lt\n        /* \"#utility.yul\":13223:13402   */\n      iszero\n      tag_262\n      jumpi\n        /* \"#utility.yul\":13296:13305   */\n      dup5\n        /* \"#utility.yul\":13291:13294   */\n      dup10\n        /* \"#utility.yul\":13287:13306   */\n      add\n        /* \"#utility.yul\":13281:13307   */\n      mload\n        /* \"#utility.yul\":13339:13387   */\n      tag_263\n        /* \"#utility.yul\":13381:13385   */\n      0x1f\n        /* \"#utility.yul\":13373:13379   */\n      dup10\n        /* \"#utility.yul\":13369:13386   */\n      and\n        /* \"#utility.yul\":13358:13367   */\n      dup3\n        /* \"#utility.yul\":13339:13387   */\n      tag_110\n      jump\t// in\n    tag_263:\n        /* \"#utility.yul\":13331:13337   */\n      dup4\n        /* \"#utility.yul\":13324:13388   */\n      sstore\n        /* \"#utility.yul\":13246:13402   */\n      pop\n        /* \"#utility.yul\":13223:13402   */\n    tag_262:\n        /* \"#utility.yul\":13448:13449   */\n      0x01\n        /* \"#utility.yul\":13444:13445   */\n      0x02\n        /* \"#utility.yul\":13436:13442   */\n      dup9\n        /* \"#utility.yul\":13432:13446   */\n      mul\n        /* \"#utility.yul\":13428:13450   */\n      add\n        /* \"#utility.yul\":13422:13426   */\n      dup9\n        /* \"#utility.yul\":13415:13451   */\n      sstore\n        /* \"#utility.yul\":12850:13461   */\n      pop\n      pop\n      pop\n        /* \"#utility.yul\":12813:13700   */\n    tag_254:\n      pop\n        /* \"#utility.yul\":12403:13706   */\n      pop\n      pop\n      pop\n        /* \"#utility.yul\":12311:13706   */\n      pop\n      pop\n      jump\t// out\n        /* \"#utility.yul\":13712:13892   */\n    tag_112:\n        /* \"#utility.yul\":13760:13837   */\n      0x4e487b7100000000000000000000000000000000000000000000000000000000\n        /* \"#utility.yul\":13757:13758   */\n      0x00\n        /* \"#utility.yul\":13750:13838   */\n      mstore\n        /* \"#utility.yul\":13857:13861   */\n      0x11\n        /* \"#utility.yul\":13854:13855   */\n      0x04\n        /* \"#utility.yul\":13847:13862   */\n      mstore\n        /* \"#utility.yul\":13881:13885   */\n      0x24\n        /* \"#utility.yul\":13878:13879   */\n      0x00\n        /* \"#utility.yul\":13871:13886   */\n      revert\n        /* \"#utility.yul\":13898:14131   */\n    tag_61:\n        /* \"#utility.yul\":13937:13940   */\n      0x00\n        /* \"#utility.yul\":13960:13984   */\n      tag_266\n        /* \"#utility.yul\":13978:13983   */\n      dup3\n        /* \"#utility.yul\":13960:13984   */\n      tag_71\n      jump\t// in\n    tag_266:\n        /* \"#utility.yul\":13951:13984   */\n      swap2\n      pop\n        /* \"#utility.yul\":14006:14072   */\n      0xffffffffffffffffffffffffffffffffffffffffffffffffffffffffffffffff\n        /* \"#utility.yul\":13999:14004   */\n      dup3\n        /* \"#utility.yul\":13996:14073   */\n      sub\n        /* \"#utility.yul\":13993:14096   */\n      tag_267\n      jumpi\n        /* \"#utility.yul\":14076:14094   */\n      tag_268\n      tag_112\n      jump\t// in\n    tag_268:\n        /* \"#utility.yul\":13993:14096   */\n    tag_267:\n        /* \"#utility.yul\":14123:14124   */\n      0x01\n        /* \"#utility.yul\":14116:14121   */\n      dup3\n        /* \"#utility.yul\":14112:14125   */\n      add\n        /* \"#utility.yul\":14105:14125   */\n      swap1\n      pop\n        /* \"#utility.yul\":13898:14131   */\n      swap2\n      swap1\n      pop\n      jump\t// out\n\n    auxdata: 0xa2646970667358221220030288abc24ae16c8a4db0b09202cb8b771bac5ec3d1acc1cacf623d97f9731964736f6c634300081f0033\n}\n",
				"bytecode": {
					"linkReferences": {},
					"object": "60806040525f5f553480156011575f5ffd5b50610c918061001f5f395ff3fe608060405234801561000f575f5ffd5b5060043610610055575f3560e01c806305a1b4a91461005957806353256135146100895780637c9cd2bc146100a75780637ff5eed1146100c35780639f20bc92146100e1575b5f5ffd5b610073600480360381019061006e9190610562565b610111565b6040516100809190610610565b60405180910390f35b6100916101b7565b60405161009e9190610733565b60405180910390f35b6100c160048036038101906100bc919061087f565b6103be565b005b6100cb610494565b6040516100d891906108d5565b60405180910390f35b6100fb60048036038101906100f69190610562565b610499565b60405161010891906108d5565b60405180910390f35b6001602052815f5260405f20602052805f5260405f205f915091505080546101389061091b565b80601f01602080910402602001604051908101604052809291908181526020018280546101649061091b565b80156101af5780601f10610186576101008083540402835291602001916101af565b820191905f5260205f20905b81548152906001019060200180831161019257829003601f168201915b505050505081565b60605f60025f3373ffffffffffffffffffffffffffffffffffffffff1673ffffffffffffffffffffffffffffffffffffffff1681526020019081526020015f208054905090505f8167ffffffffffffffff8111156102185761021761075b565b5b60405190808252806020026020018201604052801561024b57816020015b60608152602001906001900390816102365790505b5090505f5f90505b828110156103b5575f60025f3373ffffffffffffffffffffffffffffffffffffffff1673ffffffffffffffffffffffffffffffffffffffff1681526020019081526020015f2082815481106102ab576102aa61094b565b5b905f5260205f200154905060015f3373ffffffffffffffffffffffffffffffffffffffff1673ffffffffffffffffffffffffffffffffffffffff1681526020019081526020015f205f8281526020019081526020015f20805461030d9061091b565b80601f01602080910402602001604051908101604052809291908181526020018280546103399061091b565b80156103845780601f1061035b57610100808354040283529160200191610384565b820191905f5260205f20905b81548152906001019060200180831161036757829003601f168201915b505050505083838151811061039c5761039b61094b565b5b6020026020010181905250508080600101915050610253565b50809250505090565b8060015f3373ffffffffffffffffffffffffffffffffffffffff1673ffffffffffffffffffffffffffffffffffffffff1681526020019081526020015f205f5f5481526020019081526020015f2090816104189190610b18565b5060025f3373ffffffffffffffffffffffffffffffffffffffff1673ffffffffffffffffffffffffffffffffffffffff1681526020019081526020015f205f54908060018154018082558091505060019003905f5260205f20015f90919091909150555f5f81548092919061048c90610c14565b919050555050565b5f5481565b6002602052815f5260405f2081815481106104b2575f80fd5b905f5260205f20015f91509150505481565b5f604051905090565b5f5ffd5b5f5ffd5b5f73ffffffffffffffffffffffffffffffffffffffff82169050919050565b5f6104fe826104d5565b9050919050565b61050e816104f4565b8114610518575f5ffd5b50565b5f8135905061052981610505565b92915050565b5f819050919050565b6105418161052f565b811461054b575f5ffd5b50565b5f8135905061055c81610538565b92915050565b5f5f60408385031215610578576105776104cd565b5b5f6105858582860161051b565b92505060206105968582860161054e565b9150509250929050565b5f81519050919050565b5f82825260208201905092915050565b8281835e5f83830152505050565b5f601f19601f8301169050919050565b5f6105e2826105a0565b6105ec81856105aa565b93506105fc8185602086016105ba565b610605816105c8565b840191505092915050565b5f6020820190508181035f83015261062881846105d8565b905092915050565b5f81519050919050565b5f82825260208201905092915050565b5f819050602082019050919050565b5f82825260208201905092915050565b5f610673826105a0565b61067d8185610659565b935061068d8185602086016105ba565b610696816105c8565b840191505092915050565b5f6106ac8383610669565b905092915050565b5f602082019050919050565b5f6106ca82610630565b6106d4818561063a565b9350836020820285016106e68561064a565b805f5b85811015610721578484038952815161070285826106a1565b945061070d836106b4565b925060208a019950506001810190506106e9565b50829750879550505050505092915050565b5f6020820190508181035f83015261074b81846106c0565b905092915050565b5f5ffd5b5f5ffd5b7f4e487b71000000000000000000000000000000000000000000000000000000005f52604160045260245ffd5b610791826105c8565b810181811067ffffffffffffffff821117156107b0576107af61075b565b5b80604052505050565b5f6107c26104c4565b90506107ce8282610788565b919050565b5f67ffffffffffffffff8211156107ed576107ec61075b565b5b6107f6826105c8565b9050602081019050919050565b828183375f83830152505050565b5f61082361081e846107d3565b6107b9565b90508281526020810184848401111561083f5761083e610757565b5b61084a848285610803565b509392505050565b5f82601f83011261086657610865610753565b5b8135610876848260208601610811565b91505092915050565b5f60208284031215610894576108936104cd565b5b5f82013567ffffffffffffffff8111156108b1576108b06104d1565b5b6108bd84828501610852565b91505092915050565b6108cf8161052f565b82525050565b5f6020820190506108e85f8301846108c6565b92915050565b7f4e487b71000000000000000000000000000000000000000000000000000000005f52602260045260245ffd5b5f600282049050600182168061093257607f821691505b602082108103610945576109446108ee565b5b50919050565b7f4e487b71000000000000000000000000000000000000000000000000000000005f52603260045260245ffd5b5f819050815f5260205f209050919050565b5f6020601f8301049050919050565b5f82821b905092915050565b5f600883026109d47fffffffffffffffffffffffffffffffffffffffffffffffffffffffffffffffff82610999565b6109de8683610999565b95508019841693508086168417925050509392505050565b5f819050919050565b5f610a19610a14610a0f8461052f565b6109f6565b61052f565b9050919050565b5f819050919050565b610a32836109ff565b610a46610a3e82610a20565b8484546109a5565b825550505050565b5f5f905090565b610a5d610a4e565b610a68818484610a29565b505050565b5b81811015610a8b57610a805f82610a55565b600181019050610a6e565b5050565b601f821115610ad057610aa181610978565b610aaa8461098a565b81016020851015610ab9578190505b610acd610ac58561098a565b830182610a6d565b50505b505050565b5f82821c905092915050565b5f610af05f1984600802610ad5565b1980831691505092915050565b5f610b088383610ae1565b9150826002028217905092915050565b610b21826105a0565b67ffffffffffffffff811115610b3a57610b3961075b565b5b610b44825461091b565b610b4f828285610a8f565b5f60209050601f831160018114610b80575f8415610b6e578287015190505b610b788582610afd565b865550610bdf565b601f198416610b8e86610978565b5f5b82811015610bb557848901518255600182019150602085019450602081019050610b90565b86831015610bd25784890151610bce601f891682610ae1565b8355505b6001600288020188555050505b505050505050565b7f4e487b71000000000000000000000000000000000000000000000000000000005f52601160045260245ffd5b5f610c1e8261052f565b91507fffffffffffffffffffffffffffffffffffffffffffffffffffffffffffffffff8203610c5057610c4f610be7565b5b60018201905091905056fea2646970667358221220030288abc24ae16c8a4db0b09202cb8b771bac5ec3d1acc1cacf623d97f9731964736f6c634300081f0033",
					"opcodes": "PUSH1 0x80 PUSH1 0x40 MSTORE PUSH0 PUSH0 SSTORE CALLVALUE DUP1 ISZERO PUSH1 0x11 JUMPI PUSH0 PUSH0 REVERT JUMPDEST POP PUSH2 0xC91 DUP1 PUSH2 0x1F PUSH0 CODECOPY PUSH0 RETURN INVALID PUSH1 0x80 PUSH1 0x40 MSTORE CALLVALUE DUP1 ISZERO PUSH2 0xF JUMPI PUSH0 PUSH0 REVERT JUMPDEST POP PUSH1 0x4 CALLDATASIZE LT PUSH2 0x55 JUMPI PUSH0 CALLDATALOAD PUSH1 0xE0 SHR DUP1 PUSH4 0x5A1B4A9 EQ PUSH2 0x59 JUMPI DUP1 PUSH4 0x53256135 EQ PUSH2 0x89 JUMPI DUP1 PUSH4 0x7C9CD2BC EQ PUSH2 0xA7 JUMPI DUP1 PUSH4 0x7FF5EED1 EQ PUSH2 0xC3 JUMPI DUP1 PUSH4 0x9F20BC92 EQ PUSH2 0xE1 JUMPI JUMPDEST PUSH0 PUSH0 REVERT JUMPDEST PUSH2 0x73 PUSH1 0x4 DUP1 CALLDATASIZE SUB DUP2 ADD SWAP1 PUSH2 0x6E SWAP2 SWAP1 PUSH2 0x562 JUMP JUMPDEST PUSH2 0x111 JUMP JUMPDEST PUSH1 0x40 MLOAD PUSH2 0x80 SWAP2 SWAP1 PUSH2 0x610 JUMP JUMPDEST PUSH1 0x40 MLOAD DUP1 SWAP2 SUB SWAP1 RETURN JUMPDEST PUSH2 0x91 PUSH2 0x1B7 JUMP JUMPDEST PUSH1 0x40 MLOAD PUSH2 0x9E SWAP2 SWAP1 PUSH2 0x733 JUMP JUMPDEST PUSH1 0x40 MLOAD DUP1 SWAP2 SUB SWAP1 RETURN JUMPDEST PUSH2 0xC1 PUSH1 0x4 DUP1 CALLDATASIZE SUB DUP2 ADD SWAP1 PUSH2 0xBC SWAP2 SWAP1 PUSH2 0x87F JUMP JUMPDEST PUSH2 0x3BE JUMP JUMPDEST STOP JUMPDEST PUSH2 0xCB PUSH2 0x494 JUMP JUMPDEST PUSH1 0x40 MLOAD PUSH2 0xD8 SWAP2 SWAP1 PUSH2 0x8D5 JUMP JUMPDEST PUSH1 0x40 MLOAD DUP1 SWAP2 SUB SWAP1 RETURN JUMPDEST PUSH2 0xFB PUSH1 0x4 DUP1 CALLDATASIZE SUB DUP2 ADD SWAP1 PUSH2 0xF6 SWAP2 SWAP1 PUSH2 0x562 JUMP JUMPDEST PUSH2 0x499 JUMP JUMPDEST PUSH1 0x40 MLOAD PUSH2 0x108 SWAP2 SWAP1 PUSH2 0x8D5 JUMP JUMPDEST PUSH1 0x40 MLOAD DUP1 SWAP2 SUB SWAP1 RETURN JUMPDEST PUSH1 0x1 PUSH1 0x20 MSTORE DUP2 PUSH0 MSTORE PUSH1 0x40 PUSH0 KECCAK256 PUSH1 0x20 MSTORE DUP1 PUSH0 MSTORE PUSH1 0x40 PUSH0 KECCAK256 PUSH0 SWAP2 POP SWAP2 POP POP DUP1 SLOAD PUSH2 0x138 SWAP1 PUSH2 0x91B JUMP JUMPDEST DUP1 PUSH1 0x1F ADD PUSH1 0x20 DUP1 SWAP2 DIV MUL PUSH1 0x20 ADD PUSH1 0x40 MLOAD SWAP1 DUP2 ADD PUSH1 0x40 MSTORE DUP1 SWAP3 SWAP2 SWAP1 DUP2 DUP2 MSTORE PUSH1 0x20 ADD DUP3 DUP1 SLOAD PUSH2 0x164 SWAP1 PUSH2 0x91B JUMP JUMPDEST DUP1 ISZERO PUSH2 0x1AF JUMPI DUP1 PUSH1 0x1F LT PUSH2 0x186 JUMPI PUSH2 0x100 DUP1 DUP4 SLOAD DIV MUL DUP4 MSTORE SWAP2 PUSH1 0x20 ADD SWAP2 PUSH2 0x1AF JUMP JUMPDEST DUP3 ADD SWAP2 SWAP1 PUSH0 MSTORE PUSH1 0x20 PUSH0 KECCAK256 SWAP1 JUMPDEST DUP2 SLOAD DUP2 MSTORE SWAP1 PUSH1 0x1 ADD SWAP1 PUSH1 0x20 ADD DUP1 DUP4 GT PUSH2 0x192 JUMPI DUP3 SWAP1 SUB PUSH1 0x1F AND DUP3 ADD SWAP2 JUMPDEST POP POP POP POP POP DUP2 JUMP JUMPDEST PUSH1 0x60 PUSH0 PUSH1 0x2 PUSH0 CALLER PUSH20 0xFFFFFFFFFFFFFFFFFFFFFFFFFFFFFFFFFFFFFFFF AND PUSH20 0xFFFFFFFFFFFFFFFFFFFFFFFFFFFFFFFFFFFFFFFF AND DUP2 MSTORE PUSH1 0x20 ADD SWAP1 DUP2 MSTORE PUSH1 0x20 ADD PUSH0 KECCAK256 DUP1 SLOAD SWAP1 POP SWAP1 POP PUSH0 DUP2 PUSH8 0xFFFFFFFFFFFFFFFF DUP2 GT ISZERO PUSH2 0x218 JUMPI PUSH2 0x217 PUSH2 0x75B JUMP JUMPDEST JUMPDEST PUSH1 0x40 MLOAD SWAP1 DUP1 DUP3 MSTORE DUP1 PUSH1 0x20 MUL PUSH1 0x20 ADD DUP3 ADD PUSH1 0x40 MSTORE DUP1 ISZERO PUSH2 0x24B JUMPI DUP2 PUSH1 0x20 ADD JUMPDEST PUSH1 0x60 DUP2 MSTORE PUSH1 0x20 ADD SWAP1 PUSH1 0x1 SWAP1 SUB SWAP1 DUP2 PUSH2 0x236 JUMPI SWAP1 POP JUMPDEST POP SWAP1 POP PUSH0 PUSH0 SWAP1 POP JUMPDEST DUP3 DUP2 LT ISZERO PUSH2 0x3B5 JUMPI PUSH0 PUSH1 0x2 PUSH0 CALLER PUSH20 0xFFFFFFFFFFFFFFFFFFFFFFFFFFFFFFFFFFFFFFFF AND PUSH20 0xFFFFFFFFFFFFFFFFFFFFFFFFFFFFFFFFFFFFFFFF AND DUP2 MSTORE PUSH1 0x20 ADD SWAP1 DUP2 MSTORE PUSH1 0x20 ADD PUSH0 KECCAK256 DUP3 DUP2 SLOAD DUP2 LT PUSH2 0x2AB JUMPI PUSH2 0x2AA PUSH2 0x94B JUMP JUMPDEST JUMPDEST SWAP1 PUSH0 MSTORE PUSH1 0x20 PUSH0 KECCAK256 ADD SLOAD SWAP1 POP PUSH1 0x1 PUSH0 CALLER PUSH20 0xFFFFFFFFFFFFFFFFFFFFFFFFFFFFFFFFFFFFFFFF AND PUSH20 0xFFFFFFFFFFFFFFFFFFFFFFFFFFFFFFFFFFFFFFFF AND DUP2 MSTORE PUSH1 0x20 ADD SWAP1 DUP2 MSTORE PUSH1 0x20 ADD PUSH0 KECCAK256 PUSH0 DUP3 DUP2 MSTORE PUSH1 0x20 ADD SWAP1 DUP2 MSTORE PUSH1 0x20 ADD PUSH0 KECCAK256 DUP1 SLOAD PUSH2 0x30D SWAP1 PUSH2 0x91B JUMP JUMPDEST DUP1 PUSH1 0x1F ADD PUSH1 0x20 DUP1 SWAP2 DIV MUL PUSH1 0x20 ADD PUSH1 0x40 MLOAD SWAP1 DUP2 ADD PUSH1 0x40 MSTORE DUP1 SWAP3 SWAP2 SWAP1 DUP2 DUP2 MSTORE PUSH1 0x20 ADD DUP3 DUP1 SLOAD PUSH2 0x339 SWAP1 PUSH2 0x91B JUMP JUMPDEST DUP1 ISZERO PUSH2 0x384 JUMPI DUP1 PUSH1 0x1F LT PUSH2 0x35B JUMPI PUSH2 0x100 DUP1 DUP4 SLOAD DIV MUL DUP4 MSTORE SWAP2 PUSH1 0x20 ADD SWAP2 PUSH2 0x384 JUMP JUMPDEST DUP3 ADD SWAP2 SWAP1 PUSH0 MSTORE PUSH1 0x20 PUSH0 KECCAK256 SWAP1 JUMPDEST DUP2 SLOAD DUP2 MSTORE SWAP1 PUSH1 0x1 ADD SWAP1 PUSH1 0x20 ADD DUP1 DUP4 GT PUSH2 0x367 JUMPI DUP3 SWAP1 SUB PUSH1 0x1F AND DUP3 ADD SWAP2 JUMPDEST POP POP POP POP POP DUP4 DUP4 DUP2 MLOAD DUP2 LT PUSH2 0x39C JUMPI PUSH2 0x39B PUSH2 0x94B JUMP JUMPDEST JUMPDEST PUSH1 0x20 MUL PUSH1 0x20 ADD ADD DUP2 SWAP1 MSTORE POP POP DUP1 DUP1 PUSH1 0x1 ADD SWAP2 POP POP PUSH2 0x253 JUMP JUMPDEST POP DUP1 SWAP3 POP POP POP SWAP1 JUMP JUMPDEST DUP1 PUSH1 0x1 PUSH0 CALLER PUSH20 0xFFFFFFFFFFFFFFFFFFFFFFFFFFFFFFFFFFFFFFFF AND PUSH20 0xFFFFFFFFFFFFFFFFFFFFFFFFFFFFFFFFFFFFFFFF AND DUP2 MSTORE PUSH1 0x20 ADD SWAP1 DUP2 MSTORE PUSH1 0x20 ADD PUSH0 KECCAK256 PUSH0 PUSH0 SLOAD DUP2 MSTORE PUSH1 0x20 ADD SWAP1 DUP2 MSTORE PUSH1 0x20 ADD PUSH0 KECCAK256 SWAP1 DUP2 PUSH2 0x418 SWAP2 SWAP1 PUSH2 0xB18 JUMP JUMPDEST POP PUSH1 0x2 PUSH0 CALLER PUSH20 0xFFFFFFFFFFFFFFFFFFFFFFFFFFFFFFFFFFFFFFFF AND PUSH20 0xFFFFFFFFFFFFFFFFFFFFFFFFFFFFFFFFFFFFFFFF AND DUP2 MSTORE PUSH1 0x20 ADD SWAP1 DUP2 MSTORE PUSH1 0x20 ADD PUSH0 KECCAK256 PUSH0 SLOAD SWAP1 DUP1 PUSH1 0x1 DUP2 SLOAD ADD DUP1 DUP3 SSTORE DUP1 SWAP2 POP POP PUSH1 0x1 SWAP1 SUB SWAP1 PUSH0 MSTORE PUSH1 0x20 PUSH0 KECCAK256 ADD PUSH0 SWAP1 SWAP2 SWAP1 SWAP2 SWAP1 SWAP2 POP SSTORE PUSH0 PUSH0 DUP2 SLOAD DUP1 SWAP3 SWAP2 SWAP1 PUSH2 0x48C SWAP1 PUSH2 0xC14 JUMP JUMPDEST SWAP2 SWAP1 POP SSTORE POP POP JUMP JUMPDEST PUSH0 SLOAD DUP2 JUMP JUMPDEST PUSH1 0x2 PUSH1 0x20 MSTORE DUP2 PUSH0 MSTORE PUSH1 0x40 PUSH0 KECCAK256 DUP2 DUP2 SLOAD DUP2 LT PUSH2 0x4B2 JUMPI PUSH0 DUP1 REVERT JUMPDEST SWAP1 PUSH0 MSTORE PUSH1 0x20 PUSH0 KECCAK256 ADD PUSH0 SWAP2 POP SWAP2 POP POP SLOAD DUP2 JUMP JUMPDEST PUSH0 PUSH1 0x40 MLOAD SWAP1 POP SWAP1 JUMP JUMPDEST PUSH0 PUSH0 REVERT JUMPDEST PUSH0 PUSH0 REVERT JUMPDEST PUSH0 PUSH20 0xFFFFFFFFFFFFFFFFFFFFFFFFFFFFFFFFFFFFFFFF DUP3 AND SWAP1 POP SWAP2 SWAP1 POP JUMP JUMPDEST PUSH0 PUSH2 0x4FE DUP3 PUSH2 0x4D5 JUMP JUMPDEST SWAP1 POP SWAP2 SWAP1 POP JUMP JUMPDEST PUSH2 0x50E DUP2 PUSH2 0x4F4 JUMP JUMPDEST DUP2 EQ PUSH2 0x518 JUMPI PUSH0 PUSH0 REVERT JUMPDEST POP JUMP JUMPDEST PUSH0 DUP2 CALLDATALOAD SWAP1 POP PUSH2 0x529 DUP2 PUSH2 0x505 JUMP JUMPDEST SWAP3 SWAP2 POP POP JUMP JUMPDEST PUSH0 DUP2 SWAP1 POP SWAP2 SWAP1 POP JUMP JUMPDEST PUSH2 0x541 DUP2 PUSH2 0x52F JUMP JUMPDEST DUP2 EQ PUSH2 0x54B JUMPI PUSH0 PUSH0 REVERT JUMPDEST POP JUMP JUMPDEST PUSH0 DUP2 CALLDATALOAD SWAP1 POP PUSH2 0x55C DUP2 PUSH2 0x538 JUMP JUMPDEST SWAP3 SWAP2 POP POP JUMP JUMPDEST PUSH0 PUSH0 PUSH1 0x40 DUP4 DUP6 SUB SLT ISZERO PUSH2 0x578 JUMPI PUSH2 0x577 PUSH2 0x4CD JUMP JUMPDEST JUMPDEST PUSH0 PUSH2 0x585 DUP6 DUP3 DUP7 ADD PUSH2 0x51B JUMP JUMPDEST SWAP3 POP POP PUSH1 0x20 PUSH2 0x596 DUP6 DUP3 DUP7 ADD PUSH2 0x54E JUMP JUMPDEST SWAP2 POP POP SWAP3 POP SWAP3 SWAP1 POP JUMP JUMPDEST PUSH0 DUP2 MLOAD SWAP1 POP SWAP2 SWAP1 POP JUMP JUMPDEST PUSH0 DUP3 DUP3 MSTORE PUSH1 0x20 DUP3 ADD SWAP1 POP SWAP3 SWAP2 POP POP JUMP JUMPDEST DUP3 DUP2 DUP4 MCOPY PUSH0 DUP4 DUP4 ADD MSTORE POP POP POP JUMP JUMPDEST PUSH0 PUSH1 0x1F NOT PUSH1 0x1F DUP4 ADD AND SWAP1 POP SWAP2 SWAP1 POP JUMP JUMPDEST PUSH0 PUSH2 0x5E2 DUP3 PUSH2 0x5A0 JUMP JUMPDEST PUSH2 0x5EC DUP2 DUP6 PUSH2 0x5AA JUMP JUMPDEST SWAP4 POP PUSH2 0x5FC DUP2 DUP6 PUSH1 0x20 DUP7 ADD PUSH2 0x5BA JUMP JUMPDEST PUSH2 0x605 DUP2 PUSH2 0x5C8 JUMP JUMPDEST DUP5 ADD SWAP2 POP POP SWAP3 SWAP2 POP POP JUMP JUMPDEST PUSH0 PUSH1 0x20 DUP3 ADD SWAP1 POP DUP2 DUP2 SUB PUSH0 DUP4 ADD MSTORE PUSH2 0x628 DUP2 DUP5 PUSH2 0x5D8 JUMP JUMPDEST SWAP1 POP SWAP3 SWAP2 POP POP JUMP JUMPDEST PUSH0 DUP2 MLOAD SWAP1 POP SWAP2 SWAP1 POP JUMP JUMPDEST PUSH0 DUP3 DUP3 MSTORE PUSH1 0x20 DUP3 ADD SWAP1 POP SWAP3 SWAP2 POP POP JUMP JUMPDEST PUSH0 DUP2 SWAP1 POP PUSH1 0x20 DUP3 ADD SWAP1 POP SWAP2 SWAP1 POP JUMP JUMPDEST PUSH0 DUP3 DUP3 MSTORE PUSH1 0x20 DUP3 ADD SWAP1 POP SWAP3 SWAP2 POP POP JUMP JUMPDEST PUSH0 PUSH2 0x673 DUP3 PUSH2 0x5A0 JUMP JUMPDEST PUSH2 0x67D DUP2 DUP6 PUSH2 0x659 JUMP JUMPDEST SWAP4 POP PUSH2 0x68D DUP2 DUP6 PUSH1 0x20 DUP7 ADD PUSH2 0x5BA JUMP JUMPDEST PUSH2 0x696 DUP2 PUSH2 0x5C8 JUMP JUMPDEST DUP5 ADD SWAP2 POP POP SWAP3 SWAP2 POP POP JUMP JUMPDEST PUSH0 PUSH2 0x6AC DUP4 DUP4 PUSH2 0x669 JUMP JUMPDEST SWAP1 POP SWAP3 SWAP2 POP POP JUMP JUMPDEST PUSH0 PUSH1 0x20 DUP3 ADD SWAP1 POP SWAP2 SWAP1 POP JUMP JUMPDEST PUSH0 PUSH2 0x6CA DUP3 PUSH2 0x630 JUMP JUMPDEST PUSH2 0x6D4 DUP2 DUP6 PUSH2 0x63A JUMP JUMPDEST SWAP4 POP DUP4 PUSH1 0x20 DUP3 MUL DUP6 ADD PUSH2 0x6E6 DUP6 PUSH2 0x64A JUMP JUMPDEST DUP1 PUSH0 JUMPDEST DUP6 DUP2 LT ISZERO PUSH2 0x721 JUMPI DUP5 DUP5 SUB DUP10 MSTORE DUP2 MLOAD PUSH2 0x702 DUP6 DUP3 PUSH2 0x6A1 JUMP JUMPDEST SWAP5 POP PUSH2 0x70D DUP4 PUSH2 0x6B4 JUMP JUMPDEST SWAP3 POP PUSH1 0x20 DUP11 ADD SWAP10 POP POP PUSH1 0x1 DUP2 ADD SWAP1 POP PUSH2 0x6E9 JUMP JUMPDEST POP DUP3 SWAP8 POP DUP8 SWAP6 POP POP POP POP POP POP SWAP3 SWAP2 POP POP JUMP JUMPDEST PUSH0 PUSH1 0x20 DUP3 ADD SWAP1 POP DUP2 DUP2 SUB PUSH0 DUP4 ADD MSTORE PUSH2 0x74B DUP2 DUP5 PUSH2 0x6C0 JUMP JUMPDEST SWAP1 POP SWAP3 SWAP2 POP POP JUMP JUMPDEST PUSH0 PUSH0 REVERT JUMPDEST PUSH0 PUSH0 REVERT JUMPDEST PUSH32 0x4E487B7100000000000000000000000000000000000000000000000000000000 PUSH0 MSTORE PUSH1 0x41 PUSH1 0x4 MSTORE PUSH1 0x24 PUSH0 REVERT JUMPDEST PUSH2 0x791 DUP3 PUSH2 0x5C8 JUMP JUMPDEST DUP2 ADD DUP2 DUP2 LT PUSH8 0xFFFFFFFFFFFFFFFF DUP3 GT OR ISZERO PUSH2 0x7B0 JUMPI PUSH2 0x7AF PUSH2 0x75B JUMP JUMPDEST JUMPDEST DUP1 PUSH1 0x40 MSTORE POP POP POP JUMP JUMPDEST PUSH0 PUSH2 0x7C2 PUSH2 0x4C4 JUMP JUMPDEST SWAP1 POP PUSH2 0x7CE DUP3 DUP3 PUSH2 0x788 JUMP JUMPDEST SWAP2 SWAP1 POP JUMP JUMPDEST PUSH0 PUSH8 0xFFFFFFFFFFFFFFFF DUP3 GT ISZERO PUSH2 0x7ED JUMPI PUSH2 0x7EC PUSH2 0x75B JUMP JUMPDEST JUMPDEST PUSH2 0x7F6 DUP3 PUSH2 0x5C8 JUMP JUMPDEST SWAP1 POP PUSH1 0x20 DUP2 ADD SWAP1 POP SWAP2 SWAP1 POP JUMP JUMPDEST DUP3 DUP2 DUP4 CALLDATACOPY PUSH0 DUP4 DUP4 ADD MSTORE POP POP POP JUMP JUMPDEST PUSH0 PUSH2 0x823 PUSH2 0x81E DUP5 PUSH2 0x7D3 JUMP JUMPDEST PUSH2 0x7B9 JUMP JUMPDEST SWAP1 POP DUP3 DUP2 MSTORE PUSH1 0x20 DUP2 ADD DUP5 DUP5 DUP5 ADD GT ISZERO PUSH2 0x83F JUMPI PUSH2 0x83E PUSH2 0x757 JUMP JUMPDEST JUMPDEST PUSH2 0x84A DUP5 DUP3 DUP6 PUSH2 0x803 JUMP JUMPDEST POP SWAP4 SWAP3 POP POP POP JUMP JUMPDEST PUSH0 DUP3 PUSH1 0x1F DUP4 ADD SLT PUSH2 0x866 JUMPI PUSH2 0x865 PUSH2 0x753 JUMP JUMPDEST JUMPDEST DUP2 CALLDATALOAD PUSH2 0x876 DUP5 DUP3 PUSH1 0x20 DUP7 ADD PUSH2 0x811 JUMP JUMPDEST SWAP2 POP POP SWAP3 SWAP2 POP POP JUMP JUMPDEST PUSH0 PUSH1 0x20 DUP3 DUP5 SUB SLT ISZERO PUSH2 0x894 JUMPI PUSH2 0x893 PUSH2 0x4CD JUMP JUMPDEST JUMPDEST PUSH0 DUP3 ADD CALLDATALOAD PUSH8 0xFFFFFFFFFFFFFFFF DUP2 GT ISZERO PUSH2 0x8B1 JUMPI PUSH2 0x8B0 PUSH2 0x4D1 JUMP JUMPDEST JUMPDEST PUSH2 0x8BD DUP5 DUP3 DUP6 ADD PUSH2 0x852 JUMP JUMPDEST SWAP2 POP POP SWAP3 SWAP2 POP POP JUMP JUMPDEST PUSH2 0x8CF DUP2 PUSH2 0x52F JUMP JUMPDEST DUP3 MSTORE POP POP JUMP JUMPDEST PUSH0 PUSH1 0x20 DUP3 ADD SWAP1 POP PUSH2 0x8E8 PUSH0 DUP4 ADD DUP5 PUSH2 0x8C6 JUMP JUMPDEST SWAP3 SWAP2 POP POP JUMP JUMPDEST PUSH32 0x4E487B7100000000000000000000000000000000000000000000000000000000 PUSH0 MSTORE PUSH1 0x22 PUSH1 0x4 MSTORE PUSH1 0x24 PUSH0 REVERT JUMPDEST PUSH0 PUSH1 0x2 DUP3 DIV SWAP1 POP PUSH1 0x1 DUP3 AND DUP1 PUSH2 0x932 JUMPI PUSH1 0x7F DUP3 AND SWAP2 POP JUMPDEST PUSH1 0x20 DUP3 LT DUP2 SUB PUSH2 0x945 JUMPI PUSH2 0x944 PUSH2 0x8EE JUMP JUMPDEST JUMPDEST POP SWAP2 SWAP1 POP JUMP JUMPDEST PUSH32 0x4E487B7100000000000000000000000000000000000000000000000000000000 PUSH0 MSTORE PUSH1 0x32 PUSH1 0x4 MSTORE PUSH1 0x24 PUSH0 REVERT JUMPDEST PUSH0 DUP2 SWAP1 POP DUP2 PUSH0 MSTORE PUSH1 0x20 PUSH0 KECCAK256 SWAP1 POP SWAP2 SWAP1 POP JUMP JUMPDEST PUSH0 PUSH1 0x20 PUSH1 0x1F DUP4 ADD DIV SWAP1 POP SWAP2 SWAP1 POP JUMP JUMPDEST PUSH0 DUP3 DUP3 SHL SWAP1 POP SWAP3 SWAP2 POP POP JUMP JUMPDEST PUSH0 PUSH1 0x8 DUP4 MUL PUSH2 0x9D4 PUSH32 0xFFFFFFFFFFFFFFFFFFFFFFFFFFFFFFFFFFFFFFFFFFFFFFFFFFFFFFFFFFFFFFFF DUP3 PUSH2 0x999 JUMP JUMPDEST PUSH2 0x9DE DUP7 DUP4 PUSH2 0x999 JUMP JUMPDEST SWAP6 POP DUP1 NOT DUP5 AND SWAP4 POP DUP1 DUP7 AND DUP5 OR SWAP3 POP POP POP SWAP4 SWAP3 POP POP POP JUMP JUMPDEST PUSH0 DUP2 SWAP1 POP SWAP2 SWAP1 POP JUMP JUMPDEST PUSH0 PUSH2 0xA19 PUSH2 0xA14 PUSH2 0xA0F DUP5 PUSH2 0x52F JUMP JUMPDEST PUSH2 0x9F6 JUMP JUMPDEST PUSH2 0x52F JUMP JUMPDEST SWAP1 POP SWAP2 SWAP1 POP JUMP JUMPDEST PUSH0 DUP2 SWAP1 POP SWAP2 SWAP1 POP JUMP JUMPDEST PUSH2 0xA32 DUP4 PUSH2 0x9FF JUMP JUMPDEST PUSH2 0xA46 PUSH2 0xA3E DUP3 PUSH2 0xA20 JUMP JUMPDEST DUP5 DUP5 SLOAD PUSH2 0x9A5 JUMP JUMPDEST DUP3 SSTORE POP POP POP POP JUMP JUMPDEST PUSH0 PUSH0 SWAP1 POP SWAP1 JUMP JUMPDEST PUSH2 0xA5D PUSH2 0xA4E JUMP JUMPDEST PUSH2 0xA68 DUP2 DUP5 DUP5 PUSH2 0xA29 JUMP JUMPDEST POP POP POP JUMP JUMPDEST JUMPDEST DUP2 DUP2 LT ISZERO PUSH2 0xA8B JUMPI PUSH2 0xA80 PUSH0 DUP3 PUSH2 0xA55 JUMP JUMPDEST PUSH1 0x1 DUP2 ADD SWAP1 POP PUSH2 0xA6E JUMP JUMPDEST POP POP JUMP JUMPDEST PUSH1 0x1F DUP3 GT ISZERO PUSH2 0xAD0 JUMPI PUSH2 0xAA1 DUP2 PUSH2 0x978 JUMP JUMPDEST PUSH2 0xAAA DUP5 PUSH2 0x98A JUMP JUMPDEST DUP2 ADD PUSH1 0x20 DUP6 LT ISZERO PUSH2 0xAB9 JUMPI DUP2 SWAP1 POP JUMPDEST PUSH2 0xACD PUSH2 0xAC5 DUP6 PUSH2 0x98A JUMP JUMPDEST DUP4 ADD DUP3 PUSH2 0xA6D JUMP JUMPDEST POP POP JUMPDEST POP POP POP JUMP JUMPDEST PUSH0 DUP3 DUP3 SHR SWAP1 POP SWAP3 SWAP2 POP POP JUMP JUMPDEST PUSH0 PUSH2 0xAF0 PUSH0 NOT DUP5 PUSH1 0x8 MUL PUSH2 0xAD5 JUMP JUMPDEST NOT DUP1 DUP4 AND SWAP2 POP POP SWAP3 SWAP2 POP POP JUMP JUMPDEST PUSH0 PUSH2 0xB08 DUP4 DUP4 PUSH2 0xAE1 JUMP JUMPDEST SWAP2 POP DUP3 PUSH1 0x2 MUL DUP3 OR SWAP1 POP SWAP3 SWAP2 POP POP JUMP JUMPDEST PUSH2 0xB21 DUP3 PUSH2 0x5A0 JUMP JUMPDEST PUSH8 0xFFFFFFFFFFFFFFFF DUP2 GT ISZERO PUSH2 0xB3A JUMPI PUSH2 0xB39 PUSH2 0x75B JUMP JUMPDEST JUMPDEST PUSH2 0xB44 DUP3 SLOAD PUSH2 0x91B JUMP JUMPDEST PUSH2 0xB4F DUP3 DUP3 DUP6 PUSH2 0xA8F JUMP JUMPDEST PUSH0 PUSH1 0x20 SWAP1 POP PUSH1 0x1F DUP4 GT PUSH1 0x1 DUP2 EQ PUSH2 0xB80 JUMPI PUSH0 DUP5 ISZERO PUSH2 0xB6E JUMPI DUP3 DUP8 ADD MLOAD SWAP1 POP JUMPDEST PUSH2 0xB78 DUP6 DUP3 PUSH2 0xAFD JUMP JUMPDEST DUP7 SSTORE POP PUSH2 0xBDF JUMP JUMPDEST PUSH1 0x1F NOT DUP5 AND PUSH2 0xB8E DUP7 PUSH2 0x978 JUMP JUMPDEST PUSH0 JUMPDEST DUP3 DUP2 LT ISZERO PUSH2 0xBB5 JUMPI DUP5 DUP10 ADD MLOAD DUP3 SSTORE PUSH1 0x1 DUP3 ADD SWAP2 POP PUSH1 0x20 DUP6 ADD SWAP5 POP PUSH1 0x20 DUP2 ADD SWAP1 POP PUSH2 0xB90 JUMP JUMPDEST DUP7 DUP4 LT ISZERO PUSH2 0xBD2 JUMPI DUP5 DUP10 ADD MLOAD PUSH2 0xBCE PUSH1 0x1F DUP10 AND DUP3 PUSH2 0xAE1 JUMP JUMPDEST DUP4 SSTORE POP JUMPDEST PUSH1 0x1 PUSH1 0x2 DUP9 MUL ADD DUP9 SSTORE POP POP POP JUMPDEST POP POP POP POP POP POP JUMP JUMPDEST PUSH32 0x4E487B7100000000000000000000000000000000000000000000000000000000 PUSH0 MSTORE PUSH1 0x11 PUSH1 0x4 MSTORE PUSH1 0x24 PUSH0 REVERT JUMPDEST PUSH0 PUSH2 0xC1E DUP3 PUSH2 0x52F JUMP JUMPDEST SWAP2 POP PUSH32 0xFFFFFFFFFFFFFFFFFFFFFFFFFFFFFFFFFFFFFFFFFFFFFFFFFFFFFFFFFFFFFFFF DUP3 SUB PUSH2 0xC50 JUMPI PUSH2 0xC4F PUSH2 0xBE7 JUMP JUMPDEST JUMPDEST PUSH1 0x1 DUP3 ADD SWAP1 POP SWAP2 SWAP1 POP JUMP INVALID LOG2 PUSH5 0x6970667358 0x22 SLT KECCAK256 SUB MUL DUP9 0xAB 0xC2 BLOBBASEFEE RJUMPI 0x6C8A 0x4D 0xB0 0xB0 SWAP3 MUL 0xCB DUP12 PUSH24 0x1BAC5EC3D1ACC1CACF623D97F9731964736F6C634300081F STOP CALLER "
				},
				"gasEstimates": {
					"creation": {
						"codeDepositCost": "643400",
						"executionCost": "5678",
						"totalCost": "649078"
					},
					"external": {
						"createTweet(string)": "infinite",
						"getAllTweets()": "infinite",
						"ids(address,uint256)": "infinite",
						"tweetId()": "2468",
						"tweets(address,uint256)": "infinite"
					}
				},
				"methodIdentifiers": {
					"createTweet(string)": "7c9cd2bc",
					"getAllTweets()": "53256135",
					"ids(address,uint256)": "9f20bc92",
					"tweetId()": "7ff5eed1",
					"tweets(address,uint256)": "05a1b4a9"
				}
			},
			"storageLayout": {
				"storage": [
					{
						"astId": 4,
						"contract": "Twitter_dApp/contracts/twitter.sol:twitter",
						"label": "tweetId",
						"offset": 0,
						"slot": "0",
						"type": "t_uint256"
					},
					{
						"astId": 10,
						"contract": "Twitter_dApp/contracts/twitter.sol:twitter",
						"label": "tweets",
						"offset": 0,
						"slot": "1",
						"type": "t_mapping(t_address,t_mapping(t_uint256,t_string_storage))"
					},
					{
						"astId": 15,
						"contract": "Twitter_dApp/contracts/twitter.sol:twitter",
						"label": "ids",
						"offset": 0,
						"slot": "2",
						"type": "t_mapping(t_address,t_array(t_uint256)dyn_storage)"
					}
				],
				"types": {
					"t_address": {
						"encoding": "inplace",
						"label": "address",
						"numberOfBytes": "20"
					},
					"t_array(t_uint256)dyn_storage": {
						"base": "t_uint256",
						"encoding": "dynamic_array",
						"label": "uint256[]",
						"numberOfBytes": "32"
					},
					"t_mapping(t_address,t_array(t_uint256)dyn_storage)": {
						"encoding": "mapping",
						"key": "t_address",
						"label": "mapping(address => uint256[])",
						"numberOfBytes": "32",
						"value": "t_array(t_uint256)dyn_storage"
					},
					"t_mapping(t_address,t_mapping(t_uint256,t_string_storage))": {
						"encoding": "mapping",
						"key": "t_address",
						"label": "mapping(address => mapping(uint256 => string))",
						"numberOfBytes": "32",
						"value": "t_mapping(t_uint256,t_string_storage)"
					},
					"t_mapping(t_uint256,t_string_storage)": {
						"encoding": "mapping",
						"key": "t_uint256",
						"label": "mapping(uint256 => string)",
						"numberOfBytes": "32",
						"value": "t_string_storage"
					},
					"t_string_storage": {
						"encoding": "bytes",
						"label": "string",
						"numberOfBytes": "32"
					},
					"t_uint256": {
						"encoding": "inplace",
						"label": "uint256",
						"numberOfBytes": "32"
					}
				}
			},
			"userdoc": {
				"kind": "user",
				"methods": {},
				"version": 1
			}
		}
	}
}